{
  "transactions": [
    {
      "hash": "0x0ed5cdf58feb2d9b8c36a7931e17ec593cf185c625c41942bed5f1ccb3ef0f0a",
      "transactionType": "CALL",
      "contractName": null,
      "contractAddress": "0x11affeac94b440c3c332813450db66fb3285bfb2",
      "function": "approve(address,uint256)",
      "arguments": [
        "0x9140a78c1A137c7fF1c151EC8231272aF78a99A4",
        "115792089237316195423570985008687907853269984665640564039457584007913129639935"
      ],
      "transaction": {
        "from": "0xc5b7b574ee84a9b59b475fe32eaf908c246d3859",
        "to": "0x11affeac94b440c3c332813450db66fb3285bfb2",
        "gas": "0x991d",
        "value": "0x0",
        "input": "0x095ea7b30000000000000000000000009140a78c1a137c7ff1c151ec8231272af78a99a4ffffffffffffffffffffffffffffffffffffffffffffffffffffffffffffffff",
        "nonce": "0xe4",
        "chainId": "0x515"
      },
      "additionalContracts": [],
      "isFixedGasLimit": false
    },
    {
      "hash": "0x33f9295a1d2cac6b03535699ffe192d51c617f78f69cf0e4ce59fa8ec27d44cc",
      "transactionType": "CALL",
      "contractName": null,
      "contractAddress": "0x3c2d1a5c84b7f513ed07fe2e71df9538ac217f7c",
      "function": "approve(address,uint256)",
      "arguments": [
        "0x9140a78c1A137c7fF1c151EC8231272aF78a99A4",
        "115792089237316195423570985008687907853269984665640564039457584007913129639935"
      ],
      "transaction": {
        "from": "0xc5b7b574ee84a9b59b475fe32eaf908c246d3859",
        "to": "0x3c2d1a5c84b7f513ed07fe2e71df9538ac217f7c",
        "gas": "0x991d",
        "value": "0x0",
        "input": "0x095ea7b30000000000000000000000009140a78c1a137c7ff1c151ec8231272af78a99a4ffffffffffffffffffffffffffffffffffffffffffffffffffffffffffffffff",
        "nonce": "0xe5",
        "chainId": "0x515"
      },
      "additionalContracts": [],
      "isFixedGasLimit": false
    },
    {
      "hash": "0xd79aeffd4167cfc86272c721bbb58201afbc3489fe35300b99e2c0ca89d29fff",
      "transactionType": "CALL",
      "contractName": null,
      "contractAddress": "0x9140a78c1a137c7ff1c151ec8231272af78a99a4",
      "function": "swap((address,address,uint24,int24,address),(bool,int256,uint160),(bool,bool),bytes)",
      "arguments": [
        "(0x11aFfEac94B440C3c332813450db66fb3285BFB2, 0x3c2d1A5c84B7F513ed07Fe2e71dF9538aC217F7c, 3000, 60, 0xC7bFe6835bC6a4d9A32f0F34A75C21A0982D8640)",
        "(true, -10000000000000000000, 4295128740)",
        "(false, false)",
        "0x000000000000000000000000c5b7b574ee84a9b59b475fe32eaf908c246d3859"
      ],
      "transaction": {
        "from": "0xc5b7b574ee84a9b59b475fe32eaf908c246d3859",
        "to": "0x9140a78c1a137c7ff1c151ec8231272af78a99a4",
        "gas": "0x3030e",
        "value": "0x0",
        "input": "0x2229d0b400000000000000000000000011affeac94b440c3c332813450db66fb3285bfb20000000000000000000000003c2d1a5c84b7f513ed07fe2e71df9538ac217f7c0000000000000000000000000000000000000000000000000000000000000bb8000000000000000000000000000000000000000000000000000000000000003c000000000000000000000000c7bfe6835bc6a4d9a32f0f34a75c21a0982d86400000000000000000000000000000000000000000000000000000000000000001ffffffffffffffffffffffffffffffffffffffffffffffff7538dcfb7618000000000000000000000000000000000000000000000000000000000001000276a40000000000000000000000000000000000000000000000000000000000000000000000000000000000000000000000000000000000000000000000000000000000000000000000000000000000000000000000000000000000000000000001600000000000000000000000000000000000000000000000000000000000000020000000000000000000000000c5b7b574ee84a9b59b475fe32eaf908c246d3859",
        "nonce": "0xe6",
        "chainId": "0x515"
      },
      "additionalContracts": [],
      "isFixedGasLimit": false
    }
  ],
  "receipts": [
    {
      "status": "0x1",
      "cumulativeGasUsed": "0xb0527",
      "logs": [
        {
          "address": "0x11affeac94b440c3c332813450db66fb3285bfb2",
          "topics": [
            "0x8c5be1e5ebec7d5bd14f71427d1e84f3dd0314c0f7b2291e5b200ac8c7c3b925",
            "0x000000000000000000000000c5b7b574ee84a9b59b475fe32eaf908c246d3859",
            "0x0000000000000000000000009140a78c1a137c7ff1c151ec8231272af78a99a4"
          ],
          "data": "0xffffffffffffffffffffffffffffffffffffffffffffffffffffffffffffffff",
          "blockHash": "0x14d8f7167c8c48b4532d27a7a3591b84b8d7c5f0bd2ee14b2a8dfbc6ce11a7b8",
          "blockNumber": "0x2c82a3f",
          "blockTimestamp": "0x69b5d78b",
          "transactionHash": "0xd79aeffd4167cfc86272c721bbb58201afbc3489fe35300b99e2c0ca89d29fff",
          "transactionIndex": "0x8",
          "logIndex": "0x9",
          "removed": false
        }
      ],
      "logsBloom": "0x00000000000000000000000000000000000000000000000000000000080000000000000000000000000000000000000000000000000000000000000000200000000000000000000000000000000000000000200000000000004000000000000000000000000000000000000000000000000000000000000000000000000000000000000000000000000000000000000000000000000000000080000000000000020000000000000000010000000000004000000000000000000000000000000000080000000000000000000000000000000000000000000000000000001000000010000000000000000000000000000000000000000000000000000010000000",
      "type": "0x2",
      "transactionHash": "0xd79aeffd4167cfc86272c721bbb58201afbc3489fe35300b99e2c0ca89d29fff",
      "transactionIndex": "0x8",
      "blockHash": "0x14d8f7167c8c48b4532d27a7a3591b84b8d7c5f0bd2ee14b2a8dfbc6ce11a7b8",
      "blockNumber": "0x2c82a3f",
      "gasUsed": "0x68b2",
      "effectiveGasPrice": "0x7a121",
      "blobGasUsed": "0x9c40",
      "from": "0xc5b7b574ee84a9b59b475fe32eaf908c246d3859",
      "to": "0x11affeac94b440c3c332813450db66fb3285bfb2",
      "contractAddress": null,
      "daFootprintGasScalar": "0x190",
      "l1BaseFeeScalar": "0x7d0",
      "l1BlobBaseFee": "0x1",
      "l1BlobBaseFeeScalar": "0xdbba0",
      "l1Fee": "0x76",
      "l1GasPrice": "0x9",
      "l1GasUsed": "0x640"
    },
    {
      "status": "0x1",
      "cumulativeGasUsed": "0xb6dd9",
      "logs": [
        {
          "address": "0x3c2d1a5c84b7f513ed07fe2e71df9538ac217f7c",
          "topics": [
            "0x8c5be1e5ebec7d5bd14f71427d1e84f3dd0314c0f7b2291e5b200ac8c7c3b925",
            "0x000000000000000000000000c5b7b574ee84a9b59b475fe32eaf908c246d3859",
            "0x0000000000000000000000009140a78c1a137c7ff1c151ec8231272af78a99a4"
          ],
          "data": "0xffffffffffffffffffffffffffffffffffffffffffffffffffffffffffffffff",
          "blockHash": "0x14d8f7167c8c48b4532d27a7a3591b84b8d7c5f0bd2ee14b2a8dfbc6ce11a7b8",
          "blockNumber": "0x2c82a3f",
          "blockTimestamp": "0x69b5d78b",
          "transactionHash": "0x33f9295a1d2cac6b03535699ffe192d51c617f78f69cf0e4ce59fa8ec27d44cc",
          "transactionIndex": "0x9",
          "logIndex": "0xa",
          "removed": false
        }
      ],
      "logsBloom": "0x00000000000000000000000000000000000000000000000000000000080000000000000000000000000000000000000000000000000000000000000000200000000000000000010000000000000000000000000000000000004000000000000000000000000000000000000000000000000000000000000000000000000000000200000000000000000000000000000000000000000000000080000000000000020000000000000000010000000000004200000000000000000000000000000000080000000000000000000000000000000000000000000000000000000000000010000000000000000000000000000000000000000000000000000000000000",
      "type": "0x2",
      "transactionHash": "0x33f9295a1d2cac6b03535699ffe192d51c617f78f69cf0e4ce59fa8ec27d44cc",
      "transactionIndex": "0x9",
      "blockHash": "0x14d8f7167c8c48b4532d27a7a3591b84b8d7c5f0bd2ee14b2a8dfbc6ce11a7b8",
      "blockNumber": "0x2c82a3f",
      "gasUsed": "0x68b2",
      "effectiveGasPrice": "0x7a121",
      "blobGasUsed": "0x9c40",
      "from": "0xc5b7b574ee84a9b59b475fe32eaf908c246d3859",
      "to": "0x3c2d1a5c84b7f513ed07fe2e71df9538ac217f7c",
      "contractAddress": null,
      "daFootprintGasScalar": "0x190",
      "l1BaseFeeScalar": "0x7d0",
      "l1BlobBaseFee": "0x1",
      "l1BlobBaseFeeScalar": "0xdbba0",
      "l1Fee": "0x76",
      "l1GasPrice": "0x9",
      "l1GasUsed": "0x640"
    },
    {
      "status": "0x1",
      "cumulativeGasUsed": "0xd9c15",
      "logs": [
        {
          "address": "0x00b036b58a818b1bc34d502d3fe730db729e62ac",
          "topics": [
            "0x40e9cecb9f5f1f1c5b9c97dec2917b7ee92e57ba5563708daca94dd84ad7112f",
            "0xbec7ab7985a0ff8c655af4d4033d9bbde4e3e6368025872a3373787a0786b3b1",
            "0x0000000000000000000000009140a78c1a137c7ff1c151ec8231272af78a99a4"
          ],
          "data": "0xffffffffffffffffffffffffffffffffffffffffffffffff7538dcfb7618000000000000000000000000000000000000000000000000000083b786c713c834700000000000000000000000000000000000000000f890be9eaddf1ad7b3391e2d00000000000000000000000000000000000000000000003635c9adc5dea00000fffffffffffffffffffffffffffffffffffffffffffffffffffffffffffffdb20000000000000000000000000000000000000000000000000000000000000bb8",
          "blockHash": "0x14d8f7167c8c48b4532d27a7a3591b84b8d7c5f0bd2ee14b2a8dfbc6ce11a7b8",
          "blockNumber": "0x2c82a3f",
          "blockTimestamp": "0x69b5d78b",
          "transactionHash": "0x0ed5cdf58feb2d9b8c36a7931e17ec593cf185c625c41942bed5f1ccb3ef0f0a",
          "transactionIndex": "0xa",
          "logIndex": "0xb",
          "removed": false
        },
        {
          "address": "0xc7bfe6835bc6a4d9a32f0f34a75c21a0982d8640",
          "topics": [
            "0xc99190d562dc877bc95c39720ac66dc5d4f9c2ef3a3410251a579493b8409cd0",
            "0xbec7ab7985a0ff8c655af4d4033d9bbde4e3e6368025872a3373787a0786b3b1"
          ],
          "data": "0x000000000000000000000000000000000000000000000034a2c1ff4f2202299a000000000000000000000000000000000000000000000003335d17845a55d6640000000000000000000000000000000000000000000000000000000000000001",
          "blockHash": "0x14d8f7167c8c48b4532d27a7a3591b84b8d7c5f0bd2ee14b2a8dfbc6ce11a7b8",
          "blockNumber": "0x2c82a3f",
          "blockTimestamp": "0x69b5d78b",
          "transactionHash": "0x0ed5cdf58feb2d9b8c36a7931e17ec593cf185c625c41942bed5f1ccb3ef0f0a",
          "transactionIndex": "0xa",
          "logIndex": "0xc",
          "removed": false
        },
        {
          "address": "0x11affeac94b440c3c332813450db66fb3285bfb2",
          "topics": [
            "0xddf252ad1be2c89b69c2b068fc378daa952ba7f163c4a11628f55a4df523b3ef",
            "0x000000000000000000000000c5b7b574ee84a9b59b475fe32eaf908c246d3859",
            "0x00000000000000000000000000b036b58a818b1bc34d502d3fe730db729e62ac"
          ],
          "data": "0x0000000000000000000000000000000000000000000000008ac7230489e80000",
          "blockHash": "0x14d8f7167c8c48b4532d27a7a3591b84b8d7c5f0bd2ee14b2a8dfbc6ce11a7b8",
          "blockNumber": "0x2c82a3f",
          "blockTimestamp": "0x69b5d78b",
          "transactionHash": "0x0ed5cdf58feb2d9b8c36a7931e17ec593cf185c625c41942bed5f1ccb3ef0f0a",
          "transactionIndex": "0xa",
          "logIndex": "0xd",
          "removed": false
        },
        {
          "address": "0x3c2d1a5c84b7f513ed07fe2e71df9538ac217f7c",
          "topics": [
            "0xddf252ad1be2c89b69c2b068fc378daa952ba7f163c4a11628f55a4df523b3ef",
            "0x00000000000000000000000000b036b58a818b1bc34d502d3fe730db729e62ac",
            "0x000000000000000000000000c5b7b574ee84a9b59b475fe32eaf908c246d3859"
          ],
          "data": "0x00000000000000000000000000000000000000000000000083b786c713c83470",
          "blockHash": "0x14d8f7167c8c48b4532d27a7a3591b84b8d7c5f0bd2ee14b2a8dfbc6ce11a7b8",
          "blockNumber": "0x2c82a3f",
          "blockTimestamp": "0x69b5d78b",
          "transactionHash": "0x0ed5cdf58feb2d9b8c36a7931e17ec593cf185c625c41942bed5f1ccb3ef0f0a",
          "transactionIndex": "0xa",
          "logIndex": "0xe",
          "removed": false
        }
      ],
      "logsBloom": "0x00000080000000000002000000000000000000000000000000000000080000000000000000000000000000000000000000000000041000000020000000080000000000000000010002000008000000000000200000000020004000000000000000000000000000000000000000024000000000000000004000000010000000000200000000000000000000000008000000000000000000000080000000000000000000000000000000010000000000004200000000000020000000000000000000080002000000000004000000000000000000000001000000000000001000000000000000000000004000000000000000000000000002000000000010000010",
      "type": "0x2",
      "transactionHash": "0x0ed5cdf58feb2d9b8c36a7931e17ec593cf185c625c41942bed5f1ccb3ef0f0a",
      "transactionIndex": "0xa",
      "blockHash": "0x14d8f7167c8c48b4532d27a7a3591b84b8d7c5f0bd2ee14b2a8dfbc6ce11a7b8",
      "blockNumber": "0x2c82a3f",
      "gasUsed": "0x22e3c",
      "effectiveGasPrice": "0x7a121",
      "blobGasUsed": "0x12430",
      "from": "0xc5b7b574ee84a9b59b475fe32eaf908c246d3859",
      "to": "0x9140a78c1a137c7ff1c151ec8231272af78a99a4",
      "contractAddress": null,
      "daFootprintGasScalar": "0x190",
      "l1BaseFeeScalar": "0x7d0",
      "l1BlobBaseFee": "0x1",
      "l1BlobBaseFeeScalar": "0xdbba0",
      "l1Fee": "0xde",
      "l1GasPrice": "0x9",
      "l1GasUsed": "0xbb7"
    }
  ],
  "libraries": [],
  "pending": [],
  "returns": {},
  "timestamp": 1773524875660,
  "chain": 1301,
  "commit": "ed00ea6"
}