{
  "transactions": [
    {
      "hash": "0xfc240d60027c4f607de73ea8091461bf36b899f2bee8cd3e4f9384636568bb0f",
      "transactionType": "CALL",
      "contractName": null,
      "contractAddress": "0x11affeac94b440c3c332813450db66fb3285bfb2",
      "function": "approve(address,uint256)",
      "arguments": [
        "0x9140a78c1A137c7fF1c151EC8231272aF78a99A4",
        "115792089237316195423570985008687907853269984665640564039457584007913129639935"
      ],
      "transaction": {
        "from": "0xf0f83161c7485ef21c2071c1b341f466fa2056e9",
        "to": "0x11affeac94b440c3c332813450db66fb3285bfb2",
        "gas": "0x991d",
        "value": "0x0",
        "input": "0x095ea7b30000000000000000000000009140a78c1a137c7ff1c151ec8231272af78a99a4ffffffffffffffffffffffffffffffffffffffffffffffffffffffffffffffff",
        "nonce": "0x1",
        "chainId": "0x515"
      },
      "additionalContracts": [],
      "isFixedGasLimit": false
    },
    {
      "hash": "0xbfe0cd208e4fa54eee9ddff2b30a06f1958637eec1a670b508a24af097ca72c9",
      "transactionType": "CALL",
      "contractName": null,
      "contractAddress": "0x3c2d1a5c84b7f513ed07fe2e71df9538ac217f7c",
      "function": "approve(address,uint256)",
      "arguments": [
        "0x9140a78c1A137c7fF1c151EC8231272aF78a99A4",
        "115792089237316195423570985008687907853269984665640564039457584007913129639935"
      ],
      "transaction": {
        "from": "0xf0f83161c7485ef21c2071c1b341f466fa2056e9",
        "to": "0x3c2d1a5c84b7f513ed07fe2e71df9538ac217f7c",
        "gas": "0xfbfa",
        "value": "0x0",
        "input": "0x095ea7b30000000000000000000000009140a78c1a137c7ff1c151ec8231272af78a99a4ffffffffffffffffffffffffffffffffffffffffffffffffffffffffffffffff",
        "nonce": "0x2",
        "chainId": "0x515"
      },
      "additionalContracts": [],
      "isFixedGasLimit": false
    },
    {
      "hash": "0x4831ef55e8b2bf665f1cfa0aa818f41cb756e78a7a89bda19601f220e8893371",
      "transactionType": "CALL",
      "contractName": null,
      "contractAddress": "0x9140a78c1a137c7ff1c151ec8231272af78a99a4",
      "function": "swap((address,address,uint24,int24,address),(bool,int256,uint160),(bool,bool),bytes)",
      "arguments": [
        "(0x11aFfEac94B440C3c332813450db66fb3285BFB2, 0x3c2d1A5c84B7F513ed07Fe2e71dF9538aC217F7c, 3000, 60, 0xC7bFe6835bC6a4d9A32f0F34A75C21A0982D8640)",
        "(true, -10000000000000000000, 4295128740)",
        "(false, false)",
        "0x000000000000000000000000f0f83161c7485ef21c2071c1b341f466fa2056e9"
      ],
      "transaction": {
        "from": "0xf0f83161c7485ef21c2071c1b341f466fa2056e9",
        "to": "0x9140a78c1a137c7ff1c151ec8231272af78a99a4",
        "gas": "0x417ef",
        "value": "0x0",
        "input": "0x2229d0b400000000000000000000000011affeac94b440c3c332813450db66fb3285bfb20000000000000000000000003c2d1a5c84b7f513ed07fe2e71df9538ac217f7c0000000000000000000000000000000000000000000000000000000000000bb8000000000000000000000000000000000000000000000000000000000000003c000000000000000000000000c7bfe6835bc6a4d9a32f0f34a75c21a0982d86400000000000000000000000000000000000000000000000000000000000000001ffffffffffffffffffffffffffffffffffffffffffffffff7538dcfb7618000000000000000000000000000000000000000000000000000000000001000276a40000000000000000000000000000000000000000000000000000000000000000000000000000000000000000000000000000000000000000000000000000000000000000000000000000000000000000000000000000000000000000000001600000000000000000000000000000000000000000000000000000000000000020000000000000000000000000f0f83161c7485ef21c2071c1b341f466fa2056e9",
        "nonce": "0x3",
        "chainId": "0x515"
      },
      "additionalContracts": [],
      "isFixedGasLimit": false
    }
  ],
  "receipts": [],
  "libraries": [],
  "pending": [
    "0xfc240d60027c4f607de73ea8091461bf36b899f2bee8cd3e4f9384636568bb0f",
    "0xbfe0cd208e4fa54eee9ddff2b30a06f1958637eec1a670b508a24af097ca72c9",
    "0x4831ef55e8b2bf665f1cfa0aa818f41cb756e78a7a89bda19601f220e8893371"
  ],
  "returns": {},
  "timestamp": 1773599167036,
  "chain": 1301,
  "commit": "f023862"
}