{
  "transactions": [
    {
      "hash": "0x160f24d07d6f3ba712d6d515541dcb6f3444d81bc05454261ab71a68e5d23db3",
      "transactionType": "CALL",
      "contractName": null,
      "contractAddress": "0x11affeac94b440c3c332813450db66fb3285bfb2",
      "function": "approve(address,uint256)",
      "arguments": [
        "0x9140a78c1A137c7fF1c151EC8231272aF78a99A4",
        "115792089237316195423570985008687907853269984665640564039457584007913129639935"
      ],
      "transaction": {
        "from": "0xc5b7b574ee84a9b59b475fe32eaf908c246d3859",
        "to": "0x11affeac94b440c3c332813450db66fb3285bfb2",
        "gas": "0x991d",
        "value": "0x0",
        "input": "0x095ea7b30000000000000000000000009140a78c1a137c7ff1c151ec8231272af78a99a4ffffffffffffffffffffffffffffffffffffffffffffffffffffffffffffffff",
        "nonce": "0xe1",
        "chainId": "0x515"
      },
      "additionalContracts": [],
      "isFixedGasLimit": false
    },
    {
      "hash": "0x025142a579d56dd86aa7b6c83630a2951117e0a90b4ec4aab117c91bdf68c380",
      "transactionType": "CALL",
      "contractName": null,
      "contractAddress": "0x3c2d1a5c84b7f513ed07fe2e71df9538ac217f7c",
      "function": "approve(address,uint256)",
      "arguments": [
        "0x9140a78c1A137c7fF1c151EC8231272aF78a99A4",
        "115792089237316195423570985008687907853269984665640564039457584007913129639935"
      ],
      "transaction": {
        "from": "0xc5b7b574ee84a9b59b475fe32eaf908c246d3859",
        "to": "0x3c2d1a5c84b7f513ed07fe2e71df9538ac217f7c",
        "gas": "0x991d",
        "value": "0x0",
        "input": "0x095ea7b30000000000000000000000009140a78c1a137c7ff1c151ec8231272af78a99a4ffffffffffffffffffffffffffffffffffffffffffffffffffffffffffffffff",
        "nonce": "0xe2",
        "chainId": "0x515"
      },
      "additionalContracts": [],
      "isFixedGasLimit": false
    },
    {
      "hash": "0x0df60016a7764537ffece0a7989332df9a2676e14d55ad53dab4ea0e5a88161f",
      "transactionType": "CALL",
      "contractName": null,
      "contractAddress": "0x9140a78c1a137c7ff1c151ec8231272af78a99a4",
      "function": "swap((address,address,uint24,int24,address),(bool,int256,uint160),(bool,bool),bytes)",
      "arguments": [
        "(0x11aFfEac94B440C3c332813450db66fb3285BFB2, 0x3c2d1A5c84B7F513ed07Fe2e71dF9538aC217F7c, 3000, 60, 0xC7bFe6835bC6a4d9A32f0F34A75C21A0982D8640)",
        "(true, -10000000000000000000, 4295128740)",
        "(false, false)",
        "0x000000000000000000000000c5b7b574ee84a9b59b475fe32eaf908c246d3859"
      ],
      "transaction": {
        "from": "0xc5b7b574ee84a9b59b475fe32eaf908c246d3859",
        "to": "0x9140a78c1a137c7ff1c151ec8231272af78a99a4",
        "gas": "0x30309",
        "value": "0x0",
        "input": "0x2229d0b400000000000000000000000011affeac94b440c3c332813450db66fb3285bfb20000000000000000000000003c2d1a5c84b7f513ed07fe2e71df9538ac217f7c0000000000000000000000000000000000000000000000000000000000000bb8000000000000000000000000000000000000000000000000000000000000003c000000000000000000000000c7bfe6835bc6a4d9a32f0f34a75c21a0982d86400000000000000000000000000000000000000000000000000000000000000001ffffffffffffffffffffffffffffffffffffffffffffffff7538dcfb7618000000000000000000000000000000000000000000000000000000000001000276a40000000000000000000000000000000000000000000000000000000000000000000000000000000000000000000000000000000000000000000000000000000000000000000000000000000000000000000000000000000000000000000001600000000000000000000000000000000000000000000000000000000000000020000000000000000000000000c5b7b574ee84a9b59b475fe32eaf908c246d3859",
        "nonce": "0xe3",
        "chainId": "0x515"
      },
      "additionalContracts": [],
      "isFixedGasLimit": false
    }
  ],
  "receipts": [
    {
      "status": "0x1",
      "cumulativeGasUsed": "0x5d8d6",
      "logs": [
        {
          "address": "0x11affeac94b440c3c332813450db66fb3285bfb2",
          "topics": [
            "0x8c5be1e5ebec7d5bd14f71427d1e84f3dd0314c0f7b2291e5b200ac8c7c3b925",
            "0x000000000000000000000000c5b7b574ee84a9b59b475fe32eaf908c246d3859",
            "0x0000000000000000000000009140a78c1a137c7ff1c151ec8231272af78a99a4"
          ],
          "data": "0xffffffffffffffffffffffffffffffffffffffffffffffffffffffffffffffff",
          "blockHash": "0x4f5456e39ad57f2d0511f4f9a0eeda39f7bc0dd0abdba98ef5c1853d42410cb7",
          "blockNumber": "0x2c82862",
          "blockTimestamp": "0x69b5d5ae",
          "transactionHash": "0x025142a579d56dd86aa7b6c83630a2951117e0a90b4ec4aab117c91bdf68c380",
          "transactionIndex": "0x5",
          "logIndex": "0x3",
          "removed": false
        }
      ],
      "logsBloom": "0x00000000000000000000000000000000000000000000000000000000080000000000000000000000000000000000000000000000000000000000000000200000000000000000000000000000000000000000200000000000004000000000000000000000000000000000000000000000000000000000000000000000000000000000000000000000000000000000000000000000000000000080000000000000020000000000000000010000000000004000000000000000000000000000000000080000000000000000000000000000000000000000000000000000001000000010000000000000000000000000000000000000000000000000000010000000",
      "type": "0x2",
      "transactionHash": "0x025142a579d56dd86aa7b6c83630a2951117e0a90b4ec4aab117c91bdf68c380",
      "transactionIndex": "0x5",
      "blockHash": "0x4f5456e39ad57f2d0511f4f9a0eeda39f7bc0dd0abdba98ef5c1853d42410cb7",
      "blockNumber": "0x2c82862",
      "gasUsed": "0x68b2",
      "effectiveGasPrice": "0x7a121",
      "blobGasUsed": "0x9c40",
      "from": "0xc5b7b574ee84a9b59b475fe32eaf908c246d3859",
      "to": "0x11affeac94b440c3c332813450db66fb3285bfb2",
      "contractAddress": null,
      "daFootprintGasScalar": "0x190",
      "l1BaseFeeScalar": "0x7d0",
      "l1BlobBaseFee": "0x1",
      "l1BlobBaseFeeScalar": "0xdbba0",
      "l1Fee": "0x76",
      "l1GasPrice": "0x9",
      "l1GasUsed": "0x640"
    },
    {
      "status": "0x1",
      "cumulativeGasUsed": "0x64188",
      "logs": [
        {
          "address": "0x3c2d1a5c84b7f513ed07fe2e71df9538ac217f7c",
          "topics": [
            "0x8c5be1e5ebec7d5bd14f71427d1e84f3dd0314c0f7b2291e5b200ac8c7c3b925",
            "0x000000000000000000000000c5b7b574ee84a9b59b475fe32eaf908c246d3859",
            "0x0000000000000000000000009140a78c1a137c7ff1c151ec8231272af78a99a4"
          ],
          "data": "0xffffffffffffffffffffffffffffffffffffffffffffffffffffffffffffffff",
          "blockHash": "0x0000000000000000000000000000000000000000000000000000000000000000",
          "blockNumber": "0x2c82862",
          "blockTimestamp": "0x69b5d5ae",
          "transactionHash": "0x0df60016a7764537ffece0a7989332df9a2676e14d55ad53dab4ea0e5a88161f",
          "transactionIndex": "0x6",
          "logIndex": "0x4",
          "removed": false
        }
      ],
      "logsBloom": "0x00000000000000000000000000000000000000000000000000000000080000000000000000000000000000000000000000000000000000000000000000200000000000000000010000000000000000000000000000000000004000000000000000000000000000000000000000000000000000000000000000000000000000000200000000000000000000000000000000000000000000000080000000000000020000000000000000010000000000004200000000000000000000000000000000080000000000000000000000000000000000000000000000000000000000000010000000000000000000000000000000000000000000000000000000000000",
      "type": "0x2",
      "transactionHash": "0x0df60016a7764537ffece0a7989332df9a2676e14d55ad53dab4ea0e5a88161f",
      "transactionIndex": "0x6",
      "blockHash": "0x0000000000000000000000000000000000000000000000000000000000000000",
      "blockNumber": "0x2c82862",
      "gasUsed": "0x68b2",
      "effectiveGasPrice": "0x7a121",
      "blobGasUsed": "0x9c40",
      "from": "0xc5b7b574ee84a9b59b475fe32eaf908c246d3859",
      "to": "0x3c2d1a5c84b7f513ed07fe2e71df9538ac217f7c",
      "contractAddress": null,
      "daFootprintGasScalar": "0x190",
      "l1BaseFeeScalar": "0x7d0",
      "l1BlobBaseFee": "0x1",
      "l1BlobBaseFeeScalar": "0xdbba0",
      "l1Fee": "0xa5",
      "l1GasPrice": "0x9",
      "l1GasUsed": "0x640"
    },
    {
      "status": "0x1",
      "cumulativeGasUsed": "0x86fc0",
      "logs": [
        {
          "address": "0x00b036b58a818b1bc34d502d3fe730db729e62ac",
          "topics": [
            "0x40e9cecb9f5f1f1c5b9c97dec2917b7ee92e57ba5563708daca94dd84ad7112f",
            "0xbec7ab7985a0ff8c655af4d4033d9bbde4e3e6368025872a3373787a0786b3b1",
            "0x0000000000000000000000009140a78c1a137c7ff1c151ec8231272af78a99a4"
          ],
          "data": "0xffffffffffffffffffffffffffffffffffffffffffffffff7538dcfb76180000000000000000000000000000000000000000000000000000865141aa4abcdaf80000000000000000000000000000000000000000fafec294dc368e6a269f85c300000000000000000000000000000000000000000000003635c9adc5dea00000fffffffffffffffffffffffffffffffffffffffffffffffffffffffffffffe750000000000000000000000000000000000000000000000000000000000000bb8",
          "blockHash": "0x4f5456e39ad57f2d0511f4f9a0eeda39f7bc0dd0abdba98ef5c1853d42410cb7",
          "blockNumber": "0x2c82862",
          "blockTimestamp": "0x69b5d5ae",
          "transactionHash": "0x160f24d07d6f3ba712d6d515541dcb6f3444d81bc05454261ab71a68e5d23db3",
          "transactionIndex": "0x7",
          "logIndex": "0x5",
          "removed": false
        },
        {
          "address": "0xc7bfe6835bc6a4d9a32f0f34a75c21a0982d8640",
          "topics": [
            "0xc99190d562dc877bc95c39720ac66dc5d4f9c2ef3a3410251a579493b8409cd0",
            "0xbec7ab7985a0ff8c655af4d4033d9bbde4e3e6368025872a3373787a0786b3b1"
          ],
          "data": "0x0000000000000000000000000000000000000000000000352679861635ca5e0a00000000000000000000000000000000000000000000000224de6db8bca5a1f40000000000000000000000000000000000000000000000000000000000000001",
          "blockHash": "0x4f5456e39ad57f2d0511f4f9a0eeda39f7bc0dd0abdba98ef5c1853d42410cb7",
          "blockNumber": "0x2c82862",
          "blockTimestamp": "0x69b5d5ae",
          "transactionHash": "0x160f24d07d6f3ba712d6d515541dcb6f3444d81bc05454261ab71a68e5d23db3",
          "transactionIndex": "0x7",
          "logIndex": "0x6",
          "removed": false
        },
        {
          "address": "0x11affeac94b440c3c332813450db66fb3285bfb2",
          "topics": [
            "0xddf252ad1be2c89b69c2b068fc378daa952ba7f163c4a11628f55a4df523b3ef",
            "0x000000000000000000000000c5b7b574ee84a9b59b475fe32eaf908c246d3859",
            "0x00000000000000000000000000b036b58a818b1bc34d502d3fe730db729e62ac"
          ],
          "data": "0x0000000000000000000000000000000000000000000000008ac7230489e80000",
          "blockHash": "0x4f5456e39ad57f2d0511f4f9a0eeda39f7bc0dd0abdba98ef5c1853d42410cb7",
          "blockNumber": "0x2c82862",
          "blockTimestamp": "0x69b5d5ae",
          "transactionHash": "0x160f24d07d6f3ba712d6d515541dcb6f3444d81bc05454261ab71a68e5d23db3",
          "transactionIndex": "0x7",
          "logIndex": "0x7",
          "removed": false
        },
        {
          "address": "0x3c2d1a5c84b7f513ed07fe2e71df9538ac217f7c",
          "topics": [
            "0xddf252ad1be2c89b69c2b068fc378daa952ba7f163c4a11628f55a4df523b3ef",
            "0x00000000000000000000000000b036b58a818b1bc34d502d3fe730db729e62ac",
            "0x000000000000000000000000c5b7b574ee84a9b59b475fe32eaf908c246d3859"
          ],
          "data": "0x000000000000000000000000000000000000000000000000865141aa4abcdaf8",
          "blockHash": "0x4f5456e39ad57f2d0511f4f9a0eeda39f7bc0dd0abdba98ef5c1853d42410cb7",
          "blockNumber": "0x2c82862",
          "blockTimestamp": "0x69b5d5ae",
          "transactionHash": "0x160f24d07d6f3ba712d6d515541dcb6f3444d81bc05454261ab71a68e5d23db3",
          "transactionIndex": "0x7",
          "logIndex": "0x8",
          "removed": false
        }
      ],
      "logsBloom": "0x00000080000000000002000000000000000000000000000000000000080000000000000000000000000000000000000000000000041000000020000000080000000000000000010002000008000000000000200000000020004000000000000000000000000000000000000000024000000000000000004000000010000000000200000000000000000000000008000000000000000000000080000000000000000000000000000000010000000000004200000000000020000000000000000000080002000000000004000000000000000000000001000000000000001000000000000000000000004000000000000000000000000002000000000010000010",
      "type": "0x2",
      "transactionHash": "0x160f24d07d6f3ba712d6d515541dcb6f3444d81bc05454261ab71a68e5d23db3",
      "transactionIndex": "0x7",
      "blockHash": "0x4f5456e39ad57f2d0511f4f9a0eeda39f7bc0dd0abdba98ef5c1853d42410cb7",
      "blockNumber": "0x2c82862",
      "gasUsed": "0x22e38",
      "effectiveGasPrice": "0x7a121",
      "blobGasUsed": "0x12430",
      "from": "0xc5b7b574ee84a9b59b475fe32eaf908c246d3859",
      "to": "0x9140a78c1a137c7ff1c151ec8231272af78a99a4",
      "contractAddress": null,
      "daFootprintGasScalar": "0x190",
      "l1BaseFeeScalar": "0x7d0",
      "l1BlobBaseFee": "0x1",
      "l1BlobBaseFeeScalar": "0xdbba0",
      "l1Fee": "0xde",
      "l1GasPrice": "0x9",
      "l1GasUsed": "0xbb7"
    }
  ],
  "libraries": [],
  "pending": [],
  "returns": {},
  "timestamp": 1773524398187,
  "chain": 1301,
  "commit": "ed00ea6"
}