{
  "transactions": [
    {
      "hash": "0xd7a134e02d1a67c6ae2efc6e986c89b8be0dda0521b715edd6d48328413fae67",
      "transactionType": "CALL",
      "contractName": null,
      "contractAddress": "0x11affeac94b440c3c332813450db66fb3285bfb2",
      "function": "approve(address,uint256)",
      "arguments": [
        "0x9140a78c1A137c7fF1c151EC8231272aF78a99A4",
        "115792089237316195423570985008687907853269984665640564039457584007913129639935"
      ],
      "transaction": {
        "from": "0xc5b7b574ee84a9b59b475fe32eaf908c246d3859",
        "to": "0x11affeac94b440c3c332813450db66fb3285bfb2",
        "gas": "0x991d",
        "value": "0x0",
        "input": "0x095ea7b30000000000000000000000009140a78c1a137c7ff1c151ec8231272af78a99a4ffffffffffffffffffffffffffffffffffffffffffffffffffffffffffffffff",
        "nonce": "0x101",
        "chainId": "0x515"
      },
      "additionalContracts": [],
      "isFixedGasLimit": false
    },
    {
      "hash": "0xb3a1e59cf4209194c724ff99b6657718b828d6050d0267cab07d59705dc1210a",
      "transactionType": "CALL",
      "contractName": null,
      "contractAddress": "0x3c2d1a5c84b7f513ed07fe2e71df9538ac217f7c",
      "function": "approve(address,uint256)",
      "arguments": [
        "0x9140a78c1A137c7fF1c151EC8231272aF78a99A4",
        "115792089237316195423570985008687907853269984665640564039457584007913129639935"
      ],
      "transaction": {
        "from": "0xc5b7b574ee84a9b59b475fe32eaf908c246d3859",
        "to": "0x3c2d1a5c84b7f513ed07fe2e71df9538ac217f7c",
        "gas": "0x991d",
        "value": "0x0",
        "input": "0x095ea7b30000000000000000000000009140a78c1a137c7ff1c151ec8231272af78a99a4ffffffffffffffffffffffffffffffffffffffffffffffffffffffffffffffff",
        "nonce": "0x102",
        "chainId": "0x515"
      },
      "additionalContracts": [],
      "isFixedGasLimit": false
    },
    {
      "hash": "0xa4ebf55225aaf14458770fd78cdb469cf066bc136ed2eafb8e35a74751439ad3",
      "transactionType": "CALL",
      "contractName": null,
      "contractAddress": "0x9140a78c1a137c7ff1c151ec8231272af78a99a4",
      "function": "swap((address,address,uint24,int24,address),(bool,int256,uint160),(bool,bool),bytes)",
      "arguments": [
        "(0x11aFfEac94B440C3c332813450db66fb3285BFB2, 0x3c2d1A5c84B7F513ed07Fe2e71dF9538aC217F7c, 3000, 60, 0xC7bFe6835bC6a4d9A32f0F34A75C21A0982D8640)",
        "(true, -10000000000000000000, 4295128740)",
        "(false, false)",
        "0x000000000000000000000000c5b7b574ee84a9b59b475fe32eaf908c246d3859"
      ],
      "transaction": {
        "from": "0xc5b7b574ee84a9b59b475fe32eaf908c246d3859",
        "to": "0x9140a78c1a137c7ff1c151ec8231272af78a99a4",
        "gas": "0x3033a",
        "value": "0x0",
        "input": "0x2229d0b400000000000000000000000011affeac94b440c3c332813450db66fb3285bfb20000000000000000000000003c2d1a5c84b7f513ed07fe2e71df9538ac217f7c0000000000000000000000000000000000000000000000000000000000000bb8000000000000000000000000000000000000000000000000000000000000003c000000000000000000000000c7bfe6835bc6a4d9a32f0f34a75c21a0982d86400000000000000000000000000000000000000000000000000000000000000001ffffffffffffffffffffffffffffffffffffffffffffffff7538dcfb7618000000000000000000000000000000000000000000000000000000000001000276a40000000000000000000000000000000000000000000000000000000000000000000000000000000000000000000000000000000000000000000000000000000000000000000000000000000000000000000000000000000000000000000001600000000000000000000000000000000000000000000000000000000000000020000000000000000000000000c5b7b574ee84a9b59b475fe32eaf908c246d3859",
        "nonce": "0x103",
        "chainId": "0x515"
      },
      "additionalContracts": [],
      "isFixedGasLimit": false
    }
  ],
  "receipts": [
    {
      "status": "0x1",
      "cumulativeGasUsed": "0x452d0",
      "logs": [
        {
          "address": "0x11affeac94b440c3c332813450db66fb3285bfb2",
          "topics": [
            "0x8c5be1e5ebec7d5bd14f71427d1e84f3dd0314c0f7b2291e5b200ac8c7c3b925",
            "0x000000000000000000000000c5b7b574ee84a9b59b475fe32eaf908c246d3859",
            "0x0000000000000000000000009140a78c1a137c7ff1c151ec8231272af78a99a4"
          ],
          "data": "0xffffffffffffffffffffffffffffffffffffffffffffffffffffffffffffffff",
          "blockHash": "0x0000000000000000000000000000000000000000000000000000000000000000",
          "blockNumber": "0x2c8439a",
          "blockTimestamp": "0x69b5f0e6",
          "transactionHash": "0xb3a1e59cf4209194c724ff99b6657718b828d6050d0267cab07d59705dc1210a",
          "transactionIndex": "0x4",
          "logIndex": "0x2",
          "removed": false
        }
      ],
      "logsBloom": "0x00000000000000000000000000000000000000000000000000000000080000000000000000000000000000000000000000000000000000000000000000200000000000000000000000000000000000000000200000000000004000000000000000000000000000000000000000000000000000000000000000000000000000000000000000000000000000000000000000000000000000000080000000000000020000000000000000010000000000004000000000000000000000000000000000080000000000000000000000000000000000000000000000000000001000000010000000000000000000000000000000000000000000000000000010000000",
      "type": "0x2",
      "transactionHash": "0xb3a1e59cf4209194c724ff99b6657718b828d6050d0267cab07d59705dc1210a",
      "transactionIndex": "0x4",
      "blockHash": "0x0000000000000000000000000000000000000000000000000000000000000000",
      "blockNumber": "0x2c8439a",
      "gasUsed": "0x68b2",
      "effectiveGasPrice": "0x7a121",
      "blobGasUsed": "0x9c40",
      "from": "0xc5b7b574ee84a9b59b475fe32eaf908c246d3859",
      "to": "0x11affeac94b440c3c332813450db66fb3285bfb2",
      "contractAddress": null,
      "daFootprintGasScalar": "0x190",
      "l1BaseFeeScalar": "0x7d0",
      "l1BlobBaseFee": "0x1",
      "l1BlobBaseFeeScalar": "0xdbba0",
      "l1Fee": "0xa5",
      "l1GasPrice": "0x9",
      "l1GasUsed": "0x640"
    },
    {
      "status": "0x1",
      "cumulativeGasUsed": "0x4bb82",
      "logs": [
        {
          "address": "0x3c2d1a5c84b7f513ed07fe2e71df9538ac217f7c",
          "topics": [
            "0x8c5be1e5ebec7d5bd14f71427d1e84f3dd0314c0f7b2291e5b200ac8c7c3b925",
            "0x000000000000000000000000c5b7b574ee84a9b59b475fe32eaf908c246d3859",
            "0x0000000000000000000000009140a78c1a137c7ff1c151ec8231272af78a99a4"
          ],
          "data": "0xffffffffffffffffffffffffffffffffffffffffffffffffffffffffffffffff",
          "blockHash": "0x226a7ae3f5f09cb240182c3994fdc1f543499ae83c35a81cae99098b12aaa3d6",
          "blockNumber": "0x2c8439a",
          "blockTimestamp": "0x69b5f0e6",
          "transactionHash": "0xa4ebf55225aaf14458770fd78cdb469cf066bc136ed2eafb8e35a74751439ad3",
          "transactionIndex": "0x5",
          "logIndex": "0x3",
          "removed": false
        }
      ],
      "logsBloom": "0x00000000000000000000000000000000000000000000000000000000080000000000000000000000000000000000000000000000000000000000000000200000000000000000010000000000000000000000000000000000004000000000000000000000000000000000000000000000000000000000000000000000000000000200000000000000000000000000000000000000000000000080000000000000020000000000000000010000000000004200000000000000000000000000000000080000000000000000000000000000000000000000000000000000000000000010000000000000000000000000000000000000000000000000000000000000",
      "type": "0x2",
      "transactionHash": "0xa4ebf55225aaf14458770fd78cdb469cf066bc136ed2eafb8e35a74751439ad3",
      "transactionIndex": "0x5",
      "blockHash": "0x226a7ae3f5f09cb240182c3994fdc1f543499ae83c35a81cae99098b12aaa3d6",
      "blockNumber": "0x2c8439a",
      "gasUsed": "0x68b2",
      "effectiveGasPrice": "0x7a121",
      "blobGasUsed": "0x9c40",
      "from": "0xc5b7b574ee84a9b59b475fe32eaf908c246d3859",
      "to": "0x3c2d1a5c84b7f513ed07fe2e71df9538ac217f7c",
      "contractAddress": null,
      "daFootprintGasScalar": "0x190",
      "l1BaseFeeScalar": "0x7d0",
      "l1BlobBaseFee": "0x1",
      "l1BlobBaseFeeScalar": "0xdbba0",
      "l1Fee": "0x76",
      "l1GasPrice": "0x9",
      "l1GasUsed": "0x640"
    },
    {
      "status": "0x1",
      "cumulativeGasUsed": "0x6e9de",
      "logs": [
        {
          "address": "0x00b036b58a818b1bc34d502d3fe730db729e62ac",
          "topics": [
            "0x40e9cecb9f5f1f1c5b9c97dec2917b7ee92e57ba5563708daca94dd84ad7112f",
            "0xbec7ab7985a0ff8c655af4d4033d9bbde4e3e6368025872a3373787a0786b3b1",
            "0x0000000000000000000000009140a78c1a137c7ff1c151ec8231272af78a99a4"
          ],
          "data": "0xffffffffffffffffffffffffffffffffffffffffffffffff7538dcfb761800000000000000000000000000000000000000000000000000008130f1de1071909e0000000000000000000000000000000000000000f62ea80dc944cd9270659fc300000000000000000000000000000000000000000000003635c9adc5dea00000fffffffffffffffffffffffffffffffffffffffffffffffffffffffffffffcf10000000000000000000000000000000000000000000000000000000000000bb8",
          "blockHash": "0x0000000000000000000000000000000000000000000000000000000000000000",
          "blockNumber": "0x2c8439a",
          "blockTimestamp": "0x69b5f0e6",
          "transactionHash": "0xd7a134e02d1a67c6ae2efc6e986c89b8be0dda0521b715edd6d48328413fae67",
          "transactionIndex": "0x6",
          "logIndex": "0x4",
          "removed": false
        },
        {
          "address": "0xc7bfe6835bc6a4d9a32f0f34a75c21a0982d8640",
          "topics": [
            "0xc99190d562dc877bc95c39720ac66dc5d4f9c2ef3a3410251a579493b8409cd0",
            "0xbec7ab7985a0ff8c655af4d4033d9bbde4e3e6368025872a3373787a0786b3b1"
          ],
          "data": "0x00000000000000000000000000000000000000000000003421910d71119098fc0000000000000000000000000000000000000000000000043f552c66f4af67020000000000000000000000000000000000000000000000000000000000000001",
          "blockHash": "0x0000000000000000000000000000000000000000000000000000000000000000",
          "blockNumber": "0x2c8439a",
          "blockTimestamp": "0x69b5f0e6",
          "transactionHash": "0xd7a134e02d1a67c6ae2efc6e986c89b8be0dda0521b715edd6d48328413fae67",
          "transactionIndex": "0x6",
          "logIndex": "0x5",
          "removed": false
        },
        {
          "address": "0x11affeac94b440c3c332813450db66fb3285bfb2",
          "topics": [
            "0xddf252ad1be2c89b69c2b068fc378daa952ba7f163c4a11628f55a4df523b3ef",
            "0x000000000000000000000000c5b7b574ee84a9b59b475fe32eaf908c246d3859",
            "0x00000000000000000000000000b036b58a818b1bc34d502d3fe730db729e62ac"
          ],
          "data": "0x0000000000000000000000000000000000000000000000008ac7230489e80000",
          "blockHash": "0x0000000000000000000000000000000000000000000000000000000000000000",
          "blockNumber": "0x2c8439a",
          "blockTimestamp": "0x69b5f0e6",
          "transactionHash": "0xd7a134e02d1a67c6ae2efc6e986c89b8be0dda0521b715edd6d48328413fae67",
          "transactionIndex": "0x6",
          "logIndex": "0x6",
          "removed": false
        },
        {
          "address": "0x3c2d1a5c84b7f513ed07fe2e71df9538ac217f7c",
          "topics": [
            "0xddf252ad1be2c89b69c2b068fc378daa952ba7f163c4a11628f55a4df523b3ef",
            "0x00000000000000000000000000b036b58a818b1bc34d502d3fe730db729e62ac",
            "0x000000000000000000000000c5b7b574ee84a9b59b475fe32eaf908c246d3859"
          ],
          "data": "0x0000000000000000000000000000000000000000000000008130f1de1071909e",
          "blockHash": "0x0000000000000000000000000000000000000000000000000000000000000000",
          "blockNumber": "0x2c8439a",
          "blockTimestamp": "0x69b5f0e6",
          "transactionHash": "0xd7a134e02d1a67c6ae2efc6e986c89b8be0dda0521b715edd6d48328413fae67",
          "transactionIndex": "0x6",
          "logIndex": "0x7",
          "removed": false
        }
      ],
      "logsBloom": "0x00000080000000000002000000000000000000000000000000000000080000000000000000000000000000000000000000000000041000000020000000080000000000000000010002000008000000000000200000000020004000000000000000000000000000000000000000024000000000000000004000000010000000000200000000000000000000000008000000000000000000000080000000000000000000000000000000010000000000004200000000000020000000000000000000080002000000000004000000000000000000000001000000000000001000000000000000000000004000000000000000000000000002000000000010000010",
      "type": "0x2",
      "transactionHash": "0xd7a134e02d1a67c6ae2efc6e986c89b8be0dda0521b715edd6d48328413fae67",
      "transactionIndex": "0x6",
      "blockHash": "0x0000000000000000000000000000000000000000000000000000000000000000",
      "blockNumber": "0x2c8439a",
      "gasUsed": "0x22e5c",
      "effectiveGasPrice": "0x7a121",
      "blobGasUsed": "0x125c0",
      "from": "0xc5b7b574ee84a9b59b475fe32eaf908c246d3859",
      "to": "0x9140a78c1a137c7ff1c151ec8231272af78a99a4",
      "contractAddress": null,
      "daFootprintGasScalar": "0x190",
      "l1BaseFeeScalar": "0x7d0",
      "l1BlobBaseFee": "0x1",
      "l1BlobBaseFeeScalar": "0xdbba0",
      "l1Fee": "0xa5",
      "l1GasPrice": "0x9",
      "l1GasUsed": "0xbc4"
    }
  ],
  "libraries": [],
  "pending": [],
  "returns": {},
  "timestamp": 1773531366222,
  "chain": 1301,
  "commit": "c494945"
}