{
  "transactions": [
    {
      "hash": "0x9c7e90c8e12795465294f9b181f13539c3469f0d192e1b291edfbc11924f535e",
      "transactionType": "CALL",
      "contractName": null,
      "contractAddress": "0x11affeac94b440c3c332813450db66fb3285bfb2",
      "function": "approve(address,uint256)",
      "arguments": [
        "0x9140a78c1A137c7fF1c151EC8231272aF78a99A4",
        "115792089237316195423570985008687907853269984665640564039457584007913129639935"
      ],
      "transaction": {
        "from": "0xb9369cac60dc6e0539a164738a3d711130e1e110",
        "to": "0x11affeac94b440c3c332813450db66fb3285bfb2",
        "gas": "0x991d",
        "value": "0x0",
        "input": "0x095ea7b30000000000000000000000009140a78c1a137c7ff1c151ec8231272af78a99a4ffffffffffffffffffffffffffffffffffffffffffffffffffffffffffffffff",
        "nonce": "0x1",
        "chainId": "0x515"
      },
      "additionalContracts": [],
      "isFixedGasLimit": false
    },
    {
      "hash": "0x7340668ebfc5044836383927823e63a49705eb556f768fcc30b78eec425115d7",
      "transactionType": "CALL",
      "contractName": null,
      "contractAddress": "0x3c2d1a5c84b7f513ed07fe2e71df9538ac217f7c",
      "function": "approve(address,uint256)",
      "arguments": [
        "0x9140a78c1A137c7fF1c151EC8231272aF78a99A4",
        "115792089237316195423570985008687907853269984665640564039457584007913129639935"
      ],
      "transaction": {
        "from": "0xb9369cac60dc6e0539a164738a3d711130e1e110",
        "to": "0x3c2d1a5c84b7f513ed07fe2e71df9538ac217f7c",
        "gas": "0xfbfa",
        "value": "0x0",
        "input": "0x095ea7b30000000000000000000000009140a78c1a137c7ff1c151ec8231272af78a99a4ffffffffffffffffffffffffffffffffffffffffffffffffffffffffffffffff",
        "nonce": "0x2",
        "chainId": "0x515"
      },
      "additionalContracts": [],
      "isFixedGasLimit": false
    },
    {
      "hash": "0xd17a0b6f3fc0465b0c0f4527f4a82ac3d6fd590f8b3cc2735495f534a054ca6f",
      "transactionType": "CALL",
      "contractName": null,
      "contractAddress": "0x9140a78c1a137c7ff1c151ec8231272af78a99a4",
      "function": "swap((address,address,uint24,int24,address),(bool,int256,uint160),(bool,bool),bytes)",
      "arguments": [
        "(0x11aFfEac94B440C3c332813450db66fb3285BFB2, 0x3c2d1A5c84B7F513ed07Fe2e71dF9538aC217F7c, 3000, 60, 0xC7bFe6835bC6a4d9A32f0F34A75C21A0982D8640)",
        "(true, -10000000000000000000, 4295128740)",
        "(false, false)",
        "0x000000000000000000000000b9369cac60dc6e0539a164738a3d711130e1e110"
      ],
      "transaction": {
        "from": "0xb9369cac60dc6e0539a164738a3d711130e1e110",
        "to": "0x9140a78c1a137c7ff1c151ec8231272af78a99a4",
        "gas": "0x3de0a",
        "value": "0x0",
        "input": "0x2229d0b400000000000000000000000011affeac94b440c3c332813450db66fb3285bfb20000000000000000000000003c2d1a5c84b7f513ed07fe2e71df9538ac217f7c0000000000000000000000000000000000000000000000000000000000000bb8000000000000000000000000000000000000000000000000000000000000003c000000000000000000000000c7bfe6835bc6a4d9a32f0f34a75c21a0982d86400000000000000000000000000000000000000000000000000000000000000001ffffffffffffffffffffffffffffffffffffffffffffffff7538dcfb7618000000000000000000000000000000000000000000000000000000000001000276a40000000000000000000000000000000000000000000000000000000000000000000000000000000000000000000000000000000000000000000000000000000000000000000000000000000000000000000000000000000000000000000001600000000000000000000000000000000000000000000000000000000000000020000000000000000000000000b9369cac60dc6e0539a164738a3d711130e1e110",
        "nonce": "0x3",
        "chainId": "0x515"
      },
      "additionalContracts": [],
      "isFixedGasLimit": false
    }
  ],
  "receipts": [
    {
      "status": "0x1",
      "cumulativeGasUsed": "0x5eddb",
      "logs": [
        {
          "address": "0x11affeac94b440c3c332813450db66fb3285bfb2",
          "topics": [
            "0x8c5be1e5ebec7d5bd14f71427d1e84f3dd0314c0f7b2291e5b200ac8c7c3b925",
            "0x000000000000000000000000b9369cac60dc6e0539a164738a3d711130e1e110",
            "0x0000000000000000000000009140a78c1a137c7ff1c151ec8231272af78a99a4"
          ],
          "data": "0xffffffffffffffffffffffffffffffffffffffffffffffffffffffffffffffff",
          "blockHash": "0xaf82676c41304f0d6140d60592c3080c4eb6fd692a5aaa411fe35c1106a33b49",
          "blockNumber": "0x2c94c60",
          "blockTimestamp": "0x69b6f9ac",
          "transactionHash": "0x9c7e90c8e12795465294f9b181f13539c3469f0d192e1b291edfbc11924f535e",
          "transactionIndex": "0x5",
          "logIndex": "0x4",
          "removed": false
        }
      ],
      "logsBloom": "0x00000000000000000000000000000000000000000000000000000000080000000000000000000000000000800000000000000000000800000000000000200000000020000000000000000000000000000000200000000000004000000000000000000000000000000000000000000000000000000000000000000000000000000000000000000000000000000000000000000000000000000000000000000000020000000000000000010000000000000000000000000000000000000000000000000000000000000000000000000000000000000000000000000000001000000010000000000000000000000000000000000000000000000000000010000000",
      "type": "0x2",
      "transactionHash": "0x9c7e90c8e12795465294f9b181f13539c3469f0d192e1b291edfbc11924f535e",
      "transactionIndex": "0x5",
      "blockHash": "0xaf82676c41304f0d6140d60592c3080c4eb6fd692a5aaa411fe35c1106a33b49",
      "blockNumber": "0x2c94c60",
      "gasUsed": "0x68b2",
      "effectiveGasPrice": "0x7a121",
      "blobGasUsed": "0x9c40",
      "from": "0xb9369cac60dc6e0539a164738a3d711130e1e110",
      "to": "0x11affeac94b440c3c332813450db66fb3285bfb2",
      "contractAddress": null,
      "daFootprintGasScalar": "0x190",
      "l1BaseFeeScalar": "0x7d0",
      "l1BlobBaseFee": "0x1",
      "l1BlobBaseFeeScalar": "0xdbba0",
      "l1Fee": "0x76",
      "l1GasPrice": "0x9",
      "l1GasUsed": "0x640"
    },
    {
      "status": "0x1",
      "cumulativeGasUsed": "0x8147b",
      "logs": [
        {
          "address": "0x3c2d1a5c84b7f513ed07fe2e71df9538ac217f7c",
          "topics": [
            "0x8c5be1e5ebec7d5bd14f71427d1e84f3dd0314c0f7b2291e5b200ac8c7c3b925",
            "0x000000000000000000000000b9369cac60dc6e0539a164738a3d711130e1e110",
            "0x0000000000000000000000009140a78c1a137c7ff1c151ec8231272af78a99a4"
          ],
          "data": "0xffffffffffffffffffffffffffffffffffffffffffffffffffffffffffffffff",
          "blockHash": "0xaf82676c41304f0d6140d60592c3080c4eb6fd692a5aaa411fe35c1106a33b49",
          "blockNumber": "0x2c94c60",
          "blockTimestamp": "0x69b6f9ac",
          "transactionHash": "0xd17a0b6f3fc0465b0c0f4527f4a82ac3d6fd590f8b3cc2735495f534a054ca6f",
          "transactionIndex": "0x7",
          "logIndex": "0x6",
          "removed": false
        }
      ],
      "logsBloom": "0x00000000000000000000000000000000000000000000000000000000080000000000000000000000000000800000000000000000000800000000000000200000000020000000010000000000000000000000000000000000004000000000000000000000000000000000000000000000000000000000000000000000000000000200000000000000000000000000000000000000000000000000000000000000020000000000000000010000000000000200000000000000000000000000000000000000000000000000000000000000000000000000000000000000000000000010000000000000000000000000000000000000000000000000000000000000",
      "type": "0x2",
      "transactionHash": "0xd17a0b6f3fc0465b0c0f4527f4a82ac3d6fd590f8b3cc2735495f534a054ca6f",
      "transactionIndex": "0x7",
      "blockHash": "0xaf82676c41304f0d6140d60592c3080c4eb6fd692a5aaa411fe35c1106a33b49",
      "blockNumber": "0x2c94c60",
      "gasUsed": "0xb66e",
      "effectiveGasPrice": "0x7a121",
      "blobGasUsed": "0x9c40",
      "from": "0xb9369cac60dc6e0539a164738a3d711130e1e110",
      "to": "0x3c2d1a5c84b7f513ed07fe2e71df9538ac217f7c",
      "contractAddress": null,
      "daFootprintGasScalar": "0x190",
      "l1BaseFeeScalar": "0x7d0",
      "l1BlobBaseFee": "0x1",
      "l1BlobBaseFeeScalar": "0xdbba0",
      "l1Fee": "0x76",
      "l1GasPrice": "0x9",
      "l1GasUsed": "0x640"
    },
    {
      "status": "0x1",
      "cumulativeGasUsed": "0xae141",
      "logs": [
        {
          "address": "0x00b036b58a818b1bc34d502d3fe730db729e62ac",
          "topics": [
            "0x40e9cecb9f5f1f1c5b9c97dec2917b7ee92e57ba5563708daca94dd84ad7112f",
            "0xbec7ab7985a0ff8c655af4d4033d9bbde4e3e6368025872a3373787a0786b3b1",
            "0x0000000000000000000000009140a78c1a137c7ff1c151ec8231272af78a99a4"
          ],
          "data": "0xffffffffffffffffffffffffffffffffffffffffffffffff7538dcfb761800000000000000000000000000000000000000000000000000007ebcc8b9e90372930000000000000000000000000000000000000000f3d827e4978518ed30eecf2900000000000000000000000000000000000000000000003635c9adc5dea00000fffffffffffffffffffffffffffffffffffffffffffffffffffffffffffffc330000000000000000000000000000000000000000000000000000000000000bb8",
          "blockHash": "0x0000000000000000000000000000000000000000000000000000000000000000",
          "blockNumber": "0x2c94c60",
          "blockTimestamp": "0x69b6f9ac",
          "transactionHash": "0x7340668ebfc5044836383927823e63a49705eb556f768fcc30b78eec425115d7",
          "transactionIndex": "0x8",
          "logIndex": "0x7",
          "removed": false
        },
        {
          "address": "0xc7bfe6835bc6a4d9a32f0f34a75c21a0982d8640",
          "topics": [
            "0xc99190d562dc877bc95c39720ac66dc5d4f9c2ef3a3410251a579493b8409cd0",
            "0xbec7ab7985a0ff8c655af4d4033d9bbde4e3e6368025872a3373787a0786b3b1"
          ],
          "data": "0x000000000000000000000000000000000000000000000033a2d444b72846ceb000000000000000000000000000000000000000000000000548d91825682d7c8c0000000000000000000000000000000000000000000000000000000000000004",
          "blockHash": "0x0000000000000000000000000000000000000000000000000000000000000000",
          "blockNumber": "0x2c94c60",
          "blockTimestamp": "0x69b6f9ac",
          "transactionHash": "0x7340668ebfc5044836383927823e63a49705eb556f768fcc30b78eec425115d7",
          "transactionIndex": "0x8",
          "logIndex": "0x8",
          "removed": false
        },
        {
          "address": "0x11affeac94b440c3c332813450db66fb3285bfb2",
          "topics": [
            "0xddf252ad1be2c89b69c2b068fc378daa952ba7f163c4a11628f55a4df523b3ef",
            "0x000000000000000000000000b9369cac60dc6e0539a164738a3d711130e1e110",
            "0x00000000000000000000000000b036b58a818b1bc34d502d3fe730db729e62ac"
          ],
          "data": "0x0000000000000000000000000000000000000000000000008ac7230489e80000",
          "blockHash": "0x0000000000000000000000000000000000000000000000000000000000000000",
          "blockNumber": "0x2c94c60",
          "blockTimestamp": "0x69b6f9ac",
          "transactionHash": "0x7340668ebfc5044836383927823e63a49705eb556f768fcc30b78eec425115d7",
          "transactionIndex": "0x8",
          "logIndex": "0x9",
          "removed": false
        },
        {
          "address": "0x3c2d1a5c84b7f513ed07fe2e71df9538ac217f7c",
          "topics": [
            "0xddf252ad1be2c89b69c2b068fc378daa952ba7f163c4a11628f55a4df523b3ef",
            "0x00000000000000000000000000b036b58a818b1bc34d502d3fe730db729e62ac",
            "0x000000000000000000000000b9369cac60dc6e0539a164738a3d711130e1e110"
          ],
          "data": "0x0000000000000000000000000000000000000000000000007ebcc8b9e9037293",
          "blockHash": "0x0000000000000000000000000000000000000000000000000000000000000000",
          "blockNumber": "0x2c94c60",
          "blockTimestamp": "0x69b6f9ac",
          "transactionHash": "0x7340668ebfc5044836383927823e63a49705eb556f768fcc30b78eec425115d7",
          "transactionIndex": "0x8",
          "logIndex": "0xa",
          "removed": false
        }
      ],
      "logsBloom": "0x00000080000000000002000000000000000000000000000000000000080000000000000000000000000000800000000000000000041800000020000000080000000020000000010002000008000000000000200000000020004000000000000000000000000000000000000000024000000000000000004000000010000000000200000000000000000000000008000000000000000000000000000000000000000000000000000000010000000000000200000000000020000000000000000000000002000000000004000000000000000000000001000000000000001000000000000000000000004000000000000000000000000002000000000010000010",
      "type": "0x2",
      "transactionHash": "0x7340668ebfc5044836383927823e63a49705eb556f768fcc30b78eec425115d7",
      "transactionIndex": "0x8",
      "blockHash": "0x0000000000000000000000000000000000000000000000000000000000000000",
      "blockNumber": "0x2c94c60",
      "gasUsed": "0x2ccc6",
      "effectiveGasPrice": "0x7a121",
      "blobGasUsed": "0x122a0",
      "from": "0xb9369cac60dc6e0539a164738a3d711130e1e110",
      "to": "0x9140a78c1a137c7ff1c151ec8231272af78a99a4",
      "contractAddress": null,
      "daFootprintGasScalar": "0x190",
      "l1BaseFeeScalar": "0x7d0",
      "l1BlobBaseFee": "0x1",
      "l1BlobBaseFeeScalar": "0xdbba0",
      "l1Fee": "0xa5",
      "l1GasPrice": "0x9",
      "l1GasUsed": "0xba9"
    }
  ],
  "libraries": [],
  "pending": [],
  "returns": {},
  "timestamp": 1773599148171,
  "chain": 1301,
  "commit": "f023862"
}