{
  "transactions": [
    {
      "hash": "0xa2235ba26123b91c37137aa6aa7570cc2bd0b8f809dde5491f395133d93f5e07",
      "transactionType": "CREATE",
      "contractName": "TestToken",
      "contractAddress": "0x552c3f98bde60d3298c0c85cde5f5f63d52dbce2",
      "function": null,
      "arguments": [
        "Demo USDC",
        "dUSDC"
      ],
      "transaction": {
        "from": "0xc5b7b574ee84a9b59b475fe32eaf908c246d3859",
        "gas": "0xb5aed",
        "value": "0x0",
        "input": "0x608060405234801561000f575f80fd5b50604051610ba5380380610ba583398101604081905261002e9161026d565b8181600361003c8382610356565b5060046100498282610356565b5050506100663369d3c21bcecceda100000061006d60201b60201c565b5050610435565b6001600160a01b03821661009b5760405163ec442f0560e01b81525f60048201526024015b60405180910390fd5b6100a65f83836100aa565b5050565b6001600160a01b0383166100d4578060025f8282546100c99190610410565b909155506101449050565b6001600160a01b0383165f90815260208190526040902054818110156101265760405163391434e360e21b81526001600160a01b03851660048201526024810182905260448101839052606401610092565b6001600160a01b0384165f9081526020819052604090209082900390555b6001600160a01b0382166101605760028054829003905561017e565b6001600160a01b0382165f9081526020819052604090208054820190555b816001600160a01b0316836001600160a01b03167fddf252ad1be2c89b69c2b068fc378daa952ba7f163c4a11628f55a4df523b3ef836040516101c391815260200190565b60405180910390a3505050565b634e487b7160e01b5f52604160045260245ffd5b5f82601f8301126101f3575f80fd5b81516001600160401b0381111561020c5761020c6101d0565b604051601f8201601f19908116603f011681016001600160401b038111828210171561023a5761023a6101d0565b604052818152838201602001851015610251575f80fd5b8160208501602083015e5f918101602001919091529392505050565b5f806040838503121561027e575f80fd5b82516001600160401b03811115610293575f80fd5b61029f858286016101e4565b602085015190935090506001600160401b038111156102bc575f80fd5b6102c8858286016101e4565b9150509250929050565b600181811c908216806102e657607f821691505b60208210810361030457634e487b7160e01b5f52602260045260245ffd5b50919050565b601f82111561035157805f5260205f20601f840160051c8101602085101561032f5750805b601f840160051c820191505b8181101561034e575f815560010161033b565b50505b505050565b81516001600160401b0381111561036f5761036f6101d0565b6103838161037d84546102d2565b8461030a565b6020601f8211600181146103b5575f831561039e5750848201515b5f19600385901b1c1916600184901b17845561034e565b5f84815260208120601f198516915b828110156103e457878501518255602094850194600190920191016103c4565b508482101561040157868401515f19600387901b60f8161c191681555b50505050600190811b01905550565b8082018082111561042f57634e487b7160e01b5f52601160045260245ffd5b92915050565b610763806104425f395ff3fe608060405234801561000f575f80fd5b50600436106100b9575f3560e01c806340c10f191161007257806395d89b411161005857806395d89b411461016f578063a9059cbb14610177578063dd62ed3e1461018a575f80fd5b806340c10f191461013257806370a0823114610147575f80fd5b806318160ddd116100a257806318160ddd146100fe57806323b872dd14610110578063313ce56714610123575f80fd5b806306fdde03146100bd578063095ea7b3146100db575b5f80fd5b6100c56101c2565b6040516100d291906105d3565b60405180910390f35b6100ee6100e9366004610623565b610252565b60405190151581526020016100d2565b6002545b6040519081526020016100d2565b6100ee61011e36600461064b565b61026b565b604051601281526020016100d2565b610145610140366004610623565b61028e565b005b610102610155366004610685565b6001600160a01b03165f9081526020819052604090205490565b6100c561029c565b6100ee610185366004610623565b6102ab565b6101026101983660046106a5565b6001600160a01b039182165f90815260016020908152604080832093909416825291909152205490565b6060600380546101d1906106d6565b80601f01602080910402602001604051908101604052809291908181526020018280546101fd906106d6565b80156102485780601f1061021f57610100808354040283529160200191610248565b820191905f5260205f20905b81548152906001019060200180831161022b57829003601f168201915b5050505050905090565b5f3361025f8185856102b8565b60019150505b92915050565b5f336102788582856102ca565b61028385858561034a565b506001949350505050565b61029882826103a7565b5050565b6060600480546101d1906106d6565b5f3361025f81858561034a565b6102c583838360016103db565b505050565b6001600160a01b038381165f908152600160209081526040808320938616835292905220545f198114610344578181101561033657604051637dc7a0d960e11b81526001600160a01b038416600482015260248101829052604481018390526064015b60405180910390fd5b61034484848484035f6103db565b50505050565b6001600160a01b03831661037357604051634b637e8f60e11b81525f600482015260240161032d565b6001600160a01b03821661039c5760405163ec442f0560e01b81525f600482015260240161032d565b6102c58383836104ad565b6001600160a01b0382166103d05760405163ec442f0560e01b81525f600482015260240161032d565b6102985f83836104ad565b6001600160a01b0384166104045760405163e602df0560e01b81525f600482015260240161032d565b6001600160a01b03831661042d57604051634a1406b160e11b81525f600482015260240161032d565b6001600160a01b038085165f908152600160209081526040808320938716835292905220829055801561034457826001600160a01b0316846001600160a01b03167f8c5be1e5ebec7d5bd14f71427d1e84f3dd0314c0f7b2291e5b200ac8c7c3b9258460405161049f91815260200190565b60405180910390a350505050565b6001600160a01b0383166104d7578060025f8282546104cc919061070e565b909155506105479050565b6001600160a01b0383165f90815260208190526040902054818110156105295760405163391434e360e21b81526001600160a01b0385166004820152602481018290526044810183905260640161032d565b6001600160a01b0384165f9081526020819052604090209082900390555b6001600160a01b03821661056357600280548290039055610581565b6001600160a01b0382165f9081526020819052604090208054820190555b816001600160a01b0316836001600160a01b03167fddf252ad1be2c89b69c2b068fc378daa952ba7f163c4a11628f55a4df523b3ef836040516105c691815260200190565b60405180910390a3505050565b602081525f82518060208401528060208501604085015e5f604082850101526040601f19601f83011684010191505092915050565b80356001600160a01b038116811461061e575f80fd5b919050565b5f8060408385031215610634575f80fd5b61063d83610608565b946020939093013593505050565b5f805f6060848603121561065d575f80fd5b61066684610608565b925061067460208501610608565b929592945050506040919091013590565b5f60208284031215610695575f80fd5b61069e82610608565b9392505050565b5f80604083850312156106b6575f80fd5b6106bf83610608565b91506106cd60208401610608565b90509250929050565b600181811c908216806106ea57607f821691505b60208210810361070857634e487b7160e01b5f52602260045260245ffd5b50919050565b8082018082111561026557634e487b7160e01b5f52601160045260245ffdfea264697066735822122088c3783f6f28345c1b08222b50857fae978cd0f151270a42a87dbb114a75a67664736f6c634300081a003300000000000000000000000000000000000000000000000000000000000000400000000000000000000000000000000000000000000000000000000000000080000000000000000000000000000000000000000000000000000000000000000944656d6f2055534443000000000000000000000000000000000000000000000000000000000000000000000000000000000000000000000000000000000000056455534443000000000000000000000000000000000000000000000000000000",
        "nonce": "0x191",
        "chainId": "0x515"
      },
      "additionalContracts": [],
      "isFixedGasLimit": false
    },
    {
      "hash": "0x8b9b26fd303ae83a720822c92a56d80e9d667e38874892af4dca57cf67901e53",
      "transactionType": "CREATE",
      "contractName": "TestToken",
      "contractAddress": "0xebfe314e711119f97787b4e121d23367b6be37b9",
      "function": null,
      "arguments": [
        "Nova Protocol",
        "NOVA"
      ],
      "transaction": {
        "from": "0xc5b7b574ee84a9b59b475fe32eaf908c246d3859",
        "gas": "0xb5b1c",
        "value": "0x0",
        "input": "0x608060405234801561000f575f80fd5b50604051610ba5380380610ba583398101604081905261002e9161026d565b8181600361003c8382610356565b5060046100498282610356565b5050506100663369d3c21bcecceda100000061006d60201b60201c565b5050610435565b6001600160a01b03821661009b5760405163ec442f0560e01b81525f60048201526024015b60405180910390fd5b6100a65f83836100aa565b5050565b6001600160a01b0383166100d4578060025f8282546100c99190610410565b909155506101449050565b6001600160a01b0383165f90815260208190526040902054818110156101265760405163391434e360e21b81526001600160a01b03851660048201526024810182905260448101839052606401610092565b6001600160a01b0384165f9081526020819052604090209082900390555b6001600160a01b0382166101605760028054829003905561017e565b6001600160a01b0382165f9081526020819052604090208054820190555b816001600160a01b0316836001600160a01b03167fddf252ad1be2c89b69c2b068fc378daa952ba7f163c4a11628f55a4df523b3ef836040516101c391815260200190565b60405180910390a3505050565b634e487b7160e01b5f52604160045260245ffd5b5f82601f8301126101f3575f80fd5b81516001600160401b0381111561020c5761020c6101d0565b604051601f8201601f19908116603f011681016001600160401b038111828210171561023a5761023a6101d0565b604052818152838201602001851015610251575f80fd5b8160208501602083015e5f918101602001919091529392505050565b5f806040838503121561027e575f80fd5b82516001600160401b03811115610293575f80fd5b61029f858286016101e4565b602085015190935090506001600160401b038111156102bc575f80fd5b6102c8858286016101e4565b9150509250929050565b600181811c908216806102e657607f821691505b60208210810361030457634e487b7160e01b5f52602260045260245ffd5b50919050565b601f82111561035157805f5260205f20601f840160051c8101602085101561032f5750805b601f840160051c820191505b8181101561034e575f815560010161033b565b50505b505050565b81516001600160401b0381111561036f5761036f6101d0565b6103838161037d84546102d2565b8461030a565b6020601f8211600181146103b5575f831561039e5750848201515b5f19600385901b1c1916600184901b17845561034e565b5f84815260208120601f198516915b828110156103e457878501518255602094850194600190920191016103c4565b508482101561040157868401515f19600387901b60f8161c191681555b50505050600190811b01905550565b8082018082111561042f57634e487b7160e01b5f52601160045260245ffd5b92915050565b610763806104425f395ff3fe608060405234801561000f575f80fd5b50600436106100b9575f3560e01c806340c10f191161007257806395d89b411161005857806395d89b411461016f578063a9059cbb14610177578063dd62ed3e1461018a575f80fd5b806340c10f191461013257806370a0823114610147575f80fd5b806318160ddd116100a257806318160ddd146100fe57806323b872dd14610110578063313ce56714610123575f80fd5b806306fdde03146100bd578063095ea7b3146100db575b5f80fd5b6100c56101c2565b6040516100d291906105d3565b60405180910390f35b6100ee6100e9366004610623565b610252565b60405190151581526020016100d2565b6002545b6040519081526020016100d2565b6100ee61011e36600461064b565b61026b565b604051601281526020016100d2565b610145610140366004610623565b61028e565b005b610102610155366004610685565b6001600160a01b03165f9081526020819052604090205490565b6100c561029c565b6100ee610185366004610623565b6102ab565b6101026101983660046106a5565b6001600160a01b039182165f90815260016020908152604080832093909416825291909152205490565b6060600380546101d1906106d6565b80601f01602080910402602001604051908101604052809291908181526020018280546101fd906106d6565b80156102485780601f1061021f57610100808354040283529160200191610248565b820191905f5260205f20905b81548152906001019060200180831161022b57829003601f168201915b5050505050905090565b5f3361025f8185856102b8565b60019150505b92915050565b5f336102788582856102ca565b61028385858561034a565b506001949350505050565b61029882826103a7565b5050565b6060600480546101d1906106d6565b5f3361025f81858561034a565b6102c583838360016103db565b505050565b6001600160a01b038381165f908152600160209081526040808320938616835292905220545f198114610344578181101561033657604051637dc7a0d960e11b81526001600160a01b038416600482015260248101829052604481018390526064015b60405180910390fd5b61034484848484035f6103db565b50505050565b6001600160a01b03831661037357604051634b637e8f60e11b81525f600482015260240161032d565b6001600160a01b03821661039c5760405163ec442f0560e01b81525f600482015260240161032d565b6102c58383836104ad565b6001600160a01b0382166103d05760405163ec442f0560e01b81525f600482015260240161032d565b6102985f83836104ad565b6001600160a01b0384166104045760405163e602df0560e01b81525f600482015260240161032d565b6001600160a01b03831661042d57604051634a1406b160e11b81525f600482015260240161032d565b6001600160a01b038085165f908152600160209081526040808320938716835292905220829055801561034457826001600160a01b0316846001600160a01b03167f8c5be1e5ebec7d5bd14f71427d1e84f3dd0314c0f7b2291e5b200ac8c7c3b9258460405161049f91815260200190565b60405180910390a350505050565b6001600160a01b0383166104d7578060025f8282546104cc919061070e565b909155506105479050565b6001600160a01b0383165f90815260208190526040902054818110156105295760405163391434e360e21b81526001600160a01b0385166004820152602481018290526044810183905260640161032d565b6001600160a01b0384165f9081526020819052604090209082900390555b6001600160a01b03821661056357600280548290039055610581565b6001600160a01b0382165f9081526020819052604090208054820190555b816001600160a01b0316836001600160a01b03167fddf252ad1be2c89b69c2b068fc378daa952ba7f163c4a11628f55a4df523b3ef836040516105c691815260200190565b60405180910390a3505050565b602081525f82518060208401528060208501604085015e5f604082850101526040601f19601f83011684010191505092915050565b80356001600160a01b038116811461061e575f80fd5b919050565b5f8060408385031215610634575f80fd5b61063d83610608565b946020939093013593505050565b5f805f6060848603121561065d575f80fd5b61066684610608565b925061067460208501610608565b929592945050506040919091013590565b5f60208284031215610695575f80fd5b61069e82610608565b9392505050565b5f80604083850312156106b6575f80fd5b6106bf83610608565b91506106cd60208401610608565b90509250929050565b600181811c908216806106ea57607f821691505b60208210810361070857634e487b7160e01b5f52602260045260245ffd5b50919050565b8082018082111561026557634e487b7160e01b5f52601160045260245ffdfea264697066735822122088c3783f6f28345c1b08222b50857fae978cd0f151270a42a87dbb114a75a67664736f6c634300081a003300000000000000000000000000000000000000000000000000000000000000400000000000000000000000000000000000000000000000000000000000000080000000000000000000000000000000000000000000000000000000000000000d4e6f76612050726f746f636f6c0000000000000000000000000000000000000000000000000000000000000000000000000000000000000000000000000000044e4f564100000000000000000000000000000000000000000000000000000000",
        "nonce": "0x192",
        "chainId": "0x515"
      },
      "additionalContracts": [],
      "isFixedGasLimit": false
    },
    {
      "hash": "0x1391c322c57f805f4142909954955fde98359e663ff1e10d09e4ed634e597378",
      "transactionType": "CREATE",
      "contractName": "TestToken",
      "contractAddress": "0x46f02e8cf663b74aea15e6f613433dad1dd6b7fb",
      "function": null,
      "arguments": [
        "Stellar DeFi",
        "STLR"
      ],
      "transaction": {
        "from": "0xc5b7b574ee84a9b59b475fe32eaf908c246d3859",
        "gas": "0xb5b0c",
        "value": "0x0",
        "input": "0x608060405234801561000f575f80fd5b50604051610ba5380380610ba583398101604081905261002e9161026d565b8181600361003c8382610356565b5060046100498282610356565b5050506100663369d3c21bcecceda100000061006d60201b60201c565b5050610435565b6001600160a01b03821661009b5760405163ec442f0560e01b81525f60048201526024015b60405180910390fd5b6100a65f83836100aa565b5050565b6001600160a01b0383166100d4578060025f8282546100c99190610410565b909155506101449050565b6001600160a01b0383165f90815260208190526040902054818110156101265760405163391434e360e21b81526001600160a01b03851660048201526024810182905260448101839052606401610092565b6001600160a01b0384165f9081526020819052604090209082900390555b6001600160a01b0382166101605760028054829003905561017e565b6001600160a01b0382165f9081526020819052604090208054820190555b816001600160a01b0316836001600160a01b03167fddf252ad1be2c89b69c2b068fc378daa952ba7f163c4a11628f55a4df523b3ef836040516101c391815260200190565b60405180910390a3505050565b634e487b7160e01b5f52604160045260245ffd5b5f82601f8301126101f3575f80fd5b81516001600160401b0381111561020c5761020c6101d0565b604051601f8201601f19908116603f011681016001600160401b038111828210171561023a5761023a6101d0565b604052818152838201602001851015610251575f80fd5b8160208501602083015e5f918101602001919091529392505050565b5f806040838503121561027e575f80fd5b82516001600160401b03811115610293575f80fd5b61029f858286016101e4565b602085015190935090506001600160401b038111156102bc575f80fd5b6102c8858286016101e4565b9150509250929050565b600181811c908216806102e657607f821691505b60208210810361030457634e487b7160e01b5f52602260045260245ffd5b50919050565b601f82111561035157805f5260205f20601f840160051c8101602085101561032f5750805b601f840160051c820191505b8181101561034e575f815560010161033b565b50505b505050565b81516001600160401b0381111561036f5761036f6101d0565b6103838161037d84546102d2565b8461030a565b6020601f8211600181146103b5575f831561039e5750848201515b5f19600385901b1c1916600184901b17845561034e565b5f84815260208120601f198516915b828110156103e457878501518255602094850194600190920191016103c4565b508482101561040157868401515f19600387901b60f8161c191681555b50505050600190811b01905550565b8082018082111561042f57634e487b7160e01b5f52601160045260245ffd5b92915050565b610763806104425f395ff3fe608060405234801561000f575f80fd5b50600436106100b9575f3560e01c806340c10f191161007257806395d89b411161005857806395d89b411461016f578063a9059cbb14610177578063dd62ed3e1461018a575f80fd5b806340c10f191461013257806370a0823114610147575f80fd5b806318160ddd116100a257806318160ddd146100fe57806323b872dd14610110578063313ce56714610123575f80fd5b806306fdde03146100bd578063095ea7b3146100db575b5f80fd5b6100c56101c2565b6040516100d291906105d3565b60405180910390f35b6100ee6100e9366004610623565b610252565b60405190151581526020016100d2565b6002545b6040519081526020016100d2565b6100ee61011e36600461064b565b61026b565b604051601281526020016100d2565b610145610140366004610623565b61028e565b005b610102610155366004610685565b6001600160a01b03165f9081526020819052604090205490565b6100c561029c565b6100ee610185366004610623565b6102ab565b6101026101983660046106a5565b6001600160a01b039182165f90815260016020908152604080832093909416825291909152205490565b6060600380546101d1906106d6565b80601f01602080910402602001604051908101604052809291908181526020018280546101fd906106d6565b80156102485780601f1061021f57610100808354040283529160200191610248565b820191905f5260205f20905b81548152906001019060200180831161022b57829003601f168201915b5050505050905090565b5f3361025f8185856102b8565b60019150505b92915050565b5f336102788582856102ca565b61028385858561034a565b506001949350505050565b61029882826103a7565b5050565b6060600480546101d1906106d6565b5f3361025f81858561034a565b6102c583838360016103db565b505050565b6001600160a01b038381165f908152600160209081526040808320938616835292905220545f198114610344578181101561033657604051637dc7a0d960e11b81526001600160a01b038416600482015260248101829052604481018390526064015b60405180910390fd5b61034484848484035f6103db565b50505050565b6001600160a01b03831661037357604051634b637e8f60e11b81525f600482015260240161032d565b6001600160a01b03821661039c5760405163ec442f0560e01b81525f600482015260240161032d565b6102c58383836104ad565b6001600160a01b0382166103d05760405163ec442f0560e01b81525f600482015260240161032d565b6102985f83836104ad565b6001600160a01b0384166104045760405163e602df0560e01b81525f600482015260240161032d565b6001600160a01b03831661042d57604051634a1406b160e11b81525f600482015260240161032d565b6001600160a01b038085165f908152600160209081526040808320938716835292905220829055801561034457826001600160a01b0316846001600160a01b03167f8c5be1e5ebec7d5bd14f71427d1e84f3dd0314c0f7b2291e5b200ac8c7c3b9258460405161049f91815260200190565b60405180910390a350505050565b6001600160a01b0383166104d7578060025f8282546104cc919061070e565b909155506105479050565b6001600160a01b0383165f90815260208190526040902054818110156105295760405163391434e360e21b81526001600160a01b0385166004820152602481018290526044810183905260640161032d565b6001600160a01b0384165f9081526020819052604090209082900390555b6001600160a01b03821661056357600280548290039055610581565b6001600160a01b0382165f9081526020819052604090208054820190555b816001600160a01b0316836001600160a01b03167fddf252ad1be2c89b69c2b068fc378daa952ba7f163c4a11628f55a4df523b3ef836040516105c691815260200190565b60405180910390a3505050565b602081525f82518060208401528060208501604085015e5f604082850101526040601f19601f83011684010191505092915050565b80356001600160a01b038116811461061e575f80fd5b919050565b5f8060408385031215610634575f80fd5b61063d83610608565b946020939093013593505050565b5f805f6060848603121561065d575f80fd5b61066684610608565b925061067460208501610608565b929592945050506040919091013590565b5f60208284031215610695575f80fd5b61069e82610608565b9392505050565b5f80604083850312156106b6575f80fd5b6106bf83610608565b91506106cd60208401610608565b90509250929050565b600181811c908216806106ea57607f821691505b60208210810361070857634e487b7160e01b5f52602260045260245ffd5b50919050565b8082018082111561026557634e487b7160e01b5f52601160045260245ffdfea264697066735822122088c3783f6f28345c1b08222b50857fae978cd0f151270a42a87dbb114a75a67664736f6c634300081a003300000000000000000000000000000000000000000000000000000000000000400000000000000000000000000000000000000000000000000000000000000080000000000000000000000000000000000000000000000000000000000000000c5374656c6c617220446546690000000000000000000000000000000000000000000000000000000000000000000000000000000000000000000000000000000453544c5200000000000000000000000000000000000000000000000000000000",
        "nonce": "0x193",
        "chainId": "0x515"
      },
      "additionalContracts": [],
      "isFixedGasLimit": false
    },
    {
      "hash": "0xa47e7b20f613117afe933feda2ec31481f38935efca8ecd39c6ef75a68d5c4ed",
      "transactionType": "CREATE",
      "contractName": "TestToken",
      "contractAddress": "0xe485afbd687ac536597ceb7cbb70bad2499b3688",
      "function": null,
      "arguments": [
        "Orbit Finance",
        "ORBIT"
      ],
      "transaction": {
        "from": "0xc5b7b574ee84a9b59b475fe32eaf908c246d3859",
        "gas": "0xb5b2b",
        "value": "0x0",
        "input": "0x608060405234801561000f575f80fd5b50604051610ba5380380610ba583398101604081905261002e9161026d565b8181600361003c8382610356565b5060046100498282610356565b5050506100663369d3c21bcecceda100000061006d60201b60201c565b5050610435565b6001600160a01b03821661009b5760405163ec442f0560e01b81525f60048201526024015b60405180910390fd5b6100a65f83836100aa565b5050565b6001600160a01b0383166100d4578060025f8282546100c99190610410565b909155506101449050565b6001600160a01b0383165f90815260208190526040902054818110156101265760405163391434e360e21b81526001600160a01b03851660048201526024810182905260448101839052606401610092565b6001600160a01b0384165f9081526020819052604090209082900390555b6001600160a01b0382166101605760028054829003905561017e565b6001600160a01b0382165f9081526020819052604090208054820190555b816001600160a01b0316836001600160a01b03167fddf252ad1be2c89b69c2b068fc378daa952ba7f163c4a11628f55a4df523b3ef836040516101c391815260200190565b60405180910390a3505050565b634e487b7160e01b5f52604160045260245ffd5b5f82601f8301126101f3575f80fd5b81516001600160401b0381111561020c5761020c6101d0565b604051601f8201601f19908116603f011681016001600160401b038111828210171561023a5761023a6101d0565b604052818152838201602001851015610251575f80fd5b8160208501602083015e5f918101602001919091529392505050565b5f806040838503121561027e575f80fd5b82516001600160401b03811115610293575f80fd5b61029f858286016101e4565b602085015190935090506001600160401b038111156102bc575f80fd5b6102c8858286016101e4565b9150509250929050565b600181811c908216806102e657607f821691505b60208210810361030457634e487b7160e01b5f52602260045260245ffd5b50919050565b601f82111561035157805f5260205f20601f840160051c8101602085101561032f5750805b601f840160051c820191505b8181101561034e575f815560010161033b565b50505b505050565b81516001600160401b0381111561036f5761036f6101d0565b6103838161037d84546102d2565b8461030a565b6020601f8211600181146103b5575f831561039e5750848201515b5f19600385901b1c1916600184901b17845561034e565b5f84815260208120601f198516915b828110156103e457878501518255602094850194600190920191016103c4565b508482101561040157868401515f19600387901b60f8161c191681555b50505050600190811b01905550565b8082018082111561042f57634e487b7160e01b5f52601160045260245ffd5b92915050565b610763806104425f395ff3fe608060405234801561000f575f80fd5b50600436106100b9575f3560e01c806340c10f191161007257806395d89b411161005857806395d89b411461016f578063a9059cbb14610177578063dd62ed3e1461018a575f80fd5b806340c10f191461013257806370a0823114610147575f80fd5b806318160ddd116100a257806318160ddd146100fe57806323b872dd14610110578063313ce56714610123575f80fd5b806306fdde03146100bd578063095ea7b3146100db575b5f80fd5b6100c56101c2565b6040516100d291906105d3565b60405180910390f35b6100ee6100e9366004610623565b610252565b60405190151581526020016100d2565b6002545b6040519081526020016100d2565b6100ee61011e36600461064b565b61026b565b604051601281526020016100d2565b610145610140366004610623565b61028e565b005b610102610155366004610685565b6001600160a01b03165f9081526020819052604090205490565b6100c561029c565b6100ee610185366004610623565b6102ab565b6101026101983660046106a5565b6001600160a01b039182165f90815260016020908152604080832093909416825291909152205490565b6060600380546101d1906106d6565b80601f01602080910402602001604051908101604052809291908181526020018280546101fd906106d6565b80156102485780601f1061021f57610100808354040283529160200191610248565b820191905f5260205f20905b81548152906001019060200180831161022b57829003601f168201915b5050505050905090565b5f3361025f8185856102b8565b60019150505b92915050565b5f336102788582856102ca565b61028385858561034a565b506001949350505050565b61029882826103a7565b5050565b6060600480546101d1906106d6565b5f3361025f81858561034a565b6102c583838360016103db565b505050565b6001600160a01b038381165f908152600160209081526040808320938616835292905220545f198114610344578181101561033657604051637dc7a0d960e11b81526001600160a01b038416600482015260248101829052604481018390526064015b60405180910390fd5b61034484848484035f6103db565b50505050565b6001600160a01b03831661037357604051634b637e8f60e11b81525f600482015260240161032d565b6001600160a01b03821661039c5760405163ec442f0560e01b81525f600482015260240161032d565b6102c58383836104ad565b6001600160a01b0382166103d05760405163ec442f0560e01b81525f600482015260240161032d565b6102985f83836104ad565b6001600160a01b0384166104045760405163e602df0560e01b81525f600482015260240161032d565b6001600160a01b03831661042d57604051634a1406b160e11b81525f600482015260240161032d565b6001600160a01b038085165f908152600160209081526040808320938716835292905220829055801561034457826001600160a01b0316846001600160a01b03167f8c5be1e5ebec7d5bd14f71427d1e84f3dd0314c0f7b2291e5b200ac8c7c3b9258460405161049f91815260200190565b60405180910390a350505050565b6001600160a01b0383166104d7578060025f8282546104cc919061070e565b909155506105479050565b6001600160a01b0383165f90815260208190526040902054818110156105295760405163391434e360e21b81526001600160a01b0385166004820152602481018290526044810183905260640161032d565b6001600160a01b0384165f9081526020819052604090209082900390555b6001600160a01b03821661056357600280548290039055610581565b6001600160a01b0382165f9081526020819052604090208054820190555b816001600160a01b0316836001600160a01b03167fddf252ad1be2c89b69c2b068fc378daa952ba7f163c4a11628f55a4df523b3ef836040516105c691815260200190565b60405180910390a3505050565b602081525f82518060208401528060208501604085015e5f604082850101526040601f19601f83011684010191505092915050565b80356001600160a01b038116811461061e575f80fd5b919050565b5f8060408385031215610634575f80fd5b61063d83610608565b946020939093013593505050565b5f805f6060848603121561065d575f80fd5b61066684610608565b925061067460208501610608565b929592945050506040919091013590565b5f60208284031215610695575f80fd5b61069e82610608565b9392505050565b5f80604083850312156106b6575f80fd5b6106bf83610608565b91506106cd60208401610608565b90509250929050565b600181811c908216806106ea57607f821691505b60208210810361070857634e487b7160e01b5f52602260045260245ffd5b50919050565b8082018082111561026557634e487b7160e01b5f52601160045260245ffdfea264697066735822122088c3783f6f28345c1b08222b50857fae978cd0f151270a42a87dbb114a75a67664736f6c634300081a003300000000000000000000000000000000000000000000000000000000000000400000000000000000000000000000000000000000000000000000000000000080000000000000000000000000000000000000000000000000000000000000000d4f726269742046696e616e63650000000000000000000000000000000000000000000000000000000000000000000000000000000000000000000000000000054f52424954000000000000000000000000000000000000000000000000000000",
        "nonce": "0x194",
        "chainId": "0x515"
      },
      "additionalContracts": [],
      "isFixedGasLimit": false
    },
    {
      "hash": "0xe0a645a5a44098e3944912be00cd7b915c89f431547c8acb8bc9ef6e70b5362a",
      "transactionType": "CREATE",
      "contractName": "TestToken",
      "contractAddress": "0x0726f39dbab861de81b9eafc4482c76967bf60e0",
      "function": null,
      "arguments": [
        "Zenith Labs",
        "ZEN"
      ],
      "transaction": {
        "from": "0xc5b7b574ee84a9b59b475fe32eaf908c246d3859",
        "gas": "0xb5aed",
        "value": "0x0",
        "input": "0x608060405234801561000f575f80fd5b50604051610ba5380380610ba583398101604081905261002e9161026d565b8181600361003c8382610356565b5060046100498282610356565b5050506100663369d3c21bcecceda100000061006d60201b60201c565b5050610435565b6001600160a01b03821661009b5760405163ec442f0560e01b81525f60048201526024015b60405180910390fd5b6100a65f83836100aa565b5050565b6001600160a01b0383166100d4578060025f8282546100c99190610410565b909155506101449050565b6001600160a01b0383165f90815260208190526040902054818110156101265760405163391434e360e21b81526001600160a01b03851660048201526024810182905260448101839052606401610092565b6001600160a01b0384165f9081526020819052604090209082900390555b6001600160a01b0382166101605760028054829003905561017e565b6001600160a01b0382165f9081526020819052604090208054820190555b816001600160a01b0316836001600160a01b03167fddf252ad1be2c89b69c2b068fc378daa952ba7f163c4a11628f55a4df523b3ef836040516101c391815260200190565b60405180910390a3505050565b634e487b7160e01b5f52604160045260245ffd5b5f82601f8301126101f3575f80fd5b81516001600160401b0381111561020c5761020c6101d0565b604051601f8201601f19908116603f011681016001600160401b038111828210171561023a5761023a6101d0565b604052818152838201602001851015610251575f80fd5b8160208501602083015e5f918101602001919091529392505050565b5f806040838503121561027e575f80fd5b82516001600160401b03811115610293575f80fd5b61029f858286016101e4565b602085015190935090506001600160401b038111156102bc575f80fd5b6102c8858286016101e4565b9150509250929050565b600181811c908216806102e657607f821691505b60208210810361030457634e487b7160e01b5f52602260045260245ffd5b50919050565b601f82111561035157805f5260205f20601f840160051c8101602085101561032f5750805b601f840160051c820191505b8181101561034e575f815560010161033b565b50505b505050565b81516001600160401b0381111561036f5761036f6101d0565b6103838161037d84546102d2565b8461030a565b6020601f8211600181146103b5575f831561039e5750848201515b5f19600385901b1c1916600184901b17845561034e565b5f84815260208120601f198516915b828110156103e457878501518255602094850194600190920191016103c4565b508482101561040157868401515f19600387901b60f8161c191681555b50505050600190811b01905550565b8082018082111561042f57634e487b7160e01b5f52601160045260245ffd5b92915050565b610763806104425f395ff3fe608060405234801561000f575f80fd5b50600436106100b9575f3560e01c806340c10f191161007257806395d89b411161005857806395d89b411461016f578063a9059cbb14610177578063dd62ed3e1461018a575f80fd5b806340c10f191461013257806370a0823114610147575f80fd5b806318160ddd116100a257806318160ddd146100fe57806323b872dd14610110578063313ce56714610123575f80fd5b806306fdde03146100bd578063095ea7b3146100db575b5f80fd5b6100c56101c2565b6040516100d291906105d3565b60405180910390f35b6100ee6100e9366004610623565b610252565b60405190151581526020016100d2565b6002545b6040519081526020016100d2565b6100ee61011e36600461064b565b61026b565b604051601281526020016100d2565b610145610140366004610623565b61028e565b005b610102610155366004610685565b6001600160a01b03165f9081526020819052604090205490565b6100c561029c565b6100ee610185366004610623565b6102ab565b6101026101983660046106a5565b6001600160a01b039182165f90815260016020908152604080832093909416825291909152205490565b6060600380546101d1906106d6565b80601f01602080910402602001604051908101604052809291908181526020018280546101fd906106d6565b80156102485780601f1061021f57610100808354040283529160200191610248565b820191905f5260205f20905b81548152906001019060200180831161022b57829003601f168201915b5050505050905090565b5f3361025f8185856102b8565b60019150505b92915050565b5f336102788582856102ca565b61028385858561034a565b506001949350505050565b61029882826103a7565b5050565b6060600480546101d1906106d6565b5f3361025f81858561034a565b6102c583838360016103db565b505050565b6001600160a01b038381165f908152600160209081526040808320938616835292905220545f198114610344578181101561033657604051637dc7a0d960e11b81526001600160a01b038416600482015260248101829052604481018390526064015b60405180910390fd5b61034484848484035f6103db565b50505050565b6001600160a01b03831661037357604051634b637e8f60e11b81525f600482015260240161032d565b6001600160a01b03821661039c5760405163ec442f0560e01b81525f600482015260240161032d565b6102c58383836104ad565b6001600160a01b0382166103d05760405163ec442f0560e01b81525f600482015260240161032d565b6102985f83836104ad565b6001600160a01b0384166104045760405163e602df0560e01b81525f600482015260240161032d565b6001600160a01b03831661042d57604051634a1406b160e11b81525f600482015260240161032d565b6001600160a01b038085165f908152600160209081526040808320938716835292905220829055801561034457826001600160a01b0316846001600160a01b03167f8c5be1e5ebec7d5bd14f71427d1e84f3dd0314c0f7b2291e5b200ac8c7c3b9258460405161049f91815260200190565b60405180910390a350505050565b6001600160a01b0383166104d7578060025f8282546104cc919061070e565b909155506105479050565b6001600160a01b0383165f90815260208190526040902054818110156105295760405163391434e360e21b81526001600160a01b0385166004820152602481018290526044810183905260640161032d565b6001600160a01b0384165f9081526020819052604090209082900390555b6001600160a01b03821661056357600280548290039055610581565b6001600160a01b0382165f9081526020819052604090208054820190555b816001600160a01b0316836001600160a01b03167fddf252ad1be2c89b69c2b068fc378daa952ba7f163c4a11628f55a4df523b3ef836040516105c691815260200190565b60405180910390a3505050565b602081525f82518060208401528060208501604085015e5f604082850101526040601f19601f83011684010191505092915050565b80356001600160a01b038116811461061e575f80fd5b919050565b5f8060408385031215610634575f80fd5b61063d83610608565b946020939093013593505050565b5f805f6060848603121561065d575f80fd5b61066684610608565b925061067460208501610608565b929592945050506040919091013590565b5f60208284031215610695575f80fd5b61069e82610608565b9392505050565b5f80604083850312156106b6575f80fd5b6106bf83610608565b91506106cd60208401610608565b90509250929050565b600181811c908216806106ea57607f821691505b60208210810361070857634e487b7160e01b5f52602260045260245ffd5b50919050565b8082018082111561026557634e487b7160e01b5f52601160045260245ffdfea264697066735822122088c3783f6f28345c1b08222b50857fae978cd0f151270a42a87dbb114a75a67664736f6c634300081a003300000000000000000000000000000000000000000000000000000000000000400000000000000000000000000000000000000000000000000000000000000080000000000000000000000000000000000000000000000000000000000000000b5a656e697468204c61627300000000000000000000000000000000000000000000000000000000000000000000000000000000000000000000000000000000035a454e0000000000000000000000000000000000000000000000000000000000",
        "nonce": "0x195",
        "chainId": "0x515"
      },
      "additionalContracts": [],
      "isFixedGasLimit": false
    },
    {
      "hash": "0x5252b18da9bdd109992fd9627d5c8e23cbc1b8677c27c59b41c28d4c206aa7ba",
      "transactionType": "CREATE",
      "contractName": "TestToken",
      "contractAddress": "0x94b51317fc065b578394f058ff96a3b25968741b",
      "function": null,
      "arguments": [
        "Shadow Token",
        "SHDW"
      ],
      "transaction": {
        "from": "0xc5b7b574ee84a9b59b475fe32eaf908c246d3859",
        "gas": "0xb5b0c",
        "value": "0x0",
        "input": "0x608060405234801561000f575f80fd5b50604051610ba5380380610ba583398101604081905261002e9161026d565b8181600361003c8382610356565b5060046100498282610356565b5050506100663369d3c21bcecceda100000061006d60201b60201c565b5050610435565b6001600160a01b03821661009b5760405163ec442f0560e01b81525f60048201526024015b60405180910390fd5b6100a65f83836100aa565b5050565b6001600160a01b0383166100d4578060025f8282546100c99190610410565b909155506101449050565b6001600160a01b0383165f90815260208190526040902054818110156101265760405163391434e360e21b81526001600160a01b03851660048201526024810182905260448101839052606401610092565b6001600160a01b0384165f9081526020819052604090209082900390555b6001600160a01b0382166101605760028054829003905561017e565b6001600160a01b0382165f9081526020819052604090208054820190555b816001600160a01b0316836001600160a01b03167fddf252ad1be2c89b69c2b068fc378daa952ba7f163c4a11628f55a4df523b3ef836040516101c391815260200190565b60405180910390a3505050565b634e487b7160e01b5f52604160045260245ffd5b5f82601f8301126101f3575f80fd5b81516001600160401b0381111561020c5761020c6101d0565b604051601f8201601f19908116603f011681016001600160401b038111828210171561023a5761023a6101d0565b604052818152838201602001851015610251575f80fd5b8160208501602083015e5f918101602001919091529392505050565b5f806040838503121561027e575f80fd5b82516001600160401b03811115610293575f80fd5b61029f858286016101e4565b602085015190935090506001600160401b038111156102bc575f80fd5b6102c8858286016101e4565b9150509250929050565b600181811c908216806102e657607f821691505b60208210810361030457634e487b7160e01b5f52602260045260245ffd5b50919050565b601f82111561035157805f5260205f20601f840160051c8101602085101561032f5750805b601f840160051c820191505b8181101561034e575f815560010161033b565b50505b505050565b81516001600160401b0381111561036f5761036f6101d0565b6103838161037d84546102d2565b8461030a565b6020601f8211600181146103b5575f831561039e5750848201515b5f19600385901b1c1916600184901b17845561034e565b5f84815260208120601f198516915b828110156103e457878501518255602094850194600190920191016103c4565b508482101561040157868401515f19600387901b60f8161c191681555b50505050600190811b01905550565b8082018082111561042f57634e487b7160e01b5f52601160045260245ffd5b92915050565b610763806104425f395ff3fe608060405234801561000f575f80fd5b50600436106100b9575f3560e01c806340c10f191161007257806395d89b411161005857806395d89b411461016f578063a9059cbb14610177578063dd62ed3e1461018a575f80fd5b806340c10f191461013257806370a0823114610147575f80fd5b806318160ddd116100a257806318160ddd146100fe57806323b872dd14610110578063313ce56714610123575f80fd5b806306fdde03146100bd578063095ea7b3146100db575b5f80fd5b6100c56101c2565b6040516100d291906105d3565b60405180910390f35b6100ee6100e9366004610623565b610252565b60405190151581526020016100d2565b6002545b6040519081526020016100d2565b6100ee61011e36600461064b565b61026b565b604051601281526020016100d2565b610145610140366004610623565b61028e565b005b610102610155366004610685565b6001600160a01b03165f9081526020819052604090205490565b6100c561029c565b6100ee610185366004610623565b6102ab565b6101026101983660046106a5565b6001600160a01b039182165f90815260016020908152604080832093909416825291909152205490565b6060600380546101d1906106d6565b80601f01602080910402602001604051908101604052809291908181526020018280546101fd906106d6565b80156102485780601f1061021f57610100808354040283529160200191610248565b820191905f5260205f20905b81548152906001019060200180831161022b57829003601f168201915b5050505050905090565b5f3361025f8185856102b8565b60019150505b92915050565b5f336102788582856102ca565b61028385858561034a565b506001949350505050565b61029882826103a7565b5050565b6060600480546101d1906106d6565b5f3361025f81858561034a565b6102c583838360016103db565b505050565b6001600160a01b038381165f908152600160209081526040808320938616835292905220545f198114610344578181101561033657604051637dc7a0d960e11b81526001600160a01b038416600482015260248101829052604481018390526064015b60405180910390fd5b61034484848484035f6103db565b50505050565b6001600160a01b03831661037357604051634b637e8f60e11b81525f600482015260240161032d565b6001600160a01b03821661039c5760405163ec442f0560e01b81525f600482015260240161032d565b6102c58383836104ad565b6001600160a01b0382166103d05760405163ec442f0560e01b81525f600482015260240161032d565b6102985f83836104ad565b6001600160a01b0384166104045760405163e602df0560e01b81525f600482015260240161032d565b6001600160a01b03831661042d57604051634a1406b160e11b81525f600482015260240161032d565b6001600160a01b038085165f908152600160209081526040808320938716835292905220829055801561034457826001600160a01b0316846001600160a01b03167f8c5be1e5ebec7d5bd14f71427d1e84f3dd0314c0f7b2291e5b200ac8c7c3b9258460405161049f91815260200190565b60405180910390a350505050565b6001600160a01b0383166104d7578060025f8282546104cc919061070e565b909155506105479050565b6001600160a01b0383165f90815260208190526040902054818110156105295760405163391434e360e21b81526001600160a01b0385166004820152602481018290526044810183905260640161032d565b6001600160a01b0384165f9081526020819052604090209082900390555b6001600160a01b03821661056357600280548290039055610581565b6001600160a01b0382165f9081526020819052604090208054820190555b816001600160a01b0316836001600160a01b03167fddf252ad1be2c89b69c2b068fc378daa952ba7f163c4a11628f55a4df523b3ef836040516105c691815260200190565b60405180910390a3505050565b602081525f82518060208401528060208501604085015e5f604082850101526040601f19601f83011684010191505092915050565b80356001600160a01b038116811461061e575f80fd5b919050565b5f8060408385031215610634575f80fd5b61063d83610608565b946020939093013593505050565b5f805f6060848603121561065d575f80fd5b61066684610608565b925061067460208501610608565b929592945050506040919091013590565b5f60208284031215610695575f80fd5b61069e82610608565b9392505050565b5f80604083850312156106b6575f80fd5b6106bf83610608565b91506106cd60208401610608565b90509250929050565b600181811c908216806106ea57607f821691505b60208210810361070857634e487b7160e01b5f52602260045260245ffd5b50919050565b8082018082111561026557634e487b7160e01b5f52601160045260245ffdfea264697066735822122088c3783f6f28345c1b08222b50857fae978cd0f151270a42a87dbb114a75a67664736f6c634300081a003300000000000000000000000000000000000000000000000000000000000000400000000000000000000000000000000000000000000000000000000000000080000000000000000000000000000000000000000000000000000000000000000c536861646f7720546f6b656e000000000000000000000000000000000000000000000000000000000000000000000000000000000000000000000000000000045348445700000000000000000000000000000000000000000000000000000000",
        "nonce": "0x196",
        "chainId": "0x515"
      },
      "additionalContracts": [],
      "isFixedGasLimit": false
    },
    {
      "hash": "0x2cad991fc7292379c286a93ea97affff1cfcd3a920b0f197223de9a0bb4be179",
      "transactionType": "CALL",
      "contractName": null,
      "contractAddress": "0xdae6cf499756455de55eaad590d59609870e1a3c",
      "function": null,
      "arguments": null,
      "transaction": {
        "from": "0xc5b7b574ee84a9b59b475fe32eaf908c246d3859",
        "to": "0xdae6cf499756455de55eaad590d59609870e1a3c",
        "gas": "0x714d",
        "value": "0x71afd498d0000",
        "input": "0x",
        "nonce": "0x197",
        "chainId": "0x515"
      },
      "additionalContracts": [],
      "isFixedGasLimit": false
    },
    {
      "hash": "0xc71a3cd922c3f6c30a69ffea9dfe6bb36d60edb3164b82555db581bc81a38198",
      "transactionType": "CALL",
      "contractName": null,
      "contractAddress": "0xca093b5e50df91117440f9dfd1542b8f42075d67",
      "function": null,
      "arguments": null,
      "transaction": {
        "from": "0xc5b7b574ee84a9b59b475fe32eaf908c246d3859",
        "to": "0xca093b5e50df91117440f9dfd1542b8f42075d67",
        "gas": "0x714d",
        "value": "0x71afd498d0000",
        "input": "0x",
        "nonce": "0x198",
        "chainId": "0x515"
      },
      "additionalContracts": [],
      "isFixedGasLimit": false
    },
    {
      "hash": "0x491acfd444d50fa9b1179556dd76ce130c061b346c51c0b56dd65921a7351e32",
      "transactionType": "CALL",
      "contractName": null,
      "contractAddress": "0x6da90fd521d6cff9d373204038459addca260f2a",
      "function": null,
      "arguments": null,
      "transaction": {
        "from": "0xc5b7b574ee84a9b59b475fe32eaf908c246d3859",
        "to": "0x6da90fd521d6cff9d373204038459addca260f2a",
        "gas": "0x714d",
        "value": "0x71afd498d0000",
        "input": "0x",
        "nonce": "0x199",
        "chainId": "0x515"
      },
      "additionalContracts": [],
      "isFixedGasLimit": false
    },
    {
      "hash": "0x3636c1c511050e39bf6e6a48f16e0e3dd4fd85b1357ab5d0c89953b33bad1ba3",
      "transactionType": "CALL",
      "contractName": null,
      "contractAddress": "0x699507c6aeb4268ff4dc05721c803dbe466cec6f",
      "function": null,
      "arguments": null,
      "transaction": {
        "from": "0xc5b7b574ee84a9b59b475fe32eaf908c246d3859",
        "to": "0x699507c6aeb4268ff4dc05721c803dbe466cec6f",
        "gas": "0x714d",
        "value": "0x71afd498d0000",
        "input": "0x",
        "nonce": "0x19a",
        "chainId": "0x515"
      },
      "additionalContracts": [],
      "isFixedGasLimit": false
    },
    {
      "hash": "0xf6a187ed3fc92888d67b626aec316b5481d8f047b3b3aff999695e392fdb2375",
      "transactionType": "CALL",
      "contractName": null,
      "contractAddress": "0x079bb29d652294b01f4bdf86bb318277e0892e14",
      "function": null,
      "arguments": null,
      "transaction": {
        "from": "0xc5b7b574ee84a9b59b475fe32eaf908c246d3859",
        "to": "0x079bb29d652294b01f4bdf86bb318277e0892e14",
        "gas": "0x714d",
        "value": "0x71afd498d0000",
        "input": "0x",
        "nonce": "0x19b",
        "chainId": "0x515"
      },
      "additionalContracts": [],
      "isFixedGasLimit": false
    },
    {
      "hash": "0xa80951e2a75e57343602ec3fdead8cb49e8d5951112e37ef8284630f2259c816",
      "transactionType": "CALL",
      "contractName": null,
      "contractAddress": "0x97b49acb6c8c803f2092dc5a06f557dbfc098640",
      "function": "registerVestingPosition((uint8,uint256,uint8,bool)[3],address,bytes32)",
      "arguments": [
        "[(0, 1000000000000000000000000, 34, false), (1, 5000000000000000000000000, 33, false), (2, 10000, 33, false)]",
        "0xeBfe314e711119F97787b4e121D23367B6bE37B9",
        "0xbd8142019eca780e28acf408a55fe5e483c960ede62a5933c583db9c3c0460f0"
      ],
      "transaction": {
        "from": "0xdae6cf499756455de55eaad590d59609870e1a3c",
        "to": "0x97b49acb6c8c803f2092dc5a06f557dbfc098640",
        "gas": "0x6c8ba",
        "value": "0x0",
        "input": "0x32f7488c000000000000000000000000000000000000000000000000000000000000000000000000000000000000000000000000000000000000d3c21bcecceda10000000000000000000000000000000000000000000000000000000000000000000022000000000000000000000000000000000000000000000000000000000000000000000000000000000000000000000000000000000000000000000000000000010000000000000000000000000000000000000000000422ca8b0a00a425000000000000000000000000000000000000000000000000000000000000000000002100000000000000000000000000000000000000000000000000000000000000000000000000000000000000000000000000000000000000000000000000000002000000000000000000000000000000000000000000000000000000000000271000000000000000000000000000000000000000000000000000000000000000210000000000000000000000000000000000000000000000000000000000000000000000000000000000000000ebfe314e711119f97787b4e121d23367b6be37b9bd8142019eca780e28acf408a55fe5e483c960ede62a5933c583db9c3c0460f0",
        "nonce": "0x0",
        "chainId": "0x515"
      },
      "additionalContracts": [],
      "isFixedGasLimit": false
    },
    {
      "hash": "0x9acf0c88d435d9232a82bbb1b4da6729fd85a337f613e85bfd1148db48f40bfc",
      "transactionType": "CALL",
      "contractName": null,
      "contractAddress": "0x97b49acb6c8c803f2092dc5a06f557dbfc098640",
      "function": "registerVestingPosition((uint8,uint256,uint8,bool)[3],address,bytes32)",
      "arguments": [
        "[(0, 500000000000000000000, 34, false), (1, 2000000000000000000000, 33, false), (2, 50, 33, false)]",
        "0x46f02e8CF663B74AEa15e6f613433DAd1dD6b7fB",
        "0xc33a04a1c4534e89bbe639a8403b94f1eaf7fdf30abe389c0460c22245cab0fd"
      ],
      "transaction": {
        "from": "0xca093b5e50df91117440f9dfd1542b8f42075d67",
        "to": "0x97b49acb6c8c803f2092dc5a06f557dbfc098640",
        "gas": "0x6682d",
        "value": "0x0",
        "input": "0x32f7488c000000000000000000000000000000000000000000000000000000000000000000000000000000000000000000000000000000000000001b1ae4d6e2ef50000000000000000000000000000000000000000000000000000000000000000000220000000000000000000000000000000000000000000000000000000000000000000000000000000000000000000000000000000000000000000000000000000100000000000000000000000000000000000000000000006c6b935b8bbd40000000000000000000000000000000000000000000000000000000000000000000210000000000000000000000000000000000000000000000000000000000000000000000000000000000000000000000000000000000000000000000000000000200000000000000000000000000000000000000000000000000000000000000320000000000000000000000000000000000000000000000000000000000000021000000000000000000000000000000000000000000000000000000000000000000000000000000000000000046f02e8cf663b74aea15e6f613433dad1dd6b7fbc33a04a1c4534e89bbe639a8403b94f1eaf7fdf30abe389c0460c22245cab0fd",
        "nonce": "0x0",
        "chainId": "0x515"
      },
      "additionalContracts": [],
      "isFixedGasLimit": false
    },
    {
      "hash": "0x25affca7b0cbceac760c0273cc5523b6872ddc51232cabdd7fd5a405cc7e10e2",
      "transactionType": "CALL",
      "contractName": null,
      "contractAddress": "0x97b49acb6c8c803f2092dc5a06f557dbfc098640",
      "function": "registerVestingPosition((uint8,uint256,uint8,bool)[3],address,bytes32)",
      "arguments": [
        "[(0, 500000000000000000000, 34, false), (1, 2000000000000000000000, 33, false), (2, 50, 33, false)]",
        "0xe485AfbD687aC536597CEb7cbB70baD2499b3688",
        "0x84ba1aaf5703b3f9bda6cc98dea3619de970be96e080f634410554bab4e8855f"
      ],
      "transaction": {
        "from": "0x6da90fd521d6cff9d373204038459addca260f2a",
        "to": "0x97b49acb6c8c803f2092dc5a06f557dbfc098640",
        "gas": "0x6682d",
        "value": "0x0",
        "input": "0x32f7488c000000000000000000000000000000000000000000000000000000000000000000000000000000000000000000000000000000000000001b1ae4d6e2ef50000000000000000000000000000000000000000000000000000000000000000000220000000000000000000000000000000000000000000000000000000000000000000000000000000000000000000000000000000000000000000000000000000100000000000000000000000000000000000000000000006c6b935b8bbd400000000000000000000000000000000000000000000000000000000000000000002100000000000000000000000000000000000000000000000000000000000000000000000000000000000000000000000000000000000000000000000000000002000000000000000000000000000000000000000000000000000000000000003200000000000000000000000000000000000000000000000000000000000000210000000000000000000000000000000000000000000000000000000000000000000000000000000000000000e485afbd687ac536597ceb7cbb70bad2499b368884ba1aaf5703b3f9bda6cc98dea3619de970be96e080f634410554bab4e8855f",
        "nonce": "0x0",
        "chainId": "0x515"
      },
      "additionalContracts": [],
      "isFixedGasLimit": false
    },
    {
      "hash": "0x34c7572f8450d3569bdf985e52edebc2dd974190899245f2e48aced27311e4b5",
      "transactionType": "CALL",
      "contractName": null,
      "contractAddress": "0x97b49acb6c8c803f2092dc5a06f557dbfc098640",
      "function": "registerVestingPosition((uint8,uint256,uint8,bool)[3],address,bytes32)",
      "arguments": [
        "[(0, 100000000000000000000, 34, false), (1, 100000000000000000000, 33, false), (2, 2, 33, false)]",
        "0x0726F39DbAB861de81B9eAfc4482c76967bf60E0",
        "0x446c13b23cfb7e0d81be115e6cbe72a19ebfd1d4c8b152e7ddec920845ad7b88"
      ],
      "transaction": {
        "from": "0x699507c6aeb4268ff4dc05721c803dbe466cec6f",
        "to": "0x97b49acb6c8c803f2092dc5a06f557dbfc098640",
        "gas": "0x6682d",
        "value": "0x0",
        "input": "0x32f7488c00000000000000000000000000000000000000000000000000000000000000000000000000000000000000000000000000000000000000056bc75e2d631000000000000000000000000000000000000000000000000000000000000000000022000000000000000000000000000000000000000000000000000000000000000000000000000000000000000000000000000000000000000000000000000000010000000000000000000000000000000000000000000000056bc75e2d631000000000000000000000000000000000000000000000000000000000000000000021000000000000000000000000000000000000000000000000000000000000000000000000000000000000000000000000000000000000000000000000000000020000000000000000000000000000000000000000000000000000000000000002000000000000000000000000000000000000000000000000000000000000002100000000000000000000000000000000000000000000000000000000000000000000000000000000000000000726f39dbab861de81b9eafc4482c76967bf60e0446c13b23cfb7e0d81be115e6cbe72a19ebfd1d4c8b152e7ddec920845ad7b88",
        "nonce": "0x0",
        "chainId": "0x515"
      },
      "additionalContracts": [],
      "isFixedGasLimit": false
    },
    {
      "hash": "0x886b1649596cbae93952a4d3e6b871ed10768963d9210fd924c90b706f7023a2",
      "transactionType": "CALL",
      "contractName": null,
      "contractAddress": "0x97b49acb6c8c803f2092dc5a06f557dbfc098640",
      "function": "registerVestingPosition((uint8,uint256,uint8,bool)[3],address,bytes32)",
      "arguments": [
        "[(0, 500000000000000000000, 34, false), (1, 2000000000000000000000, 33, false), (2, 50, 33, false)]",
        "0x94b51317fc065b578394f058fF96a3B25968741B",
        "0x5f51794b0b98faa5904dab7718ae76fc2a6883d4f53ec8f7dbe5469b8c12ec73"
      ],
      "transaction": {
        "from": "0x079bb29d652294b01f4bdf86bb318277e0892e14",
        "to": "0x97b49acb6c8c803f2092dc5a06f557dbfc098640",
        "gas": "0x6682d",
        "value": "0x0",
        "input": "0x32f7488c000000000000000000000000000000000000000000000000000000000000000000000000000000000000000000000000000000000000001b1ae4d6e2ef50000000000000000000000000000000000000000000000000000000000000000000220000000000000000000000000000000000000000000000000000000000000000000000000000000000000000000000000000000000000000000000000000000100000000000000000000000000000000000000000000006c6b935b8bbd40000000000000000000000000000000000000000000000000000000000000000000210000000000000000000000000000000000000000000000000000000000000000000000000000000000000000000000000000000000000000000000000000000200000000000000000000000000000000000000000000000000000000000000320000000000000000000000000000000000000000000000000000000000000021000000000000000000000000000000000000000000000000000000000000000000000000000000000000000094b51317fc065b578394f058ff96a3b25968741b5f51794b0b98faa5904dab7718ae76fc2a6883d4f53ec8f7dbe5469b8c12ec73",
        "nonce": "0x0",
        "chainId": "0x515"
      },
      "additionalContracts": [],
      "isFixedGasLimit": false
    },
    {
      "hash": "0x9aea36c7c088c478b949c3fcecb7490ceb2de76f3dee2c0bf74114d36586d38f",
      "transactionType": "CALL",
      "contractName": null,
      "contractAddress": "0x00b036b58a818b1bc34d502d3fe730db729e62ac",
      "function": "initialize((address,address,uint24,int24,address),uint160)",
      "arguments": [
        "(0x552c3f98BDE60D3298C0c85CdE5F5F63d52dbCe2, 0xeBfe314e711119F97787b4e121D23367B6bE37B9, 3000, 60, 0x97B49acb6C8c803f2092DC5A06F557dBfC098640)",
        "79228162514264337593543950336"
      ],
      "transaction": {
        "from": "0xc5b7b574ee84a9b59b475fe32eaf908c246d3859",
        "to": "0x00b036b58a818b1bc34d502d3fe730db729e62ac",
        "gas": "0x11721",
        "value": "0x0",
        "input": "0x6276cbbe000000000000000000000000552c3f98bde60d3298c0c85cde5f5f63d52dbce2000000000000000000000000ebfe314e711119f97787b4e121d23367b6be37b90000000000000000000000000000000000000000000000000000000000000bb8000000000000000000000000000000000000000000000000000000000000003c00000000000000000000000097b49acb6c8c803f2092dc5a06f557dbfc0986400000000000000000000000000000000000000001000000000000000000000000",
        "nonce": "0x19c",
        "chainId": "0x515"
      },
      "additionalContracts": [],
      "isFixedGasLimit": false
    },
    {
      "hash": "0x1082aace07e667bf221002566d19b6cecbd944738ae1cecac12f0723e7974704",
      "transactionType": "CALL",
      "contractName": "TestToken",
      "contractAddress": "0x552c3f98bde60d3298c0c85cde5f5f63d52dbce2",
      "function": "approve(address,uint256)",
      "arguments": [
        "0x5fa728C0A5cfd51BEe4B060773f50554c0C8A7AB",
        "10000000000000000000000"
      ],
      "transaction": {
        "from": "0xc5b7b574ee84a9b59b475fe32eaf908c246d3859",
        "to": "0x552c3f98bde60d3298c0c85cde5f5f63d52dbce2",
        "gas": "0xfa6c",
        "value": "0x0",
        "input": "0x095ea7b30000000000000000000000005fa728c0a5cfd51bee4b060773f50554c0c8a7ab00000000000000000000000000000000000000000000021e19e0c9bab2400000",
        "nonce": "0x19d",
        "chainId": "0x515"
      },
      "additionalContracts": [],
      "isFixedGasLimit": false
    },
    {
      "hash": "0x7bcf94b3c3d05a85fe252fe19e837cbdc6cfe2b6245da6dd4310def18962b069",
      "transactionType": "CALL",
      "contractName": "TestToken",
      "contractAddress": "0xebfe314e711119f97787b4e121d23367b6be37b9",
      "function": "approve(address,uint256)",
      "arguments": [
        "0x5fa728C0A5cfd51BEe4B060773f50554c0C8A7AB",
        "10000000000000000000000"
      ],
      "transaction": {
        "from": "0xc5b7b574ee84a9b59b475fe32eaf908c246d3859",
        "to": "0xebfe314e711119f97787b4e121d23367b6be37b9",
        "gas": "0xfa6c",
        "value": "0x0",
        "input": "0x095ea7b30000000000000000000000005fa728c0a5cfd51bee4b060773f50554c0c8a7ab00000000000000000000000000000000000000000000021e19e0c9bab2400000",
        "nonce": "0x19e",
        "chainId": "0x515"
      },
      "additionalContracts": [],
      "isFixedGasLimit": false
    },
    {
      "hash": "0x4e9676c31ee41d5f4dce6070b683f5962d71024b8f05c5104465d160e84996a4",
      "transactionType": "CALL",
      "contractName": null,
      "contractAddress": "0x5fa728c0a5cfd51bee4b060773f50554c0c8a7ab",
      "function": "modifyLiquidity((address,address,uint24,int24,address),(int24,int24,int256,bytes32),bytes)",
      "arguments": [
        "(0x552c3f98BDE60D3298C0c85CdE5F5F63d52dbCe2, 0xeBfe314e711119F97787b4e121D23367B6bE37B9, 3000, 60, 0x97B49acb6C8c803f2092DC5A06F557dBfC098640)",
        "(-887220, 887220, 10000000000000000000000, 0x0000000000000000000000000000000000000000000000000000000000000000)",
        "0x"
      ],
      "transaction": {
        "from": "0xc5b7b574ee84a9b59b475fe32eaf908c246d3859",
        "to": "0x5fa728c0a5cfd51bee4b060773f50554c0c8a7ab",
        "gas": "0x82f5d",
        "value": "0x0",
        "input": "0x5a6bcfda000000000000000000000000552c3f98bde60d3298c0c85cde5f5f63d52dbce2000000000000000000000000ebfe314e711119f97787b4e121d23367b6be37b90000000000000000000000000000000000000000000000000000000000000bb8000000000000000000000000000000000000000000000000000000000000003c00000000000000000000000097b49acb6c8c803f2092dc5a06f557dbfc098640fffffffffffffffffffffffffffffffffffffffffffffffffffffffffff2764c00000000000000000000000000000000000000000000000000000000000d89b400000000000000000000000000000000000000000000021e19e0c9bab2400000000000000000000000000000000000000000000000000000000000000000000000000000000000000000000000000000000000000000000000000000000001400000000000000000000000000000000000000000000000000000000000000000",
        "nonce": "0x19f",
        "chainId": "0x515"
      },
      "additionalContracts": [],
      "isFixedGasLimit": false
    },
    {
      "hash": "0xed117af916d55da264bbb46760f07b2709e3bd38f7fed795e7cea56f330cc8c7",
      "transactionType": "CALL",
      "contractName": null,
      "contractAddress": "0x00b036b58a818b1bc34d502d3fe730db729e62ac",
      "function": "initialize((address,address,uint24,int24,address),uint160)",
      "arguments": [
        "(0x46f02e8CF663B74AEa15e6f613433DAd1dD6b7fB, 0x552c3f98BDE60D3298C0c85CdE5F5F63d52dbCe2, 3000, 60, 0x97B49acb6C8c803f2092DC5A06F557dBfC098640)",
        "79228162514264337593543950336"
      ],
      "transaction": {
        "from": "0xc5b7b574ee84a9b59b475fe32eaf908c246d3859",
        "to": "0x00b036b58a818b1bc34d502d3fe730db729e62ac",
        "gas": "0x11721",
        "value": "0x0",
        "input": "0x6276cbbe00000000000000000000000046f02e8cf663b74aea15e6f613433dad1dd6b7fb000000000000000000000000552c3f98bde60d3298c0c85cde5f5f63d52dbce20000000000000000000000000000000000000000000000000000000000000bb8000000000000000000000000000000000000000000000000000000000000003c00000000000000000000000097b49acb6c8c803f2092dc5a06f557dbfc0986400000000000000000000000000000000000000001000000000000000000000000",
        "nonce": "0x1a0",
        "chainId": "0x515"
      },
      "additionalContracts": [],
      "isFixedGasLimit": false
    },
    {
      "hash": "0xb4dce00488b681fd0b6240089d15396c5e2f3e6513d48a0f9fec46c61fb2668c",
      "transactionType": "CALL",
      "contractName": "TestToken",
      "contractAddress": "0x46f02e8cf663b74aea15e6f613433dad1dd6b7fb",
      "function": "approve(address,uint256)",
      "arguments": [
        "0x5fa728C0A5cfd51BEe4B060773f50554c0C8A7AB",
        "10000000000000000000000"
      ],
      "transaction": {
        "from": "0xc5b7b574ee84a9b59b475fe32eaf908c246d3859",
        "to": "0x46f02e8cf663b74aea15e6f613433dad1dd6b7fb",
        "gas": "0xfa6c",
        "value": "0x0",
        "input": "0x095ea7b30000000000000000000000005fa728c0a5cfd51bee4b060773f50554c0c8a7ab00000000000000000000000000000000000000000000021e19e0c9bab2400000",
        "nonce": "0x1a1",
        "chainId": "0x515"
      },
      "additionalContracts": [],
      "isFixedGasLimit": false
    },
    {
      "hash": "0x7de399b35317cedb351beb64d6705423a6b7a162c23cb16a97d45e5a3883ed1f",
      "transactionType": "CALL",
      "contractName": "TestToken",
      "contractAddress": "0x552c3f98bde60d3298c0c85cde5f5f63d52dbce2",
      "function": "approve(address,uint256)",
      "arguments": [
        "0x5fa728C0A5cfd51BEe4B060773f50554c0C8A7AB",
        "10000000000000000000000"
      ],
      "transaction": {
        "from": "0xc5b7b574ee84a9b59b475fe32eaf908c246d3859",
        "to": "0x552c3f98bde60d3298c0c85cde5f5f63d52dbce2",
        "gas": "0xa777",
        "value": "0x0",
        "input": "0x095ea7b30000000000000000000000005fa728c0a5cfd51bee4b060773f50554c0c8a7ab00000000000000000000000000000000000000000000021e19e0c9bab2400000",
        "nonce": "0x1a2",
        "chainId": "0x515"
      },
      "additionalContracts": [],
      "isFixedGasLimit": false
    },
    {
      "hash": "0x3b05176883095b78259a3876090f76736a411ec830b928fcc36f869d96c0025d",
      "transactionType": "CALL",
      "contractName": null,
      "contractAddress": "0x5fa728c0a5cfd51bee4b060773f50554c0c8a7ab",
      "function": "modifyLiquidity((address,address,uint24,int24,address),(int24,int24,int256,bytes32),bytes)",
      "arguments": [
        "(0x46f02e8CF663B74AEa15e6f613433DAd1dD6b7fB, 0x552c3f98BDE60D3298C0c85CdE5F5F63d52dbCe2, 3000, 60, 0x97B49acb6C8c803f2092DC5A06F557dBfC098640)",
        "(-887220, 887220, 10000000000000000000000, 0x0000000000000000000000000000000000000000000000000000000000000000)",
        "0x"
      ],
      "transaction": {
        "from": "0xc5b7b574ee84a9b59b475fe32eaf908c246d3859",
        "to": "0x5fa728c0a5cfd51bee4b060773f50554c0c8a7ab",
        "gas": "0x75eb0",
        "value": "0x0",
        "input": "0x5a6bcfda00000000000000000000000046f02e8cf663b74aea15e6f613433dad1dd6b7fb000000000000000000000000552c3f98bde60d3298c0c85cde5f5f63d52dbce20000000000000000000000000000000000000000000000000000000000000bb8000000000000000000000000000000000000000000000000000000000000003c00000000000000000000000097b49acb6c8c803f2092dc5a06f557dbfc098640fffffffffffffffffffffffffffffffffffffffffffffffffffffffffff2764c00000000000000000000000000000000000000000000000000000000000d89b400000000000000000000000000000000000000000000021e19e0c9bab2400000000000000000000000000000000000000000000000000000000000000000000000000000000000000000000000000000000000000000000000000000000001400000000000000000000000000000000000000000000000000000000000000000",
        "nonce": "0x1a3",
        "chainId": "0x515"
      },
      "additionalContracts": [],
      "isFixedGasLimit": false
    },
    {
      "hash": "0x77504c815e9cd7af80fcfb01eed746be0d3dac752b33e74b848eb21688c15301",
      "transactionType": "CALL",
      "contractName": null,
      "contractAddress": "0x00b036b58a818b1bc34d502d3fe730db729e62ac",
      "function": "initialize((address,address,uint24,int24,address),uint160)",
      "arguments": [
        "(0x552c3f98BDE60D3298C0c85CdE5F5F63d52dbCe2, 0xe485AfbD687aC536597CEb7cbB70baD2499b3688, 3000, 60, 0x97B49acb6C8c803f2092DC5A06F557dBfC098640)",
        "79228162514264337593543950336"
      ],
      "transaction": {
        "from": "0xc5b7b574ee84a9b59b475fe32eaf908c246d3859",
        "to": "0x00b036b58a818b1bc34d502d3fe730db729e62ac",
        "gas": "0x11721",
        "value": "0x0",
        "input": "0x6276cbbe000000000000000000000000552c3f98bde60d3298c0c85cde5f5f63d52dbce2000000000000000000000000e485afbd687ac536597ceb7cbb70bad2499b36880000000000000000000000000000000000000000000000000000000000000bb8000000000000000000000000000000000000000000000000000000000000003c00000000000000000000000097b49acb6c8c803f2092dc5a06f557dbfc0986400000000000000000000000000000000000000001000000000000000000000000",
        "nonce": "0x1a4",
        "chainId": "0x515"
      },
      "additionalContracts": [],
      "isFixedGasLimit": false
    },
    {
      "hash": "0xd9851d505c34714efc76323910a052d0566fd60a7cbcad80ca746ae68757d56f",
      "transactionType": "CALL",
      "contractName": "TestToken",
      "contractAddress": "0x552c3f98bde60d3298c0c85cde5f5f63d52dbce2",
      "function": "approve(address,uint256)",
      "arguments": [
        "0x5fa728C0A5cfd51BEe4B060773f50554c0C8A7AB",
        "10000000000000000000000"
      ],
      "transaction": {
        "from": "0xc5b7b574ee84a9b59b475fe32eaf908c246d3859",
        "to": "0x552c3f98bde60d3298c0c85cde5f5f63d52dbce2",
        "gas": "0xa777",
        "value": "0x0",
        "input": "0x095ea7b30000000000000000000000005fa728c0a5cfd51bee4b060773f50554c0c8a7ab00000000000000000000000000000000000000000000021e19e0c9bab2400000",
        "nonce": "0x1a5",
        "chainId": "0x515"
      },
      "additionalContracts": [],
      "isFixedGasLimit": false
    },
    {
      "hash": "0x5924c30be9ce88ec234a28dbc54c7f9da82f61a05aba8a5679d4cf66376787cd",
      "transactionType": "CALL",
      "contractName": "TestToken",
      "contractAddress": "0xe485afbd687ac536597ceb7cbb70bad2499b3688",
      "function": "approve(address,uint256)",
      "arguments": [
        "0x5fa728C0A5cfd51BEe4B060773f50554c0C8A7AB",
        "10000000000000000000000"
      ],
      "transaction": {
        "from": "0xc5b7b574ee84a9b59b475fe32eaf908c246d3859",
        "to": "0xe485afbd687ac536597ceb7cbb70bad2499b3688",
        "gas": "0xfa6c",
        "value": "0x0",
        "input": "0x095ea7b30000000000000000000000005fa728c0a5cfd51bee4b060773f50554c0c8a7ab00000000000000000000000000000000000000000000021e19e0c9bab2400000",
        "nonce": "0x1a6",
        "chainId": "0x515"
      },
      "additionalContracts": [],
      "isFixedGasLimit": false
    },
    {
      "hash": "0x2f5c37dc1f3668ff4969f8993cec9e8dfe905dce7855e0ea8867955e1defad82",
      "transactionType": "CALL",
      "contractName": null,
      "contractAddress": "0x5fa728c0a5cfd51bee4b060773f50554c0c8a7ab",
      "function": "modifyLiquidity((address,address,uint24,int24,address),(int24,int24,int256,bytes32),bytes)",
      "arguments": [
        "(0x552c3f98BDE60D3298C0c85CdE5F5F63d52dbCe2, 0xe485AfbD687aC536597CEb7cbB70baD2499b3688, 3000, 60, 0x97B49acb6C8c803f2092DC5A06F557dBfC098640)",
        "(-887220, 887220, 10000000000000000000000, 0x0000000000000000000000000000000000000000000000000000000000000000)",
        "0x"
      ],
      "transaction": {
        "from": "0xc5b7b574ee84a9b59b475fe32eaf908c246d3859",
        "to": "0x5fa728c0a5cfd51bee4b060773f50554c0c8a7ab",
        "gas": "0x75eb0",
        "value": "0x0",
        "input": "0x5a6bcfda000000000000000000000000552c3f98bde60d3298c0c85cde5f5f63d52dbce2000000000000000000000000e485afbd687ac536597ceb7cbb70bad2499b36880000000000000000000000000000000000000000000000000000000000000bb8000000000000000000000000000000000000000000000000000000000000003c00000000000000000000000097b49acb6c8c803f2092dc5a06f557dbfc098640fffffffffffffffffffffffffffffffffffffffffffffffffffffffffff2764c00000000000000000000000000000000000000000000000000000000000d89b400000000000000000000000000000000000000000000021e19e0c9bab2400000000000000000000000000000000000000000000000000000000000000000000000000000000000000000000000000000000000000000000000000000000001400000000000000000000000000000000000000000000000000000000000000000",
        "nonce": "0x1a7",
        "chainId": "0x515"
      },
      "additionalContracts": [],
      "isFixedGasLimit": false
    },
    {
      "hash": "0x8402b959c3395073bd98de8074c7fb55b7d5bb1b370a741e9f23c44adf14aef5",
      "transactionType": "CALL",
      "contractName": null,
      "contractAddress": "0x00b036b58a818b1bc34d502d3fe730db729e62ac",
      "function": "initialize((address,address,uint24,int24,address),uint160)",
      "arguments": [
        "(0x0726F39DbAB861de81B9eAfc4482c76967bf60E0, 0x552c3f98BDE60D3298C0c85CdE5F5F63d52dbCe2, 3000, 60, 0x97B49acb6C8c803f2092DC5A06F557dBfC098640)",
        "79228162514264337593543950336"
      ],
      "transaction": {
        "from": "0xc5b7b574ee84a9b59b475fe32eaf908c246d3859",
        "to": "0x00b036b58a818b1bc34d502d3fe730db729e62ac",
        "gas": "0x11721",
        "value": "0x0",
        "input": "0x6276cbbe0000000000000000000000000726f39dbab861de81b9eafc4482c76967bf60e0000000000000000000000000552c3f98bde60d3298c0c85cde5f5f63d52dbce20000000000000000000000000000000000000000000000000000000000000bb8000000000000000000000000000000000000000000000000000000000000003c00000000000000000000000097b49acb6c8c803f2092dc5a06f557dbfc0986400000000000000000000000000000000000000001000000000000000000000000",
        "nonce": "0x1a8",
        "chainId": "0x515"
      },
      "additionalContracts": [],
      "isFixedGasLimit": false
    },
    {
      "hash": "0x634d9bf88a50f562d7181493247992669968604ffe2d63e97814b99baf21de7f",
      "transactionType": "CALL",
      "contractName": "TestToken",
      "contractAddress": "0x0726f39dbab861de81b9eafc4482c76967bf60e0",
      "function": "approve(address,uint256)",
      "arguments": [
        "0x5fa728C0A5cfd51BEe4B060773f50554c0C8A7AB",
        "10000000000000000000000"
      ],
      "transaction": {
        "from": "0xc5b7b574ee84a9b59b475fe32eaf908c246d3859",
        "to": "0x0726f39dbab861de81b9eafc4482c76967bf60e0",
        "gas": "0xfa6c",
        "value": "0x0",
        "input": "0x095ea7b30000000000000000000000005fa728c0a5cfd51bee4b060773f50554c0c8a7ab00000000000000000000000000000000000000000000021e19e0c9bab2400000",
        "nonce": "0x1a9",
        "chainId": "0x515"
      },
      "additionalContracts": [],
      "isFixedGasLimit": false
    },
    {
      "hash": "0x44fcf7c72ff3b33c565a76acd6ce007e48485973dde089276e47580031129c29",
      "transactionType": "CALL",
      "contractName": "TestToken",
      "contractAddress": "0x552c3f98bde60d3298c0c85cde5f5f63d52dbce2",
      "function": "approve(address,uint256)",
      "arguments": [
        "0x5fa728C0A5cfd51BEe4B060773f50554c0C8A7AB",
        "10000000000000000000000"
      ],
      "transaction": {
        "from": "0xc5b7b574ee84a9b59b475fe32eaf908c246d3859",
        "to": "0x552c3f98bde60d3298c0c85cde5f5f63d52dbce2",
        "gas": "0xa777",
        "value": "0x0",
        "input": "0x095ea7b30000000000000000000000005fa728c0a5cfd51bee4b060773f50554c0c8a7ab00000000000000000000000000000000000000000000021e19e0c9bab2400000",
        "nonce": "0x1aa",
        "chainId": "0x515"
      },
      "additionalContracts": [],
      "isFixedGasLimit": false
    },
    {
      "hash": "0xc9e70d4922432cb50626dc7695fb2b7f9de5fc21499e37cfc3841de916fdf2a6",
      "transactionType": "CALL",
      "contractName": null,
      "contractAddress": "0x5fa728c0a5cfd51bee4b060773f50554c0c8a7ab",
      "function": "modifyLiquidity((address,address,uint24,int24,address),(int24,int24,int256,bytes32),bytes)",
      "arguments": [
        "(0x0726F39DbAB861de81B9eAfc4482c76967bf60E0, 0x552c3f98BDE60D3298C0c85CdE5F5F63d52dbCe2, 3000, 60, 0x97B49acb6C8c803f2092DC5A06F557dBfC098640)",
        "(-887220, 887220, 10000000000000000000000, 0x0000000000000000000000000000000000000000000000000000000000000000)",
        "0x"
      ],
      "transaction": {
        "from": "0xc5b7b574ee84a9b59b475fe32eaf908c246d3859",
        "to": "0x5fa728c0a5cfd51bee4b060773f50554c0c8a7ab",
        "gas": "0x75eb0",
        "value": "0x0",
        "input": "0x5a6bcfda0000000000000000000000000726f39dbab861de81b9eafc4482c76967bf60e0000000000000000000000000552c3f98bde60d3298c0c85cde5f5f63d52dbce20000000000000000000000000000000000000000000000000000000000000bb8000000000000000000000000000000000000000000000000000000000000003c00000000000000000000000097b49acb6c8c803f2092dc5a06f557dbfc098640fffffffffffffffffffffffffffffffffffffffffffffffffffffffffff2764c00000000000000000000000000000000000000000000000000000000000d89b400000000000000000000000000000000000000000000021e19e0c9bab2400000000000000000000000000000000000000000000000000000000000000000000000000000000000000000000000000000000000000000000000000000000001400000000000000000000000000000000000000000000000000000000000000000",
        "nonce": "0x1ab",
        "chainId": "0x515"
      },
      "additionalContracts": [],
      "isFixedGasLimit": false
    },
    {
      "hash": "0x66c0d69cbe0b89b18e660cf06c0c33e303c7b818b37c659aa645ee3d53d12014",
      "transactionType": "CALL",
      "contractName": null,
      "contractAddress": "0x00b036b58a818b1bc34d502d3fe730db729e62ac",
      "function": "initialize((address,address,uint24,int24,address),uint160)",
      "arguments": [
        "(0x552c3f98BDE60D3298C0c85CdE5F5F63d52dbCe2, 0x94b51317fc065b578394f058fF96a3B25968741B, 3000, 60, 0x97B49acb6C8c803f2092DC5A06F557dBfC098640)",
        "79228162514264337593543950336"
      ],
      "transaction": {
        "from": "0xc5b7b574ee84a9b59b475fe32eaf908c246d3859",
        "to": "0x00b036b58a818b1bc34d502d3fe730db729e62ac",
        "gas": "0x11721",
        "value": "0x0",
        "input": "0x6276cbbe000000000000000000000000552c3f98bde60d3298c0c85cde5f5f63d52dbce200000000000000000000000094b51317fc065b578394f058ff96a3b25968741b0000000000000000000000000000000000000000000000000000000000000bb8000000000000000000000000000000000000000000000000000000000000003c00000000000000000000000097b49acb6c8c803f2092dc5a06f557dbfc0986400000000000000000000000000000000000000001000000000000000000000000",
        "nonce": "0x1ac",
        "chainId": "0x515"
      },
      "additionalContracts": [],
      "isFixedGasLimit": false
    },
    {
      "hash": "0x4c97601cd5ac81c3b82679b568680c6cd436a5b90d7a642ecf4d287c382a0dce",
      "transactionType": "CALL",
      "contractName": "TestToken",
      "contractAddress": "0x552c3f98bde60d3298c0c85cde5f5f63d52dbce2",
      "function": "approve(address,uint256)",
      "arguments": [
        "0x5fa728C0A5cfd51BEe4B060773f50554c0C8A7AB",
        "10000000000000000000000"
      ],
      "transaction": {
        "from": "0xc5b7b574ee84a9b59b475fe32eaf908c246d3859",
        "to": "0x552c3f98bde60d3298c0c85cde5f5f63d52dbce2",
        "gas": "0xa777",
        "value": "0x0",
        "input": "0x095ea7b30000000000000000000000005fa728c0a5cfd51bee4b060773f50554c0c8a7ab00000000000000000000000000000000000000000000021e19e0c9bab2400000",
        "nonce": "0x1ad",
        "chainId": "0x515"
      },
      "additionalContracts": [],
      "isFixedGasLimit": false
    },
    {
      "hash": "0xa91ddfe30fc1cfcc06e9769a1c3b0287c1a59074a1815858479ce553e0dca957",
      "transactionType": "CALL",
      "contractName": "TestToken",
      "contractAddress": "0x94b51317fc065b578394f058ff96a3b25968741b",
      "function": "approve(address,uint256)",
      "arguments": [
        "0x5fa728C0A5cfd51BEe4B060773f50554c0C8A7AB",
        "10000000000000000000000"
      ],
      "transaction": {
        "from": "0xc5b7b574ee84a9b59b475fe32eaf908c246d3859",
        "to": "0x94b51317fc065b578394f058ff96a3b25968741b",
        "gas": "0xfa6c",
        "value": "0x0",
        "input": "0x095ea7b30000000000000000000000005fa728c0a5cfd51bee4b060773f50554c0c8a7ab00000000000000000000000000000000000000000000021e19e0c9bab2400000",
        "nonce": "0x1ae",
        "chainId": "0x515"
      },
      "additionalContracts": [],
      "isFixedGasLimit": false
    },
    {
      "hash": "0xb8a979f89e31a5dd937eabacdde34d55374f897ec88c58d5cd0708f37ad16af3",
      "transactionType": "CALL",
      "contractName": null,
      "contractAddress": "0x5fa728c0a5cfd51bee4b060773f50554c0c8a7ab",
      "function": "modifyLiquidity((address,address,uint24,int24,address),(int24,int24,int256,bytes32),bytes)",
      "arguments": [
        "(0x552c3f98BDE60D3298C0c85CdE5F5F63d52dbCe2, 0x94b51317fc065b578394f058fF96a3B25968741B, 3000, 60, 0x97B49acb6C8c803f2092DC5A06F557dBfC098640)",
        "(-887220, 887220, 10000000000000000000000, 0x0000000000000000000000000000000000000000000000000000000000000000)",
        "0x"
      ],
      "transaction": {
        "from": "0xc5b7b574ee84a9b59b475fe32eaf908c246d3859",
        "to": "0x5fa728c0a5cfd51bee4b060773f50554c0c8a7ab",
        "gas": "0x75eb0",
        "value": "0x0",
        "input": "0x5a6bcfda000000000000000000000000552c3f98bde60d3298c0c85cde5f5f63d52dbce200000000000000000000000094b51317fc065b578394f058ff96a3b25968741b0000000000000000000000000000000000000000000000000000000000000bb8000000000000000000000000000000000000000000000000000000000000003c00000000000000000000000097b49acb6c8c803f2092dc5a06f557dbfc098640fffffffffffffffffffffffffffffffffffffffffffffffffffffffffff2764c00000000000000000000000000000000000000000000000000000000000d89b400000000000000000000000000000000000000000000021e19e0c9bab2400000000000000000000000000000000000000000000000000000000000000000000000000000000000000000000000000000000000000000000000000000000001400000000000000000000000000000000000000000000000000000000000000000",
        "nonce": "0x1af",
        "chainId": "0x515"
      },
      "additionalContracts": [],
      "isFixedGasLimit": false
    }
  ],
  "receipts": [
    {
      "status": "0x1",
      "cumulativeGasUsed": "0x1868f5",
      "logs": [
        {
          "address": "0x552c3f98bde60d3298c0c85cde5f5f63d52dbce2",
          "topics": [
            "0xddf252ad1be2c89b69c2b068fc378daa952ba7f163c4a11628f55a4df523b3ef",
            "0x0000000000000000000000000000000000000000000000000000000000000000",
            "0x000000000000000000000000c5b7b574ee84a9b59b475fe32eaf908c246d3859"
          ],
          "data": "0x00000000000000000000000000000000000000000000d3c21bcecceda1000000",
          "blockHash": "0x49383d7a558e007c78d6154773656772f3051660c9ad10a88658cb6435628490",
          "blockNumber": "0x2ca3ffa",
          "blockTimestamp": "0x69b7ed46",
          "transactionHash": "0xa2235ba26123b91c37137aa6aa7570cc2bd0b8f809dde5491f395133d93f5e07",
          "transactionIndex": "0x7",
          "logIndex": "0xd",
          "removed": false
        }
      ],
      "logsBloom": "0x00000000000000000000000000000000000000000000000000000000000000000000400000000000000000000000000000000000000000080000000000000000000000000000000000000008000000000000000000000000000000000000000000000000020000000000000000000800000000000000000000000010000000000000000000000000000000000000000000000000000000000080000000000000000000000000000000000000000000004000000000000000000000000000000000080002000000000000000000000000000000000000000000000000000020000000000000000000000000000000000000000000000000000040000000000000",
      "type": "0x2",
      "transactionHash": "0xa2235ba26123b91c37137aa6aa7570cc2bd0b8f809dde5491f395133d93f5e07",
      "transactionIndex": "0x7",
      "blockHash": "0x49383d7a558e007c78d6154773656772f3051660c9ad10a88658cb6435628490",
      "blockNumber": "0x2ca3ffa",
      "gasUsed": "0x8bc19",
      "effectiveGasPrice": "0x7a121",
      "blobGasUsed": "0xabe00",
      "from": "0xc5b7b574ee84a9b59b475fe32eaf908c246d3859",
      "to": null,
      "contractAddress": "0x552c3f98bde60d3298c0c85cde5f5f63d52dbce2",
      "daFootprintGasScalar": "0x190",
      "l1BaseFeeScalar": "0x7d0",
      "l1BlobBaseFee": "0x1709",
      "l1BlobBaseFeeScalar": "0xdbba0",
      "l1Fee": "0x8e8b60",
      "l1GasPrice": "0xa",
      "l1GasUsed": "0x6e01"
    },
    {
      "status": "0x1",
      "cumulativeGasUsed": "0x1343de",
      "logs": [
        {
          "address": "0xebfe314e711119f97787b4e121d23367b6be37b9",
          "topics": [
            "0xddf252ad1be2c89b69c2b068fc378daa952ba7f163c4a11628f55a4df523b3ef",
            "0x0000000000000000000000000000000000000000000000000000000000000000",
            "0x000000000000000000000000c5b7b574ee84a9b59b475fe32eaf908c246d3859"
          ],
          "data": "0x00000000000000000000000000000000000000000000d3c21bcecceda1000000",
          "blockHash": "0xdac8dd588d9516b9baf1040985f187f273a9f36f7e9946457c104e3cb17e5754",
          "blockNumber": "0x2ca3fff",
          "blockTimestamp": "0x69b7ed4b",
          "transactionHash": "0x8b9b26fd303ae83a720822c92a56d80e9d667e38874892af4dca57cf67901e53",
          "transactionIndex": "0x8",
          "logIndex": "0x9",
          "removed": false
        }
      ],
      "logsBloom": "0x00000000000000000000000000080000000001000000000000000000000000000000000000000000000000000000000000000000000000000000000000000000000000000000000000000008000000000000000000000000000000000000000000000000020000000000000000000800000000000000000000000010000000000000000000000000000000000000000000000000000000000080000000000000000000000000000000000000000000004000000000000000000000000000000000080002000000000000000000000000000000000000000000000000080020000000000000000000000000000000000000000000000000000000000000000000",
      "type": "0x2",
      "transactionHash": "0x8b9b26fd303ae83a720822c92a56d80e9d667e38874892af4dca57cf67901e53",
      "transactionIndex": "0x8",
      "blockHash": "0xdac8dd588d9516b9baf1040985f187f273a9f36f7e9946457c104e3cb17e5754",
      "blockNumber": "0x2ca3fff",
      "gasUsed": "0x8bc3d",
      "effectiveGasPrice": "0x7a121",
      "blobGasUsed": "0xac8f0",
      "from": "0xc5b7b574ee84a9b59b475fe32eaf908c246d3859",
      "to": null,
      "contractAddress": "0xebfe314e711119f97787b4e121d23367b6be37b9",
      "daFootprintGasScalar": "0x190",
      "l1BaseFeeScalar": "0x7d0",
      "l1BlobBaseFee": "0x1709",
      "l1BlobBaseFeeScalar": "0xdbba0",
      "l1Fee": "0x8f2777",
      "l1GasPrice": "0xa",
      "l1GasUsed": "0x6e79"
    },
    {
      "status": "0x1",
      "cumulativeGasUsed": "0xf86bf",
      "logs": [
        {
          "address": "0x46f02e8cf663b74aea15e6f613433dad1dd6b7fb",
          "topics": [
            "0xddf252ad1be2c89b69c2b068fc378daa952ba7f163c4a11628f55a4df523b3ef",
            "0x0000000000000000000000000000000000000000000000000000000000000000",
            "0x000000000000000000000000c5b7b574ee84a9b59b475fe32eaf908c246d3859"
          ],
          "data": "0x00000000000000000000000000000000000000000000d3c21bcecceda1000000",
          "blockHash": "0x6c621c0b7382ff46ee53d4a148cd6d66f0297bd7e025fb62bd1202cf3ef74988",
          "blockNumber": "0x2ca4003",
          "blockTimestamp": "0x69b7ed4f",
          "transactionHash": "0x1391c322c57f805f4142909954955fde98359e663ff1e10d09e4ed634e597378",
          "transactionIndex": "0x6",
          "logIndex": "0x4",
          "removed": false
        }
      ],
      "logsBloom": "0x00000000000000000000000000000000000000000000000000000000000000000000000000000000000000000000000000000000000000000000000010000000000000000000000004000008000000000000000000000000000000000000000000000000020000000000000000000800000000000000000000000010000000000000000000000000000000000000000000000000000000000080000000000000000000000000000000000000000000004000000000000000000000000000000000080002000000000000000000800000000000000000000000000000000020000000000000000000000000000000000000000000000000000000000000000000",
      "type": "0x2",
      "transactionHash": "0x1391c322c57f805f4142909954955fde98359e663ff1e10d09e4ed634e597378",
      "transactionIndex": "0x6",
      "blockHash": "0x6c621c0b7382ff46ee53d4a148cd6d66f0297bd7e025fb62bd1202cf3ef74988",
      "blockNumber": "0x2ca4003",
      "gasUsed": "0x8bc31",
      "effectiveGasPrice": "0x7a121",
      "blobGasUsed": "0xac760",
      "from": "0xc5b7b574ee84a9b59b475fe32eaf908c246d3859",
      "to": null,
      "contractAddress": "0x46f02e8cf663b74aea15e6f613433dad1dd6b7fb",
      "daFootprintGasScalar": "0x190",
      "l1BaseFeeScalar": "0x7d0",
      "l1BlobBaseFee": "0x1709",
      "l1BlobBaseFeeScalar": "0xdbba0",
      "l1Fee": "0x8f161f",
      "l1GasPrice": "0xa",
      "l1GasUsed": "0x6e6c"
    },
    {
      "status": "0x1",
      "cumulativeGasUsed": "0x1652ae",
      "logs": [
        {
          "address": "0xe485afbd687ac536597ceb7cbb70bad2499b3688",
          "topics": [
            "0xddf252ad1be2c89b69c2b068fc378daa952ba7f163c4a11628f55a4df523b3ef",
            "0x0000000000000000000000000000000000000000000000000000000000000000",
            "0x000000000000000000000000c5b7b574ee84a9b59b475fe32eaf908c246d3859"
          ],
          "data": "0x00000000000000000000000000000000000000000000d3c21bcecceda1000000",
          "blockHash": "0xb961ed0200e9bcf1324df1870a6f38492019381cc668ee5e0f9d60f534a675e3",
          "blockNumber": "0x2ca4007",
          "blockTimestamp": "0x69b7ed53",
          "transactionHash": "0xa47e7b20f613117afe933feda2ec31481f38935efca8ecd39c6ef75a68d5c4ed",
          "transactionIndex": "0x6",
          "logIndex": "0xa",
          "removed": false
        }
      ],
      "logsBloom": "0x00000000000000000000000000000000000000000000000000000000000000000000000000000000000000000000000000000000000000000000000000000000000000000000000000000008000000000000000000000000000000000000000000000000020000000100000000000800000000000000000000000010000000000000000000000000000000000000000000000000400000000080000000000000000000000000000000000000000000004000000000000000000000000000000000080002000000000000000000000002000000000000000000000000000020000000000000000000000000000000000000000000000000000000000000000000",
      "type": "0x2",
      "transactionHash": "0xa47e7b20f613117afe933feda2ec31481f38935efca8ecd39c6ef75a68d5c4ed",
      "transactionIndex": "0x6",
      "blockHash": "0xb961ed0200e9bcf1324df1870a6f38492019381cc668ee5e0f9d60f534a675e3",
      "blockNumber": "0x2ca4007",
      "gasUsed": "0x8bc49",
      "effectiveGasPrice": "0x7a121",
      "blobGasUsed": "0xaca80",
      "from": "0xc5b7b574ee84a9b59b475fe32eaf908c246d3859",
      "to": null,
      "contractAddress": "0xe485afbd687ac536597ceb7cbb70bad2499b3688",
      "daFootprintGasScalar": "0x190",
      "l1BaseFeeScalar": "0x7d0",
      "l1BlobBaseFee": "0x1497",
      "l1BlobBaseFeeScalar": "0xdbba0",
      "l1Fee": "0x8004dd",
      "l1GasPrice": "0xa",
      "l1GasUsed": "0x6e86"
    },
    {
      "status": "0x1",
      "cumulativeGasUsed": "0xe1681",
      "logs": [
        {
          "address": "0x0726f39dbab861de81b9eafc4482c76967bf60e0",
          "topics": [
            "0xddf252ad1be2c89b69c2b068fc378daa952ba7f163c4a11628f55a4df523b3ef",
            "0x0000000000000000000000000000000000000000000000000000000000000000",
            "0x000000000000000000000000c5b7b574ee84a9b59b475fe32eaf908c246d3859"
          ],
          "data": "0x00000000000000000000000000000000000000000000d3c21bcecceda1000000",
          "blockHash": "0x8d5c0bdd45889010a094a3e147086e28874bc72e636bfab970bffea57c49fa4f",
          "blockNumber": "0x2ca400b",
          "blockTimestamp": "0x69b7ed57",
          "transactionHash": "0xe0a645a5a44098e3944912be00cd7b915c89f431547c8acb8bc9ef6e70b5362a",
          "transactionIndex": "0x5",
          "logIndex": "0x3",
          "removed": false
        }
      ],
      "logsBloom": "0x00000000000000000000000000000000000000000000000000000000000000000000000000000000000000000000000000000000000000000000000000000000000000000000000000000008000000000000000000000000000000000000000000000000020000000000000000000800000000000100000000000010000000000000000000008000000000000000000000000000000000000080000000000000000000000000000000000000000000004000000000000000000000000000000000080002000000000000000000000000000000000000000000000000000020000000000000000000000000000000000000000000000000000000000000800000",
      "type": "0x2",
      "transactionHash": "0xe0a645a5a44098e3944912be00cd7b915c89f431547c8acb8bc9ef6e70b5362a",
      "transactionIndex": "0x5",
      "blockHash": "0x8d5c0bdd45889010a094a3e147086e28874bc72e636bfab970bffea57c49fa4f",
      "blockNumber": "0x2ca400b",
      "gasUsed": "0x8bc19",
      "effectiveGasPrice": "0x7a121",
      "blobGasUsed": "0xac5d0",
      "from": "0xc5b7b574ee84a9b59b475fe32eaf908c246d3859",
      "to": null,
      "contractAddress": "0x0726f39dbab861de81b9eafc4482c76967bf60e0",
      "daFootprintGasScalar": "0x190",
      "l1BaseFeeScalar": "0x7d0",
      "l1BlobBaseFee": "0x1497",
      "l1BlobBaseFeeScalar": "0xdbba0",
      "l1Fee": "0x7fc6db",
      "l1GasPrice": "0xa",
      "l1GasUsed": "0x6e51"
    },
    {
      "status": "0x1",
      "cumulativeGasUsed": "0x147db5",
      "logs": [
        {
          "address": "0x94b51317fc065b578394f058ff96a3b25968741b",
          "topics": [
            "0xddf252ad1be2c89b69c2b068fc378daa952ba7f163c4a11628f55a4df523b3ef",
            "0x0000000000000000000000000000000000000000000000000000000000000000",
            "0x000000000000000000000000c5b7b574ee84a9b59b475fe32eaf908c246d3859"
          ],
          "data": "0x00000000000000000000000000000000000000000000d3c21bcecceda1000000",
          "blockHash": "0x0000000000000000000000000000000000000000000000000000000000000000",
          "blockNumber": "0x2ca400f",
          "blockTimestamp": "0x69b7ed5b",
          "transactionHash": "0x5252b18da9bdd109992fd9627d5c8e23cbc1b8677c27c59b41c28d4c206aa7ba",
          "transactionIndex": "0x5",
          "logIndex": "0x9",
          "removed": false
        }
      ],
      "logsBloom": "0x00000000000000000000000000000000000000000000000000000000000000000000000000000000000000000000000000000000000000000080000000000000000000000000000000000008000000000000000000000000000000000000000000000000020000000000000000000800000000000000000000000010000000000000000000000000000000000000000000000000000000000080000000200000000000000000000000000000000000004000000000000000000000000000000000080002000000000000000000000000000000000000000000000000000020000000000000000000000000000200000000000000000000000000000000000000",
      "type": "0x2",
      "transactionHash": "0x5252b18da9bdd109992fd9627d5c8e23cbc1b8677c27c59b41c28d4c206aa7ba",
      "transactionIndex": "0x5",
      "blockHash": "0x0000000000000000000000000000000000000000000000000000000000000000",
      "blockNumber": "0x2ca400f",
      "gasUsed": "0x8bc31",
      "effectiveGasPrice": "0x7a121",
      "blobGasUsed": "0xac760",
      "from": "0xc5b7b574ee84a9b59b475fe32eaf908c246d3859",
      "to": null,
      "contractAddress": "0x94b51317fc065b578394f058ff96a3b25968741b",
      "daFootprintGasScalar": "0x190",
      "l1BaseFeeScalar": "0x7d0",
      "l1BlobBaseFee": "0x1497",
      "l1BlobBaseFeeScalar": "0xdbba0",
      "l1Fee": "0xa0ec1",
      "l1GasPrice": "0xa",
      "l1GasUsed": "0x6e6c"
    },
    {
      "status": "0x1",
      "cumulativeGasUsed": "0x2ecd0",
      "logs": [],
      "logsBloom": "0x00000000000000000000000000000000000000000000000000000000000000000000000000000000000000000000000000000000000000000000000000000000000000000000000000000000000000000000000000000000000000000000000000000000000000000000000000000000000000000000000000000000000000000000000000000000000000000000000000000000000000000000000000000000000000000000000000000000000000000000000000000000000000000000000000000000000000000000000000000000000000000000000000000000000000000000000000000000000000000000000000000000000000000000000000000000",
      "type": "0x2",
      "transactionHash": "0x2cad991fc7292379c286a93ea97affff1cfcd3a920b0f197223de9a0bb4be179",
      "transactionIndex": "0x3",
      "blockHash": "0x0000000000000000000000000000000000000000000000000000000000000000",
      "blockNumber": "0x2ca4013",
      "gasUsed": "0x5208",
      "effectiveGasPrice": "0x7a121",
      "blobGasUsed": "0x9c40",
      "from": "0xc5b7b574ee84a9b59b475fe32eaf908c246d3859",
      "to": "0xdae6cf499756455de55eaad590d59609870e1a3c",
      "contractAddress": null,
      "daFootprintGasScalar": "0x190",
      "l1BaseFeeScalar": "0x7d0",
      "l1BlobBaseFee": "0x1422",
      "l1BlobBaseFeeScalar": "0xdbba0",
      "l1Fee": "0x9d59b",
      "l1GasPrice": "0xa",
      "l1GasUsed": "0x640"
    },
    {
      "status": "0x1",
      "cumulativeGasUsed": "0x2cc0c",
      "logs": [],
      "logsBloom": "0x00000000000000000000000000000000000000000000000000000000000000000000000000000000000000000000000000000000000000000000000000000000000000000000000000000000000000000000000000000000000000000000000000000000000000000000000000000000000000000000000000000000000000000000000000000000000000000000000000000000000000000000000000000000000000000000000000000000000000000000000000000000000000000000000000000000000000000000000000000000000000000000000000000000000000000000000000000000000000000000000000000000000000000000000000000000",
      "type": "0x2",
      "transactionHash": "0xc71a3cd922c3f6c30a69ffea9dfe6bb36d60edb3164b82555db581bc81a38198",
      "transactionIndex": "0x3",
      "blockHash": "0x0000000000000000000000000000000000000000000000000000000000000000",
      "blockNumber": "0x2ca4017",
      "gasUsed": "0x5208",
      "effectiveGasPrice": "0x7a121",
      "blobGasUsed": "0x9c40",
      "from": "0xc5b7b574ee84a9b59b475fe32eaf908c246d3859",
      "to": "0xca093b5e50df91117440f9dfd1542b8f42075d67",
      "contractAddress": null,
      "daFootprintGasScalar": "0x190",
      "l1BaseFeeScalar": "0x7d0",
      "l1BlobBaseFee": "0x1422",
      "l1BlobBaseFeeScalar": "0xdbba0",
      "l1Fee": "0x9d59b",
      "l1GasPrice": "0xa",
      "l1GasUsed": "0x640"
    },
    {
      "status": "0x1",
      "cumulativeGasUsed": "0x88cd4",
      "logs": [],
      "logsBloom": "0x00000000000000000000000000000000000000000000000000000000000000000000000000000000000000000000000000000000000000000000000000000000000000000000000000000000000000000000000000000000000000000000000000000000000000000000000000000000000000000000000000000000000000000000000000000000000000000000000000000000000000000000000000000000000000000000000000000000000000000000000000000000000000000000000000000000000000000000000000000000000000000000000000000000000000000000000000000000000000000000000000000000000000000000000000000000",
      "type": "0x2",
      "transactionHash": "0x491acfd444d50fa9b1179556dd76ce130c061b346c51c0b56dd65921a7351e32",
      "transactionIndex": "0x7",
      "blockHash": "0x544e8b6e69d86731e560528db6aa864b06aed313530021a77c639ed9e635cc16",
      "blockNumber": "0x2ca401a",
      "gasUsed": "0x5208",
      "effectiveGasPrice": "0x7a121",
      "blobGasUsed": "0x9c40",
      "from": "0xc5b7b574ee84a9b59b475fe32eaf908c246d3859",
      "to": "0x6da90fd521d6cff9d373204038459addca260f2a",
      "contractAddress": null,
      "daFootprintGasScalar": "0x190",
      "l1BaseFeeScalar": "0x7d0",
      "l1BlobBaseFee": "0x12d3",
      "l1BlobBaseFeeScalar": "0xdbba0",
      "l1Fee": "0x69e4e",
      "l1GasPrice": "0xa",
      "l1GasUsed": "0x640"
    },
    {
      "status": "0x1",
      "cumulativeGasUsed": "0x71c7e",
      "logs": [],
      "logsBloom": "0x00000000000000000000000000000000000000000000000000000000000000000000000000000000000000000000000000000000000000000000000000000000000000000000000000000000000000000000000000000000000000000000000000000000000000000000000000000000000000000000000000000000000000000000000000000000000000000000000000000000000000000000000000000000000000000000000000000000000000000000000000000000000000000000000000000000000000000000000000000000000000000000000000000000000000000000000000000000000000000000000000000000000000000000000000000000",
      "type": "0x2",
      "transactionHash": "0x3636c1c511050e39bf6e6a48f16e0e3dd4fd85b1357ab5d0c89953b33bad1ba3",
      "transactionIndex": "0x6",
      "blockHash": "0xabd094e6d10ae3341d186caafc30b2fad31776abbf9c559ebffc3b01064e907f",
      "blockNumber": "0x2ca401e",
      "gasUsed": "0x5208",
      "effectiveGasPrice": "0x7a121",
      "blobGasUsed": "0x9c40",
      "from": "0xc5b7b574ee84a9b59b475fe32eaf908c246d3859",
      "to": "0x699507c6aeb4268ff4dc05721c803dbe466cec6f",
      "contractAddress": null,
      "daFootprintGasScalar": "0x190",
      "l1BaseFeeScalar": "0x7d0",
      "l1BlobBaseFee": "0x12d3",
      "l1BlobBaseFeeScalar": "0xdbba0",
      "l1Fee": "0x69e4e",
      "l1GasPrice": "0xa",
      "l1GasUsed": "0x640"
    },
    {
      "status": "0x1",
      "cumulativeGasUsed": "0x71c8a",
      "logs": [],
      "logsBloom": "0x00000000000000000000000000000000000000000000000000000000000000000000000000000000000000000000000000000000000000000000000000000000000000000000000000000000000000000000000000000000000000000000000000000000000000000000000000000000000000000000000000000000000000000000000000000000000000000000000000000000000000000000000000000000000000000000000000000000000000000000000000000000000000000000000000000000000000000000000000000000000000000000000000000000000000000000000000000000000000000000000000000000000000000000000000000000",
      "type": "0x2",
      "transactionHash": "0xf6a187ed3fc92888d67b626aec316b5481d8f047b3b3aff999695e392fdb2375",
      "transactionIndex": "0x6",
      "blockHash": "0x74f382b9aa749784ab8d4e4a3fd129ac5e2e5b4fa306ab731a158ca4e73971af",
      "blockNumber": "0x2ca4023",
      "gasUsed": "0x5208",
      "effectiveGasPrice": "0x7a121",
      "blobGasUsed": "0x9c40",
      "from": "0xc5b7b574ee84a9b59b475fe32eaf908c246d3859",
      "to": "0x079bb29d652294b01f4bdf86bb318277e0892e14",
      "contractAddress": null,
      "daFootprintGasScalar": "0x190",
      "l1BaseFeeScalar": "0x7d0",
      "l1BlobBaseFee": "0x12d3",
      "l1BlobBaseFeeScalar": "0xdbba0",
      "l1Fee": "0x69e4e",
      "l1GasPrice": "0xa",
      "l1GasUsed": "0x640"
    },
    {
      "status": "0x1",
      "cumulativeGasUsed": "0x7335a",
      "logs": [
        {
          "address": "0x97b49acb6c8c803f2092dc5a06f557dbfc098640",
          "topics": [
            "0xa9607daa15b38519ee13f233d15e0ce03053729aa1f43ef57d862b7ea6a6967a",
            "0x000000000000000000000000dae6cf499756455de55eaad590d59609870e1a3c",
            "0x000000000000000000000000ebfe314e711119f97787b4e121d23367b6be37b9",
            "0xbd8142019eca780e28acf408a55fe5e483c960ede62a5933c583db9c3c0460f0"
          ],
          "data": "0x",
          "blockHash": "0xedb4997be1af179d298d41718b494d4c1c63c5041e3dc885c4cef945291f1515",
          "blockNumber": "0x2ca4025",
          "blockTimestamp": "0x69b7ed71",
          "transactionHash": "0xa80951e2a75e57343602ec3fdead8cb49e8d5951112e37ef8284630f2259c816",
          "transactionIndex": "0x3",
          "logIndex": "0x1",
          "removed": false
        }
      ],
      "logsBloom": "0x000000000000000000000000000400000000000000000000000000000000000000000000000000000000000000000000000000000200000000000000000000000000000000000000400000000000000000000000000000000000000000000000000100000000800000000000000000000000000000000000100000000000000000000000000000000000400000000000000000000000000000000000100000000000000000000000000000000000000010000000000000008000000000000000000000000000000000000000000000000000000020002000000000a0000000000000000000000000100000000000000000000000000000000000000000000000",
      "type": "0x2",
      "transactionHash": "0xa80951e2a75e57343602ec3fdead8cb49e8d5951112e37ef8284630f2259c816",
      "transactionIndex": "0x3",
      "blockHash": "0xedb4997be1af179d298d41718b494d4c1c63c5041e3dc885c4cef945291f1515",
      "blockNumber": "0x2ca4025",
      "gasUsed": "0x4a382",
      "effectiveGasPrice": "0x7a121",
      "blobGasUsed": "0xf230",
      "from": "0xdae6cf499756455de55eaad590d59609870e1a3c",
      "to": "0x97b49acb6c8c803f2092dc5a06f557dbfc098640",
      "contractAddress": null,
      "daFootprintGasScalar": "0x190",
      "l1BaseFeeScalar": "0x7d0",
      "l1BlobBaseFee": "0x12d3",
      "l1BlobBaseFeeScalar": "0xdbba0",
      "l1Fee": "0xa4d70",
      "l1GasPrice": "0xa",
      "l1GasUsed": "0x9ba"
    },
    {
      "status": "0x1",
      "cumulativeGasUsed": "0x71d7a",
      "logs": [
        {
          "address": "0x97b49acb6c8c803f2092dc5a06f557dbfc098640",
          "topics": [
            "0xa9607daa15b38519ee13f233d15e0ce03053729aa1f43ef57d862b7ea6a6967a",
            "0x000000000000000000000000ca093b5e50df91117440f9dfd1542b8f42075d67",
            "0x00000000000000000000000046f02e8cf663b74aea15e6f613433dad1dd6b7fb",
            "0xc33a04a1c4534e89bbe639a8403b94f1eaf7fdf30abe389c0460c22245cab0fd"
          ],
          "data": "0x",
          "blockHash": "0x0000000000000000000000000000000000000000000000000000000000000000",
          "blockNumber": "0x2ca4028",
          "blockTimestamp": "0x69b7ed74",
          "transactionHash": "0x9acf0c88d435d9232a82bbb1b4da6729fd85a337f613e85bfd1148db48f40bfc",
          "transactionIndex": "0x3",
          "logIndex": "0x1",
          "removed": false
        }
      ],
      "logsBloom": "0x00000000000000000400010000000000000000000000000000000000000000000000000000000000000000000000000000000000000000000000000000000000000000000000000040000000000000000000000000000020000000000000000000010000000080000000000000000000000000000000000010000000000000000000000000000000000000000000000000008000000000000000020000000000000000000000000000000000000000001000000000000000000000000000000000004000000000000000000000000000000000000000000000000020000000000000000000000000000000000800000000000004800000000000000000000000",
      "type": "0x2",
      "transactionHash": "0x9acf0c88d435d9232a82bbb1b4da6729fd85a337f613e85bfd1148db48f40bfc",
      "transactionIndex": "0x3",
      "blockHash": "0x0000000000000000000000000000000000000000000000000000000000000000",
      "blockNumber": "0x2ca4028",
      "gasUsed": "0x4a376",
      "effectiveGasPrice": "0x7a121",
      "blobGasUsed": "0xef10",
      "from": "0xca093b5e50df91117440f9dfd1542b8f42075d67",
      "to": "0x97b49acb6c8c803f2092dc5a06f557dbfc098640",
      "contractAddress": null,
      "daFootprintGasScalar": "0x190",
      "l1BaseFeeScalar": "0x7d0",
      "l1BlobBaseFee": "0x12d3",
      "l1BlobBaseFeeScalar": "0xdbba0",
      "l1Fee": "0x931fb",
      "l1GasPrice": "0xa",
      "l1GasUsed": "0x99f"
    },
    {
      "status": "0x1",
      "cumulativeGasUsed": "0x88dac",
      "logs": [
        {
          "address": "0x97b49acb6c8c803f2092dc5a06f557dbfc098640",
          "topics": [
            "0xa9607daa15b38519ee13f233d15e0ce03053729aa1f43ef57d862b7ea6a6967a",
            "0x0000000000000000000000006da90fd521d6cff9d373204038459addca260f2a",
            "0x000000000000000000000000e485afbd687ac536597ceb7cbb70bad2499b3688",
            "0x84ba1aaf5703b3f9bda6cc98dea3619de970be96e080f634410554bab4e8855f"
          ],
          "data": "0x",
          "blockHash": "0x0000000000000000000000000000000000000000000000000000000000000000",
          "blockNumber": "0x2ca4029",
          "blockTimestamp": "0x69b7ed75",
          "transactionHash": "0x25affca7b0cbceac760c0273cc5523b6872ddc51232cabdd7fd5a405cc7e10e2",
          "transactionIndex": "0x4",
          "logIndex": "0x2",
          "removed": false
        }
      ],
      "logsBloom": "0x000040000000000800000000000000000000000000000000000000000000000000000000000000000000000000000000000000000000000000000000000000000000000000000008400000000000000000000040000000000000000000000000000100000000c0000000000000000000000000000000010010000000008000000000000000000000000000000000000800000000000000000000000000000000000000000000002000000000000000001000000000000000000000000000000000000000000000000000000000000000000000000000000000000020000000000000000000000000000000000000000000000000000000000000000000000000",
      "type": "0x2",
      "transactionHash": "0x25affca7b0cbceac760c0273cc5523b6872ddc51232cabdd7fd5a405cc7e10e2",
      "transactionIndex": "0x4",
      "blockHash": "0x0000000000000000000000000000000000000000000000000000000000000000",
      "blockNumber": "0x2ca4029",
      "gasUsed": "0x4a376",
      "effectiveGasPrice": "0x7a121",
      "blobGasUsed": "0xef10",
      "from": "0x6da90fd521d6cff9d373204038459addca260f2a",
      "to": "0x97b49acb6c8c803f2092dc5a06f557dbfc098640",
      "contractAddress": null,
      "daFootprintGasScalar": "0x190",
      "l1BaseFeeScalar": "0x7d0",
      "l1BlobBaseFee": "0x12d3",
      "l1BlobBaseFeeScalar": "0xdbba0",
      "l1Fee": "0x931fb",
      "l1GasPrice": "0xa",
      "l1GasUsed": "0x99f"
    },
    {
      "status": "0x1",
      "cumulativeGasUsed": "0x1188df",
      "logs": [
        {
          "address": "0x97b49acb6c8c803f2092dc5a06f557dbfc098640",
          "topics": [
            "0xa9607daa15b38519ee13f233d15e0ce03053729aa1f43ef57d862b7ea6a6967a",
            "0x000000000000000000000000699507c6aeb4268ff4dc05721c803dbe466cec6f",
            "0x0000000000000000000000000726f39dbab861de81b9eafc4482c76967bf60e0",
            "0x446c13b23cfb7e0d81be115e6cbe72a19ebfd1d4c8b152e7ddec920845ad7b88"
          ],
          "data": "0x",
          "blockHash": "0x82ca721afeb0f2a8c457c88a3d0cce95653b5aef1e074c9ca54ca860dafc72eb",
          "blockNumber": "0x2ca402a",
          "blockTimestamp": "0x69b7ed76",
          "transactionHash": "0x34c7572f8450d3569bdf985e52edebc2dd974190899245f2e48aced27311e4b5",
          "transactionIndex": "0x6",
          "logIndex": "0xa",
          "removed": false
        }
      ],
      "logsBloom": "0x00010000000000000000004800000000000000000000000000000000000000000000100000000000000000000000000000000000000000000000000000000000000000000200000040000000000000000000000000000000000000000000000000010000000080000000000000020000000000000000000010000000000000000000000000000000000000000000000000000000000000000000000000000000000000000000000000000000000000001000000000000000000000000000000000000000000000000000000000000000000000000000000000000420090000000000000000000000000000000000000000000000000000000000000000000000",
      "type": "0x2",
      "transactionHash": "0x34c7572f8450d3569bdf985e52edebc2dd974190899245f2e48aced27311e4b5",
      "transactionIndex": "0x6",
      "blockHash": "0x82ca721afeb0f2a8c457c88a3d0cce95653b5aef1e074c9ca54ca860dafc72eb",
      "blockNumber": "0x2ca402a",
      "gasUsed": "0x4a376",
      "effectiveGasPrice": "0x7a121",
      "blobGasUsed": "0xdf70",
      "from": "0x699507c6aeb4268ff4dc05721c803dbe466cec6f",
      "to": "0x97b49acb6c8c803f2092dc5a06f557dbfc098640",
      "contractAddress": null,
      "daFootprintGasScalar": "0x190",
      "l1BaseFeeScalar": "0x7d0",
      "l1BlobBaseFee": "0x12d3",
      "l1BlobBaseFeeScalar": "0xdbba0",
      "l1Fee": "0x978d8",
      "l1GasPrice": "0xa",
      "l1GasUsed": "0x8f1"
    },
    {
      "status": "0x1",
      "cumulativeGasUsed": "0x15684c",
      "logs": [
        {
          "address": "0x97b49acb6c8c803f2092dc5a06f557dbfc098640",
          "topics": [
            "0xa9607daa15b38519ee13f233d15e0ce03053729aa1f43ef57d862b7ea6a6967a",
            "0x000000000000000000000000079bb29d652294b01f4bdf86bb318277e0892e14",
            "0x00000000000000000000000094b51317fc065b578394f058ff96a3b25968741b",
            "0x5f51794b0b98faa5904dab7718ae76fc2a6883d4f53ec8f7dbe5469b8c12ec73"
          ],
          "data": "0x",
          "blockHash": "0x4a4dddd0787be4fcc205f2b3f64a495d50eb5ae7c2994fd6a7f4b4bb52ade94c",
          "blockNumber": "0x2ca402b",
          "blockTimestamp": "0x69b7ed77",
          "transactionHash": "0x886b1649596cbae93952a4d3e6b871ed10768963d9210fd924c90b706f7023a2",
          "transactionIndex": "0x8",
          "logIndex": "0xc",
          "removed": false
        }
      ],
      "logsBloom": "0x04000000000000000000000000000000000000000000000000000000000000000000000000000000000000000000000000000000000000000000000000000000000000000000000040000000000000000000000004000000001000000800000000010000000080000000000080000000000000000000000010000000000000000000000020000000000000000000000000000000000000000000000000000000000000002000008000000000000000001000000000000000000000000000000000000000000000000000000000000000000000000000000000100020000000000000000000000000000000000000000000000000000000000000000000000000",
      "type": "0x2",
      "transactionHash": "0x886b1649596cbae93952a4d3e6b871ed10768963d9210fd924c90b706f7023a2",
      "transactionIndex": "0x8",
      "blockHash": "0x4a4dddd0787be4fcc205f2b3f64a495d50eb5ae7c2994fd6a7f4b4bb52ade94c",
      "blockNumber": "0x2ca402b",
      "gasUsed": "0x4a376",
      "effectiveGasPrice": "0x7a121",
      "blobGasUsed": "0xef10",
      "from": "0x079bb29d652294b01f4bdf86bb318277e0892e14",
      "to": "0x97b49acb6c8c803f2092dc5a06f557dbfc098640",
      "contractAddress": null,
      "daFootprintGasScalar": "0x190",
      "l1BaseFeeScalar": "0x7d0",
      "l1BlobBaseFee": "0x12d3",
      "l1BlobBaseFeeScalar": "0xdbba0",
      "l1Fee": "0xa3117",
      "l1GasPrice": "0xa",
      "l1GasUsed": "0x99f"
    },
    {
      "status": "0x1",
      "cumulativeGasUsed": "0x3441a",
      "logs": [
        {
          "address": "0x00b036b58a818b1bc34d502d3fe730db729e62ac",
          "topics": [
            "0xdd466e674ea557f56295e2d0218a125ea4b4f0f6f3307b95f85e6110838d6438",
            "0xbd8142019eca780e28acf408a55fe5e483c960ede62a5933c583db9c3c0460f0",
            "0x000000000000000000000000552c3f98bde60d3298c0c85cde5f5f63d52dbce2",
            "0x000000000000000000000000ebfe314e711119f97787b4e121d23367b6be37b9"
          ],
          "data": "0x0000000000000000000000000000000000000000000000000000000000000bb8000000000000000000000000000000000000000000000000000000000000003c00000000000000000000000097b49acb6c8c803f2092dc5a06f557dbfc09864000000000000000000000000000000000000000010000000000000000000000000000000000000000000000000000000000000000000000000000000000000000",
          "blockHash": "0x0000000000000000000000000000000000000000000000000000000000000000",
          "blockNumber": "0x2ca402d",
          "blockTimestamp": "0x69b7ed79",
          "transactionHash": "0x9aea36c7c088c478b949c3fcecb7490ceb2de76f3dee2c0bf74114d36586d38f",
          "transactionIndex": "0x3",
          "logIndex": "0x1",
          "removed": false
        }
      ],
      "logsBloom": "0x00000000000000000000000000040000000000000000000000000000000000000000000000000000000000000000000000000000020000000000000000000000000000000000000000000000000000000000000000000000000000000000000000000004000000000000000000000000000000000000000000000020000000000000000000000008000000000008000000000001000000000000000010200000000000000000000000000000000000000000000000000000000400000000000000000000000000000000000000000000000000002000000000000080000000000000000000000000100000000000000000000000000002000000000000000010",
      "type": "0x2",
      "transactionHash": "0x9aea36c7c088c478b949c3fcecb7490ceb2de76f3dee2c0bf74114d36586d38f",
      "transactionIndex": "0x3",
      "blockHash": "0x0000000000000000000000000000000000000000000000000000000000000000",
      "blockNumber": "0x2ca402d",
      "gasUsed": "0xca16",
      "effectiveGasPrice": "0x7a121",
      "blobGasUsed": "0xdde0",
      "from": "0xc5b7b574ee84a9b59b475fe32eaf908c246d3859",
      "to": "0x00b036b58a818b1bc34d502d3fe730db729e62ac",
      "contractAddress": null,
      "daFootprintGasScalar": "0x190",
      "l1BaseFeeScalar": "0x7d0",
      "l1BlobBaseFee": "0x12d3",
      "l1BlobBaseFeeScalar": "0xdbba0",
      "l1Fee": "0x931fb",
      "l1GasPrice": "0xa",
      "l1GasUsed": "0x8e4"
    },
    {
      "status": "0x1",
      "cumulativeGasUsed": "0x32f52",
      "logs": [
        {
          "address": "0x552c3f98bde60d3298c0c85cde5f5f63d52dbce2",
          "topics": [
            "0x8c5be1e5ebec7d5bd14f71427d1e84f3dd0314c0f7b2291e5b200ac8c7c3b925",
            "0x000000000000000000000000c5b7b574ee84a9b59b475fe32eaf908c246d3859",
            "0x0000000000000000000000005fa728c0a5cfd51bee4b060773f50554c0c8a7ab"
          ],
          "data": "0x00000000000000000000000000000000000000000000021e19e0c9bab2400000",
          "blockHash": "0x0000000000000000000000000000000000000000000000000000000000000000",
          "blockNumber": "0x2ca4031",
          "blockTimestamp": "0x69b7ed7d",
          "transactionHash": "0x1082aace07e667bf221002566d19b6cecbd944738ae1cecac12f0723e7974704",
          "transactionIndex": "0x3",
          "logIndex": "0x1",
          "removed": false
        }
      ],
      "logsBloom": "0x00000000000000000000000000000000000000000000000000000000000000000000400000000000000000000000000000000000000000080000000000200000000000000000000000000000000000000000000000000000000000000000000000000000000000000000000000000000000000000000000000000000000000000000000400000000000000000000000000000000000000000080000000000000020000000000000000000000000000004000000000000000000000000000000000080000000000000000000000000000000000000000000000000000000000000010000000000000000000001000000000080000000000000040000000000000",
      "type": "0x2",
      "transactionHash": "0x1082aace07e667bf221002566d19b6cecbd944738ae1cecac12f0723e7974704",
      "transactionIndex": "0x3",
      "blockHash": "0x0000000000000000000000000000000000000000000000000000000000000000",
      "blockNumber": "0x2ca4031",
      "gasUsed": "0xb54e",
      "effectiveGasPrice": "0x7a121",
      "blobGasUsed": "0x9c40",
      "from": "0xc5b7b574ee84a9b59b475fe32eaf908c246d3859",
      "to": "0x552c3f98bde60d3298c0c85cde5f5f63d52dbce2",
      "contractAddress": null,
      "daFootprintGasScalar": "0x190",
      "l1BaseFeeScalar": "0x7d0",
      "l1BlobBaseFee": "0x12d3",
      "l1BlobBaseFeeScalar": "0xdbba0",
      "l1Fee": "0x931fb",
      "l1GasPrice": "0xa",
      "l1GasUsed": "0x640"
    },
    {
      "status": "0x1",
      "cumulativeGasUsed": "0x77fc4",
      "logs": [
        {
          "address": "0xebfe314e711119f97787b4e121d23367b6be37b9",
          "topics": [
            "0x8c5be1e5ebec7d5bd14f71427d1e84f3dd0314c0f7b2291e5b200ac8c7c3b925",
            "0x000000000000000000000000c5b7b574ee84a9b59b475fe32eaf908c246d3859",
            "0x0000000000000000000000005fa728c0a5cfd51bee4b060773f50554c0c8a7ab"
          ],
          "data": "0x00000000000000000000000000000000000000000000021e19e0c9bab2400000",
          "blockHash": "0xb2152db3dd3e76a64cafd12caae5f49de3a532a68d742820110c4fbccf9edea1",
          "blockNumber": "0x2ca4034",
          "blockTimestamp": "0x69b7ed80",
          "transactionHash": "0x7bcf94b3c3d05a85fe252fe19e837cbdc6cfe2b6245da6dd4310def18962b069",
          "transactionIndex": "0x6",
          "logIndex": "0x4",
          "removed": false
        }
      ],
      "logsBloom": "0x00000000000000000000000000080000000001000000000000000000000000000000000000000000000000000000000000000000000000000000000000200000000000000000000000000000000000000000000000000000000000000000000000000000000000000000000000000000000000000000000000000000000000000000000400000000000000000000000000000000000000000080000000000000020000000000000000000000000000004000000000000000000000000000000000080000000000000000000000000000000000000000000000000000080000000010000000000000000000001000000000080000000000000000000000000000",
      "type": "0x2",
      "transactionHash": "0x7bcf94b3c3d05a85fe252fe19e837cbdc6cfe2b6245da6dd4310def18962b069",
      "transactionIndex": "0x6",
      "blockHash": "0xb2152db3dd3e76a64cafd12caae5f49de3a532a68d742820110c4fbccf9edea1",
      "blockNumber": "0x2ca4034",
      "gasUsed": "0xb54e",
      "effectiveGasPrice": "0x7a121",
      "blobGasUsed": "0x9c40",
      "from": "0xc5b7b574ee84a9b59b475fe32eaf908c246d3859",
      "to": "0xebfe314e711119f97787b4e121d23367b6be37b9",
      "contractAddress": null,
      "daFootprintGasScalar": "0x190",
      "l1BaseFeeScalar": "0x7d0",
      "l1BlobBaseFee": "0x12d3",
      "l1BlobBaseFeeScalar": "0xdbba0",
      "l1Fee": "0x69e4e",
      "l1GasPrice": "0xa",
      "l1GasUsed": "0x640"
    },
    {
      "status": "0x1",
      "cumulativeGasUsed": "0x812bf",
      "logs": [
        {
          "address": "0x00b036b58a818b1bc34d502d3fe730db729e62ac",
          "topics": [
            "0xf208f4912782fd25c7f114ca3723a2d5dd6f3bcc3ac8db5af63baa85f711d5ec",
            "0xbd8142019eca780e28acf408a55fe5e483c960ede62a5933c583db9c3c0460f0",
            "0x0000000000000000000000005fa728c0a5cfd51bee4b060773f50554c0c8a7ab"
          ],
          "data": "0xfffffffffffffffffffffffffffffffffffffffffffffffffffffffffff2764c00000000000000000000000000000000000000000000000000000000000d89b400000000000000000000000000000000000000000000021e19e0c9bab24000000000000000000000000000000000000000000000000000000000000000000000",
          "blockHash": "0x0000000000000000000000000000000000000000000000000000000000000000",
          "blockNumber": "0x2ca403a",
          "blockTimestamp": "0x69b7ed86",
          "transactionHash": "0x4e9676c31ee41d5f4dce6070b683f5962d71024b8f05c5104465d160e84996a4",
          "transactionIndex": "0x3",
          "logIndex": "0x1",
          "removed": false
        },
        {
          "address": "0x5ebc81e875895a6a35cf57757a3a597def9822d4",
          "topics": [
            "0xa56e19c5f806ae66a3b7d8c0b92d13ddf628502c9b47f577580f5f6a4e1deb2a",
            "0x000000000000000000000000dae6cf499756455de55eaad590d59609870e1a3c",
            "0xbd8142019eca780e28acf408a55fe5e483c960ede62a5933c583db9c3c0460f0"
          ],
          "data": "0x00000000000000000000000000000000000000000000021e19e0c9bab2400000",
          "blockHash": "0x0000000000000000000000000000000000000000000000000000000000000000",
          "blockNumber": "0x2ca403a",
          "blockTimestamp": "0x69b7ed86",
          "transactionHash": "0x4e9676c31ee41d5f4dce6070b683f5962d71024b8f05c5104465d160e84996a4",
          "transactionIndex": "0x3",
          "logIndex": "0x2",
          "removed": false
        },
        {
          "address": "0x97b49acb6c8c803f2092dc5a06f557dbfc098640",
          "topics": [
            "0x9fcca7d4a4fe21922427fa68ae954a11518460e4298a953677db412ad22d6f39",
            "0x000000000000000000000000dae6cf499756455de55eaad590d59609870e1a3c",
            "0xbd8142019eca780e28acf408a55fe5e483c960ede62a5933c583db9c3c0460f0"
          ],
          "data": "0x00000000000000000000000000000000000000000000021e19e0c9bab2400000",
          "blockHash": "0x0000000000000000000000000000000000000000000000000000000000000000",
          "blockNumber": "0x2ca403a",
          "blockTimestamp": "0x69b7ed86",
          "transactionHash": "0x4e9676c31ee41d5f4dce6070b683f5962d71024b8f05c5104465d160e84996a4",
          "transactionIndex": "0x3",
          "logIndex": "0x3",
          "removed": false
        },
        {
          "address": "0x552c3f98bde60d3298c0c85cde5f5f63d52dbce2",
          "topics": [
            "0xddf252ad1be2c89b69c2b068fc378daa952ba7f163c4a11628f55a4df523b3ef",
            "0x000000000000000000000000c5b7b574ee84a9b59b475fe32eaf908c246d3859",
            "0x00000000000000000000000000b036b58a818b1bc34d502d3fe730db729e62ac"
          ],
          "data": "0x00000000000000000000000000000000000000000000021e19e0c9bab23ffde1",
          "blockHash": "0x0000000000000000000000000000000000000000000000000000000000000000",
          "blockNumber": "0x2ca403a",
          "blockTimestamp": "0x69b7ed86",
          "transactionHash": "0x4e9676c31ee41d5f4dce6070b683f5962d71024b8f05c5104465d160e84996a4",
          "transactionIndex": "0x3",
          "logIndex": "0x4",
          "removed": false
        },
        {
          "address": "0xebfe314e711119f97787b4e121d23367b6be37b9",
          "topics": [
            "0xddf252ad1be2c89b69c2b068fc378daa952ba7f163c4a11628f55a4df523b3ef",
            "0x000000000000000000000000c5b7b574ee84a9b59b475fe32eaf908c246d3859",
            "0x00000000000000000000000000b036b58a818b1bc34d502d3fe730db729e62ac"
          ],
          "data": "0x00000000000000000000000000000000000000000000021e19e0c9bab23ffde1",
          "blockHash": "0x0000000000000000000000000000000000000000000000000000000000000000",
          "blockNumber": "0x2ca403a",
          "blockTimestamp": "0x69b7ed86",
          "transactionHash": "0x4e9676c31ee41d5f4dce6070b683f5962d71024b8f05c5104465d160e84996a4",
          "transactionIndex": "0x3",
          "logIndex": "0x5",
          "removed": false
        }
      ],
      "logsBloom": "0x000000000000000000000000000c00000000010000000000000000000000000000004000000000000000000000400000000000000010000800000000000000000000000000010000000000080000000000000000000100000000000000000000000000000000000000000000000040000000000000000000100000100000000000000004010000004000400000080000000000000000000000800000000000000000040000000000000000000000000050000000000000208000000000004000000800020000000000000000000000000020000020002020000000200800000000000000100000001000000010000000040800000000020000c0000000000010",
      "type": "0x2",
      "transactionHash": "0x4e9676c31ee41d5f4dce6070b683f5962d71024b8f05c5104465d160e84996a4",
      "transactionIndex": "0x3",
      "blockHash": "0x0000000000000000000000000000000000000000000000000000000000000000",
      "blockNumber": "0x2ca403a",
      "gasUsed": "0x598bb",
      "effectiveGasPrice": "0x7a121",
      "blobGasUsed": "0x104f0",
      "from": "0xc5b7b574ee84a9b59b475fe32eaf908c246d3859",
      "to": "0x5fa728c0a5cfd51bee4b060773f50554c0c8a7ab",
      "contractAddress": null,
      "daFootprintGasScalar": "0x190",
      "l1BaseFeeScalar": "0x7d0",
      "l1BlobBaseFee": "0x129d",
      "l1BlobBaseFeeScalar": "0xdbba0",
      "l1Fee": "0x9179a",
      "l1GasPrice": "0xa",
      "l1GasUsed": "0xa76"
    },
    {
      "status": "0x1",
      "cumulativeGasUsed": "0x4b44c",
      "logs": [
        {
          "address": "0x00b036b58a818b1bc34d502d3fe730db729e62ac",
          "topics": [
            "0xdd466e674ea557f56295e2d0218a125ea4b4f0f6f3307b95f85e6110838d6438",
            "0xc33a04a1c4534e89bbe639a8403b94f1eaf7fdf30abe389c0460c22245cab0fd",
            "0x00000000000000000000000046f02e8cf663b74aea15e6f613433dad1dd6b7fb",
            "0x000000000000000000000000552c3f98bde60d3298c0c85cde5f5f63d52dbce2"
          ],
          "data": "0x0000000000000000000000000000000000000000000000000000000000000bb8000000000000000000000000000000000000000000000000000000000000003c00000000000000000000000097b49acb6c8c803f2092dc5a06f557dbfc09864000000000000000000000000000000000000000010000000000000000000000000000000000000000000000000000000000000000000000000000000000000000",
          "blockHash": "0x0000000000000000000000000000000000000000000000000000000000000000",
          "blockNumber": "0x2ca403f",
          "blockTimestamp": "0x69b7ed8b",
          "transactionHash": "0xed117af916d55da264bbb46760f07b2709e3bd38f7fed795e7cea56f330cc8c7",
          "transactionIndex": "0x4",
          "logIndex": "0x2",
          "removed": false
        }
      ],
      "logsBloom": "0x00000000000000000400000000000000000000000000000000000000000000000000000000000000000000000000000000000000000000000000000000000000000000000000000000000000000000000000000000000020000000000000000000000004000000000000000000000000000000000000000000000020000000000000000000000008000000000008000000000001000000000000020000200000000000000000000000000000000000000000000000000000000400000000000000004000000000000000000000000000000000000000000000000000000000000000000000000000000000000800000000000000800002000000000000000010",
      "type": "0x2",
      "transactionHash": "0xed117af916d55da264bbb46760f07b2709e3bd38f7fed795e7cea56f330cc8c7",
      "transactionIndex": "0x4",
      "blockHash": "0x0000000000000000000000000000000000000000000000000000000000000000",
      "blockNumber": "0x2ca403f",
      "gasUsed": "0xca16",
      "effectiveGasPrice": "0x7a121",
      "blobGasUsed": "0xdde0",
      "from": "0xc5b7b574ee84a9b59b475fe32eaf908c246d3859",
      "to": "0x00b036b58a818b1bc34d502d3fe730db729e62ac",
      "contractAddress": null,
      "daFootprintGasScalar": "0x190",
      "l1BaseFeeScalar": "0x7d0",
      "l1BlobBaseFee": "0x129d",
      "l1BlobBaseFeeScalar": "0xdbba0",
      "l1Fee": "0x9179a",
      "l1GasPrice": "0xa",
      "l1GasUsed": "0x8e4"
    },
    {
      "status": "0x1",
      "cumulativeGasUsed": "0x35016",
      "logs": [
        {
          "address": "0x46f02e8cf663b74aea15e6f613433dad1dd6b7fb",
          "topics": [
            "0x8c5be1e5ebec7d5bd14f71427d1e84f3dd0314c0f7b2291e5b200ac8c7c3b925",
            "0x000000000000000000000000c5b7b574ee84a9b59b475fe32eaf908c246d3859",
            "0x0000000000000000000000005fa728c0a5cfd51bee4b060773f50554c0c8a7ab"
          ],
          "data": "0x00000000000000000000000000000000000000000000021e19e0c9bab2400000",
          "blockHash": "0x0000000000000000000000000000000000000000000000000000000000000000",
          "blockNumber": "0x2ca4043",
          "blockTimestamp": "0x69b7ed8f",
          "transactionHash": "0xb4dce00488b681fd0b6240089d15396c5e2f3e6513d48a0f9fec46c61fb2668c",
          "transactionIndex": "0x3",
          "logIndex": "0x1",
          "removed": false
        }
      ],
      "logsBloom": "0x00000000000000000000000000000000000000000000000000000000000000000000000000000000000000000000000000000000000000000000000010200000000000000000000004000000000000000000000000000000000000000000000000000000000000000000000000000000000000000000000000000000000000000000000400000000000000000000000000000000000000000080000000000000020000000000000000000000000000004000000000000000000000000000000000080000000000000000000000800000000000000000000000000000000000000010000000000000000000001000000000080000000000000000000000000000",
      "type": "0x2",
      "transactionHash": "0xb4dce00488b681fd0b6240089d15396c5e2f3e6513d48a0f9fec46c61fb2668c",
      "transactionIndex": "0x3",
      "blockHash": "0x0000000000000000000000000000000000000000000000000000000000000000",
      "blockNumber": "0x2ca4043",
      "gasUsed": "0xb54e",
      "effectiveGasPrice": "0x7a121",
      "blobGasUsed": "0x9c40",
      "from": "0xc5b7b574ee84a9b59b475fe32eaf908c246d3859",
      "to": "0x46f02e8cf663b74aea15e6f613433dad1dd6b7fb",
      "contractAddress": null,
      "daFootprintGasScalar": "0x190",
      "l1BaseFeeScalar": "0x7d0",
      "l1BlobBaseFee": "0x1268",
      "l1BlobBaseFeeScalar": "0xdbba0",
      "l1Fee": "0x8fdb7",
      "l1GasPrice": "0xa",
      "l1GasUsed": "0x640"
    },
    {
      "status": "0x1",
      "cumulativeGasUsed": "0x2ec7a",
      "logs": [
        {
          "address": "0x552c3f98bde60d3298c0c85cde5f5f63d52dbce2",
          "topics": [
            "0x8c5be1e5ebec7d5bd14f71427d1e84f3dd0314c0f7b2291e5b200ac8c7c3b925",
            "0x000000000000000000000000c5b7b574ee84a9b59b475fe32eaf908c246d3859",
            "0x0000000000000000000000005fa728c0a5cfd51bee4b060773f50554c0c8a7ab"
          ],
          "data": "0x00000000000000000000000000000000000000000000021e19e0c9bab2400000",
          "blockHash": "0x0000000000000000000000000000000000000000000000000000000000000000",
          "blockNumber": "0x2ca4047",
          "blockTimestamp": "0x69b7ed93",
          "transactionHash": "0x7de399b35317cedb351beb64d6705423a6b7a162c23cb16a97d45e5a3883ed1f",
          "transactionIndex": "0x3",
          "logIndex": "0x1",
          "removed": false
        }
      ],
      "logsBloom": "0x00000000000000000000000000000000000000000000000000000000000000000000400000000000000000000000000000000000000000080000000000200000000000000000000000000000000000000000000000000000000000000000000000000000000000000000000000000000000000000000000000000000000000000000000400000000000000000000000000000000000000000080000000000000020000000000000000000000000000004000000000000000000000000000000000080000000000000000000000000000000000000000000000000000000000000010000000000000000000001000000000080000000000000040000000000000",
      "type": "0x2",
      "transactionHash": "0x7de399b35317cedb351beb64d6705423a6b7a162c23cb16a97d45e5a3883ed1f",
      "transactionIndex": "0x3",
      "blockHash": "0x0000000000000000000000000000000000000000000000000000000000000000",
      "blockNumber": "0x2ca4047",
      "gasUsed": "0x7282",
      "effectiveGasPrice": "0x7a121",
      "blobGasUsed": "0x9c40",
      "from": "0xc5b7b574ee84a9b59b475fe32eaf908c246d3859",
      "to": "0x552c3f98bde60d3298c0c85cde5f5f63d52dbce2",
      "contractAddress": null,
      "daFootprintGasScalar": "0x190",
      "l1BaseFeeScalar": "0x7d0",
      "l1BlobBaseFee": "0x1268",
      "l1BlobBaseFeeScalar": "0xdbba0",
      "l1Fee": "0x8fdb7",
      "l1GasPrice": "0xa",
      "l1GasUsed": "0x640"
    },
    {
      "status": "0x1",
      "cumulativeGasUsed": "0x7cff3",
      "logs": [
        {
          "address": "0x00b036b58a818b1bc34d502d3fe730db729e62ac",
          "topics": [
            "0xf208f4912782fd25c7f114ca3723a2d5dd6f3bcc3ac8db5af63baa85f711d5ec",
            "0xc33a04a1c4534e89bbe639a8403b94f1eaf7fdf30abe389c0460c22245cab0fd",
            "0x0000000000000000000000005fa728c0a5cfd51bee4b060773f50554c0c8a7ab"
          ],
          "data": "0xfffffffffffffffffffffffffffffffffffffffffffffffffffffffffff2764c00000000000000000000000000000000000000000000000000000000000d89b400000000000000000000000000000000000000000000021e19e0c9bab24000000000000000000000000000000000000000000000000000000000000000000000",
          "blockHash": "0x0000000000000000000000000000000000000000000000000000000000000000",
          "blockNumber": "0x2ca404c",
          "blockTimestamp": "0x69b7ed98",
          "transactionHash": "0x3b05176883095b78259a3876090f76736a411ec830b928fcc36f869d96c0025d",
          "transactionIndex": "0x3",
          "logIndex": "0x1",
          "removed": false
        },
        {
          "address": "0x5ebc81e875895a6a35cf57757a3a597def9822d4",
          "topics": [
            "0xa56e19c5f806ae66a3b7d8c0b92d13ddf628502c9b47f577580f5f6a4e1deb2a",
            "0x000000000000000000000000ca093b5e50df91117440f9dfd1542b8f42075d67",
            "0xc33a04a1c4534e89bbe639a8403b94f1eaf7fdf30abe389c0460c22245cab0fd"
          ],
          "data": "0x00000000000000000000000000000000000000000000021e19e0c9bab2400000",
          "blockHash": "0x0000000000000000000000000000000000000000000000000000000000000000",
          "blockNumber": "0x2ca404c",
          "blockTimestamp": "0x69b7ed98",
          "transactionHash": "0x3b05176883095b78259a3876090f76736a411ec830b928fcc36f869d96c0025d",
          "transactionIndex": "0x3",
          "logIndex": "0x2",
          "removed": false
        },
        {
          "address": "0x97b49acb6c8c803f2092dc5a06f557dbfc098640",
          "topics": [
            "0x9fcca7d4a4fe21922427fa68ae954a11518460e4298a953677db412ad22d6f39",
            "0x000000000000000000000000ca093b5e50df91117440f9dfd1542b8f42075d67",
            "0xc33a04a1c4534e89bbe639a8403b94f1eaf7fdf30abe389c0460c22245cab0fd"
          ],
          "data": "0x00000000000000000000000000000000000000000000021e19e0c9bab2400000",
          "blockHash": "0x0000000000000000000000000000000000000000000000000000000000000000",
          "blockNumber": "0x2ca404c",
          "blockTimestamp": "0x69b7ed98",
          "transactionHash": "0x3b05176883095b78259a3876090f76736a411ec830b928fcc36f869d96c0025d",
          "transactionIndex": "0x3",
          "logIndex": "0x3",
          "removed": false
        },
        {
          "address": "0x46f02e8cf663b74aea15e6f613433dad1dd6b7fb",
          "topics": [
            "0xddf252ad1be2c89b69c2b068fc378daa952ba7f163c4a11628f55a4df523b3ef",
            "0x000000000000000000000000c5b7b574ee84a9b59b475fe32eaf908c246d3859",
            "0x00000000000000000000000000b036b58a818b1bc34d502d3fe730db729e62ac"
          ],
          "data": "0x00000000000000000000000000000000000000000000021e19e0c9bab23ffde1",
          "blockHash": "0x0000000000000000000000000000000000000000000000000000000000000000",
          "blockNumber": "0x2ca404c",
          "blockTimestamp": "0x69b7ed98",
          "transactionHash": "0x3b05176883095b78259a3876090f76736a411ec830b928fcc36f869d96c0025d",
          "transactionIndex": "0x3",
          "logIndex": "0x4",
          "removed": false
        },
        {
          "address": "0x552c3f98bde60d3298c0c85cde5f5f63d52dbce2",
          "topics": [
            "0xddf252ad1be2c89b69c2b068fc378daa952ba7f163c4a11628f55a4df523b3ef",
            "0x000000000000000000000000c5b7b574ee84a9b59b475fe32eaf908c246d3859",
            "0x00000000000000000000000000b036b58a818b1bc34d502d3fe730db729e62ac"
          ],
          "data": "0x00000000000000000000000000000000000000000000021e19e0c9bab23ffde1",
          "blockHash": "0x0000000000000000000000000000000000000000000000000000000000000000",
          "blockNumber": "0x2ca404c",
          "blockTimestamp": "0x69b7ed98",
          "transactionHash": "0x3b05176883095b78259a3876090f76736a411ec830b928fcc36f869d96c0025d",
          "transactionIndex": "0x3",
          "logIndex": "0x5",
          "removed": false
        }
      ],
      "logsBloom": "0x000000000000000000000100000000000000000000000000000000000000000000004000000000000000000000400000000000000010000800000000100000000000000000010000040000080000000000000000000100200000000000000000000000000000000000000000000040000000000000000000100000100000000000000004010000004000000000080000000080000000000000800000000000000000040000000000000000000000000050000000000000200000000000004000000840020000000000000000008000000020000000000020000000200000000000000000100000000000000018000000040800040000020000c0000000000010",
      "type": "0x2",
      "transactionHash": "0x3b05176883095b78259a3876090f76736a411ec830b928fcc36f869d96c0025d",
      "transactionIndex": "0x3",
      "blockHash": "0x0000000000000000000000000000000000000000000000000000000000000000",
      "blockNumber": "0x2ca404c",
      "gasUsed": "0x555ef",
      "effectiveGasPrice": "0x7a121",
      "blobGasUsed": "0x104f0",
      "from": "0xc5b7b574ee84a9b59b475fe32eaf908c246d3859",
      "to": "0x5fa728c0a5cfd51bee4b060773f50554c0c8a7ab",
      "contractAddress": null,
      "daFootprintGasScalar": "0x190",
      "l1BaseFeeScalar": "0x7d0",
      "l1BlobBaseFee": "0x1268",
      "l1BlobBaseFeeScalar": "0xdbba0",
      "l1Fee": "0x8fdb7",
      "l1GasPrice": "0xa",
      "l1GasUsed": "0xa76"
    },
    {
      "status": "0x1",
      "cumulativeGasUsed": "0xbc8ae",
      "logs": [
        {
          "address": "0x00b036b58a818b1bc34d502d3fe730db729e62ac",
          "topics": [
            "0xdd466e674ea557f56295e2d0218a125ea4b4f0f6f3307b95f85e6110838d6438",
            "0x84ba1aaf5703b3f9bda6cc98dea3619de970be96e080f634410554bab4e8855f",
            "0x000000000000000000000000552c3f98bde60d3298c0c85cde5f5f63d52dbce2",
            "0x000000000000000000000000e485afbd687ac536597ceb7cbb70bad2499b3688"
          ],
          "data": "0x0000000000000000000000000000000000000000000000000000000000000bb8000000000000000000000000000000000000000000000000000000000000003c00000000000000000000000097b49acb6c8c803f2092dc5a06f557dbfc09864000000000000000000000000000000000000000010000000000000000000000000000000000000000000000000000000000000000000000000000000000000000",
          "blockHash": "0x0000000000000000000000000000000000000000000000000000000000000000",
          "blockNumber": "0x2ca4051",
          "blockTimestamp": "0x69b7ed9d",
          "transactionHash": "0x77504c815e9cd7af80fcfb01eed746be0d3dac752b33e74b848eb21688c15301",
          "transactionIndex": "0x4",
          "logIndex": "0xa",
          "removed": false
        }
      ],
      "logsBloom": "0x00004000000000080000000000000000000000000000000000000000000000000000000000000000000000000000000000000000000000000000000000000000000000000000000800000000000000000000000000000000000000000000000000000004000040000000000000000000000000000000010000000020000000000000000000000008000000000008000000000001000000000000000000200000000000000000002000000000000000000000000000000000000400000000000000000000000000000000000000000000000000000000000000000000000000000000000000000000000000000000000000000000000002000000000000000010",
      "type": "0x2",
      "transactionHash": "0x77504c815e9cd7af80fcfb01eed746be0d3dac752b33e74b848eb21688c15301",
      "transactionIndex": "0x4",
      "blockHash": "0x0000000000000000000000000000000000000000000000000000000000000000",
      "blockNumber": "0x2ca4051",
      "gasUsed": "0xca16",
      "effectiveGasPrice": "0x7a121",
      "blobGasUsed": "0xdde0",
      "from": "0xc5b7b574ee84a9b59b475fe32eaf908c246d3859",
      "to": "0x00b036b58a818b1bc34d502d3fe730db729e62ac",
      "contractAddress": null,
      "daFootprintGasScalar": "0x190",
      "l1BaseFeeScalar": "0x7d0",
      "l1BlobBaseFee": "0x1167",
      "l1BlobBaseFeeScalar": "0xdbba0",
      "l1Fee": "0x8802f",
      "l1GasPrice": "0xa",
      "l1GasUsed": "0x8e4"
    },
    {
      "status": "0x1",
      "cumulativeGasUsed": "0xf5742",
      "logs": [
        {
          "address": "0x552c3f98bde60d3298c0c85cde5f5f63d52dbce2",
          "topics": [
            "0x8c5be1e5ebec7d5bd14f71427d1e84f3dd0314c0f7b2291e5b200ac8c7c3b925",
            "0x000000000000000000000000c5b7b574ee84a9b59b475fe32eaf908c246d3859",
            "0x0000000000000000000000005fa728c0a5cfd51bee4b060773f50554c0c8a7ab"
          ],
          "data": "0x00000000000000000000000000000000000000000000021e19e0c9bab2400000",
          "blockHash": "0xb795b55b46555baea09a77dbcd7baa62e8475bca4454d8b84660f42f944ce416",
          "blockNumber": "0x2ca4054",
          "blockTimestamp": "0x69b7eda0",
          "transactionHash": "0xd9851d505c34714efc76323910a052d0566fd60a7cbcad80ca746ae68757d56f",
          "transactionIndex": "0x7",
          "logIndex": "0xb",
          "removed": false
        }
      ],
      "logsBloom": "0x00000000000000000000000000000000000000000000000000000000000000000000400000000000000000000000000000000000000000080000000000200000000000000000000000000000000000000000000000000000000000000000000000000000000000000000000000000000000000000000000000000000000000000000000400000000000000000000000000000000000000000080000000000000020000000000000000000000000000004000000000000000000000000000000000080000000000000000000000000000000000000000000000000000000000000010000000000000000000001000000000080000000000000040000000000000",
      "type": "0x2",
      "transactionHash": "0xd9851d505c34714efc76323910a052d0566fd60a7cbcad80ca746ae68757d56f",
      "transactionIndex": "0x7",
      "blockHash": "0xb795b55b46555baea09a77dbcd7baa62e8475bca4454d8b84660f42f944ce416",
      "blockNumber": "0x2ca4054",
      "gasUsed": "0x7282",
      "effectiveGasPrice": "0x7a121",
      "blobGasUsed": "0x9c40",
      "from": "0xc5b7b574ee84a9b59b475fe32eaf908c246d3859",
      "to": "0x552c3f98bde60d3298c0c85cde5f5f63d52dbce2",
      "contractAddress": null,
      "daFootprintGasScalar": "0x190",
      "l1BaseFeeScalar": "0x7d0",
      "l1BlobBaseFee": "0x1167",
      "l1BlobBaseFeeScalar": "0xdbba0",
      "l1Fee": "0x61e56",
      "l1GasPrice": "0xa",
      "l1GasUsed": "0x640"
    },
    {
      "status": "0x1",
      "cumulativeGasUsed": "0x100482",
      "logs": [
        {
          "address": "0xe485afbd687ac536597ceb7cbb70bad2499b3688",
          "topics": [
            "0x8c5be1e5ebec7d5bd14f71427d1e84f3dd0314c0f7b2291e5b200ac8c7c3b925",
            "0x000000000000000000000000c5b7b574ee84a9b59b475fe32eaf908c246d3859",
            "0x0000000000000000000000005fa728c0a5cfd51bee4b060773f50554c0c8a7ab"
          ],
          "data": "0x00000000000000000000000000000000000000000000021e19e0c9bab2400000",
          "blockHash": "0x694c73e4ab20c35c31813444edb87811b5e5eeb26c92a982339cf20223d499d6",
          "blockNumber": "0x2ca4059",
          "blockTimestamp": "0x69b7eda5",
          "transactionHash": "0x5924c30be9ce88ec234a28dbc54c7f9da82f61a05aba8a5679d4cf66376787cd",
          "transactionIndex": "0x7",
          "logIndex": "0xd",
          "removed": false
        }
      ],
      "logsBloom": "0x00000000000000000000000000000000000000000000000000000000000000000000000000000000000000000000000000000000000000000000000000200000000000000000000000000000000000000000000000000000000000000000000000000000000000000100000000000000000000000000000000000000000000000000000400000000000000000000000000000000400000000080000000000000020000000000000000000000000000004000000000000000000000000000000000080000000000000000000000000002000000000000000000000000000000000010000000000000000000001000000000080000000000000000000000000000",
      "type": "0x2",
      "transactionHash": "0x5924c30be9ce88ec234a28dbc54c7f9da82f61a05aba8a5679d4cf66376787cd",
      "transactionIndex": "0x7",
      "blockHash": "0x694c73e4ab20c35c31813444edb87811b5e5eeb26c92a982339cf20223d499d6",
      "blockNumber": "0x2ca4059",
      "gasUsed": "0xb54e",
      "effectiveGasPrice": "0x7a121",
      "blobGasUsed": "0x9c40",
      "from": "0xc5b7b574ee84a9b59b475fe32eaf908c246d3859",
      "to": "0xe485afbd687ac536597ceb7cbb70bad2499b3688",
      "contractAddress": null,
      "daFootprintGasScalar": "0x190",
      "l1BaseFeeScalar": "0x7d0",
      "l1BlobBaseFee": "0x1167",
      "l1BlobBaseFeeScalar": "0xdbba0",
      "l1Fee": "0x61e56",
      "l1GasPrice": "0xa",
      "l1GasUsed": "0x640"
    },
    {
      "status": "0x1",
      "cumulativeGasUsed": "0x94025",
      "logs": [
        {
          "address": "0x00b036b58a818b1bc34d502d3fe730db729e62ac",
          "topics": [
            "0xf208f4912782fd25c7f114ca3723a2d5dd6f3bcc3ac8db5af63baa85f711d5ec",
            "0x84ba1aaf5703b3f9bda6cc98dea3619de970be96e080f634410554bab4e8855f",
            "0x0000000000000000000000005fa728c0a5cfd51bee4b060773f50554c0c8a7ab"
          ],
          "data": "0xfffffffffffffffffffffffffffffffffffffffffffffffffffffffffff2764c00000000000000000000000000000000000000000000000000000000000d89b400000000000000000000000000000000000000000000021e19e0c9bab24000000000000000000000000000000000000000000000000000000000000000000000",
          "blockHash": "0x0000000000000000000000000000000000000000000000000000000000000000",
          "blockNumber": "0x2ca405d",
          "blockTimestamp": "0x69b7eda9",
          "transactionHash": "0x2f5c37dc1f3668ff4969f8993cec9e8dfe905dce7855e0ea8867955e1defad82",
          "transactionIndex": "0x4",
          "logIndex": "0x2",
          "removed": false
        },
        {
          "address": "0x5ebc81e875895a6a35cf57757a3a597def9822d4",
          "topics": [
            "0xa56e19c5f806ae66a3b7d8c0b92d13ddf628502c9b47f577580f5f6a4e1deb2a",
            "0x0000000000000000000000006da90fd521d6cff9d373204038459addca260f2a",
            "0x84ba1aaf5703b3f9bda6cc98dea3619de970be96e080f634410554bab4e8855f"
          ],
          "data": "0x00000000000000000000000000000000000000000000021e19e0c9bab2400000",
          "blockHash": "0x0000000000000000000000000000000000000000000000000000000000000000",
          "blockNumber": "0x2ca405d",
          "blockTimestamp": "0x69b7eda9",
          "transactionHash": "0x2f5c37dc1f3668ff4969f8993cec9e8dfe905dce7855e0ea8867955e1defad82",
          "transactionIndex": "0x4",
          "logIndex": "0x3",
          "removed": false
        },
        {
          "address": "0x97b49acb6c8c803f2092dc5a06f557dbfc098640",
          "topics": [
            "0x9fcca7d4a4fe21922427fa68ae954a11518460e4298a953677db412ad22d6f39",
            "0x0000000000000000000000006da90fd521d6cff9d373204038459addca260f2a",
            "0x84ba1aaf5703b3f9bda6cc98dea3619de970be96e080f634410554bab4e8855f"
          ],
          "data": "0x00000000000000000000000000000000000000000000021e19e0c9bab2400000",
          "blockHash": "0x0000000000000000000000000000000000000000000000000000000000000000",
          "blockNumber": "0x2ca405d",
          "blockTimestamp": "0x69b7eda9",
          "transactionHash": "0x2f5c37dc1f3668ff4969f8993cec9e8dfe905dce7855e0ea8867955e1defad82",
          "transactionIndex": "0x4",
          "logIndex": "0x4",
          "removed": false
        },
        {
          "address": "0x552c3f98bde60d3298c0c85cde5f5f63d52dbce2",
          "topics": [
            "0xddf252ad1be2c89b69c2b068fc378daa952ba7f163c4a11628f55a4df523b3ef",
            "0x000000000000000000000000c5b7b574ee84a9b59b475fe32eaf908c246d3859",
            "0x00000000000000000000000000b036b58a818b1bc34d502d3fe730db729e62ac"
          ],
          "data": "0x00000000000000000000000000000000000000000000021e19e0c9bab23ffde1",
          "blockHash": "0x0000000000000000000000000000000000000000000000000000000000000000",
          "blockNumber": "0x2ca405d",
          "blockTimestamp": "0x69b7eda9",
          "transactionHash": "0x2f5c37dc1f3668ff4969f8993cec9e8dfe905dce7855e0ea8867955e1defad82",
          "transactionIndex": "0x4",
          "logIndex": "0x5",
          "removed": false
        },
        {
          "address": "0xe485afbd687ac536597ceb7cbb70bad2499b3688",
          "topics": [
            "0xddf252ad1be2c89b69c2b068fc378daa952ba7f163c4a11628f55a4df523b3ef",
            "0x000000000000000000000000c5b7b574ee84a9b59b475fe32eaf908c246d3859",
            "0x00000000000000000000000000b036b58a818b1bc34d502d3fe730db729e62ac"
          ],
          "data": "0x00000000000000000000000000000000000000000000021e19e0c9bab23ffde1",
          "blockHash": "0x0000000000000000000000000000000000000000000000000000000000000000",
          "blockNumber": "0x2ca405d",
          "blockTimestamp": "0x69b7eda9",
          "transactionHash": "0x2f5c37dc1f3668ff4969f8993cec9e8dfe905dce7855e0ea8867955e1defad82",
          "transactionIndex": "0x4",
          "logIndex": "0x6",
          "removed": false
        }
      ],
      "logsBloom": "0x000000000000000800000000000000000000000000000000000000000000000000004000000000000000000000400000000000000010000800000000000000000000000000010008000000080000000000000040000100000000000000000000000000000000000001000000000040000000000000000100100000100080000000000004010000004000000000080008000000004000000000800000000000000000040000000000000000000000000050000000000000200000000000004000000800020000000000000000000000020020000000000020000000200000000000000000100000000000000010000000040800000000020000c0000000000010",
      "type": "0x2",
      "transactionHash": "0x2f5c37dc1f3668ff4969f8993cec9e8dfe905dce7855e0ea8867955e1defad82",
      "transactionIndex": "0x4",
      "blockHash": "0x0000000000000000000000000000000000000000000000000000000000000000",
      "blockNumber": "0x2ca405d",
      "gasUsed": "0x555ef",
      "effectiveGasPrice": "0x7a121",
      "blobGasUsed": "0x104f0",
      "from": "0xc5b7b574ee84a9b59b475fe32eaf908c246d3859",
      "to": "0x5fa728c0a5cfd51bee4b060773f50554c0c8a7ab",
      "contractAddress": null,
      "daFootprintGasScalar": "0x190",
      "l1BaseFeeScalar": "0x7d0",
      "l1BlobBaseFee": "0x1167",
      "l1BlobBaseFeeScalar": "0xdbba0",
      "l1Fee": "0x8802f",
      "l1GasPrice": "0xa",
      "l1GasUsed": "0xa76"
    },
    {
      "status": "0x1",
      "cumulativeGasUsed": "0x3441a",
      "logs": [
        {
          "address": "0x00b036b58a818b1bc34d502d3fe730db729e62ac",
          "topics": [
            "0xdd466e674ea557f56295e2d0218a125ea4b4f0f6f3307b95f85e6110838d6438",
            "0x446c13b23cfb7e0d81be115e6cbe72a19ebfd1d4c8b152e7ddec920845ad7b88",
            "0x0000000000000000000000000726f39dbab861de81b9eafc4482c76967bf60e0",
            "0x000000000000000000000000552c3f98bde60d3298c0c85cde5f5f63d52dbce2"
          ],
          "data": "0x0000000000000000000000000000000000000000000000000000000000000bb8000000000000000000000000000000000000000000000000000000000000003c00000000000000000000000097b49acb6c8c803f2092dc5a06f557dbfc09864000000000000000000000000000000000000000010000000000000000000000000000000000000000000000000000000000000000000000000000000000000000",
          "blockHash": "0x0000000000000000000000000000000000000000000000000000000000000000",
          "blockNumber": "0x2ca4061",
          "blockTimestamp": "0x69b7edad",
          "transactionHash": "0x8402b959c3395073bd98de8074c7fb55b7d5bb1b370a741e9f23c44adf14aef5",
          "transactionIndex": "0x3",
          "logIndex": "0x1",
          "removed": false
        }
      ],
      "logsBloom": "0x00000000000000000000004800000000000000000000000000000000000000000000100000000000000000000000000000000000000000000000000000000000000000000200000000000000000000000000000000000000000000000000000000000004000000000000000000000000000000000000000000000020000000000000000000000008000000000008000000000001000000000000000000200000000000000000000000000000000000000000000000000000000400000000000000000000000000000000000000000000000000000000000000000400080000000000000000000000000000000000000000000000000002000000000000000010",
      "type": "0x2",
      "transactionHash": "0x8402b959c3395073bd98de8074c7fb55b7d5bb1b370a741e9f23c44adf14aef5",
      "transactionIndex": "0x3",
      "blockHash": "0x0000000000000000000000000000000000000000000000000000000000000000",
      "blockNumber": "0x2ca4061",
      "gasUsed": "0xca16",
      "effectiveGasPrice": "0x7a121",
      "blobGasUsed": "0xdde0",
      "from": "0xc5b7b574ee84a9b59b475fe32eaf908c246d3859",
      "to": "0x00b036b58a818b1bc34d502d3fe730db729e62ac",
      "contractAddress": null,
      "daFootprintGasScalar": "0x190",
      "l1BaseFeeScalar": "0x7d0",
      "l1BlobBaseFee": "0x1167",
      "l1BlobBaseFeeScalar": "0xdbba0",
      "l1Fee": "0x8802f",
      "l1GasPrice": "0xa",
      "l1GasUsed": "0x8e4"
    },
    {
      "status": "0x1",
      "cumulativeGasUsed": "0x77fdc",
      "logs": [
        {
          "address": "0x0726f39dbab861de81b9eafc4482c76967bf60e0",
          "topics": [
            "0x8c5be1e5ebec7d5bd14f71427d1e84f3dd0314c0f7b2291e5b200ac8c7c3b925",
            "0x000000000000000000000000c5b7b574ee84a9b59b475fe32eaf908c246d3859",
            "0x0000000000000000000000005fa728c0a5cfd51bee4b060773f50554c0c8a7ab"
          ],
          "data": "0x00000000000000000000000000000000000000000000021e19e0c9bab2400000",
          "blockHash": "0xcc46668cc2f9b5639351a307d8a2acbfb0a943bd6da4a6934b48551ef14fcfd4",
          "blockNumber": "0x2ca4064",
          "blockTimestamp": "0x69b7edb0",
          "transactionHash": "0x634d9bf88a50f562d7181493247992669968604ffe2d63e97814b99baf21de7f",
          "transactionIndex": "0x6",
          "logIndex": "0x4",
          "removed": false
        }
      ],
      "logsBloom": "0x00000000000000000000000000000000000000000000000000000000000000000000000000000000000000000000000000000000000000000000000000200000000000000000000000000000000000000000000000000000000000000000000000000000000000000000000000000000000000000100000000000000000000000000000400008000000000000000000000000000000000000080000000000000020000000000000000000000000000004000000000000000000000000000000000080000000000000000000000000000000000000000000000000000000000000010000000000000000000001000000000080000000000000000000000800000",
      "type": "0x2",
      "transactionHash": "0x634d9bf88a50f562d7181493247992669968604ffe2d63e97814b99baf21de7f",
      "transactionIndex": "0x6",
      "blockHash": "0xcc46668cc2f9b5639351a307d8a2acbfb0a943bd6da4a6934b48551ef14fcfd4",
      "blockNumber": "0x2ca4064",
      "gasUsed": "0xb54e",
      "effectiveGasPrice": "0x7a121",
      "blobGasUsed": "0x9c40",
      "from": "0xc5b7b574ee84a9b59b475fe32eaf908c246d3859",
      "to": "0x0726f39dbab861de81b9eafc4482c76967bf60e0",
      "contractAddress": null,
      "daFootprintGasScalar": "0x190",
      "l1BaseFeeScalar": "0x7d0",
      "l1BlobBaseFee": "0x1167",
      "l1BlobBaseFeeScalar": "0xdbba0",
      "l1Fee": "0x61e56",
      "l1GasPrice": "0xa",
      "l1GasUsed": "0x640"
    },
    {
      "status": "0x1",
      "cumulativeGasUsed": "0x8ad4e",
      "logs": [
        {
          "address": "0x552c3f98bde60d3298c0c85cde5f5f63d52dbce2",
          "topics": [
            "0x8c5be1e5ebec7d5bd14f71427d1e84f3dd0314c0f7b2291e5b200ac8c7c3b925",
            "0x000000000000000000000000c5b7b574ee84a9b59b475fe32eaf908c246d3859",
            "0x0000000000000000000000005fa728c0a5cfd51bee4b060773f50554c0c8a7ab"
          ],
          "data": "0x00000000000000000000000000000000000000000000021e19e0c9bab2400000",
          "blockHash": "0x658ed6fc61f1125677cf200e793ce0f97d591e860612235d3475defae5ec472e",
          "blockNumber": "0x2ca4069",
          "blockTimestamp": "0x69b7edb5",
          "transactionHash": "0x44fcf7c72ff3b33c565a76acd6ce007e48485973dde089276e47580031129c29",
          "transactionIndex": "0x7",
          "logIndex": "0x5",
          "removed": false
        }
      ],
      "logsBloom": "0x00000000000000000000000000000000000000000000000000000000000000000000400000000000000000000000000000000000000000080000000000200000000000000000000000000000000000000000000000000000000000000000000000000000000000000000000000000000000000000000000000000000000000000000000400000000000000000000000000000000000000000080000000000000020000000000000000000000000000004000000000000000000000000000000000080000000000000000000000000000000000000000000000000000000000000010000000000000000000001000000000080000000000000040000000000000",
      "type": "0x2",
      "transactionHash": "0x44fcf7c72ff3b33c565a76acd6ce007e48485973dde089276e47580031129c29",
      "transactionIndex": "0x7",
      "blockHash": "0x658ed6fc61f1125677cf200e793ce0f97d591e860612235d3475defae5ec472e",
      "blockNumber": "0x2ca4069",
      "gasUsed": "0x7282",
      "effectiveGasPrice": "0x7a121",
      "blobGasUsed": "0x9c40",
      "from": "0xc5b7b574ee84a9b59b475fe32eaf908c246d3859",
      "to": "0x552c3f98bde60d3298c0c85cde5f5f63d52dbce2",
      "contractAddress": null,
      "daFootprintGasScalar": "0x190",
      "l1BaseFeeScalar": "0x7d0",
      "l1BlobBaseFee": "0x1074",
      "l1BlobBaseFeeScalar": "0xdbba0",
      "l1Fee": "0x5c8e8",
      "l1GasPrice": "0xa",
      "l1GasUsed": "0x640"
    },
    {
      "status": "0x1",
      "cumulativeGasUsed": "0xe0bda",
      "logs": [
        {
          "address": "0x00b036b58a818b1bc34d502d3fe730db729e62ac",
          "topics": [
            "0xf208f4912782fd25c7f114ca3723a2d5dd6f3bcc3ac8db5af63baa85f711d5ec",
            "0x446c13b23cfb7e0d81be115e6cbe72a19ebfd1d4c8b152e7ddec920845ad7b88",
            "0x0000000000000000000000005fa728c0a5cfd51bee4b060773f50554c0c8a7ab"
          ],
          "data": "0xfffffffffffffffffffffffffffffffffffffffffffffffffffffffffff2764c00000000000000000000000000000000000000000000000000000000000d89b400000000000000000000000000000000000000000000021e19e0c9bab24000000000000000000000000000000000000000000000000000000000000000000000",
          "blockHash": "0xe9fc2020046c782de981cfaadef3658ee734ed6b56927132dfc7324e8efc4534",
          "blockNumber": "0x2ca406d",
          "blockTimestamp": "0x69b7edb9",
          "transactionHash": "0xc9e70d4922432cb50626dc7695fb2b7f9de5fc21499e37cfc3841de916fdf2a6",
          "transactionIndex": "0x7",
          "logIndex": "0x6",
          "removed": false
        },
        {
          "address": "0x5ebc81e875895a6a35cf57757a3a597def9822d4",
          "topics": [
            "0xa56e19c5f806ae66a3b7d8c0b92d13ddf628502c9b47f577580f5f6a4e1deb2a",
            "0x000000000000000000000000699507c6aeb4268ff4dc05721c803dbe466cec6f",
            "0x446c13b23cfb7e0d81be115e6cbe72a19ebfd1d4c8b152e7ddec920845ad7b88"
          ],
          "data": "0x00000000000000000000000000000000000000000000021e19e0c9bab2400000",
          "blockHash": "0xe9fc2020046c782de981cfaadef3658ee734ed6b56927132dfc7324e8efc4534",
          "blockNumber": "0x2ca406d",
          "blockTimestamp": "0x69b7edb9",
          "transactionHash": "0xc9e70d4922432cb50626dc7695fb2b7f9de5fc21499e37cfc3841de916fdf2a6",
          "transactionIndex": "0x7",
          "logIndex": "0x7",
          "removed": false
        },
        {
          "address": "0x97b49acb6c8c803f2092dc5a06f557dbfc098640",
          "topics": [
            "0x9fcca7d4a4fe21922427fa68ae954a11518460e4298a953677db412ad22d6f39",
            "0x000000000000000000000000699507c6aeb4268ff4dc05721c803dbe466cec6f",
            "0x446c13b23cfb7e0d81be115e6cbe72a19ebfd1d4c8b152e7ddec920845ad7b88"
          ],
          "data": "0x00000000000000000000000000000000000000000000021e19e0c9bab2400000",
          "blockHash": "0xe9fc2020046c782de981cfaadef3658ee734ed6b56927132dfc7324e8efc4534",
          "blockNumber": "0x2ca406d",
          "blockTimestamp": "0x69b7edb9",
          "transactionHash": "0xc9e70d4922432cb50626dc7695fb2b7f9de5fc21499e37cfc3841de916fdf2a6",
          "transactionIndex": "0x7",
          "logIndex": "0x8",
          "removed": false
        },
        {
          "address": "0x0726f39dbab861de81b9eafc4482c76967bf60e0",
          "topics": [
            "0xddf252ad1be2c89b69c2b068fc378daa952ba7f163c4a11628f55a4df523b3ef",
            "0x000000000000000000000000c5b7b574ee84a9b59b475fe32eaf908c246d3859",
            "0x00000000000000000000000000b036b58a818b1bc34d502d3fe730db729e62ac"
          ],
          "data": "0x00000000000000000000000000000000000000000000021e19e0c9bab23ffde1",
          "blockHash": "0xe9fc2020046c782de981cfaadef3658ee734ed6b56927132dfc7324e8efc4534",
          "blockNumber": "0x2ca406d",
          "blockTimestamp": "0x69b7edb9",
          "transactionHash": "0xc9e70d4922432cb50626dc7695fb2b7f9de5fc21499e37cfc3841de916fdf2a6",
          "transactionIndex": "0x7",
          "logIndex": "0x9",
          "removed": false
        },
        {
          "address": "0x552c3f98bde60d3298c0c85cde5f5f63d52dbce2",
          "topics": [
            "0xddf252ad1be2c89b69c2b068fc378daa952ba7f163c4a11628f55a4df523b3ef",
            "0x000000000000000000000000c5b7b574ee84a9b59b475fe32eaf908c246d3859",
            "0x00000000000000000000000000b036b58a818b1bc34d502d3fe730db729e62ac"
          ],
          "data": "0x00000000000000000000000000000000000000000000021e19e0c9bab23ffde1",
          "blockHash": "0xe9fc2020046c782de981cfaadef3658ee734ed6b56927132dfc7324e8efc4534",
          "blockNumber": "0x2ca406d",
          "blockTimestamp": "0x69b7edb9",
          "transactionHash": "0xc9e70d4922432cb50626dc7695fb2b7f9de5fc21499e37cfc3841de916fdf2a6",
          "transactionIndex": "0x7",
          "logIndex": "0xa",
          "removed": false
        }
      ],
      "logsBloom": "0x000100000000000000000008000000000000000000000000000000000000000000004000000000000000000000400000000000000010000800000000000000000000000000010000000000080000000000000000000100000000000000000000000000000000000000000000000240000000000001000000100000100000000000000004010080004000000000080000000000000000000000800000000000000000040000000000000000000000000050000000000000200000000000004000000800020000000000000000000000000020000000000020000004200900000000000000100000000000000010000000040800000000020000c0000000800010",
      "type": "0x2",
      "transactionHash": "0xc9e70d4922432cb50626dc7695fb2b7f9de5fc21499e37cfc3841de916fdf2a6",
      "transactionIndex": "0x7",
      "blockHash": "0xe9fc2020046c782de981cfaadef3658ee734ed6b56927132dfc7324e8efc4534",
      "blockNumber": "0x2ca406d",
      "gasUsed": "0x555ef",
      "effectiveGasPrice": "0x7a121",
      "blobGasUsed": "0x104f0",
      "from": "0xc5b7b574ee84a9b59b475fe32eaf908c246d3859",
      "to": "0x5fa728c0a5cfd51bee4b060773f50554c0c8a7ab",
      "contractAddress": null,
      "daFootprintGasScalar": "0x190",
      "l1BaseFeeScalar": "0x7d0",
      "l1BlobBaseFee": "0x1074",
      "l1BlobBaseFeeScalar": "0xdbba0",
      "l1Fee": "0x9aeae",
      "l1GasPrice": "0xa",
      "l1GasUsed": "0xa76"
    },
    {
      "status": "0x1",
      "cumulativeGasUsed": "0x4b44c",
      "logs": [
        {
          "address": "0x00b036b58a818b1bc34d502d3fe730db729e62ac",
          "topics": [
            "0xdd466e674ea557f56295e2d0218a125ea4b4f0f6f3307b95f85e6110838d6438",
            "0x5f51794b0b98faa5904dab7718ae76fc2a6883d4f53ec8f7dbe5469b8c12ec73",
            "0x000000000000000000000000552c3f98bde60d3298c0c85cde5f5f63d52dbce2",
            "0x00000000000000000000000094b51317fc065b578394f058ff96a3b25968741b"
          ],
          "data": "0x0000000000000000000000000000000000000000000000000000000000000bb8000000000000000000000000000000000000000000000000000000000000003c00000000000000000000000097b49acb6c8c803f2092dc5a06f557dbfc09864000000000000000000000000000000000000000010000000000000000000000000000000000000000000000000000000000000000000000000000000000000000",
          "blockHash": "0x0000000000000000000000000000000000000000000000000000000000000000",
          "blockNumber": "0x2ca4071",
          "blockTimestamp": "0x69b7edbd",
          "transactionHash": "0x66c0d69cbe0b89b18e660cf06c0c33e303c7b818b37c659aa645ee3d53d12014",
          "transactionIndex": "0x4",
          "logIndex": "0x2",
          "removed": false
        }
      ],
      "logsBloom": "0x04000000000000000000000000000000000000000000000000000000000000000000000000000000000000000000000000000000000000000000000000000000000000000000000000000000000000000000000004000000001000000000000000000004000000000000000080000000000000000000000000000020000000000000000020000008000000000008000000000001000000000000000000200000000000002000000000000000000000000000000000000000000400000000000000000000000000000000000000000000000000000000000000000000000000000000000000000000000000000000000000000000000002000000000000000010",
      "type": "0x2",
      "transactionHash": "0x66c0d69cbe0b89b18e660cf06c0c33e303c7b818b37c659aa645ee3d53d12014",
      "transactionIndex": "0x4",
      "blockHash": "0x0000000000000000000000000000000000000000000000000000000000000000",
      "blockNumber": "0x2ca4071",
      "gasUsed": "0xca16",
      "effectiveGasPrice": "0x7a121",
      "blobGasUsed": "0xdde0",
      "from": "0xc5b7b574ee84a9b59b475fe32eaf908c246d3859",
      "to": "0x00b036b58a818b1bc34d502d3fe730db729e62ac",
      "contractAddress": null,
      "daFootprintGasScalar": "0x190",
      "l1BaseFeeScalar": "0x7d0",
      "l1BlobBaseFee": "0x1074",
      "l1BlobBaseFeeScalar": "0xdbba0",
      "l1Fee": "0x8097e",
      "l1GasPrice": "0xa",
      "l1GasUsed": "0x8e4"
    },
    {
      "status": "0x1",
      "cumulativeGasUsed": "0x2ec86",
      "logs": [
        {
          "address": "0x552c3f98bde60d3298c0c85cde5f5f63d52dbce2",
          "topics": [
            "0x8c5be1e5ebec7d5bd14f71427d1e84f3dd0314c0f7b2291e5b200ac8c7c3b925",
            "0x000000000000000000000000c5b7b574ee84a9b59b475fe32eaf908c246d3859",
            "0x0000000000000000000000005fa728c0a5cfd51bee4b060773f50554c0c8a7ab"
          ],
          "data": "0x00000000000000000000000000000000000000000000021e19e0c9bab2400000",
          "blockHash": "0x0000000000000000000000000000000000000000000000000000000000000000",
          "blockNumber": "0x2ca4075",
          "blockTimestamp": "0x69b7edc1",
          "transactionHash": "0x4c97601cd5ac81c3b82679b568680c6cd436a5b90d7a642ecf4d287c382a0dce",
          "transactionIndex": "0x3",
          "logIndex": "0x1",
          "removed": false
        }
      ],
      "logsBloom": "0x00000000000000000000000000000000000000000000000000000000000000000000400000000000000000000000000000000000000000080000000000200000000000000000000000000000000000000000000000000000000000000000000000000000000000000000000000000000000000000000000000000000000000000000000400000000000000000000000000000000000000000080000000000000020000000000000000000000000000004000000000000000000000000000000000080000000000000000000000000000000000000000000000000000000000000010000000000000000000001000000000080000000000000040000000000000",
      "type": "0x2",
      "transactionHash": "0x4c97601cd5ac81c3b82679b568680c6cd436a5b90d7a642ecf4d287c382a0dce",
      "transactionIndex": "0x3",
      "blockHash": "0x0000000000000000000000000000000000000000000000000000000000000000",
      "blockNumber": "0x2ca4075",
      "gasUsed": "0x7282",
      "effectiveGasPrice": "0x7a121",
      "blobGasUsed": "0x9c40",
      "from": "0xc5b7b574ee84a9b59b475fe32eaf908c246d3859",
      "to": "0x552c3f98bde60d3298c0c85cde5f5f63d52dbce2",
      "contractAddress": null,
      "daFootprintGasScalar": "0x190",
      "l1BaseFeeScalar": "0x7d0",
      "l1BlobBaseFee": "0xfbb",
      "l1BlobBaseFeeScalar": "0xdbba0",
      "l1Fee": "0x7af22",
      "l1GasPrice": "0xa",
      "l1GasUsed": "0x640"
    },
    {
      "status": "0x1",
      "cumulativeGasUsed": "0x34fe6",
      "logs": [
        {
          "address": "0x94b51317fc065b578394f058ff96a3b25968741b",
          "topics": [
            "0x8c5be1e5ebec7d5bd14f71427d1e84f3dd0314c0f7b2291e5b200ac8c7c3b925",
            "0x000000000000000000000000c5b7b574ee84a9b59b475fe32eaf908c246d3859",
            "0x0000000000000000000000005fa728c0a5cfd51bee4b060773f50554c0c8a7ab"
          ],
          "data": "0x00000000000000000000000000000000000000000000021e19e0c9bab2400000",
          "blockHash": "0x0000000000000000000000000000000000000000000000000000000000000000",
          "blockNumber": "0x2ca4079",
          "blockTimestamp": "0x69b7edc5",
          "transactionHash": "0xa91ddfe30fc1cfcc06e9769a1c3b0287c1a59074a1815858479ce553e0dca957",
          "transactionIndex": "0x3",
          "logIndex": "0x1",
          "removed": false
        }
      ],
      "logsBloom": "0x00000000000000000000000000000000000000000000000000000000000000000000000000000000000000000000000000000000000000000080000000200000000000000000000000000000000000000000000000000000000000000000000000000000000000000000000000000000000000000000000000000000000000000000000400000000000000000000000000000000000000000080000000200000020000000000000000000000000000004000000000000000000000000000000000080000000000000000000000000000000000000000000000000000000000000010000000000000000000001200000000080000000000000000000000000000",
      "type": "0x2",
      "transactionHash": "0xa91ddfe30fc1cfcc06e9769a1c3b0287c1a59074a1815858479ce553e0dca957",
      "transactionIndex": "0x3",
      "blockHash": "0x0000000000000000000000000000000000000000000000000000000000000000",
      "blockNumber": "0x2ca4079",
      "gasUsed": "0xb54e",
      "effectiveGasPrice": "0x7a121",
      "blobGasUsed": "0x9c40",
      "from": "0xc5b7b574ee84a9b59b475fe32eaf908c246d3859",
      "to": "0x94b51317fc065b578394f058ff96a3b25968741b",
      "contractAddress": null,
      "daFootprintGasScalar": "0x190",
      "l1BaseFeeScalar": "0x7d0",
      "l1BlobBaseFee": "0xe8b",
      "l1BlobBaseFeeScalar": "0xdbba0",
      "l1Fee": "0x71aa5",
      "l1GasPrice": "0xa",
      "l1GasUsed": "0x640"
    },
    {
      "status": "0x1",
      "cumulativeGasUsed": "0x94019",
      "logs": [
        {
          "address": "0x00b036b58a818b1bc34d502d3fe730db729e62ac",
          "topics": [
            "0xf208f4912782fd25c7f114ca3723a2d5dd6f3bcc3ac8db5af63baa85f711d5ec",
            "0x5f51794b0b98faa5904dab7718ae76fc2a6883d4f53ec8f7dbe5469b8c12ec73",
            "0x0000000000000000000000005fa728c0a5cfd51bee4b060773f50554c0c8a7ab"
          ],
          "data": "0xfffffffffffffffffffffffffffffffffffffffffffffffffffffffffff2764c00000000000000000000000000000000000000000000000000000000000d89b400000000000000000000000000000000000000000000021e19e0c9bab24000000000000000000000000000000000000000000000000000000000000000000000",
          "blockHash": "0x0000000000000000000000000000000000000000000000000000000000000000",
          "blockNumber": "0x2ca407d",
          "blockTimestamp": "0x69b7edc9",
          "transactionHash": "0xb8a979f89e31a5dd937eabacdde34d55374f897ec88c58d5cd0708f37ad16af3",
          "transactionIndex": "0x4",
          "logIndex": "0x2",
          "removed": false
        },
        {
          "address": "0x5ebc81e875895a6a35cf57757a3a597def9822d4",
          "topics": [
            "0xa56e19c5f806ae66a3b7d8c0b92d13ddf628502c9b47f577580f5f6a4e1deb2a",
            "0x000000000000000000000000079bb29d652294b01f4bdf86bb318277e0892e14",
            "0x5f51794b0b98faa5904dab7718ae76fc2a6883d4f53ec8f7dbe5469b8c12ec73"
          ],
          "data": "0x00000000000000000000000000000000000000000000021e19e0c9bab2400000",
          "blockHash": "0x0000000000000000000000000000000000000000000000000000000000000000",
          "blockNumber": "0x2ca407d",
          "blockTimestamp": "0x69b7edc9",
          "transactionHash": "0xb8a979f89e31a5dd937eabacdde34d55374f897ec88c58d5cd0708f37ad16af3",
          "transactionIndex": "0x4",
          "logIndex": "0x3",
          "removed": false
        },
        {
          "address": "0x97b49acb6c8c803f2092dc5a06f557dbfc098640",
          "topics": [
            "0x9fcca7d4a4fe21922427fa68ae954a11518460e4298a953677db412ad22d6f39",
            "0x000000000000000000000000079bb29d652294b01f4bdf86bb318277e0892e14",
            "0x5f51794b0b98faa5904dab7718ae76fc2a6883d4f53ec8f7dbe5469b8c12ec73"
          ],
          "data": "0x00000000000000000000000000000000000000000000021e19e0c9bab2400000",
          "blockHash": "0x0000000000000000000000000000000000000000000000000000000000000000",
          "blockNumber": "0x2ca407d",
          "blockTimestamp": "0x69b7edc9",
          "transactionHash": "0xb8a979f89e31a5dd937eabacdde34d55374f897ec88c58d5cd0708f37ad16af3",
          "transactionIndex": "0x4",
          "logIndex": "0x4",
          "removed": false
        },
        {
          "address": "0x552c3f98bde60d3298c0c85cde5f5f63d52dbce2",
          "topics": [
            "0xddf252ad1be2c89b69c2b068fc378daa952ba7f163c4a11628f55a4df523b3ef",
            "0x000000000000000000000000c5b7b574ee84a9b59b475fe32eaf908c246d3859",
            "0x00000000000000000000000000b036b58a818b1bc34d502d3fe730db729e62ac"
          ],
          "data": "0x00000000000000000000000000000000000000000000021e19e0c9bab23ffde1",
          "blockHash": "0x0000000000000000000000000000000000000000000000000000000000000000",
          "blockNumber": "0x2ca407d",
          "blockTimestamp": "0x69b7edc9",
          "transactionHash": "0xb8a979f89e31a5dd937eabacdde34d55374f897ec88c58d5cd0708f37ad16af3",
          "transactionIndex": "0x4",
          "logIndex": "0x5",
          "removed": false
        },
        {
          "address": "0x94b51317fc065b578394f058ff96a3b25968741b",
          "topics": [
            "0xddf252ad1be2c89b69c2b068fc378daa952ba7f163c4a11628f55a4df523b3ef",
            "0x000000000000000000000000c5b7b574ee84a9b59b475fe32eaf908c246d3859",
            "0x00000000000000000000000000b036b58a818b1bc34d502d3fe730db729e62ac"
          ],
          "data": "0x00000000000000000000000000000000000000000000021e19e0c9bab23ffde1",
          "blockHash": "0x0000000000000000000000000000000000000000000000000000000000000000",
          "blockNumber": "0x2ca407d",
          "blockTimestamp": "0x69b7edc9",
          "transactionHash": "0xb8a979f89e31a5dd937eabacdde34d55374f897ec88c58d5cd0708f37ad16af3",
          "transactionIndex": "0x4",
          "logIndex": "0x6",
          "removed": false
        }
      ],
      "logsBloom": "0x000000000000000000000000000000000000000000000000000000000000000000004000000000000000000000400000000000000010000800800000000000000000000000010000000000080000000000000000000100000010000008000000000000000000000000000000800040000000000000000000100000100000000000000004210000004000000000080000000000000000000000800000002000000000040000000080000000000000000050000000000000200000000000004000000800020000000000000000000000000020000000000020001000200000000000000000100000000000000012000000040800000000020000c0000000000010",
      "type": "0x2",
      "transactionHash": "0xb8a979f89e31a5dd937eabacdde34d55374f897ec88c58d5cd0708f37ad16af3",
      "transactionIndex": "0x4",
      "blockHash": "0x0000000000000000000000000000000000000000000000000000000000000000",
      "blockNumber": "0x2ca407d",
      "gasUsed": "0x555ef",
      "effectiveGasPrice": "0x7a121",
      "blobGasUsed": "0x104f0",
      "from": "0xc5b7b574ee84a9b59b475fe32eaf908c246d3859",
      "to": "0x5fa728c0a5cfd51bee4b060773f50554c0c8a7ab",
      "contractAddress": null,
      "daFootprintGasScalar": "0x190",
      "l1BaseFeeScalar": "0x7d0",
      "l1BlobBaseFee": "0xe8b",
      "l1BlobBaseFeeScalar": "0xdbba0",
      "l1Fee": "0x71aa5",
      "l1GasPrice": "0xa",
      "l1GasUsed": "0xa76"
    }
  ],
  "libraries": [],
  "pending": [],
  "returns": {},
  "timestamp": 1773661640941,
  "chain": 1301,
  "commit": "d3ae328"
}