{
  "transactions": [
    {
      "hash": "0x29005e6732f1d3440c0a3acd5a0aa6ceb2557d5f317a1201899edd79f580e447",
      "transactionType": "CREATE",
      "contractName": "TestToken",
      "contractAddress": "0x4430a357cffddb3dd74e5ebcbb44828a841dd538",
      "function": null,
      "arguments": [
        "Demo USDC",
        "dUSDC"
      ],
      "transaction": {
        "from": "0xc5b7b574ee84a9b59b475fe32eaf908c246d3859",
        "gas": "0xb5aed",
        "value": "0x0",
        "input": "0x608060405234801561000f575f80fd5b50604051610ba5380380610ba583398101604081905261002e9161026d565b8181600361003c8382610356565b5060046100498282610356565b5050506100663369d3c21bcecceda100000061006d60201b60201c565b5050610435565b6001600160a01b03821661009b5760405163ec442f0560e01b81525f60048201526024015b60405180910390fd5b6100a65f83836100aa565b5050565b6001600160a01b0383166100d4578060025f8282546100c99190610410565b909155506101449050565b6001600160a01b0383165f90815260208190526040902054818110156101265760405163391434e360e21b81526001600160a01b03851660048201526024810182905260448101839052606401610092565b6001600160a01b0384165f9081526020819052604090209082900390555b6001600160a01b0382166101605760028054829003905561017e565b6001600160a01b0382165f9081526020819052604090208054820190555b816001600160a01b0316836001600160a01b03167fddf252ad1be2c89b69c2b068fc378daa952ba7f163c4a11628f55a4df523b3ef836040516101c391815260200190565b60405180910390a3505050565b634e487b7160e01b5f52604160045260245ffd5b5f82601f8301126101f3575f80fd5b81516001600160401b0381111561020c5761020c6101d0565b604051601f8201601f19908116603f011681016001600160401b038111828210171561023a5761023a6101d0565b604052818152838201602001851015610251575f80fd5b8160208501602083015e5f918101602001919091529392505050565b5f806040838503121561027e575f80fd5b82516001600160401b03811115610293575f80fd5b61029f858286016101e4565b602085015190935090506001600160401b038111156102bc575f80fd5b6102c8858286016101e4565b9150509250929050565b600181811c908216806102e657607f821691505b60208210810361030457634e487b7160e01b5f52602260045260245ffd5b50919050565b601f82111561035157805f5260205f20601f840160051c8101602085101561032f5750805b601f840160051c820191505b8181101561034e575f815560010161033b565b50505b505050565b81516001600160401b0381111561036f5761036f6101d0565b6103838161037d84546102d2565b8461030a565b6020601f8211600181146103b5575f831561039e5750848201515b5f19600385901b1c1916600184901b17845561034e565b5f84815260208120601f198516915b828110156103e457878501518255602094850194600190920191016103c4565b508482101561040157868401515f19600387901b60f8161c191681555b50505050600190811b01905550565b8082018082111561042f57634e487b7160e01b5f52601160045260245ffd5b92915050565b610763806104425f395ff3fe608060405234801561000f575f80fd5b50600436106100b9575f3560e01c806340c10f191161007257806395d89b411161005857806395d89b411461016f578063a9059cbb14610177578063dd62ed3e1461018a575f80fd5b806340c10f191461013257806370a0823114610147575f80fd5b806318160ddd116100a257806318160ddd146100fe57806323b872dd14610110578063313ce56714610123575f80fd5b806306fdde03146100bd578063095ea7b3146100db575b5f80fd5b6100c56101c2565b6040516100d291906105d3565b60405180910390f35b6100ee6100e9366004610623565b610252565b60405190151581526020016100d2565b6002545b6040519081526020016100d2565b6100ee61011e36600461064b565b61026b565b604051601281526020016100d2565b610145610140366004610623565b61028e565b005b610102610155366004610685565b6001600160a01b03165f9081526020819052604090205490565b6100c561029c565b6100ee610185366004610623565b6102ab565b6101026101983660046106a5565b6001600160a01b039182165f90815260016020908152604080832093909416825291909152205490565b6060600380546101d1906106d6565b80601f01602080910402602001604051908101604052809291908181526020018280546101fd906106d6565b80156102485780601f1061021f57610100808354040283529160200191610248565b820191905f5260205f20905b81548152906001019060200180831161022b57829003601f168201915b5050505050905090565b5f3361025f8185856102b8565b60019150505b92915050565b5f336102788582856102ca565b61028385858561034a565b506001949350505050565b61029882826103a7565b5050565b6060600480546101d1906106d6565b5f3361025f81858561034a565b6102c583838360016103db565b505050565b6001600160a01b038381165f908152600160209081526040808320938616835292905220545f198114610344578181101561033657604051637dc7a0d960e11b81526001600160a01b038416600482015260248101829052604481018390526064015b60405180910390fd5b61034484848484035f6103db565b50505050565b6001600160a01b03831661037357604051634b637e8f60e11b81525f600482015260240161032d565b6001600160a01b03821661039c5760405163ec442f0560e01b81525f600482015260240161032d565b6102c58383836104ad565b6001600160a01b0382166103d05760405163ec442f0560e01b81525f600482015260240161032d565b6102985f83836104ad565b6001600160a01b0384166104045760405163e602df0560e01b81525f600482015260240161032d565b6001600160a01b03831661042d57604051634a1406b160e11b81525f600482015260240161032d565b6001600160a01b038085165f908152600160209081526040808320938716835292905220829055801561034457826001600160a01b0316846001600160a01b03167f8c5be1e5ebec7d5bd14f71427d1e84f3dd0314c0f7b2291e5b200ac8c7c3b9258460405161049f91815260200190565b60405180910390a350505050565b6001600160a01b0383166104d7578060025f8282546104cc919061070e565b909155506105479050565b6001600160a01b0383165f90815260208190526040902054818110156105295760405163391434e360e21b81526001600160a01b0385166004820152602481018290526044810183905260640161032d565b6001600160a01b0384165f9081526020819052604090209082900390555b6001600160a01b03821661056357600280548290039055610581565b6001600160a01b0382165f9081526020819052604090208054820190555b816001600160a01b0316836001600160a01b03167fddf252ad1be2c89b69c2b068fc378daa952ba7f163c4a11628f55a4df523b3ef836040516105c691815260200190565b60405180910390a3505050565b602081525f82518060208401528060208501604085015e5f604082850101526040601f19601f83011684010191505092915050565b80356001600160a01b038116811461061e575f80fd5b919050565b5f8060408385031215610634575f80fd5b61063d83610608565b946020939093013593505050565b5f805f6060848603121561065d575f80fd5b61066684610608565b925061067460208501610608565b929592945050506040919091013590565b5f60208284031215610695575f80fd5b61069e82610608565b9392505050565b5f80604083850312156106b6575f80fd5b6106bf83610608565b91506106cd60208401610608565b90509250929050565b600181811c908216806106ea57607f821691505b60208210810361070857634e487b7160e01b5f52602260045260245ffd5b50919050565b8082018082111561026557634e487b7160e01b5f52601160045260245ffdfea264697066735822122088c3783f6f28345c1b08222b50857fae978cd0f151270a42a87dbb114a75a67664736f6c634300081a003300000000000000000000000000000000000000000000000000000000000000400000000000000000000000000000000000000000000000000000000000000080000000000000000000000000000000000000000000000000000000000000000944656d6f2055534443000000000000000000000000000000000000000000000000000000000000000000000000000000000000000000000000000000000000056455534443000000000000000000000000000000000000000000000000000000",
        "nonce": "0x1d7",
        "chainId": "0x515"
      },
      "additionalContracts": [],
      "isFixedGasLimit": false
    },
    {
      "hash": "0x9d268fe231a48b9c726fcd2eddfda857e59b421fe261df3d1aea81e8c96cb9d5",
      "transactionType": "CREATE",
      "contractName": "TestToken",
      "contractAddress": "0xe203b49766096199e48969e5a0e6ad4a77338bea",
      "function": null,
      "arguments": [
        "Nova Protocol",
        "NOVA"
      ],
      "transaction": {
        "from": "0xc5b7b574ee84a9b59b475fe32eaf908c246d3859",
        "gas": "0xb5b1c",
        "value": "0x0",
        "input": "0x608060405234801561000f575f80fd5b50604051610ba5380380610ba583398101604081905261002e9161026d565b8181600361003c8382610356565b5060046100498282610356565b5050506100663369d3c21bcecceda100000061006d60201b60201c565b5050610435565b6001600160a01b03821661009b5760405163ec442f0560e01b81525f60048201526024015b60405180910390fd5b6100a65f83836100aa565b5050565b6001600160a01b0383166100d4578060025f8282546100c99190610410565b909155506101449050565b6001600160a01b0383165f90815260208190526040902054818110156101265760405163391434e360e21b81526001600160a01b03851660048201526024810182905260448101839052606401610092565b6001600160a01b0384165f9081526020819052604090209082900390555b6001600160a01b0382166101605760028054829003905561017e565b6001600160a01b0382165f9081526020819052604090208054820190555b816001600160a01b0316836001600160a01b03167fddf252ad1be2c89b69c2b068fc378daa952ba7f163c4a11628f55a4df523b3ef836040516101c391815260200190565b60405180910390a3505050565b634e487b7160e01b5f52604160045260245ffd5b5f82601f8301126101f3575f80fd5b81516001600160401b0381111561020c5761020c6101d0565b604051601f8201601f19908116603f011681016001600160401b038111828210171561023a5761023a6101d0565b604052818152838201602001851015610251575f80fd5b8160208501602083015e5f918101602001919091529392505050565b5f806040838503121561027e575f80fd5b82516001600160401b03811115610293575f80fd5b61029f858286016101e4565b602085015190935090506001600160401b038111156102bc575f80fd5b6102c8858286016101e4565b9150509250929050565b600181811c908216806102e657607f821691505b60208210810361030457634e487b7160e01b5f52602260045260245ffd5b50919050565b601f82111561035157805f5260205f20601f840160051c8101602085101561032f5750805b601f840160051c820191505b8181101561034e575f815560010161033b565b50505b505050565b81516001600160401b0381111561036f5761036f6101d0565b6103838161037d84546102d2565b8461030a565b6020601f8211600181146103b5575f831561039e5750848201515b5f19600385901b1c1916600184901b17845561034e565b5f84815260208120601f198516915b828110156103e457878501518255602094850194600190920191016103c4565b508482101561040157868401515f19600387901b60f8161c191681555b50505050600190811b01905550565b8082018082111561042f57634e487b7160e01b5f52601160045260245ffd5b92915050565b610763806104425f395ff3fe608060405234801561000f575f80fd5b50600436106100b9575f3560e01c806340c10f191161007257806395d89b411161005857806395d89b411461016f578063a9059cbb14610177578063dd62ed3e1461018a575f80fd5b806340c10f191461013257806370a0823114610147575f80fd5b806318160ddd116100a257806318160ddd146100fe57806323b872dd14610110578063313ce56714610123575f80fd5b806306fdde03146100bd578063095ea7b3146100db575b5f80fd5b6100c56101c2565b6040516100d291906105d3565b60405180910390f35b6100ee6100e9366004610623565b610252565b60405190151581526020016100d2565b6002545b6040519081526020016100d2565b6100ee61011e36600461064b565b61026b565b604051601281526020016100d2565b610145610140366004610623565b61028e565b005b610102610155366004610685565b6001600160a01b03165f9081526020819052604090205490565b6100c561029c565b6100ee610185366004610623565b6102ab565b6101026101983660046106a5565b6001600160a01b039182165f90815260016020908152604080832093909416825291909152205490565b6060600380546101d1906106d6565b80601f01602080910402602001604051908101604052809291908181526020018280546101fd906106d6565b80156102485780601f1061021f57610100808354040283529160200191610248565b820191905f5260205f20905b81548152906001019060200180831161022b57829003601f168201915b5050505050905090565b5f3361025f8185856102b8565b60019150505b92915050565b5f336102788582856102ca565b61028385858561034a565b506001949350505050565b61029882826103a7565b5050565b6060600480546101d1906106d6565b5f3361025f81858561034a565b6102c583838360016103db565b505050565b6001600160a01b038381165f908152600160209081526040808320938616835292905220545f198114610344578181101561033657604051637dc7a0d960e11b81526001600160a01b038416600482015260248101829052604481018390526064015b60405180910390fd5b61034484848484035f6103db565b50505050565b6001600160a01b03831661037357604051634b637e8f60e11b81525f600482015260240161032d565b6001600160a01b03821661039c5760405163ec442f0560e01b81525f600482015260240161032d565b6102c58383836104ad565b6001600160a01b0382166103d05760405163ec442f0560e01b81525f600482015260240161032d565b6102985f83836104ad565b6001600160a01b0384166104045760405163e602df0560e01b81525f600482015260240161032d565b6001600160a01b03831661042d57604051634a1406b160e11b81525f600482015260240161032d565b6001600160a01b038085165f908152600160209081526040808320938716835292905220829055801561034457826001600160a01b0316846001600160a01b03167f8c5be1e5ebec7d5bd14f71427d1e84f3dd0314c0f7b2291e5b200ac8c7c3b9258460405161049f91815260200190565b60405180910390a350505050565b6001600160a01b0383166104d7578060025f8282546104cc919061070e565b909155506105479050565b6001600160a01b0383165f90815260208190526040902054818110156105295760405163391434e360e21b81526001600160a01b0385166004820152602481018290526044810183905260640161032d565b6001600160a01b0384165f9081526020819052604090209082900390555b6001600160a01b03821661056357600280548290039055610581565b6001600160a01b0382165f9081526020819052604090208054820190555b816001600160a01b0316836001600160a01b03167fddf252ad1be2c89b69c2b068fc378daa952ba7f163c4a11628f55a4df523b3ef836040516105c691815260200190565b60405180910390a3505050565b602081525f82518060208401528060208501604085015e5f604082850101526040601f19601f83011684010191505092915050565b80356001600160a01b038116811461061e575f80fd5b919050565b5f8060408385031215610634575f80fd5b61063d83610608565b946020939093013593505050565b5f805f6060848603121561065d575f80fd5b61066684610608565b925061067460208501610608565b929592945050506040919091013590565b5f60208284031215610695575f80fd5b61069e82610608565b9392505050565b5f80604083850312156106b6575f80fd5b6106bf83610608565b91506106cd60208401610608565b90509250929050565b600181811c908216806106ea57607f821691505b60208210810361070857634e487b7160e01b5f52602260045260245ffd5b50919050565b8082018082111561026557634e487b7160e01b5f52601160045260245ffdfea264697066735822122088c3783f6f28345c1b08222b50857fae978cd0f151270a42a87dbb114a75a67664736f6c634300081a003300000000000000000000000000000000000000000000000000000000000000400000000000000000000000000000000000000000000000000000000000000080000000000000000000000000000000000000000000000000000000000000000d4e6f76612050726f746f636f6c0000000000000000000000000000000000000000000000000000000000000000000000000000000000000000000000000000044e4f564100000000000000000000000000000000000000000000000000000000",
        "nonce": "0x1d8",
        "chainId": "0x515"
      },
      "additionalContracts": [],
      "isFixedGasLimit": false
    },
    {
      "hash": "0xd08d9d3b8dfa962db970f42fb6270fb3488fd0645da4b85c49dd08c8d9872010",
      "transactionType": "CREATE",
      "contractName": "TestToken",
      "contractAddress": "0x91cef63f13f880918e03a28c8853269abdd336cb",
      "function": null,
      "arguments": [
        "Stellar DeFi",
        "STLR"
      ],
      "transaction": {
        "from": "0xc5b7b574ee84a9b59b475fe32eaf908c246d3859",
        "gas": "0xb5b0c",
        "value": "0x0",
        "input": "0x608060405234801561000f575f80fd5b50604051610ba5380380610ba583398101604081905261002e9161026d565b8181600361003c8382610356565b5060046100498282610356565b5050506100663369d3c21bcecceda100000061006d60201b60201c565b5050610435565b6001600160a01b03821661009b5760405163ec442f0560e01b81525f60048201526024015b60405180910390fd5b6100a65f83836100aa565b5050565b6001600160a01b0383166100d4578060025f8282546100c99190610410565b909155506101449050565b6001600160a01b0383165f90815260208190526040902054818110156101265760405163391434e360e21b81526001600160a01b03851660048201526024810182905260448101839052606401610092565b6001600160a01b0384165f9081526020819052604090209082900390555b6001600160a01b0382166101605760028054829003905561017e565b6001600160a01b0382165f9081526020819052604090208054820190555b816001600160a01b0316836001600160a01b03167fddf252ad1be2c89b69c2b068fc378daa952ba7f163c4a11628f55a4df523b3ef836040516101c391815260200190565b60405180910390a3505050565b634e487b7160e01b5f52604160045260245ffd5b5f82601f8301126101f3575f80fd5b81516001600160401b0381111561020c5761020c6101d0565b604051601f8201601f19908116603f011681016001600160401b038111828210171561023a5761023a6101d0565b604052818152838201602001851015610251575f80fd5b8160208501602083015e5f918101602001919091529392505050565b5f806040838503121561027e575f80fd5b82516001600160401b03811115610293575f80fd5b61029f858286016101e4565b602085015190935090506001600160401b038111156102bc575f80fd5b6102c8858286016101e4565b9150509250929050565b600181811c908216806102e657607f821691505b60208210810361030457634e487b7160e01b5f52602260045260245ffd5b50919050565b601f82111561035157805f5260205f20601f840160051c8101602085101561032f5750805b601f840160051c820191505b8181101561034e575f815560010161033b565b50505b505050565b81516001600160401b0381111561036f5761036f6101d0565b6103838161037d84546102d2565b8461030a565b6020601f8211600181146103b5575f831561039e5750848201515b5f19600385901b1c1916600184901b17845561034e565b5f84815260208120601f198516915b828110156103e457878501518255602094850194600190920191016103c4565b508482101561040157868401515f19600387901b60f8161c191681555b50505050600190811b01905550565b8082018082111561042f57634e487b7160e01b5f52601160045260245ffd5b92915050565b610763806104425f395ff3fe608060405234801561000f575f80fd5b50600436106100b9575f3560e01c806340c10f191161007257806395d89b411161005857806395d89b411461016f578063a9059cbb14610177578063dd62ed3e1461018a575f80fd5b806340c10f191461013257806370a0823114610147575f80fd5b806318160ddd116100a257806318160ddd146100fe57806323b872dd14610110578063313ce56714610123575f80fd5b806306fdde03146100bd578063095ea7b3146100db575b5f80fd5b6100c56101c2565b6040516100d291906105d3565b60405180910390f35b6100ee6100e9366004610623565b610252565b60405190151581526020016100d2565b6002545b6040519081526020016100d2565b6100ee61011e36600461064b565b61026b565b604051601281526020016100d2565b610145610140366004610623565b61028e565b005b610102610155366004610685565b6001600160a01b03165f9081526020819052604090205490565b6100c561029c565b6100ee610185366004610623565b6102ab565b6101026101983660046106a5565b6001600160a01b039182165f90815260016020908152604080832093909416825291909152205490565b6060600380546101d1906106d6565b80601f01602080910402602001604051908101604052809291908181526020018280546101fd906106d6565b80156102485780601f1061021f57610100808354040283529160200191610248565b820191905f5260205f20905b81548152906001019060200180831161022b57829003601f168201915b5050505050905090565b5f3361025f8185856102b8565b60019150505b92915050565b5f336102788582856102ca565b61028385858561034a565b506001949350505050565b61029882826103a7565b5050565b6060600480546101d1906106d6565b5f3361025f81858561034a565b6102c583838360016103db565b505050565b6001600160a01b038381165f908152600160209081526040808320938616835292905220545f198114610344578181101561033657604051637dc7a0d960e11b81526001600160a01b038416600482015260248101829052604481018390526064015b60405180910390fd5b61034484848484035f6103db565b50505050565b6001600160a01b03831661037357604051634b637e8f60e11b81525f600482015260240161032d565b6001600160a01b03821661039c5760405163ec442f0560e01b81525f600482015260240161032d565b6102c58383836104ad565b6001600160a01b0382166103d05760405163ec442f0560e01b81525f600482015260240161032d565b6102985f83836104ad565b6001600160a01b0384166104045760405163e602df0560e01b81525f600482015260240161032d565b6001600160a01b03831661042d57604051634a1406b160e11b81525f600482015260240161032d565b6001600160a01b038085165f908152600160209081526040808320938716835292905220829055801561034457826001600160a01b0316846001600160a01b03167f8c5be1e5ebec7d5bd14f71427d1e84f3dd0314c0f7b2291e5b200ac8c7c3b9258460405161049f91815260200190565b60405180910390a350505050565b6001600160a01b0383166104d7578060025f8282546104cc919061070e565b909155506105479050565b6001600160a01b0383165f90815260208190526040902054818110156105295760405163391434e360e21b81526001600160a01b0385166004820152602481018290526044810183905260640161032d565b6001600160a01b0384165f9081526020819052604090209082900390555b6001600160a01b03821661056357600280548290039055610581565b6001600160a01b0382165f9081526020819052604090208054820190555b816001600160a01b0316836001600160a01b03167fddf252ad1be2c89b69c2b068fc378daa952ba7f163c4a11628f55a4df523b3ef836040516105c691815260200190565b60405180910390a3505050565b602081525f82518060208401528060208501604085015e5f604082850101526040601f19601f83011684010191505092915050565b80356001600160a01b038116811461061e575f80fd5b919050565b5f8060408385031215610634575f80fd5b61063d83610608565b946020939093013593505050565b5f805f6060848603121561065d575f80fd5b61066684610608565b925061067460208501610608565b929592945050506040919091013590565b5f60208284031215610695575f80fd5b61069e82610608565b9392505050565b5f80604083850312156106b6575f80fd5b6106bf83610608565b91506106cd60208401610608565b90509250929050565b600181811c908216806106ea57607f821691505b60208210810361070857634e487b7160e01b5f52602260045260245ffd5b50919050565b8082018082111561026557634e487b7160e01b5f52601160045260245ffdfea264697066735822122088c3783f6f28345c1b08222b50857fae978cd0f151270a42a87dbb114a75a67664736f6c634300081a003300000000000000000000000000000000000000000000000000000000000000400000000000000000000000000000000000000000000000000000000000000080000000000000000000000000000000000000000000000000000000000000000c5374656c6c617220446546690000000000000000000000000000000000000000000000000000000000000000000000000000000000000000000000000000000453544c5200000000000000000000000000000000000000000000000000000000",
        "nonce": "0x1d9",
        "chainId": "0x515"
      },
      "additionalContracts": [],
      "isFixedGasLimit": false
    },
    {
      "hash": "0x6546743bea9f8bb2efcf2620c0832db1de2e1f823068a22aaf50b5ca946aaf02",
      "transactionType": "CREATE",
      "contractName": "TestToken",
      "contractAddress": "0x6e71c0c66f826101b1828e07746ace5204c73205",
      "function": null,
      "arguments": [
        "Orbit Finance",
        "ORBIT"
      ],
      "transaction": {
        "from": "0xc5b7b574ee84a9b59b475fe32eaf908c246d3859",
        "gas": "0xb5b2b",
        "value": "0x0",
        "input": "0x608060405234801561000f575f80fd5b50604051610ba5380380610ba583398101604081905261002e9161026d565b8181600361003c8382610356565b5060046100498282610356565b5050506100663369d3c21bcecceda100000061006d60201b60201c565b5050610435565b6001600160a01b03821661009b5760405163ec442f0560e01b81525f60048201526024015b60405180910390fd5b6100a65f83836100aa565b5050565b6001600160a01b0383166100d4578060025f8282546100c99190610410565b909155506101449050565b6001600160a01b0383165f90815260208190526040902054818110156101265760405163391434e360e21b81526001600160a01b03851660048201526024810182905260448101839052606401610092565b6001600160a01b0384165f9081526020819052604090209082900390555b6001600160a01b0382166101605760028054829003905561017e565b6001600160a01b0382165f9081526020819052604090208054820190555b816001600160a01b0316836001600160a01b03167fddf252ad1be2c89b69c2b068fc378daa952ba7f163c4a11628f55a4df523b3ef836040516101c391815260200190565b60405180910390a3505050565b634e487b7160e01b5f52604160045260245ffd5b5f82601f8301126101f3575f80fd5b81516001600160401b0381111561020c5761020c6101d0565b604051601f8201601f19908116603f011681016001600160401b038111828210171561023a5761023a6101d0565b604052818152838201602001851015610251575f80fd5b8160208501602083015e5f918101602001919091529392505050565b5f806040838503121561027e575f80fd5b82516001600160401b03811115610293575f80fd5b61029f858286016101e4565b602085015190935090506001600160401b038111156102bc575f80fd5b6102c8858286016101e4565b9150509250929050565b600181811c908216806102e657607f821691505b60208210810361030457634e487b7160e01b5f52602260045260245ffd5b50919050565b601f82111561035157805f5260205f20601f840160051c8101602085101561032f5750805b601f840160051c820191505b8181101561034e575f815560010161033b565b50505b505050565b81516001600160401b0381111561036f5761036f6101d0565b6103838161037d84546102d2565b8461030a565b6020601f8211600181146103b5575f831561039e5750848201515b5f19600385901b1c1916600184901b17845561034e565b5f84815260208120601f198516915b828110156103e457878501518255602094850194600190920191016103c4565b508482101561040157868401515f19600387901b60f8161c191681555b50505050600190811b01905550565b8082018082111561042f57634e487b7160e01b5f52601160045260245ffd5b92915050565b610763806104425f395ff3fe608060405234801561000f575f80fd5b50600436106100b9575f3560e01c806340c10f191161007257806395d89b411161005857806395d89b411461016f578063a9059cbb14610177578063dd62ed3e1461018a575f80fd5b806340c10f191461013257806370a0823114610147575f80fd5b806318160ddd116100a257806318160ddd146100fe57806323b872dd14610110578063313ce56714610123575f80fd5b806306fdde03146100bd578063095ea7b3146100db575b5f80fd5b6100c56101c2565b6040516100d291906105d3565b60405180910390f35b6100ee6100e9366004610623565b610252565b60405190151581526020016100d2565b6002545b6040519081526020016100d2565b6100ee61011e36600461064b565b61026b565b604051601281526020016100d2565b610145610140366004610623565b61028e565b005b610102610155366004610685565b6001600160a01b03165f9081526020819052604090205490565b6100c561029c565b6100ee610185366004610623565b6102ab565b6101026101983660046106a5565b6001600160a01b039182165f90815260016020908152604080832093909416825291909152205490565b6060600380546101d1906106d6565b80601f01602080910402602001604051908101604052809291908181526020018280546101fd906106d6565b80156102485780601f1061021f57610100808354040283529160200191610248565b820191905f5260205f20905b81548152906001019060200180831161022b57829003601f168201915b5050505050905090565b5f3361025f8185856102b8565b60019150505b92915050565b5f336102788582856102ca565b61028385858561034a565b506001949350505050565b61029882826103a7565b5050565b6060600480546101d1906106d6565b5f3361025f81858561034a565b6102c583838360016103db565b505050565b6001600160a01b038381165f908152600160209081526040808320938616835292905220545f198114610344578181101561033657604051637dc7a0d960e11b81526001600160a01b038416600482015260248101829052604481018390526064015b60405180910390fd5b61034484848484035f6103db565b50505050565b6001600160a01b03831661037357604051634b637e8f60e11b81525f600482015260240161032d565b6001600160a01b03821661039c5760405163ec442f0560e01b81525f600482015260240161032d565b6102c58383836104ad565b6001600160a01b0382166103d05760405163ec442f0560e01b81525f600482015260240161032d565b6102985f83836104ad565b6001600160a01b0384166104045760405163e602df0560e01b81525f600482015260240161032d565b6001600160a01b03831661042d57604051634a1406b160e11b81525f600482015260240161032d565b6001600160a01b038085165f908152600160209081526040808320938716835292905220829055801561034457826001600160a01b0316846001600160a01b03167f8c5be1e5ebec7d5bd14f71427d1e84f3dd0314c0f7b2291e5b200ac8c7c3b9258460405161049f91815260200190565b60405180910390a350505050565b6001600160a01b0383166104d7578060025f8282546104cc919061070e565b909155506105479050565b6001600160a01b0383165f90815260208190526040902054818110156105295760405163391434e360e21b81526001600160a01b0385166004820152602481018290526044810183905260640161032d565b6001600160a01b0384165f9081526020819052604090209082900390555b6001600160a01b03821661056357600280548290039055610581565b6001600160a01b0382165f9081526020819052604090208054820190555b816001600160a01b0316836001600160a01b03167fddf252ad1be2c89b69c2b068fc378daa952ba7f163c4a11628f55a4df523b3ef836040516105c691815260200190565b60405180910390a3505050565b602081525f82518060208401528060208501604085015e5f604082850101526040601f19601f83011684010191505092915050565b80356001600160a01b038116811461061e575f80fd5b919050565b5f8060408385031215610634575f80fd5b61063d83610608565b946020939093013593505050565b5f805f6060848603121561065d575f80fd5b61066684610608565b925061067460208501610608565b929592945050506040919091013590565b5f60208284031215610695575f80fd5b61069e82610608565b9392505050565b5f80604083850312156106b6575f80fd5b6106bf83610608565b91506106cd60208401610608565b90509250929050565b600181811c908216806106ea57607f821691505b60208210810361070857634e487b7160e01b5f52602260045260245ffd5b50919050565b8082018082111561026557634e487b7160e01b5f52601160045260245ffdfea264697066735822122088c3783f6f28345c1b08222b50857fae978cd0f151270a42a87dbb114a75a67664736f6c634300081a003300000000000000000000000000000000000000000000000000000000000000400000000000000000000000000000000000000000000000000000000000000080000000000000000000000000000000000000000000000000000000000000000d4f726269742046696e616e63650000000000000000000000000000000000000000000000000000000000000000000000000000000000000000000000000000054f52424954000000000000000000000000000000000000000000000000000000",
        "nonce": "0x1da",
        "chainId": "0x515"
      },
      "additionalContracts": [],
      "isFixedGasLimit": false
    },
    {
      "hash": "0x5ee72d782eef727627b4bafe9999523524412fa2befafb7104cd450166e53c7d",
      "transactionType": "CREATE",
      "contractName": "TestToken",
      "contractAddress": "0x535db1c9866b3bb692faa48f70df95f78005ed16",
      "function": null,
      "arguments": [
        "Zenith Labs",
        "ZEN"
      ],
      "transaction": {
        "from": "0xc5b7b574ee84a9b59b475fe32eaf908c246d3859",
        "gas": "0xb5aed",
        "value": "0x0",
        "input": "0x608060405234801561000f575f80fd5b50604051610ba5380380610ba583398101604081905261002e9161026d565b8181600361003c8382610356565b5060046100498282610356565b5050506100663369d3c21bcecceda100000061006d60201b60201c565b5050610435565b6001600160a01b03821661009b5760405163ec442f0560e01b81525f60048201526024015b60405180910390fd5b6100a65f83836100aa565b5050565b6001600160a01b0383166100d4578060025f8282546100c99190610410565b909155506101449050565b6001600160a01b0383165f90815260208190526040902054818110156101265760405163391434e360e21b81526001600160a01b03851660048201526024810182905260448101839052606401610092565b6001600160a01b0384165f9081526020819052604090209082900390555b6001600160a01b0382166101605760028054829003905561017e565b6001600160a01b0382165f9081526020819052604090208054820190555b816001600160a01b0316836001600160a01b03167fddf252ad1be2c89b69c2b068fc378daa952ba7f163c4a11628f55a4df523b3ef836040516101c391815260200190565b60405180910390a3505050565b634e487b7160e01b5f52604160045260245ffd5b5f82601f8301126101f3575f80fd5b81516001600160401b0381111561020c5761020c6101d0565b604051601f8201601f19908116603f011681016001600160401b038111828210171561023a5761023a6101d0565b604052818152838201602001851015610251575f80fd5b8160208501602083015e5f918101602001919091529392505050565b5f806040838503121561027e575f80fd5b82516001600160401b03811115610293575f80fd5b61029f858286016101e4565b602085015190935090506001600160401b038111156102bc575f80fd5b6102c8858286016101e4565b9150509250929050565b600181811c908216806102e657607f821691505b60208210810361030457634e487b7160e01b5f52602260045260245ffd5b50919050565b601f82111561035157805f5260205f20601f840160051c8101602085101561032f5750805b601f840160051c820191505b8181101561034e575f815560010161033b565b50505b505050565b81516001600160401b0381111561036f5761036f6101d0565b6103838161037d84546102d2565b8461030a565b6020601f8211600181146103b5575f831561039e5750848201515b5f19600385901b1c1916600184901b17845561034e565b5f84815260208120601f198516915b828110156103e457878501518255602094850194600190920191016103c4565b508482101561040157868401515f19600387901b60f8161c191681555b50505050600190811b01905550565b8082018082111561042f57634e487b7160e01b5f52601160045260245ffd5b92915050565b610763806104425f395ff3fe608060405234801561000f575f80fd5b50600436106100b9575f3560e01c806340c10f191161007257806395d89b411161005857806395d89b411461016f578063a9059cbb14610177578063dd62ed3e1461018a575f80fd5b806340c10f191461013257806370a0823114610147575f80fd5b806318160ddd116100a257806318160ddd146100fe57806323b872dd14610110578063313ce56714610123575f80fd5b806306fdde03146100bd578063095ea7b3146100db575b5f80fd5b6100c56101c2565b6040516100d291906105d3565b60405180910390f35b6100ee6100e9366004610623565b610252565b60405190151581526020016100d2565b6002545b6040519081526020016100d2565b6100ee61011e36600461064b565b61026b565b604051601281526020016100d2565b610145610140366004610623565b61028e565b005b610102610155366004610685565b6001600160a01b03165f9081526020819052604090205490565b6100c561029c565b6100ee610185366004610623565b6102ab565b6101026101983660046106a5565b6001600160a01b039182165f90815260016020908152604080832093909416825291909152205490565b6060600380546101d1906106d6565b80601f01602080910402602001604051908101604052809291908181526020018280546101fd906106d6565b80156102485780601f1061021f57610100808354040283529160200191610248565b820191905f5260205f20905b81548152906001019060200180831161022b57829003601f168201915b5050505050905090565b5f3361025f8185856102b8565b60019150505b92915050565b5f336102788582856102ca565b61028385858561034a565b506001949350505050565b61029882826103a7565b5050565b6060600480546101d1906106d6565b5f3361025f81858561034a565b6102c583838360016103db565b505050565b6001600160a01b038381165f908152600160209081526040808320938616835292905220545f198114610344578181101561033657604051637dc7a0d960e11b81526001600160a01b038416600482015260248101829052604481018390526064015b60405180910390fd5b61034484848484035f6103db565b50505050565b6001600160a01b03831661037357604051634b637e8f60e11b81525f600482015260240161032d565b6001600160a01b03821661039c5760405163ec442f0560e01b81525f600482015260240161032d565b6102c58383836104ad565b6001600160a01b0382166103d05760405163ec442f0560e01b81525f600482015260240161032d565b6102985f83836104ad565b6001600160a01b0384166104045760405163e602df0560e01b81525f600482015260240161032d565b6001600160a01b03831661042d57604051634a1406b160e11b81525f600482015260240161032d565b6001600160a01b038085165f908152600160209081526040808320938716835292905220829055801561034457826001600160a01b0316846001600160a01b03167f8c5be1e5ebec7d5bd14f71427d1e84f3dd0314c0f7b2291e5b200ac8c7c3b9258460405161049f91815260200190565b60405180910390a350505050565b6001600160a01b0383166104d7578060025f8282546104cc919061070e565b909155506105479050565b6001600160a01b0383165f90815260208190526040902054818110156105295760405163391434e360e21b81526001600160a01b0385166004820152602481018290526044810183905260640161032d565b6001600160a01b0384165f9081526020819052604090209082900390555b6001600160a01b03821661056357600280548290039055610581565b6001600160a01b0382165f9081526020819052604090208054820190555b816001600160a01b0316836001600160a01b03167fddf252ad1be2c89b69c2b068fc378daa952ba7f163c4a11628f55a4df523b3ef836040516105c691815260200190565b60405180910390a3505050565b602081525f82518060208401528060208501604085015e5f604082850101526040601f19601f83011684010191505092915050565b80356001600160a01b038116811461061e575f80fd5b919050565b5f8060408385031215610634575f80fd5b61063d83610608565b946020939093013593505050565b5f805f6060848603121561065d575f80fd5b61066684610608565b925061067460208501610608565b929592945050506040919091013590565b5f60208284031215610695575f80fd5b61069e82610608565b9392505050565b5f80604083850312156106b6575f80fd5b6106bf83610608565b91506106cd60208401610608565b90509250929050565b600181811c908216806106ea57607f821691505b60208210810361070857634e487b7160e01b5f52602260045260245ffd5b50919050565b8082018082111561026557634e487b7160e01b5f52601160045260245ffdfea264697066735822122088c3783f6f28345c1b08222b50857fae978cd0f151270a42a87dbb114a75a67664736f6c634300081a003300000000000000000000000000000000000000000000000000000000000000400000000000000000000000000000000000000000000000000000000000000080000000000000000000000000000000000000000000000000000000000000000b5a656e697468204c61627300000000000000000000000000000000000000000000000000000000000000000000000000000000000000000000000000000000035a454e0000000000000000000000000000000000000000000000000000000000",
        "nonce": "0x1db",
        "chainId": "0x515"
      },
      "additionalContracts": [],
      "isFixedGasLimit": false
    },
    {
      "hash": "0x734cbd0fe77cdf47e5e7d70332af9fa0716286317181ef342b012a33e174a10d",
      "transactionType": "CREATE",
      "contractName": "TestToken",
      "contractAddress": "0x20bd9fe1b5ff98729993d13514360db6a7461ac4",
      "function": null,
      "arguments": [
        "Shadow Token",
        "SHDW"
      ],
      "transaction": {
        "from": "0xc5b7b574ee84a9b59b475fe32eaf908c246d3859",
        "gas": "0xb5b0c",
        "value": "0x0",
        "input": "0x608060405234801561000f575f80fd5b50604051610ba5380380610ba583398101604081905261002e9161026d565b8181600361003c8382610356565b5060046100498282610356565b5050506100663369d3c21bcecceda100000061006d60201b60201c565b5050610435565b6001600160a01b03821661009b5760405163ec442f0560e01b81525f60048201526024015b60405180910390fd5b6100a65f83836100aa565b5050565b6001600160a01b0383166100d4578060025f8282546100c99190610410565b909155506101449050565b6001600160a01b0383165f90815260208190526040902054818110156101265760405163391434e360e21b81526001600160a01b03851660048201526024810182905260448101839052606401610092565b6001600160a01b0384165f9081526020819052604090209082900390555b6001600160a01b0382166101605760028054829003905561017e565b6001600160a01b0382165f9081526020819052604090208054820190555b816001600160a01b0316836001600160a01b03167fddf252ad1be2c89b69c2b068fc378daa952ba7f163c4a11628f55a4df523b3ef836040516101c391815260200190565b60405180910390a3505050565b634e487b7160e01b5f52604160045260245ffd5b5f82601f8301126101f3575f80fd5b81516001600160401b0381111561020c5761020c6101d0565b604051601f8201601f19908116603f011681016001600160401b038111828210171561023a5761023a6101d0565b604052818152838201602001851015610251575f80fd5b8160208501602083015e5f918101602001919091529392505050565b5f806040838503121561027e575f80fd5b82516001600160401b03811115610293575f80fd5b61029f858286016101e4565b602085015190935090506001600160401b038111156102bc575f80fd5b6102c8858286016101e4565b9150509250929050565b600181811c908216806102e657607f821691505b60208210810361030457634e487b7160e01b5f52602260045260245ffd5b50919050565b601f82111561035157805f5260205f20601f840160051c8101602085101561032f5750805b601f840160051c820191505b8181101561034e575f815560010161033b565b50505b505050565b81516001600160401b0381111561036f5761036f6101d0565b6103838161037d84546102d2565b8461030a565b6020601f8211600181146103b5575f831561039e5750848201515b5f19600385901b1c1916600184901b17845561034e565b5f84815260208120601f198516915b828110156103e457878501518255602094850194600190920191016103c4565b508482101561040157868401515f19600387901b60f8161c191681555b50505050600190811b01905550565b8082018082111561042f57634e487b7160e01b5f52601160045260245ffd5b92915050565b610763806104425f395ff3fe608060405234801561000f575f80fd5b50600436106100b9575f3560e01c806340c10f191161007257806395d89b411161005857806395d89b411461016f578063a9059cbb14610177578063dd62ed3e1461018a575f80fd5b806340c10f191461013257806370a0823114610147575f80fd5b806318160ddd116100a257806318160ddd146100fe57806323b872dd14610110578063313ce56714610123575f80fd5b806306fdde03146100bd578063095ea7b3146100db575b5f80fd5b6100c56101c2565b6040516100d291906105d3565b60405180910390f35b6100ee6100e9366004610623565b610252565b60405190151581526020016100d2565b6002545b6040519081526020016100d2565b6100ee61011e36600461064b565b61026b565b604051601281526020016100d2565b610145610140366004610623565b61028e565b005b610102610155366004610685565b6001600160a01b03165f9081526020819052604090205490565b6100c561029c565b6100ee610185366004610623565b6102ab565b6101026101983660046106a5565b6001600160a01b039182165f90815260016020908152604080832093909416825291909152205490565b6060600380546101d1906106d6565b80601f01602080910402602001604051908101604052809291908181526020018280546101fd906106d6565b80156102485780601f1061021f57610100808354040283529160200191610248565b820191905f5260205f20905b81548152906001019060200180831161022b57829003601f168201915b5050505050905090565b5f3361025f8185856102b8565b60019150505b92915050565b5f336102788582856102ca565b61028385858561034a565b506001949350505050565b61029882826103a7565b5050565b6060600480546101d1906106d6565b5f3361025f81858561034a565b6102c583838360016103db565b505050565b6001600160a01b038381165f908152600160209081526040808320938616835292905220545f198114610344578181101561033657604051637dc7a0d960e11b81526001600160a01b038416600482015260248101829052604481018390526064015b60405180910390fd5b61034484848484035f6103db565b50505050565b6001600160a01b03831661037357604051634b637e8f60e11b81525f600482015260240161032d565b6001600160a01b03821661039c5760405163ec442f0560e01b81525f600482015260240161032d565b6102c58383836104ad565b6001600160a01b0382166103d05760405163ec442f0560e01b81525f600482015260240161032d565b6102985f83836104ad565b6001600160a01b0384166104045760405163e602df0560e01b81525f600482015260240161032d565b6001600160a01b03831661042d57604051634a1406b160e11b81525f600482015260240161032d565b6001600160a01b038085165f908152600160209081526040808320938716835292905220829055801561034457826001600160a01b0316846001600160a01b03167f8c5be1e5ebec7d5bd14f71427d1e84f3dd0314c0f7b2291e5b200ac8c7c3b9258460405161049f91815260200190565b60405180910390a350505050565b6001600160a01b0383166104d7578060025f8282546104cc919061070e565b909155506105479050565b6001600160a01b0383165f90815260208190526040902054818110156105295760405163391434e360e21b81526001600160a01b0385166004820152602481018290526044810183905260640161032d565b6001600160a01b0384165f9081526020819052604090209082900390555b6001600160a01b03821661056357600280548290039055610581565b6001600160a01b0382165f9081526020819052604090208054820190555b816001600160a01b0316836001600160a01b03167fddf252ad1be2c89b69c2b068fc378daa952ba7f163c4a11628f55a4df523b3ef836040516105c691815260200190565b60405180910390a3505050565b602081525f82518060208401528060208501604085015e5f604082850101526040601f19601f83011684010191505092915050565b80356001600160a01b038116811461061e575f80fd5b919050565b5f8060408385031215610634575f80fd5b61063d83610608565b946020939093013593505050565b5f805f6060848603121561065d575f80fd5b61066684610608565b925061067460208501610608565b929592945050506040919091013590565b5f60208284031215610695575f80fd5b61069e82610608565b9392505050565b5f80604083850312156106b6575f80fd5b6106bf83610608565b91506106cd60208401610608565b90509250929050565b600181811c908216806106ea57607f821691505b60208210810361070857634e487b7160e01b5f52602260045260245ffd5b50919050565b8082018082111561026557634e487b7160e01b5f52601160045260245ffdfea264697066735822122088c3783f6f28345c1b08222b50857fae978cd0f151270a42a87dbb114a75a67664736f6c634300081a003300000000000000000000000000000000000000000000000000000000000000400000000000000000000000000000000000000000000000000000000000000080000000000000000000000000000000000000000000000000000000000000000c536861646f7720546f6b656e000000000000000000000000000000000000000000000000000000000000000000000000000000000000000000000000000000045348445700000000000000000000000000000000000000000000000000000000",
        "nonce": "0x1dc",
        "chainId": "0x515"
      },
      "additionalContracts": [],
      "isFixedGasLimit": false
    },
    {
      "hash": "0x9ac2b05e93a774c0e8b92f1be54e3e8da86d5994529a080cb30ffa2564143e0b",
      "transactionType": "CALL",
      "contractName": null,
      "contractAddress": "0xdae6cf499756455de55eaad590d59609870e1a3c",
      "function": null,
      "arguments": null,
      "transaction": {
        "from": "0xc5b7b574ee84a9b59b475fe32eaf908c246d3859",
        "to": "0xdae6cf499756455de55eaad590d59609870e1a3c",
        "gas": "0x714d",
        "value": "0x71afd498d0000",
        "input": "0x",
        "nonce": "0x1dd",
        "chainId": "0x515"
      },
      "additionalContracts": [],
      "isFixedGasLimit": false
    },
    {
      "hash": "0x3064cd45923b07c2e64d45bbaf8c0553556b825156bd2719305999368920e562",
      "transactionType": "CALL",
      "contractName": null,
      "contractAddress": "0xca093b5e50df91117440f9dfd1542b8f42075d67",
      "function": null,
      "arguments": null,
      "transaction": {
        "from": "0xc5b7b574ee84a9b59b475fe32eaf908c246d3859",
        "to": "0xca093b5e50df91117440f9dfd1542b8f42075d67",
        "gas": "0x714d",
        "value": "0x71afd498d0000",
        "input": "0x",
        "nonce": "0x1de",
        "chainId": "0x515"
      },
      "additionalContracts": [],
      "isFixedGasLimit": false
    },
    {
      "hash": "0xc4b29549db2c2aff747e6e8ccaef103dfd49caba4783944489bb23fd75ff65ca",
      "transactionType": "CALL",
      "contractName": null,
      "contractAddress": "0x6da90fd521d6cff9d373204038459addca260f2a",
      "function": null,
      "arguments": null,
      "transaction": {
        "from": "0xc5b7b574ee84a9b59b475fe32eaf908c246d3859",
        "to": "0x6da90fd521d6cff9d373204038459addca260f2a",
        "gas": "0x714d",
        "value": "0x71afd498d0000",
        "input": "0x",
        "nonce": "0x1df",
        "chainId": "0x515"
      },
      "additionalContracts": [],
      "isFixedGasLimit": false
    },
    {
      "hash": "0xfea52aff7c745ad20db60d479df2e3e26cfaea060624a40159fb5277b05d1bd6",
      "transactionType": "CALL",
      "contractName": null,
      "contractAddress": "0x699507c6aeb4268ff4dc05721c803dbe466cec6f",
      "function": null,
      "arguments": null,
      "transaction": {
        "from": "0xc5b7b574ee84a9b59b475fe32eaf908c246d3859",
        "to": "0x699507c6aeb4268ff4dc05721c803dbe466cec6f",
        "gas": "0x714d",
        "value": "0x71afd498d0000",
        "input": "0x",
        "nonce": "0x1e0",
        "chainId": "0x515"
      },
      "additionalContracts": [],
      "isFixedGasLimit": false
    },
    {
      "hash": "0x069097a9dcab9a70c48e10e88ae89a677327f841ee517338b08fd6de8e428467",
      "transactionType": "CALL",
      "contractName": null,
      "contractAddress": "0x079bb29d652294b01f4bdf86bb318277e0892e14",
      "function": null,
      "arguments": null,
      "transaction": {
        "from": "0xc5b7b574ee84a9b59b475fe32eaf908c246d3859",
        "to": "0x079bb29d652294b01f4bdf86bb318277e0892e14",
        "gas": "0x714d",
        "value": "0x71afd498d0000",
        "input": "0x",
        "nonce": "0x1e1",
        "chainId": "0x515"
      },
      "additionalContracts": [],
      "isFixedGasLimit": false
    },
    {
      "hash": "0x6f69e5bc2b69b0fd43c966624b32ad5d8bb3c0dd0207cc6c629f72d8e39385b6",
      "transactionType": "CALL",
      "contractName": null,
      "contractAddress": "0x6127fe036b9cd6435404e56365f904167298c640",
      "function": "registerVestingPosition((uint8,uint256,uint8,bool)[3],address,bytes32)",
      "arguments": [
        "[(0, 1000000000000000000000000, 34, false), (1, 5000000000000000000000000, 33, false), (2, 10000, 33, false)]",
        "0xE203B49766096199E48969E5a0e6AD4a77338BEa",
        "0xc57ed45faa8ec4cf84a451c3f6d9e2418128bc0e8ee2a3c987b391d76c7c88a6"
      ],
      "transaction": {
        "from": "0xdae6cf499756455de55eaad590d59609870e1a3c",
        "to": "0x6127fe036b9cd6435404e56365f904167298c640",
        "gas": "0x6685c",
        "value": "0x0",
        "input": "0x32f7488c000000000000000000000000000000000000000000000000000000000000000000000000000000000000000000000000000000000000d3c21bcecceda10000000000000000000000000000000000000000000000000000000000000000000022000000000000000000000000000000000000000000000000000000000000000000000000000000000000000000000000000000000000000000000000000000010000000000000000000000000000000000000000000422ca8b0a00a425000000000000000000000000000000000000000000000000000000000000000000002100000000000000000000000000000000000000000000000000000000000000000000000000000000000000000000000000000000000000000000000000000002000000000000000000000000000000000000000000000000000000000000271000000000000000000000000000000000000000000000000000000000000000210000000000000000000000000000000000000000000000000000000000000000000000000000000000000000e203b49766096199e48969e5a0e6ad4a77338beac57ed45faa8ec4cf84a451c3f6d9e2418128bc0e8ee2a3c987b391d76c7c88a6",
        "nonce": "0x2",
        "chainId": "0x515"
      },
      "additionalContracts": [],
      "isFixedGasLimit": false
    },
    {
      "hash": "0xa08c9faad10b7b8cec62498b51e112d726b09369a33a9b6cba813e17dc070298",
      "transactionType": "CALL",
      "contractName": null,
      "contractAddress": "0x6127fe036b9cd6435404e56365f904167298c640",
      "function": "registerVestingPosition((uint8,uint256,uint8,bool)[3],address,bytes32)",
      "arguments": [
        "[(0, 500000000000000000000, 34, false), (1, 2000000000000000000000, 33, false), (2, 50, 33, false)]",
        "0x91ceF63f13F880918E03A28c8853269aBdD336cb",
        "0x280d541a4a54702cb9cbac2c2b5679af780dafc8fe350a422a2812d4a5eb4b9d"
      ],
      "transaction": {
        "from": "0xca093b5e50df91117440f9dfd1542b8f42075d67",
        "to": "0x6127fe036b9cd6435404e56365f904167298c640",
        "gas": "0x6684b",
        "value": "0x0",
        "input": "0x32f7488c000000000000000000000000000000000000000000000000000000000000000000000000000000000000000000000000000000000000001b1ae4d6e2ef50000000000000000000000000000000000000000000000000000000000000000000220000000000000000000000000000000000000000000000000000000000000000000000000000000000000000000000000000000000000000000000000000000100000000000000000000000000000000000000000000006c6b935b8bbd40000000000000000000000000000000000000000000000000000000000000000000210000000000000000000000000000000000000000000000000000000000000000000000000000000000000000000000000000000000000000000000000000000200000000000000000000000000000000000000000000000000000000000000320000000000000000000000000000000000000000000000000000000000000021000000000000000000000000000000000000000000000000000000000000000000000000000000000000000091cef63f13f880918e03a28c8853269abdd336cb280d541a4a54702cb9cbac2c2b5679af780dafc8fe350a422a2812d4a5eb4b9d",
        "nonce": "0x2",
        "chainId": "0x515"
      },
      "additionalContracts": [],
      "isFixedGasLimit": false
    },
    {
      "hash": "0x84ec84dbc429e347c3acea1f010a8ebc9058d4ee942e8a8798113c545f3e7ce3",
      "transactionType": "CALL",
      "contractName": null,
      "contractAddress": "0x6127fe036b9cd6435404e56365f904167298c640",
      "function": "registerVestingPosition((uint8,uint256,uint8,bool)[3],address,bytes32)",
      "arguments": [
        "[(0, 500000000000000000000, 34, false), (1, 2000000000000000000000, 33, false), (2, 50, 33, false)]",
        "0x6e71C0c66f826101b1828e07746Ace5204C73205",
        "0xc6a5614ad2136d9a8390e26133f8698949fc8a075b3a799dce8da5a54d64127e"
      ],
      "transaction": {
        "from": "0x6da90fd521d6cff9d373204038459addca260f2a",
        "to": "0x6127fe036b9cd6435404e56365f904167298c640",
        "gas": "0x6684b",
        "value": "0x0",
        "input": "0x32f7488c000000000000000000000000000000000000000000000000000000000000000000000000000000000000000000000000000000000000001b1ae4d6e2ef50000000000000000000000000000000000000000000000000000000000000000000220000000000000000000000000000000000000000000000000000000000000000000000000000000000000000000000000000000000000000000000000000000100000000000000000000000000000000000000000000006c6b935b8bbd4000000000000000000000000000000000000000000000000000000000000000000021000000000000000000000000000000000000000000000000000000000000000000000000000000000000000000000000000000000000000000000000000000020000000000000000000000000000000000000000000000000000000000000032000000000000000000000000000000000000000000000000000000000000002100000000000000000000000000000000000000000000000000000000000000000000000000000000000000006e71c0c66f826101b1828e07746ace5204c73205c6a5614ad2136d9a8390e26133f8698949fc8a075b3a799dce8da5a54d64127e",
        "nonce": "0x2",
        "chainId": "0x515"
      },
      "additionalContracts": [],
      "isFixedGasLimit": false
    },
    {
      "hash": "0x3cdd129a10c16a19cec223b8f6e36bdbe6741b5429b58d4b563990f307bdf9ea",
      "transactionType": "CALL",
      "contractName": null,
      "contractAddress": "0x6127fe036b9cd6435404e56365f904167298c640",
      "function": "registerVestingPosition((uint8,uint256,uint8,bool)[3],address,bytes32)",
      "arguments": [
        "[(0, 100000000000000000000, 34, false), (1, 100000000000000000000, 33, false), (2, 2, 33, false)]",
        "0x535dB1C9866b3bb692FAA48f70df95F78005Ed16",
        "0x37fd0989c288274095bbb5fc81b82b93c8737bb12f5d7c58fd41010527a1217d"
      ],
      "transaction": {
        "from": "0x699507c6aeb4268ff4dc05721c803dbe466cec6f",
        "to": "0x6127fe036b9cd6435404e56365f904167298c640",
        "gas": "0x6684b",
        "value": "0x0",
        "input": "0x32f7488c00000000000000000000000000000000000000000000000000000000000000000000000000000000000000000000000000000000000000056bc75e2d631000000000000000000000000000000000000000000000000000000000000000000022000000000000000000000000000000000000000000000000000000000000000000000000000000000000000000000000000000000000000000000000000000010000000000000000000000000000000000000000000000056bc75e2d63100000000000000000000000000000000000000000000000000000000000000000002100000000000000000000000000000000000000000000000000000000000000000000000000000000000000000000000000000000000000000000000000000002000000000000000000000000000000000000000000000000000000000000000200000000000000000000000000000000000000000000000000000000000000210000000000000000000000000000000000000000000000000000000000000000000000000000000000000000535db1c9866b3bb692faa48f70df95f78005ed1637fd0989c288274095bbb5fc81b82b93c8737bb12f5d7c58fd41010527a1217d",
        "nonce": "0x2",
        "chainId": "0x515"
      },
      "additionalContracts": [],
      "isFixedGasLimit": false
    },
    {
      "hash": "0xa73ecf8b85179d31ecfaf8e0f72dfb4fd694d0e54f33a2bae81737de233bdad5",
      "transactionType": "CALL",
      "contractName": null,
      "contractAddress": "0x6127fe036b9cd6435404e56365f904167298c640",
      "function": "registerVestingPosition((uint8,uint256,uint8,bool)[3],address,bytes32)",
      "arguments": [
        "[(0, 500000000000000000000, 34, false), (1, 2000000000000000000000, 33, false), (2, 50, 33, false)]",
        "0x20bd9fE1b5fF98729993D13514360DB6a7461Ac4",
        "0x92fdced8b28f5d586222dbbff0e5665122443c30a2cfb61893a28ba4df1e1b42"
      ],
      "transaction": {
        "from": "0x079bb29d652294b01f4bdf86bb318277e0892e14",
        "to": "0x6127fe036b9cd6435404e56365f904167298c640",
        "gas": "0x6684b",
        "value": "0x0",
        "input": "0x32f7488c000000000000000000000000000000000000000000000000000000000000000000000000000000000000000000000000000000000000001b1ae4d6e2ef50000000000000000000000000000000000000000000000000000000000000000000220000000000000000000000000000000000000000000000000000000000000000000000000000000000000000000000000000000000000000000000000000000100000000000000000000000000000000000000000000006c6b935b8bbd40000000000000000000000000000000000000000000000000000000000000000000210000000000000000000000000000000000000000000000000000000000000000000000000000000000000000000000000000000000000000000000000000000200000000000000000000000000000000000000000000000000000000000000320000000000000000000000000000000000000000000000000000000000000021000000000000000000000000000000000000000000000000000000000000000000000000000000000000000020bd9fe1b5ff98729993d13514360db6a7461ac492fdced8b28f5d586222dbbff0e5665122443c30a2cfb61893a28ba4df1e1b42",
        "nonce": "0x2",
        "chainId": "0x515"
      },
      "additionalContracts": [],
      "isFixedGasLimit": false
    },
    {
      "hash": "0x7f22b93078b8cb6557ab3c4290ff3afaa28e410665afef0a573e41d439f56738",
      "transactionType": "CALL",
      "contractName": null,
      "contractAddress": "0x00b036b58a818b1bc34d502d3fe730db729e62ac",
      "function": "initialize((address,address,uint24,int24,address),uint160)",
      "arguments": [
        "(0x4430a357cFFDdB3dd74E5ebcbB44828A841dd538, 0xE203B49766096199E48969E5a0e6AD4a77338BEa, 3000, 60, 0x6127Fe036B9cd6435404E56365f904167298C640)",
        "79228162514264337593543950336"
      ],
      "transaction": {
        "from": "0xc5b7b574ee84a9b59b475fe32eaf908c246d3859",
        "to": "0x00b036b58a818b1bc34d502d3fe730db729e62ac",
        "gas": "0x11721",
        "value": "0x0",
        "input": "0x6276cbbe0000000000000000000000004430a357cffddb3dd74e5ebcbb44828a841dd538000000000000000000000000e203b49766096199e48969e5a0e6ad4a77338bea0000000000000000000000000000000000000000000000000000000000000bb8000000000000000000000000000000000000000000000000000000000000003c0000000000000000000000006127fe036b9cd6435404e56365f904167298c6400000000000000000000000000000000000000001000000000000000000000000",
        "nonce": "0x1e2",
        "chainId": "0x515"
      },
      "additionalContracts": [],
      "isFixedGasLimit": false
    },
    {
      "hash": "0xad5f964625373bc662aa1c026c6d262b57a183c67a73174e8d8f8a32a16529c6",
      "transactionType": "CALL",
      "contractName": "TestToken",
      "contractAddress": "0x4430a357cffddb3dd74e5ebcbb44828a841dd538",
      "function": "approve(address,uint256)",
      "arguments": [
        "0x5fa728C0A5cfd51BEe4B060773f50554c0C8A7AB",
        "10000000000000000000000"
      ],
      "transaction": {
        "from": "0xc5b7b574ee84a9b59b475fe32eaf908c246d3859",
        "to": "0x4430a357cffddb3dd74e5ebcbb44828a841dd538",
        "gas": "0xfa6c",
        "value": "0x0",
        "input": "0x095ea7b30000000000000000000000005fa728c0a5cfd51bee4b060773f50554c0c8a7ab00000000000000000000000000000000000000000000021e19e0c9bab2400000",
        "nonce": "0x1e3",
        "chainId": "0x515"
      },
      "additionalContracts": [],
      "isFixedGasLimit": false
    },
    {
      "hash": "0xb4b53266ccf566fd3f3682cd61fc5348cb216965b31d77f2cf9eb73df1e493e0",
      "transactionType": "CALL",
      "contractName": "TestToken",
      "contractAddress": "0xe203b49766096199e48969e5a0e6ad4a77338bea",
      "function": "approve(address,uint256)",
      "arguments": [
        "0x5fa728C0A5cfd51BEe4B060773f50554c0C8A7AB",
        "10000000000000000000000"
      ],
      "transaction": {
        "from": "0xc5b7b574ee84a9b59b475fe32eaf908c246d3859",
        "to": "0xe203b49766096199e48969e5a0e6ad4a77338bea",
        "gas": "0xfa6c",
        "value": "0x0",
        "input": "0x095ea7b30000000000000000000000005fa728c0a5cfd51bee4b060773f50554c0c8a7ab00000000000000000000000000000000000000000000021e19e0c9bab2400000",
        "nonce": "0x1e4",
        "chainId": "0x515"
      },
      "additionalContracts": [],
      "isFixedGasLimit": false
    },
    {
      "hash": "0x1cd2d0ae1d871ce74aafc0cae5a7cdec1cf4680fc92318a64cdf46592e4a6d09",
      "transactionType": "CALL",
      "contractName": null,
      "contractAddress": "0x5fa728c0a5cfd51bee4b060773f50554c0c8a7ab",
      "function": "modifyLiquidity((address,address,uint24,int24,address),(int24,int24,int256,bytes32),bytes)",
      "arguments": [
        "(0x4430a357cFFDdB3dd74E5ebcbB44828A841dd538, 0xE203B49766096199E48969E5a0e6AD4a77338BEa, 3000, 60, 0x6127Fe036B9cd6435404E56365f904167298C640)",
        "(-887220, 887220, 10000000000000000000000, 0x0000000000000000000000000000000000000000000000000000000000000000)",
        "0x"
      ],
      "transaction": {
        "from": "0xc5b7b574ee84a9b59b475fe32eaf908c246d3859",
        "to": "0x5fa728c0a5cfd51bee4b060773f50554c0c8a7ab",
        "gas": "0x82f7e",
        "value": "0x0",
        "input": "0x5a6bcfda0000000000000000000000004430a357cffddb3dd74e5ebcbb44828a841dd538000000000000000000000000e203b49766096199e48969e5a0e6ad4a77338bea0000000000000000000000000000000000000000000000000000000000000bb8000000000000000000000000000000000000000000000000000000000000003c0000000000000000000000006127fe036b9cd6435404e56365f904167298c640fffffffffffffffffffffffffffffffffffffffffffffffffffffffffff2764c00000000000000000000000000000000000000000000000000000000000d89b400000000000000000000000000000000000000000000021e19e0c9bab2400000000000000000000000000000000000000000000000000000000000000000000000000000000000000000000000000000000000000000000000000000000001400000000000000000000000000000000000000000000000000000000000000000",
        "nonce": "0x1e5",
        "chainId": "0x515"
      },
      "additionalContracts": [],
      "isFixedGasLimit": false
    },
    {
      "hash": "0x853c2aa3d5f910b1ad4b3a961daab8ad42e6d2d26d31319dfe6f272469fb9a6b",
      "transactionType": "CALL",
      "contractName": null,
      "contractAddress": "0x00b036b58a818b1bc34d502d3fe730db729e62ac",
      "function": "initialize((address,address,uint24,int24,address),uint160)",
      "arguments": [
        "(0x4430a357cFFDdB3dd74E5ebcbB44828A841dd538, 0x91ceF63f13F880918E03A28c8853269aBdD336cb, 3000, 60, 0x6127Fe036B9cd6435404E56365f904167298C640)",
        "79228162514264337593543950336"
      ],
      "transaction": {
        "from": "0xc5b7b574ee84a9b59b475fe32eaf908c246d3859",
        "to": "0x00b036b58a818b1bc34d502d3fe730db729e62ac",
        "gas": "0x11721",
        "value": "0x0",
        "input": "0x6276cbbe0000000000000000000000004430a357cffddb3dd74e5ebcbb44828a841dd53800000000000000000000000091cef63f13f880918e03a28c8853269abdd336cb0000000000000000000000000000000000000000000000000000000000000bb8000000000000000000000000000000000000000000000000000000000000003c0000000000000000000000006127fe036b9cd6435404e56365f904167298c6400000000000000000000000000000000000000001000000000000000000000000",
        "nonce": "0x1e6",
        "chainId": "0x515"
      },
      "additionalContracts": [],
      "isFixedGasLimit": false
    },
    {
      "hash": "0xeffb124bfb0ef5a95427a27d633ccb225a4fe923372194ffaa97e4af1190be71",
      "transactionType": "CALL",
      "contractName": "TestToken",
      "contractAddress": "0x4430a357cffddb3dd74e5ebcbb44828a841dd538",
      "function": "approve(address,uint256)",
      "arguments": [
        "0x5fa728C0A5cfd51BEe4B060773f50554c0C8A7AB",
        "10000000000000000000000"
      ],
      "transaction": {
        "from": "0xc5b7b574ee84a9b59b475fe32eaf908c246d3859",
        "to": "0x4430a357cffddb3dd74e5ebcbb44828a841dd538",
        "gas": "0xa777",
        "value": "0x0",
        "input": "0x095ea7b30000000000000000000000005fa728c0a5cfd51bee4b060773f50554c0c8a7ab00000000000000000000000000000000000000000000021e19e0c9bab2400000",
        "nonce": "0x1e7",
        "chainId": "0x515"
      },
      "additionalContracts": [],
      "isFixedGasLimit": false
    },
    {
      "hash": "0x937f0645942af48d3ed0f8d6641704c1de9f412d0ae8d7c5e417fe796b7fe6de",
      "transactionType": "CALL",
      "contractName": "TestToken",
      "contractAddress": "0x91cef63f13f880918e03a28c8853269abdd336cb",
      "function": "approve(address,uint256)",
      "arguments": [
        "0x5fa728C0A5cfd51BEe4B060773f50554c0C8A7AB",
        "10000000000000000000000"
      ],
      "transaction": {
        "from": "0xc5b7b574ee84a9b59b475fe32eaf908c246d3859",
        "to": "0x91cef63f13f880918e03a28c8853269abdd336cb",
        "gas": "0xfa6c",
        "value": "0x0",
        "input": "0x095ea7b30000000000000000000000005fa728c0a5cfd51bee4b060773f50554c0c8a7ab00000000000000000000000000000000000000000000021e19e0c9bab2400000",
        "nonce": "0x1e8",
        "chainId": "0x515"
      },
      "additionalContracts": [],
      "isFixedGasLimit": false
    },
    {
      "hash": "0xf68e1114ae2e01f8e7ffa14988b9ccb8e761f3b524b6c8597ac2ad4ecf75f0a7",
      "transactionType": "CALL",
      "contractName": null,
      "contractAddress": "0x5fa728c0a5cfd51bee4b060773f50554c0c8a7ab",
      "function": "modifyLiquidity((address,address,uint24,int24,address),(int24,int24,int256,bytes32),bytes)",
      "arguments": [
        "(0x4430a357cFFDdB3dd74E5ebcbB44828A841dd538, 0x91ceF63f13F880918E03A28c8853269aBdD336cb, 3000, 60, 0x6127Fe036B9cd6435404E56365f904167298C640)",
        "(-887220, 887220, 10000000000000000000000, 0x0000000000000000000000000000000000000000000000000000000000000000)",
        "0x"
      ],
      "transaction": {
        "from": "0xc5b7b574ee84a9b59b475fe32eaf908c246d3859",
        "to": "0x5fa728c0a5cfd51bee4b060773f50554c0c8a7ab",
        "gas": "0x75ed0",
        "value": "0x0",
        "input": "0x5a6bcfda0000000000000000000000004430a357cffddb3dd74e5ebcbb44828a841dd53800000000000000000000000091cef63f13f880918e03a28c8853269abdd336cb0000000000000000000000000000000000000000000000000000000000000bb8000000000000000000000000000000000000000000000000000000000000003c0000000000000000000000006127fe036b9cd6435404e56365f904167298c640fffffffffffffffffffffffffffffffffffffffffffffffffffffffffff2764c00000000000000000000000000000000000000000000000000000000000d89b400000000000000000000000000000000000000000000021e19e0c9bab2400000000000000000000000000000000000000000000000000000000000000000000000000000000000000000000000000000000000000000000000000000000001400000000000000000000000000000000000000000000000000000000000000000",
        "nonce": "0x1e9",
        "chainId": "0x515"
      },
      "additionalContracts": [],
      "isFixedGasLimit": false
    },
    {
      "hash": "0x7600572f989a2549a0841ca8b27a259ab94e7860914c0e783d7ed67df5414542",
      "transactionType": "CALL",
      "contractName": null,
      "contractAddress": "0x00b036b58a818b1bc34d502d3fe730db729e62ac",
      "function": "initialize((address,address,uint24,int24,address),uint160)",
      "arguments": [
        "(0x4430a357cFFDdB3dd74E5ebcbB44828A841dd538, 0x6e71C0c66f826101b1828e07746Ace5204C73205, 3000, 60, 0x6127Fe036B9cd6435404E56365f904167298C640)",
        "79228162514264337593543950336"
      ],
      "transaction": {
        "from": "0xc5b7b574ee84a9b59b475fe32eaf908c246d3859",
        "to": "0x00b036b58a818b1bc34d502d3fe730db729e62ac",
        "gas": "0x11721",
        "value": "0x0",
        "input": "0x6276cbbe0000000000000000000000004430a357cffddb3dd74e5ebcbb44828a841dd5380000000000000000000000006e71c0c66f826101b1828e07746ace5204c732050000000000000000000000000000000000000000000000000000000000000bb8000000000000000000000000000000000000000000000000000000000000003c0000000000000000000000006127fe036b9cd6435404e56365f904167298c6400000000000000000000000000000000000000001000000000000000000000000",
        "nonce": "0x1ea",
        "chainId": "0x515"
      },
      "additionalContracts": [],
      "isFixedGasLimit": false
    },
    {
      "hash": "0xff33987e814975ff3abea37a01268a0f3f6529bf9355f7413c3a943b07a7087e",
      "transactionType": "CALL",
      "contractName": "TestToken",
      "contractAddress": "0x4430a357cffddb3dd74e5ebcbb44828a841dd538",
      "function": "approve(address,uint256)",
      "arguments": [
        "0x5fa728C0A5cfd51BEe4B060773f50554c0C8A7AB",
        "10000000000000000000000"
      ],
      "transaction": {
        "from": "0xc5b7b574ee84a9b59b475fe32eaf908c246d3859",
        "to": "0x4430a357cffddb3dd74e5ebcbb44828a841dd538",
        "gas": "0xa777",
        "value": "0x0",
        "input": "0x095ea7b30000000000000000000000005fa728c0a5cfd51bee4b060773f50554c0c8a7ab00000000000000000000000000000000000000000000021e19e0c9bab2400000",
        "nonce": "0x1eb",
        "chainId": "0x515"
      },
      "additionalContracts": [],
      "isFixedGasLimit": false
    },
    {
      "hash": "0x2f3aac9e7e41ff9832ae5c9b2612d9cd838f1ad2876c966acb74c85df68fe38e",
      "transactionType": "CALL",
      "contractName": "TestToken",
      "contractAddress": "0x6e71c0c66f826101b1828e07746ace5204c73205",
      "function": "approve(address,uint256)",
      "arguments": [
        "0x5fa728C0A5cfd51BEe4B060773f50554c0C8A7AB",
        "10000000000000000000000"
      ],
      "transaction": {
        "from": "0xc5b7b574ee84a9b59b475fe32eaf908c246d3859",
        "to": "0x6e71c0c66f826101b1828e07746ace5204c73205",
        "gas": "0xfa6c",
        "value": "0x0",
        "input": "0x095ea7b30000000000000000000000005fa728c0a5cfd51bee4b060773f50554c0c8a7ab00000000000000000000000000000000000000000000021e19e0c9bab2400000",
        "nonce": "0x1ec",
        "chainId": "0x515"
      },
      "additionalContracts": [],
      "isFixedGasLimit": false
    },
    {
      "hash": "0x1b16f404f5ffd1dc61a84a90e2d0754c075717d4c4135462a1c785aa918fb008",
      "transactionType": "CALL",
      "contractName": null,
      "contractAddress": "0x5fa728c0a5cfd51bee4b060773f50554c0c8a7ab",
      "function": "modifyLiquidity((address,address,uint24,int24,address),(int24,int24,int256,bytes32),bytes)",
      "arguments": [
        "(0x4430a357cFFDdB3dd74E5ebcbB44828A841dd538, 0x6e71C0c66f826101b1828e07746Ace5204C73205, 3000, 60, 0x6127Fe036B9cd6435404E56365f904167298C640)",
        "(-887220, 887220, 10000000000000000000000, 0x0000000000000000000000000000000000000000000000000000000000000000)",
        "0x"
      ],
      "transaction": {
        "from": "0xc5b7b574ee84a9b59b475fe32eaf908c246d3859",
        "to": "0x5fa728c0a5cfd51bee4b060773f50554c0c8a7ab",
        "gas": "0x75ed0",
        "value": "0x0",
        "input": "0x5a6bcfda0000000000000000000000004430a357cffddb3dd74e5ebcbb44828a841dd5380000000000000000000000006e71c0c66f826101b1828e07746ace5204c732050000000000000000000000000000000000000000000000000000000000000bb8000000000000000000000000000000000000000000000000000000000000003c0000000000000000000000006127fe036b9cd6435404e56365f904167298c640fffffffffffffffffffffffffffffffffffffffffffffffffffffffffff2764c00000000000000000000000000000000000000000000000000000000000d89b400000000000000000000000000000000000000000000021e19e0c9bab2400000000000000000000000000000000000000000000000000000000000000000000000000000000000000000000000000000000000000000000000000000000001400000000000000000000000000000000000000000000000000000000000000000",
        "nonce": "0x1ed",
        "chainId": "0x515"
      },
      "additionalContracts": [],
      "isFixedGasLimit": false
    },
    {
      "hash": "0xc850b3e5d275fbf594ad78eda31ca78262bd03488e2a8a472bd65b1fbd808ec3",
      "transactionType": "CALL",
      "contractName": null,
      "contractAddress": "0x00b036b58a818b1bc34d502d3fe730db729e62ac",
      "function": "initialize((address,address,uint24,int24,address),uint160)",
      "arguments": [
        "(0x4430a357cFFDdB3dd74E5ebcbB44828A841dd538, 0x535dB1C9866b3bb692FAA48f70df95F78005Ed16, 3000, 60, 0x6127Fe036B9cd6435404E56365f904167298C640)",
        "79228162514264337593543950336"
      ],
      "transaction": {
        "from": "0xc5b7b574ee84a9b59b475fe32eaf908c246d3859",
        "to": "0x00b036b58a818b1bc34d502d3fe730db729e62ac",
        "gas": "0x11721",
        "value": "0x0",
        "input": "0x6276cbbe0000000000000000000000004430a357cffddb3dd74e5ebcbb44828a841dd538000000000000000000000000535db1c9866b3bb692faa48f70df95f78005ed160000000000000000000000000000000000000000000000000000000000000bb8000000000000000000000000000000000000000000000000000000000000003c0000000000000000000000006127fe036b9cd6435404e56365f904167298c6400000000000000000000000000000000000000001000000000000000000000000",
        "nonce": "0x1ee",
        "chainId": "0x515"
      },
      "additionalContracts": [],
      "isFixedGasLimit": false
    },
    {
      "hash": "0xebbcc5274e6633aeea35a8d22d86873e611190f6fd53fd466c18ab8a3865876e",
      "transactionType": "CALL",
      "contractName": "TestToken",
      "contractAddress": "0x4430a357cffddb3dd74e5ebcbb44828a841dd538",
      "function": "approve(address,uint256)",
      "arguments": [
        "0x5fa728C0A5cfd51BEe4B060773f50554c0C8A7AB",
        "10000000000000000000000"
      ],
      "transaction": {
        "from": "0xc5b7b574ee84a9b59b475fe32eaf908c246d3859",
        "to": "0x4430a357cffddb3dd74e5ebcbb44828a841dd538",
        "gas": "0xa777",
        "value": "0x0",
        "input": "0x095ea7b30000000000000000000000005fa728c0a5cfd51bee4b060773f50554c0c8a7ab00000000000000000000000000000000000000000000021e19e0c9bab2400000",
        "nonce": "0x1ef",
        "chainId": "0x515"
      },
      "additionalContracts": [],
      "isFixedGasLimit": false
    },
    {
      "hash": "0x31c55492d4bee32ce500be5f6a9cf8073c53ba22cbe7dc85e565e49146a4ecde",
      "transactionType": "CALL",
      "contractName": "TestToken",
      "contractAddress": "0x535db1c9866b3bb692faa48f70df95f78005ed16",
      "function": "approve(address,uint256)",
      "arguments": [
        "0x5fa728C0A5cfd51BEe4B060773f50554c0C8A7AB",
        "10000000000000000000000"
      ],
      "transaction": {
        "from": "0xc5b7b574ee84a9b59b475fe32eaf908c246d3859",
        "to": "0x535db1c9866b3bb692faa48f70df95f78005ed16",
        "gas": "0xfa6c",
        "value": "0x0",
        "input": "0x095ea7b30000000000000000000000005fa728c0a5cfd51bee4b060773f50554c0c8a7ab00000000000000000000000000000000000000000000021e19e0c9bab2400000",
        "nonce": "0x1f0",
        "chainId": "0x515"
      },
      "additionalContracts": [],
      "isFixedGasLimit": false
    },
    {
      "hash": "0x4603f477e5a41788bc3a3976e1f3b8d87ae2dde187eb65360a878ed377bafaed",
      "transactionType": "CALL",
      "contractName": null,
      "contractAddress": "0x5fa728c0a5cfd51bee4b060773f50554c0c8a7ab",
      "function": "modifyLiquidity((address,address,uint24,int24,address),(int24,int24,int256,bytes32),bytes)",
      "arguments": [
        "(0x4430a357cFFDdB3dd74E5ebcbB44828A841dd538, 0x535dB1C9866b3bb692FAA48f70df95F78005Ed16, 3000, 60, 0x6127Fe036B9cd6435404E56365f904167298C640)",
        "(-887220, 887220, 10000000000000000000000, 0x0000000000000000000000000000000000000000000000000000000000000000)",
        "0x"
      ],
      "transaction": {
        "from": "0xc5b7b574ee84a9b59b475fe32eaf908c246d3859",
        "to": "0x5fa728c0a5cfd51bee4b060773f50554c0c8a7ab",
        "gas": "0x75ed0",
        "value": "0x0",
        "input": "0x5a6bcfda0000000000000000000000004430a357cffddb3dd74e5ebcbb44828a841dd538000000000000000000000000535db1c9866b3bb692faa48f70df95f78005ed160000000000000000000000000000000000000000000000000000000000000bb8000000000000000000000000000000000000000000000000000000000000003c0000000000000000000000006127fe036b9cd6435404e56365f904167298c640fffffffffffffffffffffffffffffffffffffffffffffffffffffffffff2764c00000000000000000000000000000000000000000000000000000000000d89b400000000000000000000000000000000000000000000021e19e0c9bab2400000000000000000000000000000000000000000000000000000000000000000000000000000000000000000000000000000000000000000000000000000000001400000000000000000000000000000000000000000000000000000000000000000",
        "nonce": "0x1f1",
        "chainId": "0x515"
      },
      "additionalContracts": [],
      "isFixedGasLimit": false
    },
    {
      "hash": "0x9f3a8b031506984454b5631e0d03c4a50bdd97dd9828ec951d234aea172fc75d",
      "transactionType": "CALL",
      "contractName": null,
      "contractAddress": "0x00b036b58a818b1bc34d502d3fe730db729e62ac",
      "function": "initialize((address,address,uint24,int24,address),uint160)",
      "arguments": [
        "(0x20bd9fE1b5fF98729993D13514360DB6a7461Ac4, 0x4430a357cFFDdB3dd74E5ebcbB44828A841dd538, 3000, 60, 0x6127Fe036B9cd6435404E56365f904167298C640)",
        "79228162514264337593543950336"
      ],
      "transaction": {
        "from": "0xc5b7b574ee84a9b59b475fe32eaf908c246d3859",
        "to": "0x00b036b58a818b1bc34d502d3fe730db729e62ac",
        "gas": "0x11721",
        "value": "0x0",
        "input": "0x6276cbbe00000000000000000000000020bd9fe1b5ff98729993d13514360db6a7461ac40000000000000000000000004430a357cffddb3dd74e5ebcbb44828a841dd5380000000000000000000000000000000000000000000000000000000000000bb8000000000000000000000000000000000000000000000000000000000000003c0000000000000000000000006127fe036b9cd6435404e56365f904167298c6400000000000000000000000000000000000000001000000000000000000000000",
        "nonce": "0x1f2",
        "chainId": "0x515"
      },
      "additionalContracts": [],
      "isFixedGasLimit": false
    },
    {
      "hash": "0x0651eb291161dd2f39e474592909be8f0d54744e53551a4594163ab4d7884f8a",
      "transactionType": "CALL",
      "contractName": "TestToken",
      "contractAddress": "0x20bd9fe1b5ff98729993d13514360db6a7461ac4",
      "function": "approve(address,uint256)",
      "arguments": [
        "0x5fa728C0A5cfd51BEe4B060773f50554c0C8A7AB",
        "10000000000000000000000"
      ],
      "transaction": {
        "from": "0xc5b7b574ee84a9b59b475fe32eaf908c246d3859",
        "to": "0x20bd9fe1b5ff98729993d13514360db6a7461ac4",
        "gas": "0xfa6c",
        "value": "0x0",
        "input": "0x095ea7b30000000000000000000000005fa728c0a5cfd51bee4b060773f50554c0c8a7ab00000000000000000000000000000000000000000000021e19e0c9bab2400000",
        "nonce": "0x1f3",
        "chainId": "0x515"
      },
      "additionalContracts": [],
      "isFixedGasLimit": false
    },
    {
      "hash": "0xff7108d71f76269c84b1035e05cc2993541f1caed70dbb25cdb5ba4b7c1d98eb",
      "transactionType": "CALL",
      "contractName": "TestToken",
      "contractAddress": "0x4430a357cffddb3dd74e5ebcbb44828a841dd538",
      "function": "approve(address,uint256)",
      "arguments": [
        "0x5fa728C0A5cfd51BEe4B060773f50554c0C8A7AB",
        "10000000000000000000000"
      ],
      "transaction": {
        "from": "0xc5b7b574ee84a9b59b475fe32eaf908c246d3859",
        "to": "0x4430a357cffddb3dd74e5ebcbb44828a841dd538",
        "gas": "0xa777",
        "value": "0x0",
        "input": "0x095ea7b30000000000000000000000005fa728c0a5cfd51bee4b060773f50554c0c8a7ab00000000000000000000000000000000000000000000021e19e0c9bab2400000",
        "nonce": "0x1f4",
        "chainId": "0x515"
      },
      "additionalContracts": [],
      "isFixedGasLimit": false
    },
    {
      "hash": "0x39cbf0f26b7e1c012d00573f17e68fb2221e5f3018282be630613a4cfc403789",
      "transactionType": "CALL",
      "contractName": null,
      "contractAddress": "0x5fa728c0a5cfd51bee4b060773f50554c0c8a7ab",
      "function": "modifyLiquidity((address,address,uint24,int24,address),(int24,int24,int256,bytes32),bytes)",
      "arguments": [
        "(0x20bd9fE1b5fF98729993D13514360DB6a7461Ac4, 0x4430a357cFFDdB3dd74E5ebcbB44828A841dd538, 3000, 60, 0x6127Fe036B9cd6435404E56365f904167298C640)",
        "(-887220, 887220, 10000000000000000000000, 0x0000000000000000000000000000000000000000000000000000000000000000)",
        "0x"
      ],
      "transaction": {
        "from": "0xc5b7b574ee84a9b59b475fe32eaf908c246d3859",
        "to": "0x5fa728c0a5cfd51bee4b060773f50554c0c8a7ab",
        "gas": "0x75ed0",
        "value": "0x0",
        "input": "0x5a6bcfda00000000000000000000000020bd9fe1b5ff98729993d13514360db6a7461ac40000000000000000000000004430a357cffddb3dd74e5ebcbb44828a841dd5380000000000000000000000000000000000000000000000000000000000000bb8000000000000000000000000000000000000000000000000000000000000003c0000000000000000000000006127fe036b9cd6435404e56365f904167298c640fffffffffffffffffffffffffffffffffffffffffffffffffffffffffff2764c00000000000000000000000000000000000000000000000000000000000d89b400000000000000000000000000000000000000000000021e19e0c9bab2400000000000000000000000000000000000000000000000000000000000000000000000000000000000000000000000000000000000000000000000000000000001400000000000000000000000000000000000000000000000000000000000000000",
        "nonce": "0x1f5",
        "chainId": "0x515"
      },
      "additionalContracts": [],
      "isFixedGasLimit": false
    }
  ],
  "receipts": [
    {
      "status": "0x1",
      "cumulativeGasUsed": "0x11176d",
      "logs": [
        {
          "address": "0x4430a357cffddb3dd74e5ebcbb44828a841dd538",
          "topics": [
            "0xddf252ad1be2c89b69c2b068fc378daa952ba7f163c4a11628f55a4df523b3ef",
            "0x0000000000000000000000000000000000000000000000000000000000000000",
            "0x000000000000000000000000c5b7b574ee84a9b59b475fe32eaf908c246d3859"
          ],
          "data": "0x00000000000000000000000000000000000000000000d3c21bcecceda1000000",
          "blockHash": "0xdcf3bdc7b24c654900324c09c20c69a01f5cb3f5669207f4ea25106df49c9a77",
          "blockNumber": "0x2ca4848",
          "blockTimestamp": "0x69b7f594",
          "transactionHash": "0x29005e6732f1d3440c0a3acd5a0aa6ceb2557d5f317a1201899edd79f580e447",
          "transactionIndex": "0x7",
          "logIndex": "0x5",
          "removed": false
        }
      ],
      "logsBloom": "0x00000000000000000000000000000000001000000000000000000000000000000000000000000000000000000000000000000000000000000000000000000000000000000000000000000008000000000000000000000000000000000000000000000000020002000000000000000800000000000000000000000010000000000000000000000000000000000000000000000000000000000080000000000000000000000000000000000000000000004000000000000000000000000000000000080002000000000000000000000000000000000000000000000000000020000000000000000000000000000000000000000000000000100000000000000000",
      "type": "0x2",
      "transactionHash": "0x29005e6732f1d3440c0a3acd5a0aa6ceb2557d5f317a1201899edd79f580e447",
      "transactionIndex": "0x7",
      "blockHash": "0xdcf3bdc7b24c654900324c09c20c69a01f5cb3f5669207f4ea25106df49c9a77",
      "blockNumber": "0x2ca4848",
      "gasUsed": "0x8bc19",
      "effectiveGasPrice": "0x7a121",
      "blobGasUsed": "0xabe00",
      "from": "0xc5b7b574ee84a9b59b475fe32eaf908c246d3859",
      "to": null,
      "contractAddress": "0x4430a357cffddb3dd74e5ebcbb44828a841dd538",
      "daFootprintGasScalar": "0x190",
      "l1BaseFeeScalar": "0x7d0",
      "l1BlobBaseFee": "0x1f",
      "l1BlobBaseFeeScalar": "0xdbba0",
      "l1Fee": "0xc23d",
      "l1GasPrice": "0xb",
      "l1GasUsed": "0x6e01"
    },
    {
      "status": "0x1",
      "cumulativeGasUsed": "0xe168d",
      "logs": [
        {
          "address": "0xe203b49766096199e48969e5a0e6ad4a77338bea",
          "topics": [
            "0xddf252ad1be2c89b69c2b068fc378daa952ba7f163c4a11628f55a4df523b3ef",
            "0x0000000000000000000000000000000000000000000000000000000000000000",
            "0x000000000000000000000000c5b7b574ee84a9b59b475fe32eaf908c246d3859"
          ],
          "data": "0x00000000000000000000000000000000000000000000d3c21bcecceda1000000",
          "blockHash": "0x0000000000000000000000000000000000000000000000000000000000000000",
          "blockNumber": "0x2ca484b",
          "blockTimestamp": "0x69b7f597",
          "transactionHash": "0x9d268fe231a48b9c726fcd2eddfda857e59b421fe261df3d1aea81e8c96cb9d5",
          "transactionIndex": "0x5",
          "logIndex": "0x3",
          "removed": false
        }
      ],
      "logsBloom": "0x00000000000000000000000000000000000000000000000000000000000000000000000000000000000000000000000040000000000000000000000000000000000000000000000000000008000000000000000000000000000000000000000000000000020000000010000000000800000000000000000000000010000000000000000000000000000000000000000000000000000000000080000000000000000000000000000000000000000000004000000000000000000000000000000000080002000000000000000000000000000400000000000000000000000020000000000000000000000000000000000000000000000000000000000000000000",
      "type": "0x2",
      "transactionHash": "0x9d268fe231a48b9c726fcd2eddfda857e59b421fe261df3d1aea81e8c96cb9d5",
      "transactionIndex": "0x5",
      "blockHash": "0x0000000000000000000000000000000000000000000000000000000000000000",
      "blockNumber": "0x2ca484b",
      "gasUsed": "0x8bc3d",
      "effectiveGasPrice": "0x7a121",
      "blobGasUsed": "0xac8f0",
      "from": "0xc5b7b574ee84a9b59b475fe32eaf908c246d3859",
      "to": null,
      "contractAddress": "0xe203b49766096199e48969e5a0e6ad4a77338bea",
      "daFootprintGasScalar": "0x190",
      "l1BaseFeeScalar": "0x7d0",
      "l1BlobBaseFee": "0x1f",
      "l1BlobBaseFeeScalar": "0xdbba0",
      "l1Fee": "0xf55",
      "l1GasPrice": "0xb",
      "l1GasUsed": "0x6e79"
    },
    {
      "status": "0x1",
      "cumulativeGasUsed": "0xb3629",
      "logs": [
        {
          "address": "0x91cef63f13f880918e03a28c8853269abdd336cb",
          "topics": [
            "0xddf252ad1be2c89b69c2b068fc378daa952ba7f163c4a11628f55a4df523b3ef",
            "0x0000000000000000000000000000000000000000000000000000000000000000",
            "0x000000000000000000000000c5b7b574ee84a9b59b475fe32eaf908c246d3859"
          ],
          "data": "0x00000000000000000000000000000000000000000000d3c21bcecceda1000000",
          "blockHash": "0x0000000000000000000000000000000000000000000000000000000000000000",
          "blockNumber": "0x2ca484f",
          "blockTimestamp": "0x69b7f59b",
          "transactionHash": "0xd08d9d3b8dfa962db970f42fb6270fb3488fd0645da4b85c49dd08c8d9872010",
          "transactionIndex": "0x3",
          "logIndex": "0x1",
          "removed": false
        }
      ],
      "logsBloom": "0x00000000000000000000000000000000000400000000000000000000000000000000000000000000000000000000000000000000000000000000000000000000000000000000000000000008000000000000000000000000000000000000000000000000020080000000000000000800000000000000000000000010000000000000000000000000000000000000000000000000000000000080000000000000000000000000000000000000000000004000000000000000000000000100000000080002000000000000000000000000000000000000000000000000000020000000000000000000000000000000000000000000000000000000000000000000",
      "type": "0x2",
      "transactionHash": "0xd08d9d3b8dfa962db970f42fb6270fb3488fd0645da4b85c49dd08c8d9872010",
      "transactionIndex": "0x3",
      "blockHash": "0x0000000000000000000000000000000000000000000000000000000000000000",
      "blockNumber": "0x2ca484f",
      "gasUsed": "0x8bc31",
      "effectiveGasPrice": "0x7a121",
      "blobGasUsed": "0xac760",
      "from": "0xc5b7b574ee84a9b59b475fe32eaf908c246d3859",
      "to": null,
      "contractAddress": "0x91cef63f13f880918e03a28c8853269abdd336cb",
      "daFootprintGasScalar": "0x190",
      "l1BaseFeeScalar": "0x7d0",
      "l1BlobBaseFee": "0x21",
      "l1BlobBaseFeeScalar": "0xdbba0",
      "l1Fee": "0x104f",
      "l1GasPrice": "0xb",
      "l1GasUsed": "0x6e6c"
    },
    {
      "status": "0x1",
      "cumulativeGasUsed": "0xe414e",
      "logs": [
        {
          "address": "0x6e71c0c66f826101b1828e07746ace5204c73205",
          "topics": [
            "0xddf252ad1be2c89b69c2b068fc378daa952ba7f163c4a11628f55a4df523b3ef",
            "0x0000000000000000000000000000000000000000000000000000000000000000",
            "0x000000000000000000000000c5b7b574ee84a9b59b475fe32eaf908c246d3859"
          ],
          "data": "0x00000000000000000000000000000000000000000000d3c21bcecceda1000000",
          "blockHash": "0x0000000000000000000000000000000000000000000000000000000000000000",
          "blockNumber": "0x2ca4854",
          "blockTimestamp": "0x69b7f5a0",
          "transactionHash": "0x6546743bea9f8bb2efcf2620c0832db1de2e1f823068a22aaf50b5ca946aaf02",
          "transactionIndex": "0x5",
          "logIndex": "0x4",
          "removed": false
        }
      ],
      "logsBloom": "0x00000000000000000000000000000000000000000000000000000000000000000000000000000000000000000000000000000000000000000000000000000000000000000000000000000008000000000000000000000000000000000020000000000000020000000000000000000800000000000000000000000010000000200000000000000000000000000000000000000000000000000080000000000000000000000000000000000000000000004000000000000000000000000000000000080002000000000000000000000000000000000000080000000000000020000000000000000000000000000000000000000000000000000000000000000000",
      "type": "0x2",
      "transactionHash": "0x6546743bea9f8bb2efcf2620c0832db1de2e1f823068a22aaf50b5ca946aaf02",
      "transactionIndex": "0x5",
      "blockHash": "0x0000000000000000000000000000000000000000000000000000000000000000",
      "blockNumber": "0x2ca4854",
      "gasUsed": "0x8bc49",
      "effectiveGasPrice": "0x7a121",
      "blobGasUsed": "0xaca80",
      "from": "0xc5b7b574ee84a9b59b475fe32eaf908c246d3859",
      "to": null,
      "contractAddress": "0x6e71c0c66f826101b1828e07746ace5204c73205",
      "daFootprintGasScalar": "0x190",
      "l1BaseFeeScalar": "0x7d0",
      "l1BlobBaseFee": "0x21",
      "l1BlobBaseFeeScalar": "0xdbba0",
      "l1Fee": "0x104f",
      "l1GasPrice": "0xb",
      "l1GasUsed": "0x6e86"
    },
    {
      "status": "0x1",
      "cumulativeGasUsed": "0xb3611",
      "logs": [
        {
          "address": "0x535db1c9866b3bb692faa48f70df95f78005ed16",
          "topics": [
            "0xddf252ad1be2c89b69c2b068fc378daa952ba7f163c4a11628f55a4df523b3ef",
            "0x0000000000000000000000000000000000000000000000000000000000000000",
            "0x000000000000000000000000c5b7b574ee84a9b59b475fe32eaf908c246d3859"
          ],
          "data": "0x00000000000000000000000000000000000000000000d3c21bcecceda1000000",
          "blockHash": "0x0000000000000000000000000000000000000000000000000000000000000000",
          "blockNumber": "0x2ca4858",
          "blockTimestamp": "0x69b7f5a4",
          "transactionHash": "0x5ee72d782eef727627b4bafe9999523524412fa2befafb7104cd450166e53c7d",
          "transactionIndex": "0x3",
          "logIndex": "0x1",
          "removed": false
        }
      ],
      "logsBloom": "0x00000000000000000000000000000000000000008000000000000000000000000000000000000000000080000000000000000000000000000000000000000000000000000000000000000008000000000000000000000000000000000000000000000000020000000000000000000800000000000000000000000010000000000004000000000000000000000000000000000000000000000080000000000000000000000000000000000000000000004000000000000000000000000000000000080002000000000000000000000000000000000000000000000000000020000000000000000000000000000000000000000000000000000000000000000000",
      "type": "0x2",
      "transactionHash": "0x5ee72d782eef727627b4bafe9999523524412fa2befafb7104cd450166e53c7d",
      "transactionIndex": "0x3",
      "blockHash": "0x0000000000000000000000000000000000000000000000000000000000000000",
      "blockNumber": "0x2ca4858",
      "gasUsed": "0x8bc19",
      "effectiveGasPrice": "0x7a121",
      "blobGasUsed": "0xac5d0",
      "from": "0xc5b7b574ee84a9b59b475fe32eaf908c246d3859",
      "to": null,
      "contractAddress": "0x535db1c9866b3bb692faa48f70df95f78005ed16",
      "daFootprintGasScalar": "0x190",
      "l1BaseFeeScalar": "0x7d0",
      "l1BlobBaseFee": "0x21",
      "l1BlobBaseFeeScalar": "0xdbba0",
      "l1Fee": "0x104f",
      "l1GasPrice": "0xb",
      "l1GasUsed": "0x6e51"
    },
    {
      "status": "0x1",
      "cumulativeGasUsed": "0x193d36",
      "logs": [
        {
          "address": "0x20bd9fe1b5ff98729993d13514360db6a7461ac4",
          "topics": [
            "0xddf252ad1be2c89b69c2b068fc378daa952ba7f163c4a11628f55a4df523b3ef",
            "0x0000000000000000000000000000000000000000000000000000000000000000",
            "0x000000000000000000000000c5b7b574ee84a9b59b475fe32eaf908c246d3859"
          ],
          "data": "0x00000000000000000000000000000000000000000000d3c21bcecceda1000000",
          "blockHash": "0x514cf4127e64bfb5dff7255143940abfb93fb0f4bfea57a7c72b84edb34708a3",
          "blockNumber": "0x2ca485b",
          "blockTimestamp": "0x69b7f5a7",
          "transactionHash": "0x734cbd0fe77cdf47e5e7d70332af9fa0716286317181ef342b012a33e174a10d",
          "transactionIndex": "0x8",
          "logIndex": "0xe",
          "removed": false
        }
      ],
      "logsBloom": "0x000000000000000000000000000000000000000001000000000000000000000000000000000000000000000000000000000000000000000000000000000000000000000000000000000000080000000000000000000000000000000000000000000000000200000000000000000008000000000000000000000000100000000000000000000000000000000000000000000000000000000000a0000000000000000000000000000000000000000000004000000000000000000000000000000000080002000000000000000000000000000200000000000000000000000020000000000000000000000000000000000000000000000000000000000000000000",
      "type": "0x2",
      "transactionHash": "0x734cbd0fe77cdf47e5e7d70332af9fa0716286317181ef342b012a33e174a10d",
      "transactionIndex": "0x8",
      "blockHash": "0x514cf4127e64bfb5dff7255143940abfb93fb0f4bfea57a7c72b84edb34708a3",
      "blockNumber": "0x2ca485b",
      "gasUsed": "0x8bc31",
      "effectiveGasPrice": "0x7a121",
      "blobGasUsed": "0xac760",
      "from": "0xc5b7b574ee84a9b59b475fe32eaf908c246d3859",
      "to": null,
      "contractAddress": "0x20bd9fe1b5ff98729993d13514360db6a7461ac4",
      "daFootprintGasScalar": "0x190",
      "l1BaseFeeScalar": "0x7d0",
      "l1BlobBaseFee": "0x24",
      "l1BlobBaseFeeScalar": "0xdbba0",
      "l1Fee": "0xe1d0",
      "l1GasPrice": "0xa",
      "l1GasUsed": "0x6e6c"
    },
    {
      "status": "0x1",
      "cumulativeGasUsed": "0x5ac58",
      "logs": [],
      "logsBloom": "0x00000000000000000000000000000000000000000000000000000000000000000000000000000000000000000000000000000000000000000000000000000000000000000000000000000000000000000000000000000000000000000000000000000000000000000000000000000000000000000000000000000000000000000000000000000000000000000000000000000000000000000000000000000000000000000000000000000000000000000000000000000000000000000000000000000000000000000000000000000000000000000000000000000000000000000000000000000000000000000000000000000000000000000000000000000000",
      "type": "0x2",
      "transactionHash": "0x9ac2b05e93a774c0e8b92f1be54e3e8da86d5994529a080cb30ffa2564143e0b",
      "transactionIndex": "0x5",
      "blockHash": "0xe6749d902478a8450c5504d40188101d6d730f4d9cee2aedf2b46ccde6f0d828",
      "blockNumber": "0x2ca485f",
      "gasUsed": "0x5208",
      "effectiveGasPrice": "0x7a121",
      "blobGasUsed": "0x9c40",
      "from": "0xc5b7b574ee84a9b59b475fe32eaf908c246d3859",
      "to": "0xdae6cf499756455de55eaad590d59609870e1a3c",
      "contractAddress": null,
      "daFootprintGasScalar": "0x190",
      "l1BaseFeeScalar": "0x7d0",
      "l1BlobBaseFee": "0x24",
      "l1BlobBaseFeeScalar": "0xdbba0",
      "l1Fee": "0xcc8",
      "l1GasPrice": "0xa",
      "l1GasUsed": "0x640"
    },
    {
      "status": "0x1",
      "cumulativeGasUsed": "0x62893",
      "logs": [],
      "logsBloom": "0x00000000000000000000000000000000000000000000000000000000000000000000000000000000000000000000000000000000000000000000000000000000000000000000000000000000000000000000000000000000000000000000000000000000000000000000000000000000000000000000000000000000000000000000000000000000000000000000000000000000000000000000000000000000000000000000000000000000000000000000000000000000000000000000000000000000000000000000000000000000000000000000000000000000000000000000000000000000000000000000000000000000000000000000000000000000",
      "type": "0x2",
      "transactionHash": "0x3064cd45923b07c2e64d45bbaf8c0553556b825156bd2719305999368920e562",
      "transactionIndex": "0x5",
      "blockHash": "0x0000000000000000000000000000000000000000000000000000000000000000",
      "blockNumber": "0x2ca4863",
      "gasUsed": "0x5208",
      "effectiveGasPrice": "0x7a121",
      "blobGasUsed": "0x9c40",
      "from": "0xc5b7b574ee84a9b59b475fe32eaf908c246d3859",
      "to": "0xca093b5e50df91117440f9dfd1542b8f42075d67",
      "contractAddress": null,
      "daFootprintGasScalar": "0x190",
      "l1BaseFeeScalar": "0x7d0",
      "l1BlobBaseFee": "0x24",
      "l1BlobBaseFeeScalar": "0xdbba0",
      "l1Fee": "0x11a6",
      "l1GasPrice": "0xa",
      "l1GasUsed": "0x640"
    },
    {
      "status": "0x1",
      "cumulativeGasUsed": "0x5ac64",
      "logs": [],
      "logsBloom": "0x00000000000000000000000000000000000000000000000000000000000000000000000000000000000000000000000000000000000000000000000000000000000000000000000000000000000000000000000000000000000000000000000000000000000000000000000000000000000000000000000000000000000000000000000000000000000000000000000000000000000000000000000000000000000000000000000000000000000000000000000000000000000000000000000000000000000000000000000000000000000000000000000000000000000000000000000000000000000000000000000000000000000000000000000000000000",
      "type": "0x2",
      "transactionHash": "0xc4b29549db2c2aff747e6e8ccaef103dfd49caba4783944489bb23fd75ff65ca",
      "transactionIndex": "0x5",
      "blockHash": "0x60c6d2099aa3a4ecc0dab37e73f249d406a549a348a3fa7d79e94ab4a600235b",
      "blockNumber": "0x2ca4868",
      "gasUsed": "0x5208",
      "effectiveGasPrice": "0x7a121",
      "blobGasUsed": "0x9c40",
      "from": "0xc5b7b574ee84a9b59b475fe32eaf908c246d3859",
      "to": "0x6da90fd521d6cff9d373204038459addca260f2a",
      "contractAddress": null,
      "daFootprintGasScalar": "0x190",
      "l1BaseFeeScalar": "0x7d0",
      "l1BlobBaseFee": "0x27",
      "l1BlobBaseFeeScalar": "0xdbba0",
      "l1Fee": "0xdd6",
      "l1GasPrice": "0xa",
      "l1GasUsed": "0x640"
    },
    {
      "status": "0x1",
      "cumulativeGasUsed": "0x43c32",
      "logs": [],
      "logsBloom": "0x00000000000000000000000000000000000000000000000000000000000000000000000000000000000000000000000000000000000000000000000000000000000000000000000000000000000000000000000000000000000000000000000000000000000000000000000000000000000000000000000000000000000000000000000000000000000000000000000000000000000000000000000000000000000000000000000000000000000000000000000000000000000000000000000000000000000000000000000000000000000000000000000000000000000000000000000000000000000000000000000000000000000000000000000000000000",
      "type": "0x2",
      "transactionHash": "0xfea52aff7c745ad20db60d479df2e3e26cfaea060624a40159fb5277b05d1bd6",
      "transactionIndex": "0x4",
      "blockHash": "0x0000000000000000000000000000000000000000000000000000000000000000",
      "blockNumber": "0x2ca486c",
      "gasUsed": "0x5208",
      "effectiveGasPrice": "0x7a121",
      "blobGasUsed": "0x9c40",
      "from": "0xc5b7b574ee84a9b59b475fe32eaf908c246d3859",
      "to": "0x699507c6aeb4268ff4dc05721c803dbe466cec6f",
      "contractAddress": null,
      "daFootprintGasScalar": "0x190",
      "l1BaseFeeScalar": "0x7d0",
      "l1BlobBaseFee": "0x27",
      "l1BlobBaseFeeScalar": "0xdbba0",
      "l1Fee": "0x1339",
      "l1GasPrice": "0xa",
      "l1GasUsed": "0x640"
    },
    {
      "status": "0x1",
      "cumulativeGasUsed": "0x43c32",
      "logs": [],
      "logsBloom": "0x00000000000000000000000000000000000000000000000000000000000000000000000000000000000000000000000000000000000000000000000000000000000000000000000000000000000000000000000000000000000000000000000000000000000000000000000000000000000000000000000000000000000000000000000000000000000000000000000000000000000000000000000000000000000000000000000000000000000000000000000000000000000000000000000000000000000000000000000000000000000000000000000000000000000000000000000000000000000000000000000000000000000000000000000000000000",
      "type": "0x2",
      "transactionHash": "0x069097a9dcab9a70c48e10e88ae89a677327f841ee517338b08fd6de8e428467",
      "transactionIndex": "0x4",
      "blockHash": "0x0000000000000000000000000000000000000000000000000000000000000000",
      "blockNumber": "0x2ca4870",
      "gasUsed": "0x5208",
      "effectiveGasPrice": "0x7a121",
      "blobGasUsed": "0x9c40",
      "from": "0xc5b7b574ee84a9b59b475fe32eaf908c246d3859",
      "to": "0x079bb29d652294b01f4bdf86bb318277e0892e14",
      "contractAddress": null,
      "daFootprintGasScalar": "0x190",
      "l1BaseFeeScalar": "0x7d0",
      "l1BlobBaseFee": "0x27",
      "l1BlobBaseFeeScalar": "0xdbba0",
      "l1Fee": "0x1339",
      "l1GasPrice": "0xa",
      "l1GasUsed": "0x640"
    },
    {
      "status": "0x1",
      "cumulativeGasUsed": "0x11ded4",
      "logs": [
        {
          "address": "0x6127fe036b9cd6435404e56365f904167298c640",
          "topics": [
            "0xa9607daa15b38519ee13f233d15e0ce03053729aa1f43ef57d862b7ea6a6967a",
            "0x000000000000000000000000dae6cf499756455de55eaad590d59609870e1a3c",
            "0x000000000000000000000000e203b49766096199e48969e5a0e6ad4a77338bea",
            "0xc57ed45faa8ec4cf84a451c3f6d9e2418128bc0e8ee2a3c987b391d76c7c88a6"
          ],
          "data": "0x",
          "blockHash": "0x3d1292bae48a0197495844444293606b944b0e2e872f2d8aadc918cb9fab1154",
          "blockNumber": "0x2ca4871",
          "blockTimestamp": "0x69b7f5bd",
          "transactionHash": "0x6f69e5bc2b69b0fd43c966624b32ad5d8bb3c0dd0207cc6c629f72d8e39385b6",
          "transactionIndex": "0x6",
          "logIndex": "0xa",
          "removed": false
        }
      ],
      "logsBloom": "0x00000000000000008000000000000000000000000000000000000000000000000000000000000000000000000000000000000000000010000000000000000000000000000000000040000000000000000000000000080000000000000000000000010000000080000000000000000000000000000000000000000000000000000000000000000000000040000000000000000000000000000000800000001000000000000000000000000000000000000000000000000000800000000000000000000000000000000000000000000000000000000000200000000000000000000000080000400000000000000000000000000000000a00000000000000000000",
      "type": "0x2",
      "transactionHash": "0x6f69e5bc2b69b0fd43c966624b32ad5d8bb3c0dd0207cc6c629f72d8e39385b6",
      "transactionIndex": "0x6",
      "blockHash": "0x3d1292bae48a0197495844444293606b944b0e2e872f2d8aadc918cb9fab1154",
      "blockNumber": "0x2ca4871",
      "gasUsed": "0x4a398",
      "effectiveGasPrice": "0x7a121",
      "blobGasUsed": "0xf230",
      "from": "0xdae6cf499756455de55eaad590d59609870e1a3c",
      "to": "0x6127fe036b9cd6435404e56365f904167298c640",
      "contractAddress": null,
      "daFootprintGasScalar": "0x190",
      "l1BaseFeeScalar": "0x7d0",
      "l1BlobBaseFee": "0x27",
      "l1BlobBaseFeeScalar": "0xdbba0",
      "l1Fee": "0x1589",
      "l1GasPrice": "0xa",
      "l1GasUsed": "0x9ba"
    },
    {
      "status": "0x1",
      "cumulativeGasUsed": "0xb6e0e",
      "logs": [
        {
          "address": "0x6127fe036b9cd6435404e56365f904167298c640",
          "topics": [
            "0xa9607daa15b38519ee13f233d15e0ce03053729aa1f43ef57d862b7ea6a6967a",
            "0x000000000000000000000000ca093b5e50df91117440f9dfd1542b8f42075d67",
            "0x00000000000000000000000091cef63f13f880918e03a28c8853269abdd336cb",
            "0x280d541a4a54702cb9cbac2c2b5679af780dafc8fe350a422a2812d4a5eb4b9d"
          ],
          "data": "0x",
          "blockHash": "0x6f5773dafa02fcf87597429b1770e3cf3832d2d92b949738402213a8bed73f05",
          "blockNumber": "0x2ca4872",
          "blockTimestamp": "0x69b7f5be",
          "transactionHash": "0xa08c9faad10b7b8cec62498b51e112d726b09369a33a9b6cba813e17dc070298",
          "transactionIndex": "0x6",
          "logIndex": "0x4",
          "removed": false
        }
      ],
      "logsBloom": "0x00000000000000000000010000000000000000000000000000000000000000200000000000000000000000000000000000000000000000000000000000000000000000400000000040000000000000000000000000000000000000000000000000010000000080000000000000000000000000000000000000000000000000000000000000000000000000000000000000008000000000000000001000001000000000000000000000000000000000000000000000000000000000000010000000000000000000000000000000000000000000000000000000000000000000000000090000000000000000000000000000000004002200000000000000000000",
      "type": "0x2",
      "transactionHash": "0xa08c9faad10b7b8cec62498b51e112d726b09369a33a9b6cba813e17dc070298",
      "transactionIndex": "0x6",
      "blockHash": "0x6f5773dafa02fcf87597429b1770e3cf3832d2d92b949738402213a8bed73f05",
      "blockNumber": "0x2ca4872",
      "gasUsed": "0x4a38c",
      "effectiveGasPrice": "0x7a121",
      "blobGasUsed": "0xef10",
      "from": "0xca093b5e50df91117440f9dfd1542b8f42075d67",
      "to": "0x6127fe036b9cd6435404e56365f904167298c640",
      "contractAddress": null,
      "daFootprintGasScalar": "0x190",
      "l1BaseFeeScalar": "0x7d0",
      "l1BlobBaseFee": "0x27",
      "l1BlobBaseFeeScalar": "0xdbba0",
      "l1Fee": "0x154e",
      "l1GasPrice": "0xa",
      "l1GasUsed": "0x99f"
    },
    {
      "status": "0x1",
      "cumulativeGasUsed": "0xefc7a",
      "logs": [
        {
          "address": "0x6127fe036b9cd6435404e56365f904167298c640",
          "topics": [
            "0xa9607daa15b38519ee13f233d15e0ce03053729aa1f43ef57d862b7ea6a6967a",
            "0x0000000000000000000000006da90fd521d6cff9d373204038459addca260f2a",
            "0x0000000000000000000000006e71c0c66f826101b1828e07746ace5204c73205",
            "0xc6a5614ad2136d9a8390e26133f8698949fc8a075b3a799dce8da5a54d64127e"
          ],
          "data": "0x",
          "blockHash": "0x90c61c326b5268ff9b9cd9d1e14906a4a9376c49345f287b553f4db82ce5e58f",
          "blockNumber": "0x2ca4873",
          "blockTimestamp": "0x69b7f5bf",
          "transactionHash": "0x84ec84dbc429e347c3acea1f010a8ebc9058d4ee942e8a8798113c545f3e7ce3",
          "transactionIndex": "0x8",
          "logIndex": "0x7",
          "removed": false
        }
      ],
      "logsBloom": "0x00000000000000000400000000000000000000000000000000020000000000000000000000000000000000000000000000000000000000000000000000000000000000000000000040000000000000000000004000001000000000000000000000010000000080000000000000000000000000000000000000000000008000000000000000000000000000000000000800000000000000400000000000001000000000000000000000000000000000000000000000000000000000000000000000000000000000000000000000000000000000000000000000000000000000000000080000000000000200000040000000000000000200000000000000000000",
      "type": "0x2",
      "transactionHash": "0x84ec84dbc429e347c3acea1f010a8ebc9058d4ee942e8a8798113c545f3e7ce3",
      "transactionIndex": "0x8",
      "blockHash": "0x90c61c326b5268ff9b9cd9d1e14906a4a9376c49345f287b553f4db82ce5e58f",
      "blockNumber": "0x2ca4873",
      "gasUsed": "0x4a38c",
      "effectiveGasPrice": "0x7a121",
      "blobGasUsed": "0xef10",
      "from": "0x6da90fd521d6cff9d373204038459addca260f2a",
      "to": "0x6127fe036b9cd6435404e56365f904167298c640",
      "contractAddress": null,
      "daFootprintGasScalar": "0x190",
      "l1BaseFeeScalar": "0x7d0",
      "l1BlobBaseFee": "0x2a",
      "l1BlobBaseFeeScalar": "0xdbba0",
      "l1Fee": "0x16ee",
      "l1GasPrice": "0xa",
      "l1GasUsed": "0x99f"
    },
    {
      "status": "0x1",
      "cumulativeGasUsed": "0x71d84",
      "logs": [
        {
          "address": "0x6127fe036b9cd6435404e56365f904167298c640",
          "topics": [
            "0xa9607daa15b38519ee13f233d15e0ce03053729aa1f43ef57d862b7ea6a6967a",
            "0x000000000000000000000000699507c6aeb4268ff4dc05721c803dbe466cec6f",
            "0x000000000000000000000000535db1c9866b3bb692faa48f70df95f78005ed16",
            "0x37fd0989c288274095bbb5fc81b82b93c8737bb12f5d7c58fd41010527a1217d"
          ],
          "data": "0x",
          "blockHash": "0x0000000000000000000000000000000000000000000000000000000000000000",
          "blockNumber": "0x2ca4875",
          "blockTimestamp": "0x69b7f5c1",
          "transactionHash": "0x3cdd129a10c16a19cec223b8f6e36bdbe6741b5429b58d4b563990f307bdf9ea",
          "transactionIndex": "0x3",
          "logIndex": "0x1",
          "removed": false
        }
      ],
      "logsBloom": "0x00010000000000000000000000000000000000000000000000000000000000000000000000000000000000000000000000000080000000000000000100000000000000000000000040000000000000000000000000000000000000000000000000010000000080000000000000020000000000000200000000000000000000000000000000000000000000040000000000000000000000000000000000081000000000000000000000000000000000000000000000000000000000000000000000000000000000000000000000000000000000000000000000000000010000000000080000000000000000001000000000000000000200000000000000000000",
      "type": "0x2",
      "transactionHash": "0x3cdd129a10c16a19cec223b8f6e36bdbe6741b5429b58d4b563990f307bdf9ea",
      "transactionIndex": "0x3",
      "blockHash": "0x0000000000000000000000000000000000000000000000000000000000000000",
      "blockNumber": "0x2ca4875",
      "gasUsed": "0x4a38c",
      "effectiveGasPrice": "0x7a121",
      "blobGasUsed": "0xdf70",
      "from": "0x699507c6aeb4268ff4dc05721c803dbe466cec6f",
      "to": "0x6127fe036b9cd6435404e56365f904167298c640",
      "contractAddress": null,
      "daFootprintGasScalar": "0x190",
      "l1BaseFeeScalar": "0x7d0",
      "l1BlobBaseFee": "0x2a",
      "l1BlobBaseFeeScalar": "0xdbba0",
      "l1Fee": "0x14b0",
      "l1GasPrice": "0xa",
      "l1GasUsed": "0x8f1"
    },
    {
      "status": "0x1",
      "cumulativeGasUsed": "0x71d84",
      "logs": [
        {
          "address": "0x6127fe036b9cd6435404e56365f904167298c640",
          "topics": [
            "0xa9607daa15b38519ee13f233d15e0ce03053729aa1f43ef57d862b7ea6a6967a",
            "0x000000000000000000000000079bb29d652294b01f4bdf86bb318277e0892e14",
            "0x00000000000000000000000020bd9fe1b5ff98729993d13514360db6a7461ac4",
            "0x92fdced8b28f5d586222dbbff0e5665122443c30a2cfb61893a28ba4df1e1b42"
          ],
          "data": "0x",
          "blockHash": "0x0000000000000000000000000000000000000000000000000000000000000000",
          "blockNumber": "0x2ca4876",
          "blockTimestamp": "0x69b7f5c2",
          "transactionHash": "0xa73ecf8b85179d31ecfaf8e0f72dfb4fd694d0e54f33a2bae81737de233bdad5",
          "transactionIndex": "0x3",
          "logIndex": "0x1",
          "removed": false
        }
      ],
      "logsBloom": "0x00000000000000000000000000000000000000000000000000000000000000000000000000000000000000000000001000000000000000000000080000000000000000000000000040000000000000000000000000000000000000000800000000010000000080000000000000000000000000000000000000000000000000000000000000000000000000400000000080000000000008000000000000001000000000000000008000000000000000000000000000000000000000000000000010000000000000000000000000000000000000000000000000100000000000000000080000000000000000000000000000000000000200000000000000000000",
      "type": "0x2",
      "transactionHash": "0xa73ecf8b85179d31ecfaf8e0f72dfb4fd694d0e54f33a2bae81737de233bdad5",
      "transactionIndex": "0x3",
      "blockHash": "0x0000000000000000000000000000000000000000000000000000000000000000",
      "blockNumber": "0x2ca4876",
      "gasUsed": "0x4a38c",
      "effectiveGasPrice": "0x7a121",
      "blobGasUsed": "0xef10",
      "from": "0x079bb29d652294b01f4bdf86bb318277e0892e14",
      "to": "0x6127fe036b9cd6435404e56365f904167298c640",
      "contractAddress": null,
      "daFootprintGasScalar": "0x190",
      "l1BaseFeeScalar": "0x7d0",
      "l1BlobBaseFee": "0x2a",
      "l1BlobBaseFeeScalar": "0xdbba0",
      "l1Fee": "0x14b0",
      "l1GasPrice": "0xa",
      "l1GasUsed": "0x99f"
    },
    {
      "status": "0x1",
      "cumulativeGasUsed": "0x4b440",
      "logs": [
        {
          "address": "0x00b036b58a818b1bc34d502d3fe730db729e62ac",
          "topics": [
            "0xdd466e674ea557f56295e2d0218a125ea4b4f0f6f3307b95f85e6110838d6438",
            "0xc57ed45faa8ec4cf84a451c3f6d9e2418128bc0e8ee2a3c987b391d76c7c88a6",
            "0x0000000000000000000000004430a357cffddb3dd74e5ebcbb44828a841dd538",
            "0x000000000000000000000000e203b49766096199e48969e5a0e6ad4a77338bea"
          ],
          "data": "0x0000000000000000000000000000000000000000000000000000000000000bb8000000000000000000000000000000000000000000000000000000000000003c0000000000000000000000006127fe036b9cd6435404e56365f904167298c64000000000000000000000000000000000000000010000000000000000000000000000000000000000000000000000000000000000000000000000000000000000",
          "blockHash": "0x0000000000000000000000000000000000000000000000000000000000000000",
          "blockNumber": "0x2ca4877",
          "blockTimestamp": "0x69b7f5c3",
          "transactionHash": "0x7f22b93078b8cb6557ab3c4290ff3afaa28e410665afef0a573e41d439f56738",
          "transactionIndex": "0x4",
          "logIndex": "0x2",
          "removed": false
        }
      ],
      "logsBloom": "0x00000000000000008000000000000000000000000000000000000000000000000000000000000000000002000000000000000010000010000000000000000000000000000000000000000000000000000000000000080000000000000000000000000000000000000000000000000000000000000000000000000000000000000000000000000008000000000008000000000001000000000000800000200000000000000000000000000000000000000000000000000000000000000000000000000000000000000000000000000002000000000000000000000000000000000000000000400000000000000000000000000000000802000000000000000010",
      "type": "0x2",
      "transactionHash": "0x7f22b93078b8cb6557ab3c4290ff3afaa28e410665afef0a573e41d439f56738",
      "transactionIndex": "0x4",
      "blockHash": "0x0000000000000000000000000000000000000000000000000000000000000000",
      "blockNumber": "0x2ca4877",
      "gasUsed": "0xca16",
      "effectiveGasPrice": "0x7a121",
      "blobGasUsed": "0xdde0",
      "from": "0xc5b7b574ee84a9b59b475fe32eaf908c246d3859",
      "to": "0x00b036b58a818b1bc34d502d3fe730db729e62ac",
      "contractAddress": null,
      "daFootprintGasScalar": "0x190",
      "l1BaseFeeScalar": "0x7d0",
      "l1BlobBaseFee": "0x2a",
      "l1BlobBaseFeeScalar": "0xdbba0",
      "l1Fee": "0x14b0",
      "l1GasPrice": "0xa",
      "l1GasUsed": "0x8e4"
    },
    {
      "status": "0x1",
      "cumulativeGasUsed": "0xf329d",
      "logs": [
        {
          "address": "0x4430a357cffddb3dd74e5ebcbb44828a841dd538",
          "topics": [
            "0x8c5be1e5ebec7d5bd14f71427d1e84f3dd0314c0f7b2291e5b200ac8c7c3b925",
            "0x000000000000000000000000c5b7b574ee84a9b59b475fe32eaf908c246d3859",
            "0x0000000000000000000000005fa728c0a5cfd51bee4b060773f50554c0c8a7ab"
          ],
          "data": "0x00000000000000000000000000000000000000000000021e19e0c9bab2400000",
          "blockHash": "0x0000000000000000000000000000000000000000000000000000000000000000",
          "blockNumber": "0x2ca487c",
          "blockTimestamp": "0x69b7f5c8",
          "transactionHash": "0xad5f964625373bc662aa1c026c6d262b57a183c67a73174e8d8f8a32a16529c6",
          "transactionIndex": "0x8",
          "logIndex": "0x12",
          "removed": false
        }
      ],
      "logsBloom": "0x00000000000000000000000000000000001000000000000000000000000000000000000000000000000000000000000000000000000000000000000000200000000000000000000000000000000000000000000000000000000000000000000000000000000002000000000000000000000000000000000000000000000000000000000400000000000000000000000000000000000000000080000000000000020000000000000000000000000000004000000000000000000000000000000000080000000000000000000000000000000000000000000000000000000000000010000000000000000000001000000000080000000000100000000000000000",
      "type": "0x2",
      "transactionHash": "0xad5f964625373bc662aa1c026c6d262b57a183c67a73174e8d8f8a32a16529c6",
      "transactionIndex": "0x8",
      "blockHash": "0x0000000000000000000000000000000000000000000000000000000000000000",
      "blockNumber": "0x2ca487c",
      "gasUsed": "0xb54e",
      "effectiveGasPrice": "0x7a121",
      "blobGasUsed": "0x9c40",
      "from": "0xc5b7b574ee84a9b59b475fe32eaf908c246d3859",
      "to": "0x4430a357cffddb3dd74e5ebcbb44828a841dd538",
      "contractAddress": null,
      "daFootprintGasScalar": "0x190",
      "l1BaseFeeScalar": "0x7d0",
      "l1BlobBaseFee": "0x2a",
      "l1BlobBaseFeeScalar": "0xdbba0",
      "l1Fee": "0x14b0",
      "l1GasPrice": "0xa",
      "l1GasUsed": "0x640"
    },
    {
      "status": "0x1",
      "cumulativeGasUsed": "0x32f46",
      "logs": [
        {
          "address": "0xe203b49766096199e48969e5a0e6ad4a77338bea",
          "topics": [
            "0x8c5be1e5ebec7d5bd14f71427d1e84f3dd0314c0f7b2291e5b200ac8c7c3b925",
            "0x000000000000000000000000c5b7b574ee84a9b59b475fe32eaf908c246d3859",
            "0x0000000000000000000000005fa728c0a5cfd51bee4b060773f50554c0c8a7ab"
          ],
          "data": "0x00000000000000000000000000000000000000000000021e19e0c9bab2400000",
          "blockHash": "0x0000000000000000000000000000000000000000000000000000000000000000",
          "blockNumber": "0x2ca4880",
          "blockTimestamp": "0x69b7f5cc",
          "transactionHash": "0xb4b53266ccf566fd3f3682cd61fc5348cb216965b31d77f2cf9eb73df1e493e0",
          "transactionIndex": "0x3",
          "logIndex": "0x1",
          "removed": false
        }
      ],
      "logsBloom": "0x00000000000000000000000000000000000000000000000000000000000000000000000000000000000000000000000040000000000000000000000000200000000000000000000000000000000000000000000000000000000000000000000000000000000000000010000000000000000000000000000000000000000000000000000400000000000000000000000000000000000000000080000000000000020000000000000000000000000000004000000000000000000000000000000000080000000000000000000000000000000400000000000000000000000000000010000000000000000000001000000000080000000000000000000000000000",
      "type": "0x2",
      "transactionHash": "0xb4b53266ccf566fd3f3682cd61fc5348cb216965b31d77f2cf9eb73df1e493e0",
      "transactionIndex": "0x3",
      "blockHash": "0x0000000000000000000000000000000000000000000000000000000000000000",
      "blockNumber": "0x2ca4880",
      "gasUsed": "0xb54e",
      "effectiveGasPrice": "0x7a121",
      "blobGasUsed": "0x9c40",
      "from": "0xc5b7b574ee84a9b59b475fe32eaf908c246d3859",
      "to": "0xe203b49766096199e48969e5a0e6ad4a77338bea",
      "contractAddress": null,
      "daFootprintGasScalar": "0x190",
      "l1BaseFeeScalar": "0x7d0",
      "l1BlobBaseFee": "0x2a",
      "l1BlobBaseFeeScalar": "0xdbba0",
      "l1Fee": "0x14b0",
      "l1GasPrice": "0xa",
      "l1GasUsed": "0x640"
    },
    {
      "status": "0x1",
      "cumulativeGasUsed": "0x103809",
      "logs": [
        {
          "address": "0x00b036b58a818b1bc34d502d3fe730db729e62ac",
          "topics": [
            "0xf208f4912782fd25c7f114ca3723a2d5dd6f3bcc3ac8db5af63baa85f711d5ec",
            "0xc57ed45faa8ec4cf84a451c3f6d9e2418128bc0e8ee2a3c987b391d76c7c88a6",
            "0x0000000000000000000000005fa728c0a5cfd51bee4b060773f50554c0c8a7ab"
          ],
          "data": "0xfffffffffffffffffffffffffffffffffffffffffffffffffffffffffff2764c00000000000000000000000000000000000000000000000000000000000d89b400000000000000000000000000000000000000000000021e19e0c9bab24000000000000000000000000000000000000000000000000000000000000000000000",
          "blockHash": "0xfa02e0f3bae64a488514ecce9a3e26874cf64566be68680fe6077fcc512e8d4b",
          "blockNumber": "0x2ca4883",
          "blockTimestamp": "0x69b7f5cf",
          "transactionHash": "0x1cd2d0ae1d871ce74aafc0cae5a7cdec1cf4680fc92318a64cdf46592e4a6d09",
          "transactionIndex": "0x8",
          "logIndex": "0x9",
          "removed": false
        },
        {
          "address": "0x8b1800805b478fb66bb58331662899157cec4dd4",
          "topics": [
            "0xa56e19c5f806ae66a3b7d8c0b92d13ddf628502c9b47f577580f5f6a4e1deb2a",
            "0x000000000000000000000000dae6cf499756455de55eaad590d59609870e1a3c",
            "0xc57ed45faa8ec4cf84a451c3f6d9e2418128bc0e8ee2a3c987b391d76c7c88a6"
          ],
          "data": "0x00000000000000000000000000000000000000000000021e19e0c9bab2400000",
          "blockHash": "0xfa02e0f3bae64a488514ecce9a3e26874cf64566be68680fe6077fcc512e8d4b",
          "blockNumber": "0x2ca4883",
          "blockTimestamp": "0x69b7f5cf",
          "transactionHash": "0x1cd2d0ae1d871ce74aafc0cae5a7cdec1cf4680fc92318a64cdf46592e4a6d09",
          "transactionIndex": "0x8",
          "logIndex": "0xa",
          "removed": false
        },
        {
          "address": "0x6127fe036b9cd6435404e56365f904167298c640",
          "topics": [
            "0x9fcca7d4a4fe21922427fa68ae954a11518460e4298a953677db412ad22d6f39",
            "0x000000000000000000000000dae6cf499756455de55eaad590d59609870e1a3c",
            "0xc57ed45faa8ec4cf84a451c3f6d9e2418128bc0e8ee2a3c987b391d76c7c88a6"
          ],
          "data": "0x00000000000000000000000000000000000000000000021e19e0c9bab2400000",
          "blockHash": "0xfa02e0f3bae64a488514ecce9a3e26874cf64566be68680fe6077fcc512e8d4b",
          "blockNumber": "0x2ca4883",
          "blockTimestamp": "0x69b7f5cf",
          "transactionHash": "0x1cd2d0ae1d871ce74aafc0cae5a7cdec1cf4680fc92318a64cdf46592e4a6d09",
          "transactionIndex": "0x8",
          "logIndex": "0xb",
          "removed": false
        },
        {
          "address": "0x4430a357cffddb3dd74e5ebcbb44828a841dd538",
          "topics": [
            "0xddf252ad1be2c89b69c2b068fc378daa952ba7f163c4a11628f55a4df523b3ef",
            "0x000000000000000000000000c5b7b574ee84a9b59b475fe32eaf908c246d3859",
            "0x00000000000000000000000000b036b58a818b1bc34d502d3fe730db729e62ac"
          ],
          "data": "0x00000000000000000000000000000000000000000000021e19e0c9bab23ffde1",
          "blockHash": "0xfa02e0f3bae64a488514ecce9a3e26874cf64566be68680fe6077fcc512e8d4b",
          "blockNumber": "0x2ca4883",
          "blockTimestamp": "0x69b7f5cf",
          "transactionHash": "0x1cd2d0ae1d871ce74aafc0cae5a7cdec1cf4680fc92318a64cdf46592e4a6d09",
          "transactionIndex": "0x8",
          "logIndex": "0xc",
          "removed": false
        },
        {
          "address": "0xe203b49766096199e48969e5a0e6ad4a77338bea",
          "topics": [
            "0xddf252ad1be2c89b69c2b068fc378daa952ba7f163c4a11628f55a4df523b3ef",
            "0x000000000000000000000000c5b7b574ee84a9b59b475fe32eaf908c246d3859",
            "0x00000000000000000000000000b036b58a818b1bc34d502d3fe730db729e62ac"
          ],
          "data": "0x00000000000000000000000000000000000000000000021e19e0c9bab23ffde1",
          "blockHash": "0xfa02e0f3bae64a488514ecce9a3e26874cf64566be68680fe6077fcc512e8d4b",
          "blockNumber": "0x2ca4883",
          "blockTimestamp": "0x69b7f5cf",
          "transactionHash": "0x1cd2d0ae1d871ce74aafc0cae5a7cdec1cf4680fc92318a64cdf46592e4a6d09",
          "transactionIndex": "0x8",
          "logIndex": "0xd",
          "removed": false
        }
      ],
      "logsBloom": "0x00000000000004000000000000000000001000000000000000000000000000000000000000000000000000000000000040000000001010000000000000000000000000000001000000000008000000000000000000090000000000000000000000000000000002000010000000004000000000000000000000000010000000000000000401000000000040000008040000000000000000000080000200001000000004000000000000000000000000004000000000000020800000000000400000080002000000000000000000000000002400000000202000000000000000000000080010000000000000001000000004080000000a02100000000000000010",
      "type": "0x2",
      "transactionHash": "0x1cd2d0ae1d871ce74aafc0cae5a7cdec1cf4680fc92318a64cdf46592e4a6d09",
      "transactionIndex": "0x8",
      "blockHash": "0xfa02e0f3bae64a488514ecce9a3e26874cf64566be68680fe6077fcc512e8d4b",
      "blockNumber": "0x2ca4883",
      "gasUsed": "0x598d1",
      "effectiveGasPrice": "0x7a121",
      "blobGasUsed": "0x104f0",
      "from": "0xc5b7b574ee84a9b59b475fe32eaf908c246d3859",
      "to": "0x5fa728c0a5cfd51bee4b060773f50554c0c8a7ab",
      "contractAddress": null,
      "daFootprintGasScalar": "0x190",
      "l1BaseFeeScalar": "0x7d0",
      "l1BlobBaseFee": "0x2a",
      "l1BlobBaseFeeScalar": "0xdbba0",
      "l1Fee": "0x18ec",
      "l1GasPrice": "0xa",
      "l1GasUsed": "0xa76"
    },
    {
      "status": "0x1",
      "cumulativeGasUsed": "0xfaef6",
      "logs": [
        {
          "address": "0x00b036b58a818b1bc34d502d3fe730db729e62ac",
          "topics": [
            "0xdd466e674ea557f56295e2d0218a125ea4b4f0f6f3307b95f85e6110838d6438",
            "0x280d541a4a54702cb9cbac2c2b5679af780dafc8fe350a422a2812d4a5eb4b9d",
            "0x0000000000000000000000004430a357cffddb3dd74e5ebcbb44828a841dd538",
            "0x00000000000000000000000091cef63f13f880918e03a28c8853269abdd336cb"
          ],
          "data": "0x0000000000000000000000000000000000000000000000000000000000000bb8000000000000000000000000000000000000000000000000000000000000003c0000000000000000000000006127fe036b9cd6435404e56365f904167298c64000000000000000000000000000000000000000010000000000000000000000000000000000000000000000000000000000000000000000000000000000000000",
          "blockHash": "0x42ce51b37bc9060f60928b325e153dea46e66f806a135ee62467ea4038f7fd97",
          "blockNumber": "0x2ca4887",
          "blockTimestamp": "0x69b7f5d3",
          "transactionHash": "0x853c2aa3d5f910b1ad4b3a961daab8ad42e6d2d26d31319dfe6f272469fb9a6b",
          "transactionIndex": "0x7",
          "logIndex": "0xb",
          "removed": false
        }
      ],
      "logsBloom": "0x00000000000000000000000000000000000000000000000000000000000000200000000000000000000002000000000000000010000000000000000000000000000000400000000000000000000000000000000000000000000000000000000000000000000000000000000000000000000000000000000000000000000000000000000000000008000000000008000000000001000000000000001000200000000000000000000000000000000000000000000000000000000000000010000000000000000000000000000000000002000000000000000000000000000000000000010000000000000000000000000000000000002002000000000000000010",
      "type": "0x2",
      "transactionHash": "0x853c2aa3d5f910b1ad4b3a961daab8ad42e6d2d26d31319dfe6f272469fb9a6b",
      "transactionIndex": "0x7",
      "blockHash": "0x42ce51b37bc9060f60928b325e153dea46e66f806a135ee62467ea4038f7fd97",
      "blockNumber": "0x2ca4887",
      "gasUsed": "0xca16",
      "effectiveGasPrice": "0x7a121",
      "blobGasUsed": "0xdde0",
      "from": "0xc5b7b574ee84a9b59b475fe32eaf908c246d3859",
      "to": "0x00b036b58a818b1bc34d502d3fe730db729e62ac",
      "contractAddress": null,
      "daFootprintGasScalar": "0x190",
      "l1BaseFeeScalar": "0x7d0",
      "l1BlobBaseFee": "0x2e",
      "l1BlobBaseFeeScalar": "0xdbba0",
      "l1Fee": "0x172f",
      "l1GasPrice": "0xa",
      "l1GasUsed": "0x8e4"
    },
    {
      "status": "0x1",
      "cumulativeGasUsed": "0x5ccd2",
      "logs": [
        {
          "address": "0x4430a357cffddb3dd74e5ebcbb44828a841dd538",
          "topics": [
            "0x8c5be1e5ebec7d5bd14f71427d1e84f3dd0314c0f7b2291e5b200ac8c7c3b925",
            "0x000000000000000000000000c5b7b574ee84a9b59b475fe32eaf908c246d3859",
            "0x0000000000000000000000005fa728c0a5cfd51bee4b060773f50554c0c8a7ab"
          ],
          "data": "0x00000000000000000000000000000000000000000000021e19e0c9bab2400000",
          "blockHash": "0xa6a1119cf0a444347a0399b6594857bd93160638ab301a1e72fe36abb1ebfde1",
          "blockNumber": "0x2ca488b",
          "blockTimestamp": "0x69b7f5d7",
          "transactionHash": "0xeffb124bfb0ef5a95427a27d633ccb225a4fe923372194ffaa97e4af1190be71",
          "transactionIndex": "0x5",
          "logIndex": "0x3",
          "removed": false
        }
      ],
      "logsBloom": "0x00000000000000000000000000000000001000000000000000000000000000000000000000000000000000000000000000000000000000000000000000200000000000000000000000000000000000000000000000000000000000000000000000000000000002000000000000000000000000000000000000000000000000000000000400000000000000000000000000000000000000000080000000000000020000000000000000000000000000004000000000000000000000000000000000080000000000000000000000000000000000000000000000000000000000000010000000000000000000001000000000080000000000100000000000000000",
      "type": "0x2",
      "transactionHash": "0xeffb124bfb0ef5a95427a27d633ccb225a4fe923372194ffaa97e4af1190be71",
      "transactionIndex": "0x5",
      "blockHash": "0xa6a1119cf0a444347a0399b6594857bd93160638ab301a1e72fe36abb1ebfde1",
      "blockNumber": "0x2ca488b",
      "gasUsed": "0x7282",
      "effectiveGasPrice": "0x7a121",
      "blobGasUsed": "0x9c40",
      "from": "0xc5b7b574ee84a9b59b475fe32eaf908c246d3859",
      "to": "0x4430a357cffddb3dd74e5ebcbb44828a841dd538",
      "contractAddress": null,
      "daFootprintGasScalar": "0x190",
      "l1BaseFeeScalar": "0x7d0",
      "l1BlobBaseFee": "0x2e",
      "l1BlobBaseFeeScalar": "0xdbba0",
      "l1Fee": "0x104c",
      "l1GasPrice": "0xa",
      "l1GasUsed": "0x640"
    },
    {
      "status": "0x1",
      "cumulativeGasUsed": "0x60faa",
      "logs": [
        {
          "address": "0x91cef63f13f880918e03a28c8853269abdd336cb",
          "topics": [
            "0x8c5be1e5ebec7d5bd14f71427d1e84f3dd0314c0f7b2291e5b200ac8c7c3b925",
            "0x000000000000000000000000c5b7b574ee84a9b59b475fe32eaf908c246d3859",
            "0x0000000000000000000000005fa728c0a5cfd51bee4b060773f50554c0c8a7ab"
          ],
          "data": "0x00000000000000000000000000000000000000000000021e19e0c9bab2400000",
          "blockHash": "0x09c7f35719d0ad2267212901ae7d642608de711d346ab3d72868f5a2c572525f",
          "blockNumber": "0x2ca488f",
          "blockTimestamp": "0x69b7f5db",
          "transactionHash": "0x937f0645942af48d3ed0f8d6641704c1de9f412d0ae8d7c5e417fe796b7fe6de",
          "transactionIndex": "0x5",
          "logIndex": "0x3",
          "removed": false
        }
      ],
      "logsBloom": "0x00000000000000000000000000000000000400000000000000000000000000000000000000000000000000000000000000000000000000000000000000200000000000000000000000000000000000000000000000000000000000000000000000000000000080000000000000000000000000000000000000000000000000000000000400000000000000000000000000000000000000000080000000000000020000000000000000000000000000004000000000000000000000000100000000080000000000000000000000000000000000000000000000000000000000000010000000000000000000001000000000080000000000000000000000000000",
      "type": "0x2",
      "transactionHash": "0x937f0645942af48d3ed0f8d6641704c1de9f412d0ae8d7c5e417fe796b7fe6de",
      "transactionIndex": "0x5",
      "blockHash": "0x09c7f35719d0ad2267212901ae7d642608de711d346ab3d72868f5a2c572525f",
      "blockNumber": "0x2ca488f",
      "gasUsed": "0xb54e",
      "effectiveGasPrice": "0x7a121",
      "blobGasUsed": "0x9c40",
      "from": "0xc5b7b574ee84a9b59b475fe32eaf908c246d3859",
      "to": "0x91cef63f13f880918e03a28c8853269abdd336cb",
      "contractAddress": null,
      "daFootprintGasScalar": "0x190",
      "l1BaseFeeScalar": "0x7d0",
      "l1BlobBaseFee": "0x2e",
      "l1BlobBaseFeeScalar": "0xdbba0",
      "l1Fee": "0x104c",
      "l1GasPrice": "0xa",
      "l1GasUsed": "0x640"
    },
    {
      "status": "0x1",
      "cumulativeGasUsed": "0x94023",
      "logs": [
        {
          "address": "0x00b036b58a818b1bc34d502d3fe730db729e62ac",
          "topics": [
            "0xf208f4912782fd25c7f114ca3723a2d5dd6f3bcc3ac8db5af63baa85f711d5ec",
            "0x280d541a4a54702cb9cbac2c2b5679af780dafc8fe350a422a2812d4a5eb4b9d",
            "0x0000000000000000000000005fa728c0a5cfd51bee4b060773f50554c0c8a7ab"
          ],
          "data": "0xfffffffffffffffffffffffffffffffffffffffffffffffffffffffffff2764c00000000000000000000000000000000000000000000000000000000000d89b400000000000000000000000000000000000000000000021e19e0c9bab24000000000000000000000000000000000000000000000000000000000000000000000",
          "blockHash": "0x0000000000000000000000000000000000000000000000000000000000000000",
          "blockNumber": "0x2ca4893",
          "blockTimestamp": "0x69b7f5df",
          "transactionHash": "0xf68e1114ae2e01f8e7ffa14988b9ccb8e761f3b524b6c8597ac2ad4ecf75f0a7",
          "transactionIndex": "0x4",
          "logIndex": "0x2",
          "removed": false
        },
        {
          "address": "0x8b1800805b478fb66bb58331662899157cec4dd4",
          "topics": [
            "0xa56e19c5f806ae66a3b7d8c0b92d13ddf628502c9b47f577580f5f6a4e1deb2a",
            "0x000000000000000000000000ca093b5e50df91117440f9dfd1542b8f42075d67",
            "0x280d541a4a54702cb9cbac2c2b5679af780dafc8fe350a422a2812d4a5eb4b9d"
          ],
          "data": "0x00000000000000000000000000000000000000000000021e19e0c9bab2400000",
          "blockHash": "0x0000000000000000000000000000000000000000000000000000000000000000",
          "blockNumber": "0x2ca4893",
          "blockTimestamp": "0x69b7f5df",
          "transactionHash": "0xf68e1114ae2e01f8e7ffa14988b9ccb8e761f3b524b6c8597ac2ad4ecf75f0a7",
          "transactionIndex": "0x4",
          "logIndex": "0x3",
          "removed": false
        },
        {
          "address": "0x6127fe036b9cd6435404e56365f904167298c640",
          "topics": [
            "0x9fcca7d4a4fe21922427fa68ae954a11518460e4298a953677db412ad22d6f39",
            "0x000000000000000000000000ca093b5e50df91117440f9dfd1542b8f42075d67",
            "0x280d541a4a54702cb9cbac2c2b5679af780dafc8fe350a422a2812d4a5eb4b9d"
          ],
          "data": "0x00000000000000000000000000000000000000000000021e19e0c9bab2400000",
          "blockHash": "0x0000000000000000000000000000000000000000000000000000000000000000",
          "blockNumber": "0x2ca4893",
          "blockTimestamp": "0x69b7f5df",
          "transactionHash": "0xf68e1114ae2e01f8e7ffa14988b9ccb8e761f3b524b6c8597ac2ad4ecf75f0a7",
          "transactionIndex": "0x4",
          "logIndex": "0x4",
          "removed": false
        },
        {
          "address": "0x4430a357cffddb3dd74e5ebcbb44828a841dd538",
          "topics": [
            "0xddf252ad1be2c89b69c2b068fc378daa952ba7f163c4a11628f55a4df523b3ef",
            "0x000000000000000000000000c5b7b574ee84a9b59b475fe32eaf908c246d3859",
            "0x00000000000000000000000000b036b58a818b1bc34d502d3fe730db729e62ac"
          ],
          "data": "0x00000000000000000000000000000000000000000000021e19e0c9bab23ffde1",
          "blockHash": "0x0000000000000000000000000000000000000000000000000000000000000000",
          "blockNumber": "0x2ca4893",
          "blockTimestamp": "0x69b7f5df",
          "transactionHash": "0xf68e1114ae2e01f8e7ffa14988b9ccb8e761f3b524b6c8597ac2ad4ecf75f0a7",
          "transactionIndex": "0x4",
          "logIndex": "0x5",
          "removed": false
        },
        {
          "address": "0x91cef63f13f880918e03a28c8853269abdd336cb",
          "topics": [
            "0xddf252ad1be2c89b69c2b068fc378daa952ba7f163c4a11628f55a4df523b3ef",
            "0x000000000000000000000000c5b7b574ee84a9b59b475fe32eaf908c246d3859",
            "0x00000000000000000000000000b036b58a818b1bc34d502d3fe730db729e62ac"
          ],
          "data": "0x00000000000000000000000000000000000000000000021e19e0c9bab23ffde1",
          "blockHash": "0x0000000000000000000000000000000000000000000000000000000000000000",
          "blockNumber": "0x2ca4893",
          "blockTimestamp": "0x69b7f5df",
          "transactionHash": "0xf68e1114ae2e01f8e7ffa14988b9ccb8e761f3b524b6c8597ac2ad4ecf75f0a7",
          "transactionIndex": "0x4",
          "logIndex": "0x6",
          "removed": false
        }
      ],
      "logsBloom": "0x00000000000004000000010000000000001400000000000000000000000000200000000000000000000000000000000000000000001000000000000000000000000000000001000000000008000000000000000000010000000000000000000000000000000082000000000000004000000000000000000000000010000000000000000401000000000000000008040000008000000000000080000200001000000004000000000000000000000000004000000000000020000000000110400000080002000000000000000000000000002000000000002000000000000000000000080010000000000000001000000004080004002202100000000000000010",
      "type": "0x2",
      "transactionHash": "0xf68e1114ae2e01f8e7ffa14988b9ccb8e761f3b524b6c8597ac2ad4ecf75f0a7",
      "transactionIndex": "0x4",
      "blockHash": "0x0000000000000000000000000000000000000000000000000000000000000000",
      "blockNumber": "0x2ca4893",
      "gasUsed": "0x55605",
      "effectiveGasPrice": "0x7a121",
      "blobGasUsed": "0x104f0",
      "from": "0xc5b7b574ee84a9b59b475fe32eaf908c246d3859",
      "to": "0x5fa728c0a5cfd51bee4b060773f50554c0c8a7ab",
      "contractAddress": null,
      "daFootprintGasScalar": "0x190",
      "l1BaseFeeScalar": "0x7d0",
      "l1BlobBaseFee": "0x30",
      "l1BlobBaseFeeScalar": "0xdbba0",
      "l1Fee": "0x179e",
      "l1GasPrice": "0xa",
      "l1GasUsed": "0xa76"
    },
    {
      "status": "0x1",
      "cumulativeGasUsed": "0x62466",
      "logs": [
        {
          "address": "0x00b036b58a818b1bc34d502d3fe730db729e62ac",
          "topics": [
            "0xdd466e674ea557f56295e2d0218a125ea4b4f0f6f3307b95f85e6110838d6438",
            "0xc6a5614ad2136d9a8390e26133f8698949fc8a075b3a799dce8da5a54d64127e",
            "0x0000000000000000000000004430a357cffddb3dd74e5ebcbb44828a841dd538",
            "0x0000000000000000000000006e71c0c66f826101b1828e07746ace5204c73205"
          ],
          "data": "0x0000000000000000000000000000000000000000000000000000000000000bb8000000000000000000000000000000000000000000000000000000000000003c0000000000000000000000006127fe036b9cd6435404e56365f904167298c64000000000000000000000000000000000000000010000000000000000000000000000000000000000000000000000000000000000000000000000000000000000",
          "blockHash": "0x0000000000000000000000000000000000000000000000000000000000000000",
          "blockNumber": "0x2ca4898",
          "blockTimestamp": "0x69b7f5e4",
          "transactionHash": "0x7600572f989a2549a0841ca8b27a259ab94e7860914c0e783d7ed67df5414542",
          "transactionIndex": "0x5",
          "logIndex": "0x3",
          "removed": false
        }
      ],
      "logsBloom": "0x00000000000000000400000000000000000000000000000000020000000000000000000000000000000002000000000000000010000000000000000000000000000000000000000000000000000000000000000000001000000000000000000000000000000000000000000000000000000000000000000000000000000000000000000000000008000000000008000000000001000000400000000000200000000000000000000000000000000000000000000000000000000000000000000000000000000000000000000000000002000000000000000000000000000000000000000000000000000200000040000000000000000002000000000000000010",
      "type": "0x2",
      "transactionHash": "0x7600572f989a2549a0841ca8b27a259ab94e7860914c0e783d7ed67df5414542",
      "transactionIndex": "0x5",
      "blockHash": "0x0000000000000000000000000000000000000000000000000000000000000000",
      "blockNumber": "0x2ca4898",
      "gasUsed": "0xca16",
      "effectiveGasPrice": "0x7a121",
      "blobGasUsed": "0xdde0",
      "from": "0xc5b7b574ee84a9b59b475fe32eaf908c246d3859",
      "to": "0x00b036b58a818b1bc34d502d3fe730db729e62ac",
      "contractAddress": null,
      "daFootprintGasScalar": "0x190",
      "l1BaseFeeScalar": "0x7d0",
      "l1BlobBaseFee": "0x30",
      "l1BlobBaseFeeScalar": "0xdbba0",
      "l1Fee": "0x179e",
      "l1GasPrice": "0xa",
      "l1GasUsed": "0x8e4"
    },
    {
      "status": "0x1",
      "cumulativeGasUsed": "0x45cac",
      "logs": [
        {
          "address": "0x4430a357cffddb3dd74e5ebcbb44828a841dd538",
          "topics": [
            "0x8c5be1e5ebec7d5bd14f71427d1e84f3dd0314c0f7b2291e5b200ac8c7c3b925",
            "0x000000000000000000000000c5b7b574ee84a9b59b475fe32eaf908c246d3859",
            "0x0000000000000000000000005fa728c0a5cfd51bee4b060773f50554c0c8a7ab"
          ],
          "data": "0x00000000000000000000000000000000000000000000021e19e0c9bab2400000",
          "blockHash": "0x0000000000000000000000000000000000000000000000000000000000000000",
          "blockNumber": "0x2ca489c",
          "blockTimestamp": "0x69b7f5e8",
          "transactionHash": "0xff33987e814975ff3abea37a01268a0f3f6529bf9355f7413c3a943b07a7087e",
          "transactionIndex": "0x4",
          "logIndex": "0x2",
          "removed": false
        }
      ],
      "logsBloom": "0x00000000000000000000000000000000001000000000000000000000000000000000000000000000000000000000000000000000000000000000000000200000000000000000000000000000000000000000000000000000000000000000000000000000000002000000000000000000000000000000000000000000000000000000000400000000000000000000000000000000000000000080000000000000020000000000000000000000000000004000000000000000000000000000000000080000000000000000000000000000000000000000000000000000000000000010000000000000000000001000000000080000000000100000000000000000",
      "type": "0x2",
      "transactionHash": "0xff33987e814975ff3abea37a01268a0f3f6529bf9355f7413c3a943b07a7087e",
      "transactionIndex": "0x4",
      "blockHash": "0x0000000000000000000000000000000000000000000000000000000000000000",
      "blockNumber": "0x2ca489c",
      "gasUsed": "0x7282",
      "effectiveGasPrice": "0x7a121",
      "blobGasUsed": "0x9c40",
      "from": "0xc5b7b574ee84a9b59b475fe32eaf908c246d3859",
      "to": "0x4430a357cffddb3dd74e5ebcbb44828a841dd538",
      "contractAddress": null,
      "daFootprintGasScalar": "0x190",
      "l1BaseFeeScalar": "0x7d0",
      "l1BlobBaseFee": "0x30",
      "l1BlobBaseFeeScalar": "0xdbba0",
      "l1Fee": "0x179e",
      "l1GasPrice": "0xa",
      "l1GasUsed": "0x640"
    },
    {
      "status": "0x1",
      "cumulativeGasUsed": "0x32f46",
      "logs": [
        {
          "address": "0x6e71c0c66f826101b1828e07746ace5204c73205",
          "topics": [
            "0x8c5be1e5ebec7d5bd14f71427d1e84f3dd0314c0f7b2291e5b200ac8c7c3b925",
            "0x000000000000000000000000c5b7b574ee84a9b59b475fe32eaf908c246d3859",
            "0x0000000000000000000000005fa728c0a5cfd51bee4b060773f50554c0c8a7ab"
          ],
          "data": "0x00000000000000000000000000000000000000000000021e19e0c9bab2400000",
          "blockHash": "0x0000000000000000000000000000000000000000000000000000000000000000",
          "blockNumber": "0x2ca48a0",
          "blockTimestamp": "0x69b7f5ec",
          "transactionHash": "0x2f3aac9e7e41ff9832ae5c9b2612d9cd838f1ad2876c966acb74c85df68fe38e",
          "transactionIndex": "0x3",
          "logIndex": "0x1",
          "removed": false
        }
      ],
      "logsBloom": "0x00000000000000000000000000000000000000000000000000000000000000000000000000000000000000000000000000000000000000000000000000200000000000000000000000000000000000000000000000000000000000000020000000000000000000000000000000000000000000000000000000000000000000200000000400000000000000000000000000000000000000000080000000000000020000000000000000000000000000004000000000000000000000000000000000080000000000000000000000000000000000000000080000000000000000000010000000000000000000001000000000080000000000000000000000000000",
      "type": "0x2",
      "transactionHash": "0x2f3aac9e7e41ff9832ae5c9b2612d9cd838f1ad2876c966acb74c85df68fe38e",
      "transactionIndex": "0x3",
      "blockHash": "0x0000000000000000000000000000000000000000000000000000000000000000",
      "blockNumber": "0x2ca48a0",
      "gasUsed": "0xb54e",
      "effectiveGasPrice": "0x7a121",
      "blobGasUsed": "0x9c40",
      "from": "0xc5b7b574ee84a9b59b475fe32eaf908c246d3859",
      "to": "0x6e71c0c66f826101b1828e07746ace5204c73205",
      "contractAddress": null,
      "daFootprintGasScalar": "0x190",
      "l1BaseFeeScalar": "0x7d0",
      "l1BlobBaseFee": "0x30",
      "l1BlobBaseFeeScalar": "0xdbba0",
      "l1Fee": "0x179e",
      "l1GasPrice": "0xa",
      "l1GasUsed": "0x640"
    },
    {
      "status": "0x1",
      "cumulativeGasUsed": "0xc7283",
      "logs": [
        {
          "address": "0x00b036b58a818b1bc34d502d3fe730db729e62ac",
          "topics": [
            "0xf208f4912782fd25c7f114ca3723a2d5dd6f3bcc3ac8db5af63baa85f711d5ec",
            "0xc6a5614ad2136d9a8390e26133f8698949fc8a075b3a799dce8da5a54d64127e",
            "0x0000000000000000000000005fa728c0a5cfd51bee4b060773f50554c0c8a7ab"
          ],
          "data": "0xfffffffffffffffffffffffffffffffffffffffffffffffffffffffffff2764c00000000000000000000000000000000000000000000000000000000000d89b400000000000000000000000000000000000000000000021e19e0c9bab24000000000000000000000000000000000000000000000000000000000000000000000",
          "blockHash": "0x0885bd98aaf1cd8e01071041bcb355a93b0d7ee1a1f4e6327885ea2828b56b2c",
          "blockNumber": "0x2ca48a4",
          "blockTimestamp": "0x69b7f5f0",
          "transactionHash": "0x1b16f404f5ffd1dc61a84a90e2d0754c075717d4c4135462a1c785aa918fb008",
          "transactionIndex": "0x7",
          "logIndex": "0x4",
          "removed": false
        },
        {
          "address": "0x8b1800805b478fb66bb58331662899157cec4dd4",
          "topics": [
            "0xa56e19c5f806ae66a3b7d8c0b92d13ddf628502c9b47f577580f5f6a4e1deb2a",
            "0x0000000000000000000000006da90fd521d6cff9d373204038459addca260f2a",
            "0xc6a5614ad2136d9a8390e26133f8698949fc8a075b3a799dce8da5a54d64127e"
          ],
          "data": "0x00000000000000000000000000000000000000000000021e19e0c9bab2400000",
          "blockHash": "0x0885bd98aaf1cd8e01071041bcb355a93b0d7ee1a1f4e6327885ea2828b56b2c",
          "blockNumber": "0x2ca48a4",
          "blockTimestamp": "0x69b7f5f0",
          "transactionHash": "0x1b16f404f5ffd1dc61a84a90e2d0754c075717d4c4135462a1c785aa918fb008",
          "transactionIndex": "0x7",
          "logIndex": "0x5",
          "removed": false
        },
        {
          "address": "0x6127fe036b9cd6435404e56365f904167298c640",
          "topics": [
            "0x9fcca7d4a4fe21922427fa68ae954a11518460e4298a953677db412ad22d6f39",
            "0x0000000000000000000000006da90fd521d6cff9d373204038459addca260f2a",
            "0xc6a5614ad2136d9a8390e26133f8698949fc8a075b3a799dce8da5a54d64127e"
          ],
          "data": "0x00000000000000000000000000000000000000000000021e19e0c9bab2400000",
          "blockHash": "0x0885bd98aaf1cd8e01071041bcb355a93b0d7ee1a1f4e6327885ea2828b56b2c",
          "blockNumber": "0x2ca48a4",
          "blockTimestamp": "0x69b7f5f0",
          "transactionHash": "0x1b16f404f5ffd1dc61a84a90e2d0754c075717d4c4135462a1c785aa918fb008",
          "transactionIndex": "0x7",
          "logIndex": "0x6",
          "removed": false
        },
        {
          "address": "0x4430a357cffddb3dd74e5ebcbb44828a841dd538",
          "topics": [
            "0xddf252ad1be2c89b69c2b068fc378daa952ba7f163c4a11628f55a4df523b3ef",
            "0x000000000000000000000000c5b7b574ee84a9b59b475fe32eaf908c246d3859",
            "0x00000000000000000000000000b036b58a818b1bc34d502d3fe730db729e62ac"
          ],
          "data": "0x00000000000000000000000000000000000000000000021e19e0c9bab23ffde1",
          "blockHash": "0x0885bd98aaf1cd8e01071041bcb355a93b0d7ee1a1f4e6327885ea2828b56b2c",
          "blockNumber": "0x2ca48a4",
          "blockTimestamp": "0x69b7f5f0",
          "transactionHash": "0x1b16f404f5ffd1dc61a84a90e2d0754c075717d4c4135462a1c785aa918fb008",
          "transactionIndex": "0x7",
          "logIndex": "0x7",
          "removed": false
        },
        {
          "address": "0x6e71c0c66f826101b1828e07746ace5204c73205",
          "topics": [
            "0xddf252ad1be2c89b69c2b068fc378daa952ba7f163c4a11628f55a4df523b3ef",
            "0x000000000000000000000000c5b7b574ee84a9b59b475fe32eaf908c246d3859",
            "0x00000000000000000000000000b036b58a818b1bc34d502d3fe730db729e62ac"
          ],
          "data": "0x00000000000000000000000000000000000000000000021e19e0c9bab23ffde1",
          "blockHash": "0x0885bd98aaf1cd8e01071041bcb355a93b0d7ee1a1f4e6327885ea2828b56b2c",
          "blockNumber": "0x2ca48a4",
          "blockTimestamp": "0x69b7f5f0",
          "transactionHash": "0x1b16f404f5ffd1dc61a84a90e2d0754c075717d4c4135462a1c785aa918fb008",
          "transactionIndex": "0x7",
          "logIndex": "0x8",
          "removed": false
        }
      ],
      "logsBloom": "0x00000000000004000000000000000000001000000000000000020000000000000000000000000000000000000000000000000000001000000000000000000000000000000001000000000008000000000000004000011000000000000020000000000000000002000000000000004000000000000000000000000010008000200000000401000000000000000008040800000000000000000080000200001000000004000000000000000000000000004000000000000020000000000000400000080002000000000000000000000000002000000000082000000000000000000000080010000000000200001000000004080000000202100000000000000010",
      "type": "0x2",
      "transactionHash": "0x1b16f404f5ffd1dc61a84a90e2d0754c075717d4c4135462a1c785aa918fb008",
      "transactionIndex": "0x7",
      "blockHash": "0x0885bd98aaf1cd8e01071041bcb355a93b0d7ee1a1f4e6327885ea2828b56b2c",
      "blockNumber": "0x2ca48a4",
      "gasUsed": "0x55605",
      "effectiveGasPrice": "0x7a121",
      "blobGasUsed": "0x104f0",
      "from": "0xc5b7b574ee84a9b59b475fe32eaf908c246d3859",
      "to": "0x5fa728c0a5cfd51bee4b060773f50554c0c8a7ab",
      "contractAddress": null,
      "daFootprintGasScalar": "0x190",
      "l1BaseFeeScalar": "0x7d0",
      "l1BlobBaseFee": "0x33",
      "l1BlobBaseFeeScalar": "0xdbba0",
      "l1Fee": "0x1e38",
      "l1GasPrice": "0xa",
      "l1GasUsed": "0xa76"
    },
    {
      "status": "0x1",
      "cumulativeGasUsed": "0x62472",
      "logs": [
        {
          "address": "0x00b036b58a818b1bc34d502d3fe730db729e62ac",
          "topics": [
            "0xdd466e674ea557f56295e2d0218a125ea4b4f0f6f3307b95f85e6110838d6438",
            "0x37fd0989c288274095bbb5fc81b82b93c8737bb12f5d7c58fd41010527a1217d",
            "0x0000000000000000000000004430a357cffddb3dd74e5ebcbb44828a841dd538",
            "0x000000000000000000000000535db1c9866b3bb692faa48f70df95f78005ed16"
          ],
          "data": "0x0000000000000000000000000000000000000000000000000000000000000bb8000000000000000000000000000000000000000000000000000000000000003c0000000000000000000000006127fe036b9cd6435404e56365f904167298c64000000000000000000000000000000000000000010000000000000000000000000000000000000000000000000000000000000000000000000000000000000000",
          "blockHash": "0x9410b61d3abc24c0ecb5eb66d9e10359c8748d9a5dc3021e600030441c50d6e3",
          "blockNumber": "0x2ca48a8",
          "blockTimestamp": "0x69b7f5f4",
          "transactionHash": "0xc850b3e5d275fbf594ad78eda31ca78262bd03488e2a8a472bd65b1fbd808ec3",
          "transactionIndex": "0x5",
          "logIndex": "0x3",
          "removed": false
        }
      ],
      "logsBloom": "0x00000000000000000000000000000000000000000000000000000000000000000000000000000000000002000000000000000090000000000000000100000000000000000000000000000000000000000000000000000000000000000000000000000000000000000000000000000000000000000200000000000000000000000000000000000008000000040008000000000001000000000000000000280000000000000000000000000000000000000000000000000000000000000000000000000000000000000000000000000002000000000000000000000000000000000000000000000000000000001000000000000000000002000000000000000010",
      "type": "0x2",
      "transactionHash": "0xc850b3e5d275fbf594ad78eda31ca78262bd03488e2a8a472bd65b1fbd808ec3",
      "transactionIndex": "0x5",
      "blockHash": "0x9410b61d3abc24c0ecb5eb66d9e10359c8748d9a5dc3021e600030441c50d6e3",
      "blockNumber": "0x2ca48a8",
      "gasUsed": "0xca16",
      "effectiveGasPrice": "0x7a121",
      "blobGasUsed": "0xdde0",
      "from": "0xc5b7b574ee84a9b59b475fe32eaf908c246d3859",
      "to": "0x00b036b58a818b1bc34d502d3fe730db729e62ac",
      "contractAddress": null,
      "daFootprintGasScalar": "0x190",
      "l1BaseFeeScalar": "0x7d0",
      "l1BlobBaseFee": "0x33",
      "l1BlobBaseFeeScalar": "0xdbba0",
      "l1Fee": "0x19b0",
      "l1GasPrice": "0xa",
      "l1GasUsed": "0x8e4"
    },
    {
      "status": "0x1",
      "cumulativeGasUsed": "0x5ccc6",
      "logs": [
        {
          "address": "0x4430a357cffddb3dd74e5ebcbb44828a841dd538",
          "topics": [
            "0x8c5be1e5ebec7d5bd14f71427d1e84f3dd0314c0f7b2291e5b200ac8c7c3b925",
            "0x000000000000000000000000c5b7b574ee84a9b59b475fe32eaf908c246d3859",
            "0x0000000000000000000000005fa728c0a5cfd51bee4b060773f50554c0c8a7ab"
          ],
          "data": "0x00000000000000000000000000000000000000000000021e19e0c9bab2400000",
          "blockHash": "0x3d620a06006615ac10c43960367141c55251414af1608df7bc79c9b0d1968c0d",
          "blockNumber": "0x2ca48ac",
          "blockTimestamp": "0x69b7f5f8",
          "transactionHash": "0xebbcc5274e6633aeea35a8d22d86873e611190f6fd53fd466c18ab8a3865876e",
          "transactionIndex": "0x5",
          "logIndex": "0x3",
          "removed": false
        }
      ],
      "logsBloom": "0x00000000000000000000000000000000001000000000000000000000000000000000000000000000000000000000000000000000000000000000000000200000000000000000000000000000000000000000000000000000000000000000000000000000000002000000000000000000000000000000000000000000000000000000000400000000000000000000000000000000000000000080000000000000020000000000000000000000000000004000000000000000000000000000000000080000000000000000000000000000000000000000000000000000000000000010000000000000000000001000000000080000000000100000000000000000",
      "type": "0x2",
      "transactionHash": "0xebbcc5274e6633aeea35a8d22d86873e611190f6fd53fd466c18ab8a3865876e",
      "transactionIndex": "0x5",
      "blockHash": "0x3d620a06006615ac10c43960367141c55251414af1608df7bc79c9b0d1968c0d",
      "blockNumber": "0x2ca48ac",
      "gasUsed": "0x7282",
      "effectiveGasPrice": "0x7a121",
      "blobGasUsed": "0x9c40",
      "from": "0xc5b7b574ee84a9b59b475fe32eaf908c246d3859",
      "to": "0x4430a357cffddb3dd74e5ebcbb44828a841dd538",
      "contractAddress": null,
      "daFootprintGasScalar": "0x190",
      "l1BaseFeeScalar": "0x7d0",
      "l1BlobBaseFee": "0x33",
      "l1BlobBaseFeeScalar": "0xdbba0",
      "l1Fee": "0x120e",
      "l1GasPrice": "0xa",
      "l1GasUsed": "0x640"
    },
    {
      "status": "0x1",
      "cumulativeGasUsed": "0x49f78",
      "logs": [
        {
          "address": "0x535db1c9866b3bb692faa48f70df95f78005ed16",
          "topics": [
            "0x8c5be1e5ebec7d5bd14f71427d1e84f3dd0314c0f7b2291e5b200ac8c7c3b925",
            "0x000000000000000000000000c5b7b574ee84a9b59b475fe32eaf908c246d3859",
            "0x0000000000000000000000005fa728c0a5cfd51bee4b060773f50554c0c8a7ab"
          ],
          "data": "0x00000000000000000000000000000000000000000000021e19e0c9bab2400000",
          "blockHash": "0x0000000000000000000000000000000000000000000000000000000000000000",
          "blockNumber": "0x2ca48b0",
          "blockTimestamp": "0x69b7f5fc",
          "transactionHash": "0x31c55492d4bee32ce500be5f6a9cf8073c53ba22cbe7dc85e565e49146a4ecde",
          "transactionIndex": "0x4",
          "logIndex": "0x2",
          "removed": false
        }
      ],
      "logsBloom": "0x00000000000000000000000000000000000000008000000000000000000000000000000000000000000080000000000000000000000000000000000000200000000000000000000000000000000000000000000000000000000000000000000000000000000000000000000000000000000000000000000000000000000000000004000400000000000000000000000000000000000000000080000000000000020000000000000000000000000000004000000000000000000000000000000000080000000000000000000000000000000000000000000000000000000000000010000000000000000000001000000000080000000000000000000000000000",
      "type": "0x2",
      "transactionHash": "0x31c55492d4bee32ce500be5f6a9cf8073c53ba22cbe7dc85e565e49146a4ecde",
      "transactionIndex": "0x4",
      "blockHash": "0x0000000000000000000000000000000000000000000000000000000000000000",
      "blockNumber": "0x2ca48b0",
      "gasUsed": "0xb54e",
      "effectiveGasPrice": "0x7a121",
      "blobGasUsed": "0x9c40",
      "from": "0xc5b7b574ee84a9b59b475fe32eaf908c246d3859",
      "to": "0x535db1c9866b3bb692faa48f70df95f78005ed16",
      "contractAddress": null,
      "daFootprintGasScalar": "0x190",
      "l1BaseFeeScalar": "0x7d0",
      "l1BlobBaseFee": "0x35",
      "l1BlobBaseFeeScalar": "0xdbba0",
      "l1Fee": "0x1a0f",
      "l1GasPrice": "0xa",
      "l1GasUsed": "0x640"
    },
    {
      "status": "0x1",
      "cumulativeGasUsed": "0x7cffd",
      "logs": [
        {
          "address": "0x00b036b58a818b1bc34d502d3fe730db729e62ac",
          "topics": [
            "0xf208f4912782fd25c7f114ca3723a2d5dd6f3bcc3ac8db5af63baa85f711d5ec",
            "0x37fd0989c288274095bbb5fc81b82b93c8737bb12f5d7c58fd41010527a1217d",
            "0x0000000000000000000000005fa728c0a5cfd51bee4b060773f50554c0c8a7ab"
          ],
          "data": "0xfffffffffffffffffffffffffffffffffffffffffffffffffffffffffff2764c00000000000000000000000000000000000000000000000000000000000d89b400000000000000000000000000000000000000000000021e19e0c9bab24000000000000000000000000000000000000000000000000000000000000000000000",
          "blockHash": "0x0000000000000000000000000000000000000000000000000000000000000000",
          "blockNumber": "0x2ca48b4",
          "blockTimestamp": "0x69b7f600",
          "transactionHash": "0x4603f477e5a41788bc3a3976e1f3b8d87ae2dde187eb65360a878ed377bafaed",
          "transactionIndex": "0x3",
          "logIndex": "0x1",
          "removed": false
        },
        {
          "address": "0x8b1800805b478fb66bb58331662899157cec4dd4",
          "topics": [
            "0xa56e19c5f806ae66a3b7d8c0b92d13ddf628502c9b47f577580f5f6a4e1deb2a",
            "0x000000000000000000000000699507c6aeb4268ff4dc05721c803dbe466cec6f",
            "0x37fd0989c288274095bbb5fc81b82b93c8737bb12f5d7c58fd41010527a1217d"
          ],
          "data": "0x00000000000000000000000000000000000000000000021e19e0c9bab2400000",
          "blockHash": "0x0000000000000000000000000000000000000000000000000000000000000000",
          "blockNumber": "0x2ca48b4",
          "blockTimestamp": "0x69b7f600",
          "transactionHash": "0x4603f477e5a41788bc3a3976e1f3b8d87ae2dde187eb65360a878ed377bafaed",
          "transactionIndex": "0x3",
          "logIndex": "0x2",
          "removed": false
        },
        {
          "address": "0x6127fe036b9cd6435404e56365f904167298c640",
          "topics": [
            "0x9fcca7d4a4fe21922427fa68ae954a11518460e4298a953677db412ad22d6f39",
            "0x000000000000000000000000699507c6aeb4268ff4dc05721c803dbe466cec6f",
            "0x37fd0989c288274095bbb5fc81b82b93c8737bb12f5d7c58fd41010527a1217d"
          ],
          "data": "0x00000000000000000000000000000000000000000000021e19e0c9bab2400000",
          "blockHash": "0x0000000000000000000000000000000000000000000000000000000000000000",
          "blockNumber": "0x2ca48b4",
          "blockTimestamp": "0x69b7f600",
          "transactionHash": "0x4603f477e5a41788bc3a3976e1f3b8d87ae2dde187eb65360a878ed377bafaed",
          "transactionIndex": "0x3",
          "logIndex": "0x3",
          "removed": false
        },
        {
          "address": "0x4430a357cffddb3dd74e5ebcbb44828a841dd538",
          "topics": [
            "0xddf252ad1be2c89b69c2b068fc378daa952ba7f163c4a11628f55a4df523b3ef",
            "0x000000000000000000000000c5b7b574ee84a9b59b475fe32eaf908c246d3859",
            "0x00000000000000000000000000b036b58a818b1bc34d502d3fe730db729e62ac"
          ],
          "data": "0x00000000000000000000000000000000000000000000021e19e0c9bab23ffde1",
          "blockHash": "0x0000000000000000000000000000000000000000000000000000000000000000",
          "blockNumber": "0x2ca48b4",
          "blockTimestamp": "0x69b7f600",
          "transactionHash": "0x4603f477e5a41788bc3a3976e1f3b8d87ae2dde187eb65360a878ed377bafaed",
          "transactionIndex": "0x3",
          "logIndex": "0x4",
          "removed": false
        },
        {
          "address": "0x535db1c9866b3bb692faa48f70df95f78005ed16",
          "topics": [
            "0xddf252ad1be2c89b69c2b068fc378daa952ba7f163c4a11628f55a4df523b3ef",
            "0x000000000000000000000000c5b7b574ee84a9b59b475fe32eaf908c246d3859",
            "0x00000000000000000000000000b036b58a818b1bc34d502d3fe730db729e62ac"
          ],
          "data": "0x00000000000000000000000000000000000000000000021e19e0c9bab23ffde1",
          "blockHash": "0x0000000000000000000000000000000000000000000000000000000000000000",
          "blockNumber": "0x2ca48b4",
          "blockTimestamp": "0x69b7f600",
          "transactionHash": "0x4603f477e5a41788bc3a3976e1f3b8d87ae2dde187eb65360a878ed377bafaed",
          "transactionIndex": "0x3",
          "logIndex": "0x5",
          "removed": false
        }
      ],
      "logsBloom": "0x00010000000004000000000000000000001000008000000000000000000000000000000000000000000080000000000000000080001000000000000000000000000000000001000000000008000000000000000000010000000000000000000000000000000002000000000000024000000000000200000000000010000000000004000401000000000000000008040000000000000000000080000200001000000004000000000000000000000000004000000000000020000000000000400000080002000000000000000000000000002000000000002000000000010000000000080010000000000000001000000004080000000202100000000000000010",
      "type": "0x2",
      "transactionHash": "0x4603f477e5a41788bc3a3976e1f3b8d87ae2dde187eb65360a878ed377bafaed",
      "transactionIndex": "0x3",
      "blockHash": "0x0000000000000000000000000000000000000000000000000000000000000000",
      "blockNumber": "0x2ca48b4",
      "gasUsed": "0x55605",
      "effectiveGasPrice": "0x7a121",
      "blobGasUsed": "0x104f0",
      "from": "0xc5b7b574ee84a9b59b475fe32eaf908c246d3859",
      "to": "0x5fa728c0a5cfd51bee4b060773f50554c0c8a7ab",
      "contractAddress": null,
      "daFootprintGasScalar": "0x190",
      "l1BaseFeeScalar": "0x7d0",
      "l1BlobBaseFee": "0x35",
      "l1BlobBaseFeeScalar": "0xdbba0",
      "l1Fee": "0x1a0f",
      "l1GasPrice": "0xa",
      "l1GasUsed": "0xa76"
    },
    {
      "status": "0x1",
      "cumulativeGasUsed": "0x3440e",
      "logs": [
        {
          "address": "0x00b036b58a818b1bc34d502d3fe730db729e62ac",
          "topics": [
            "0xdd466e674ea557f56295e2d0218a125ea4b4f0f6f3307b95f85e6110838d6438",
            "0x92fdced8b28f5d586222dbbff0e5665122443c30a2cfb61893a28ba4df1e1b42",
            "0x00000000000000000000000020bd9fe1b5ff98729993d13514360db6a7461ac4",
            "0x0000000000000000000000004430a357cffddb3dd74e5ebcbb44828a841dd538"
          ],
          "data": "0x0000000000000000000000000000000000000000000000000000000000000bb8000000000000000000000000000000000000000000000000000000000000003c0000000000000000000000006127fe036b9cd6435404e56365f904167298c64000000000000000000000000000000000000000010000000000000000000000000000000000000000000000000000000000000000000000000000000000000000",
          "blockHash": "0x0000000000000000000000000000000000000000000000000000000000000000",
          "blockNumber": "0x2ca48b8",
          "blockTimestamp": "0x69b7f604",
          "transactionHash": "0x9f3a8b031506984454b5631e0d03c4a50bdd97dd9828ec951d234aea172fc75d",
          "transactionIndex": "0x3",
          "logIndex": "0x1",
          "removed": false
        }
      ],
      "logsBloom": "0x00000000000000000000000000000000000000000000000000000000000000000000000000000000000002000000001000000010000000000000080000000000000000000000000000000000000000000000000000000000000000000000000000000000000000000000000000000000000000000000000000000000000000000000000000000008000000400008000080000001000008000000000000200000000000000000000000000000000000000000000000000000000000000000000010000000000000000000000000000002000000000000000000000000000000000000000000000000000000000000000000000000000002000000000000000010",
      "type": "0x2",
      "transactionHash": "0x9f3a8b031506984454b5631e0d03c4a50bdd97dd9828ec951d234aea172fc75d",
      "transactionIndex": "0x3",
      "blockHash": "0x0000000000000000000000000000000000000000000000000000000000000000",
      "blockNumber": "0x2ca48b8",
      "gasUsed": "0xca16",
      "effectiveGasPrice": "0x7a121",
      "blobGasUsed": "0xdde0",
      "from": "0xc5b7b574ee84a9b59b475fe32eaf908c246d3859",
      "to": "0x00b036b58a818b1bc34d502d3fe730db729e62ac",
      "contractAddress": null,
      "daFootprintGasScalar": "0x190",
      "l1BaseFeeScalar": "0x7d0",
      "l1BlobBaseFee": "0x35",
      "l1BlobBaseFeeScalar": "0xdbba0",
      "l1Fee": "0x1a0f",
      "l1GasPrice": "0xa",
      "l1GasUsed": "0x8e4"
    },
    {
      "status": "0x1",
      "cumulativeGasUsed": "0x910ba",
      "logs": [
        {
          "address": "0x20bd9fe1b5ff98729993d13514360db6a7461ac4",
          "topics": [
            "0x8c5be1e5ebec7d5bd14f71427d1e84f3dd0314c0f7b2291e5b200ac8c7c3b925",
            "0x000000000000000000000000c5b7b574ee84a9b59b475fe32eaf908c246d3859",
            "0x0000000000000000000000005fa728c0a5cfd51bee4b060773f50554c0c8a7ab"
          ],
          "data": "0x00000000000000000000000000000000000000000000021e19e0c9bab2400000",
          "blockHash": "0x1e972155111b619642d7cfb3652e00d76d5f23f3be32291dbfd0e4afe92bf495",
          "blockNumber": "0x2ca48bb",
          "blockTimestamp": "0x69b7f607",
          "transactionHash": "0x0651eb291161dd2f39e474592909be8f0d54744e53551a4594163ab4d7884f8a",
          "transactionIndex": "0x7",
          "logIndex": "0x5",
          "removed": false
        }
      ],
      "logsBloom": "0x000000000000000000000000000000000000000001000000000000000000000000000000000000000000000000000000000000000000000000000000002000000000000000000000000000000000000000000000000000000000000000000000000000000000000000000000000000000000000000000000000000000000000000000004000000000000000000000000000000000000000000a0000000000000020000000000000000000000000000004000000000000000000000000000000000080000000000000000000000000000000200000000000000000000000000000010000000000000000000001000000000080000000000000000000000000000",
      "type": "0x2",
      "transactionHash": "0x0651eb291161dd2f39e474592909be8f0d54744e53551a4594163ab4d7884f8a",
      "transactionIndex": "0x7",
      "blockHash": "0x1e972155111b619642d7cfb3652e00d76d5f23f3be32291dbfd0e4afe92bf495",
      "blockNumber": "0x2ca48bb",
      "gasUsed": "0xb54e",
      "effectiveGasPrice": "0x7a121",
      "blobGasUsed": "0x9c40",
      "from": "0xc5b7b574ee84a9b59b475fe32eaf908c246d3859",
      "to": "0x20bd9fe1b5ff98729993d13514360db6a7461ac4",
      "contractAddress": null,
      "daFootprintGasScalar": "0x190",
      "l1BaseFeeScalar": "0x7d0",
      "l1BlobBaseFee": "0x38",
      "l1BlobBaseFeeScalar": "0xdbba0",
      "l1Fee": "0x13d0",
      "l1GasPrice": "0xa",
      "l1GasUsed": "0x640"
    },
    {
      "status": "0x1",
      "cumulativeGasUsed": "0x91e99",
      "logs": [
        {
          "address": "0x4430a357cffddb3dd74e5ebcbb44828a841dd538",
          "topics": [
            "0x8c5be1e5ebec7d5bd14f71427d1e84f3dd0314c0f7b2291e5b200ac8c7c3b925",
            "0x000000000000000000000000c5b7b574ee84a9b59b475fe32eaf908c246d3859",
            "0x0000000000000000000000005fa728c0a5cfd51bee4b060773f50554c0c8a7ab"
          ],
          "data": "0x00000000000000000000000000000000000000000000021e19e0c9bab2400000",
          "blockHash": "0x6bfd043572628d7cfb8330b494d6ecf42ed89ddafa461a84af9af7bc2f93e79c",
          "blockNumber": "0x2ca48bf",
          "blockTimestamp": "0x69b7f60b",
          "transactionHash": "0xff7108d71f76269c84b1035e05cc2993541f1caed70dbb25cdb5ba4b7c1d98eb",
          "transactionIndex": "0x7",
          "logIndex": "0xb",
          "removed": false
        }
      ],
      "logsBloom": "0x00000000000000000000000000000000001000000000000000000000000000000000000000000000000000000000000000000000000000000000000000200000000000000000000000000000000000000000000000000000000000000000000000000000000002000000000000000000000000000000000000000000000000000000000400000000000000000000000000000000000000000080000000000000020000000000000000000000000000004000000000000000000000000000000000080000000000000000000000000000000000000000000000000000000000000010000000000000000000001000000000080000000000100000000000000000",
      "type": "0x2",
      "transactionHash": "0xff7108d71f76269c84b1035e05cc2993541f1caed70dbb25cdb5ba4b7c1d98eb",
      "transactionIndex": "0x7",
      "blockHash": "0x6bfd043572628d7cfb8330b494d6ecf42ed89ddafa461a84af9af7bc2f93e79c",
      "blockNumber": "0x2ca48bf",
      "gasUsed": "0x7282",
      "effectiveGasPrice": "0x7a121",
      "blobGasUsed": "0x9c40",
      "from": "0xc5b7b574ee84a9b59b475fe32eaf908c246d3859",
      "to": "0x4430a357cffddb3dd74e5ebcbb44828a841dd538",
      "contractAddress": null,
      "daFootprintGasScalar": "0x190",
      "l1BaseFeeScalar": "0x7d0",
      "l1BlobBaseFee": "0x38",
      "l1BlobBaseFeeScalar": "0xdbba0",
      "l1Fee": "0x13d0",
      "l1GasPrice": "0xa",
      "l1GasUsed": "0x640"
    },
    {
      "status": "0x1",
      "cumulativeGasUsed": "0x94023",
      "logs": [
        {
          "address": "0x00b036b58a818b1bc34d502d3fe730db729e62ac",
          "topics": [
            "0xf208f4912782fd25c7f114ca3723a2d5dd6f3bcc3ac8db5af63baa85f711d5ec",
            "0x92fdced8b28f5d586222dbbff0e5665122443c30a2cfb61893a28ba4df1e1b42",
            "0x0000000000000000000000005fa728c0a5cfd51bee4b060773f50554c0c8a7ab"
          ],
          "data": "0xfffffffffffffffffffffffffffffffffffffffffffffffffffffffffff2764c00000000000000000000000000000000000000000000000000000000000d89b400000000000000000000000000000000000000000000021e19e0c9bab24000000000000000000000000000000000000000000000000000000000000000000000",
          "blockHash": "0x0000000000000000000000000000000000000000000000000000000000000000",
          "blockNumber": "0x2ca48c3",
          "blockTimestamp": "0x69b7f60f",
          "transactionHash": "0x39cbf0f26b7e1c012d00573f17e68fb2221e5f3018282be630613a4cfc403789",
          "transactionIndex": "0x4",
          "logIndex": "0x2",
          "removed": false
        },
        {
          "address": "0x8b1800805b478fb66bb58331662899157cec4dd4",
          "topics": [
            "0xa56e19c5f806ae66a3b7d8c0b92d13ddf628502c9b47f577580f5f6a4e1deb2a",
            "0x000000000000000000000000079bb29d652294b01f4bdf86bb318277e0892e14",
            "0x92fdced8b28f5d586222dbbff0e5665122443c30a2cfb61893a28ba4df1e1b42"
          ],
          "data": "0x00000000000000000000000000000000000000000000021e19e0c9bab2400000",
          "blockHash": "0x0000000000000000000000000000000000000000000000000000000000000000",
          "blockNumber": "0x2ca48c3",
          "blockTimestamp": "0x69b7f60f",
          "transactionHash": "0x39cbf0f26b7e1c012d00573f17e68fb2221e5f3018282be630613a4cfc403789",
          "transactionIndex": "0x4",
          "logIndex": "0x3",
          "removed": false
        },
        {
          "address": "0x6127fe036b9cd6435404e56365f904167298c640",
          "topics": [
            "0x9fcca7d4a4fe21922427fa68ae954a11518460e4298a953677db412ad22d6f39",
            "0x000000000000000000000000079bb29d652294b01f4bdf86bb318277e0892e14",
            "0x92fdced8b28f5d586222dbbff0e5665122443c30a2cfb61893a28ba4df1e1b42"
          ],
          "data": "0x00000000000000000000000000000000000000000000021e19e0c9bab2400000",
          "blockHash": "0x0000000000000000000000000000000000000000000000000000000000000000",
          "blockNumber": "0x2ca48c3",
          "blockTimestamp": "0x69b7f60f",
          "transactionHash": "0x39cbf0f26b7e1c012d00573f17e68fb2221e5f3018282be630613a4cfc403789",
          "transactionIndex": "0x4",
          "logIndex": "0x4",
          "removed": false
        },
        {
          "address": "0x20bd9fe1b5ff98729993d13514360db6a7461ac4",
          "topics": [
            "0xddf252ad1be2c89b69c2b068fc378daa952ba7f163c4a11628f55a4df523b3ef",
            "0x000000000000000000000000c5b7b574ee84a9b59b475fe32eaf908c246d3859",
            "0x00000000000000000000000000b036b58a818b1bc34d502d3fe730db729e62ac"
          ],
          "data": "0x00000000000000000000000000000000000000000000021e19e0c9bab23ffde1",
          "blockHash": "0x0000000000000000000000000000000000000000000000000000000000000000",
          "blockNumber": "0x2ca48c3",
          "blockTimestamp": "0x69b7f60f",
          "transactionHash": "0x39cbf0f26b7e1c012d00573f17e68fb2221e5f3018282be630613a4cfc403789",
          "transactionIndex": "0x4",
          "logIndex": "0x5",
          "removed": false
        },
        {
          "address": "0x4430a357cffddb3dd74e5ebcbb44828a841dd538",
          "topics": [
            "0xddf252ad1be2c89b69c2b068fc378daa952ba7f163c4a11628f55a4df523b3ef",
            "0x000000000000000000000000c5b7b574ee84a9b59b475fe32eaf908c246d3859",
            "0x00000000000000000000000000b036b58a818b1bc34d502d3fe730db729e62ac"
          ],
          "data": "0x00000000000000000000000000000000000000000000021e19e0c9bab23ffde1",
          "blockHash": "0x0000000000000000000000000000000000000000000000000000000000000000",
          "blockNumber": "0x2ca48c3",
          "blockTimestamp": "0x69b7f60f",
          "transactionHash": "0x39cbf0f26b7e1c012d00573f17e68fb2221e5f3018282be630613a4cfc403789",
          "transactionIndex": "0x4",
          "logIndex": "0x6",
          "removed": false
        }
      ],
      "logsBloom": "0x000000000000040000000000000000000010000001000000000000000000000000000000000000000000000000000000000000000010000000000800000000000000000000010000000000080000000000000000000100000000000008000000000000000000020000000000000040000000000000000000000000100000000000000004010000000000004000080400000000000000080000a0000200001000000004000000008000000000000000004000000000000020000000000000400000080002000000000000000000000000002200000000002000100000000000000000080010000000000000001000000004080000000202100000000000000010",
      "type": "0x2",
      "transactionHash": "0x39cbf0f26b7e1c012d00573f17e68fb2221e5f3018282be630613a4cfc403789",
      "transactionIndex": "0x4",
      "blockHash": "0x0000000000000000000000000000000000000000000000000000000000000000",
      "blockNumber": "0x2ca48c3",
      "gasUsed": "0x55605",
      "effectiveGasPrice": "0x7a121",
      "blobGasUsed": "0x104f0",
      "from": "0xc5b7b574ee84a9b59b475fe32eaf908c246d3859",
      "to": "0x5fa728c0a5cfd51bee4b060773f50554c0c8a7ab",
      "contractAddress": null,
      "daFootprintGasScalar": "0x190",
      "l1BaseFeeScalar": "0x7d0",
      "l1BlobBaseFee": "0x38",
      "l1BlobBaseFeeScalar": "0xdbba0",
      "l1Fee": "0x1b86",
      "l1GasPrice": "0xa",
      "l1GasUsed": "0xa76"
    }
  ],
  "libraries": [],
  "pending": [],
  "returns": {},
  "timestamp": 1773663759075,
  "chain": 1301,
  "commit": "d3ae328"
}