{
  "transactions": [
    {
      "hash": "0xcb60094856a055f0658d7b26a757cce937ea165871eac4e03c9b2cfcf55e58b7",
      "transactionType": "CREATE",
      "contractName": "TestToken",
      "contractAddress": "0xb2b76faec41b7d1edd66351f67bca12bd95e8bf9",
      "function": null,
      "arguments": [
        "Demo USDC",
        "dUSDC"
      ],
      "transaction": {
        "from": "0xc5b7b574ee84a9b59b475fe32eaf908c246d3859",
        "gas": "0xb5aed",
        "value": "0x0",
        "input": "0x608060405234801561000f575f80fd5b50604051610ba5380380610ba583398101604081905261002e9161026d565b8181600361003c8382610356565b5060046100498282610356565b5050506100663369d3c21bcecceda100000061006d60201b60201c565b5050610435565b6001600160a01b03821661009b5760405163ec442f0560e01b81525f60048201526024015b60405180910390fd5b6100a65f83836100aa565b5050565b6001600160a01b0383166100d4578060025f8282546100c99190610410565b909155506101449050565b6001600160a01b0383165f90815260208190526040902054818110156101265760405163391434e360e21b81526001600160a01b03851660048201526024810182905260448101839052606401610092565b6001600160a01b0384165f9081526020819052604090209082900390555b6001600160a01b0382166101605760028054829003905561017e565b6001600160a01b0382165f9081526020819052604090208054820190555b816001600160a01b0316836001600160a01b03167fddf252ad1be2c89b69c2b068fc378daa952ba7f163c4a11628f55a4df523b3ef836040516101c391815260200190565b60405180910390a3505050565b634e487b7160e01b5f52604160045260245ffd5b5f82601f8301126101f3575f80fd5b81516001600160401b0381111561020c5761020c6101d0565b604051601f8201601f19908116603f011681016001600160401b038111828210171561023a5761023a6101d0565b604052818152838201602001851015610251575f80fd5b8160208501602083015e5f918101602001919091529392505050565b5f806040838503121561027e575f80fd5b82516001600160401b03811115610293575f80fd5b61029f858286016101e4565b602085015190935090506001600160401b038111156102bc575f80fd5b6102c8858286016101e4565b9150509250929050565b600181811c908216806102e657607f821691505b60208210810361030457634e487b7160e01b5f52602260045260245ffd5b50919050565b601f82111561035157805f5260205f20601f840160051c8101602085101561032f5750805b601f840160051c820191505b8181101561034e575f815560010161033b565b50505b505050565b81516001600160401b0381111561036f5761036f6101d0565b6103838161037d84546102d2565b8461030a565b6020601f8211600181146103b5575f831561039e5750848201515b5f19600385901b1c1916600184901b17845561034e565b5f84815260208120601f198516915b828110156103e457878501518255602094850194600190920191016103c4565b508482101561040157868401515f19600387901b60f8161c191681555b50505050600190811b01905550565b8082018082111561042f57634e487b7160e01b5f52601160045260245ffd5b92915050565b610763806104425f395ff3fe608060405234801561000f575f80fd5b50600436106100b9575f3560e01c806340c10f191161007257806395d89b411161005857806395d89b411461016f578063a9059cbb14610177578063dd62ed3e1461018a575f80fd5b806340c10f191461013257806370a0823114610147575f80fd5b806318160ddd116100a257806318160ddd146100fe57806323b872dd14610110578063313ce56714610123575f80fd5b806306fdde03146100bd578063095ea7b3146100db575b5f80fd5b6100c56101c2565b6040516100d291906105d3565b60405180910390f35b6100ee6100e9366004610623565b610252565b60405190151581526020016100d2565b6002545b6040519081526020016100d2565b6100ee61011e36600461064b565b61026b565b604051601281526020016100d2565b610145610140366004610623565b61028e565b005b610102610155366004610685565b6001600160a01b03165f9081526020819052604090205490565b6100c561029c565b6100ee610185366004610623565b6102ab565b6101026101983660046106a5565b6001600160a01b039182165f90815260016020908152604080832093909416825291909152205490565b6060600380546101d1906106d6565b80601f01602080910402602001604051908101604052809291908181526020018280546101fd906106d6565b80156102485780601f1061021f57610100808354040283529160200191610248565b820191905f5260205f20905b81548152906001019060200180831161022b57829003601f168201915b5050505050905090565b5f3361025f8185856102b8565b60019150505b92915050565b5f336102788582856102ca565b61028385858561034a565b506001949350505050565b61029882826103a7565b5050565b6060600480546101d1906106d6565b5f3361025f81858561034a565b6102c583838360016103db565b505050565b6001600160a01b038381165f908152600160209081526040808320938616835292905220545f198114610344578181101561033657604051637dc7a0d960e11b81526001600160a01b038416600482015260248101829052604481018390526064015b60405180910390fd5b61034484848484035f6103db565b50505050565b6001600160a01b03831661037357604051634b637e8f60e11b81525f600482015260240161032d565b6001600160a01b03821661039c5760405163ec442f0560e01b81525f600482015260240161032d565b6102c58383836104ad565b6001600160a01b0382166103d05760405163ec442f0560e01b81525f600482015260240161032d565b6102985f83836104ad565b6001600160a01b0384166104045760405163e602df0560e01b81525f600482015260240161032d565b6001600160a01b03831661042d57604051634a1406b160e11b81525f600482015260240161032d565b6001600160a01b038085165f908152600160209081526040808320938716835292905220829055801561034457826001600160a01b0316846001600160a01b03167f8c5be1e5ebec7d5bd14f71427d1e84f3dd0314c0f7b2291e5b200ac8c7c3b9258460405161049f91815260200190565b60405180910390a350505050565b6001600160a01b0383166104d7578060025f8282546104cc919061070e565b909155506105479050565b6001600160a01b0383165f90815260208190526040902054818110156105295760405163391434e360e21b81526001600160a01b0385166004820152602481018290526044810183905260640161032d565b6001600160a01b0384165f9081526020819052604090209082900390555b6001600160a01b03821661056357600280548290039055610581565b6001600160a01b0382165f9081526020819052604090208054820190555b816001600160a01b0316836001600160a01b03167fddf252ad1be2c89b69c2b068fc378daa952ba7f163c4a11628f55a4df523b3ef836040516105c691815260200190565b60405180910390a3505050565b602081525f82518060208401528060208501604085015e5f604082850101526040601f19601f83011684010191505092915050565b80356001600160a01b038116811461061e575f80fd5b919050565b5f8060408385031215610634575f80fd5b61063d83610608565b946020939093013593505050565b5f805f6060848603121561065d575f80fd5b61066684610608565b925061067460208501610608565b929592945050506040919091013590565b5f60208284031215610695575f80fd5b61069e82610608565b9392505050565b5f80604083850312156106b6575f80fd5b6106bf83610608565b91506106cd60208401610608565b90509250929050565b600181811c908216806106ea57607f821691505b60208210810361070857634e487b7160e01b5f52602260045260245ffd5b50919050565b8082018082111561026557634e487b7160e01b5f52601160045260245ffdfea264697066735822122088c3783f6f28345c1b08222b50857fae978cd0f151270a42a87dbb114a75a67664736f6c634300081a003300000000000000000000000000000000000000000000000000000000000000400000000000000000000000000000000000000000000000000000000000000080000000000000000000000000000000000000000000000000000000000000000944656d6f2055534443000000000000000000000000000000000000000000000000000000000000000000000000000000000000000000000000000000000000056455534443000000000000000000000000000000000000000000000000000000",
        "nonce": "0x1b4",
        "chainId": "0x515"
      },
      "additionalContracts": [],
      "isFixedGasLimit": false
    },
    {
      "hash": "0x44272bb4b1b096442eb95c68fcf431426e745e88033a7930fc7126abb2895fd9",
      "transactionType": "CREATE",
      "contractName": "TestToken",
      "contractAddress": "0xb40812456931ed4035f3d07f547e7f293b467100",
      "function": null,
      "arguments": [
        "Nova Protocol",
        "NOVA"
      ],
      "transaction": {
        "from": "0xc5b7b574ee84a9b59b475fe32eaf908c246d3859",
        "gas": "0xb5b1c",
        "value": "0x0",
        "input": "0x608060405234801561000f575f80fd5b50604051610ba5380380610ba583398101604081905261002e9161026d565b8181600361003c8382610356565b5060046100498282610356565b5050506100663369d3c21bcecceda100000061006d60201b60201c565b5050610435565b6001600160a01b03821661009b5760405163ec442f0560e01b81525f60048201526024015b60405180910390fd5b6100a65f83836100aa565b5050565b6001600160a01b0383166100d4578060025f8282546100c99190610410565b909155506101449050565b6001600160a01b0383165f90815260208190526040902054818110156101265760405163391434e360e21b81526001600160a01b03851660048201526024810182905260448101839052606401610092565b6001600160a01b0384165f9081526020819052604090209082900390555b6001600160a01b0382166101605760028054829003905561017e565b6001600160a01b0382165f9081526020819052604090208054820190555b816001600160a01b0316836001600160a01b03167fddf252ad1be2c89b69c2b068fc378daa952ba7f163c4a11628f55a4df523b3ef836040516101c391815260200190565b60405180910390a3505050565b634e487b7160e01b5f52604160045260245ffd5b5f82601f8301126101f3575f80fd5b81516001600160401b0381111561020c5761020c6101d0565b604051601f8201601f19908116603f011681016001600160401b038111828210171561023a5761023a6101d0565b604052818152838201602001851015610251575f80fd5b8160208501602083015e5f918101602001919091529392505050565b5f806040838503121561027e575f80fd5b82516001600160401b03811115610293575f80fd5b61029f858286016101e4565b602085015190935090506001600160401b038111156102bc575f80fd5b6102c8858286016101e4565b9150509250929050565b600181811c908216806102e657607f821691505b60208210810361030457634e487b7160e01b5f52602260045260245ffd5b50919050565b601f82111561035157805f5260205f20601f840160051c8101602085101561032f5750805b601f840160051c820191505b8181101561034e575f815560010161033b565b50505b505050565b81516001600160401b0381111561036f5761036f6101d0565b6103838161037d84546102d2565b8461030a565b6020601f8211600181146103b5575f831561039e5750848201515b5f19600385901b1c1916600184901b17845561034e565b5f84815260208120601f198516915b828110156103e457878501518255602094850194600190920191016103c4565b508482101561040157868401515f19600387901b60f8161c191681555b50505050600190811b01905550565b8082018082111561042f57634e487b7160e01b5f52601160045260245ffd5b92915050565b610763806104425f395ff3fe608060405234801561000f575f80fd5b50600436106100b9575f3560e01c806340c10f191161007257806395d89b411161005857806395d89b411461016f578063a9059cbb14610177578063dd62ed3e1461018a575f80fd5b806340c10f191461013257806370a0823114610147575f80fd5b806318160ddd116100a257806318160ddd146100fe57806323b872dd14610110578063313ce56714610123575f80fd5b806306fdde03146100bd578063095ea7b3146100db575b5f80fd5b6100c56101c2565b6040516100d291906105d3565b60405180910390f35b6100ee6100e9366004610623565b610252565b60405190151581526020016100d2565b6002545b6040519081526020016100d2565b6100ee61011e36600461064b565b61026b565b604051601281526020016100d2565b610145610140366004610623565b61028e565b005b610102610155366004610685565b6001600160a01b03165f9081526020819052604090205490565b6100c561029c565b6100ee610185366004610623565b6102ab565b6101026101983660046106a5565b6001600160a01b039182165f90815260016020908152604080832093909416825291909152205490565b6060600380546101d1906106d6565b80601f01602080910402602001604051908101604052809291908181526020018280546101fd906106d6565b80156102485780601f1061021f57610100808354040283529160200191610248565b820191905f5260205f20905b81548152906001019060200180831161022b57829003601f168201915b5050505050905090565b5f3361025f8185856102b8565b60019150505b92915050565b5f336102788582856102ca565b61028385858561034a565b506001949350505050565b61029882826103a7565b5050565b6060600480546101d1906106d6565b5f3361025f81858561034a565b6102c583838360016103db565b505050565b6001600160a01b038381165f908152600160209081526040808320938616835292905220545f198114610344578181101561033657604051637dc7a0d960e11b81526001600160a01b038416600482015260248101829052604481018390526064015b60405180910390fd5b61034484848484035f6103db565b50505050565b6001600160a01b03831661037357604051634b637e8f60e11b81525f600482015260240161032d565b6001600160a01b03821661039c5760405163ec442f0560e01b81525f600482015260240161032d565b6102c58383836104ad565b6001600160a01b0382166103d05760405163ec442f0560e01b81525f600482015260240161032d565b6102985f83836104ad565b6001600160a01b0384166104045760405163e602df0560e01b81525f600482015260240161032d565b6001600160a01b03831661042d57604051634a1406b160e11b81525f600482015260240161032d565b6001600160a01b038085165f908152600160209081526040808320938716835292905220829055801561034457826001600160a01b0316846001600160a01b03167f8c5be1e5ebec7d5bd14f71427d1e84f3dd0314c0f7b2291e5b200ac8c7c3b9258460405161049f91815260200190565b60405180910390a350505050565b6001600160a01b0383166104d7578060025f8282546104cc919061070e565b909155506105479050565b6001600160a01b0383165f90815260208190526040902054818110156105295760405163391434e360e21b81526001600160a01b0385166004820152602481018290526044810183905260640161032d565b6001600160a01b0384165f9081526020819052604090209082900390555b6001600160a01b03821661056357600280548290039055610581565b6001600160a01b0382165f9081526020819052604090208054820190555b816001600160a01b0316836001600160a01b03167fddf252ad1be2c89b69c2b068fc378daa952ba7f163c4a11628f55a4df523b3ef836040516105c691815260200190565b60405180910390a3505050565b602081525f82518060208401528060208501604085015e5f604082850101526040601f19601f83011684010191505092915050565b80356001600160a01b038116811461061e575f80fd5b919050565b5f8060408385031215610634575f80fd5b61063d83610608565b946020939093013593505050565b5f805f6060848603121561065d575f80fd5b61066684610608565b925061067460208501610608565b929592945050506040919091013590565b5f60208284031215610695575f80fd5b61069e82610608565b9392505050565b5f80604083850312156106b6575f80fd5b6106bf83610608565b91506106cd60208401610608565b90509250929050565b600181811c908216806106ea57607f821691505b60208210810361070857634e487b7160e01b5f52602260045260245ffd5b50919050565b8082018082111561026557634e487b7160e01b5f52601160045260245ffdfea264697066735822122088c3783f6f28345c1b08222b50857fae978cd0f151270a42a87dbb114a75a67664736f6c634300081a003300000000000000000000000000000000000000000000000000000000000000400000000000000000000000000000000000000000000000000000000000000080000000000000000000000000000000000000000000000000000000000000000d4e6f76612050726f746f636f6c0000000000000000000000000000000000000000000000000000000000000000000000000000000000000000000000000000044e4f564100000000000000000000000000000000000000000000000000000000",
        "nonce": "0x1b5",
        "chainId": "0x515"
      },
      "additionalContracts": [],
      "isFixedGasLimit": false
    },
    {
      "hash": "0x822016e88d1ebdd28698b037f5959006adc4b9be9d6734d479f5ba38989cc7a6",
      "transactionType": "CREATE",
      "contractName": "TestToken",
      "contractAddress": "0x971de78de4b71d2110e1cc91a12983fcec4efbb9",
      "function": null,
      "arguments": [
        "Stellar DeFi",
        "STLR"
      ],
      "transaction": {
        "from": "0xc5b7b574ee84a9b59b475fe32eaf908c246d3859",
        "gas": "0xb5b0c",
        "value": "0x0",
        "input": "0x608060405234801561000f575f80fd5b50604051610ba5380380610ba583398101604081905261002e9161026d565b8181600361003c8382610356565b5060046100498282610356565b5050506100663369d3c21bcecceda100000061006d60201b60201c565b5050610435565b6001600160a01b03821661009b5760405163ec442f0560e01b81525f60048201526024015b60405180910390fd5b6100a65f83836100aa565b5050565b6001600160a01b0383166100d4578060025f8282546100c99190610410565b909155506101449050565b6001600160a01b0383165f90815260208190526040902054818110156101265760405163391434e360e21b81526001600160a01b03851660048201526024810182905260448101839052606401610092565b6001600160a01b0384165f9081526020819052604090209082900390555b6001600160a01b0382166101605760028054829003905561017e565b6001600160a01b0382165f9081526020819052604090208054820190555b816001600160a01b0316836001600160a01b03167fddf252ad1be2c89b69c2b068fc378daa952ba7f163c4a11628f55a4df523b3ef836040516101c391815260200190565b60405180910390a3505050565b634e487b7160e01b5f52604160045260245ffd5b5f82601f8301126101f3575f80fd5b81516001600160401b0381111561020c5761020c6101d0565b604051601f8201601f19908116603f011681016001600160401b038111828210171561023a5761023a6101d0565b604052818152838201602001851015610251575f80fd5b8160208501602083015e5f918101602001919091529392505050565b5f806040838503121561027e575f80fd5b82516001600160401b03811115610293575f80fd5b61029f858286016101e4565b602085015190935090506001600160401b038111156102bc575f80fd5b6102c8858286016101e4565b9150509250929050565b600181811c908216806102e657607f821691505b60208210810361030457634e487b7160e01b5f52602260045260245ffd5b50919050565b601f82111561035157805f5260205f20601f840160051c8101602085101561032f5750805b601f840160051c820191505b8181101561034e575f815560010161033b565b50505b505050565b81516001600160401b0381111561036f5761036f6101d0565b6103838161037d84546102d2565b8461030a565b6020601f8211600181146103b5575f831561039e5750848201515b5f19600385901b1c1916600184901b17845561034e565b5f84815260208120601f198516915b828110156103e457878501518255602094850194600190920191016103c4565b508482101561040157868401515f19600387901b60f8161c191681555b50505050600190811b01905550565b8082018082111561042f57634e487b7160e01b5f52601160045260245ffd5b92915050565b610763806104425f395ff3fe608060405234801561000f575f80fd5b50600436106100b9575f3560e01c806340c10f191161007257806395d89b411161005857806395d89b411461016f578063a9059cbb14610177578063dd62ed3e1461018a575f80fd5b806340c10f191461013257806370a0823114610147575f80fd5b806318160ddd116100a257806318160ddd146100fe57806323b872dd14610110578063313ce56714610123575f80fd5b806306fdde03146100bd578063095ea7b3146100db575b5f80fd5b6100c56101c2565b6040516100d291906105d3565b60405180910390f35b6100ee6100e9366004610623565b610252565b60405190151581526020016100d2565b6002545b6040519081526020016100d2565b6100ee61011e36600461064b565b61026b565b604051601281526020016100d2565b610145610140366004610623565b61028e565b005b610102610155366004610685565b6001600160a01b03165f9081526020819052604090205490565b6100c561029c565b6100ee610185366004610623565b6102ab565b6101026101983660046106a5565b6001600160a01b039182165f90815260016020908152604080832093909416825291909152205490565b6060600380546101d1906106d6565b80601f01602080910402602001604051908101604052809291908181526020018280546101fd906106d6565b80156102485780601f1061021f57610100808354040283529160200191610248565b820191905f5260205f20905b81548152906001019060200180831161022b57829003601f168201915b5050505050905090565b5f3361025f8185856102b8565b60019150505b92915050565b5f336102788582856102ca565b61028385858561034a565b506001949350505050565b61029882826103a7565b5050565b6060600480546101d1906106d6565b5f3361025f81858561034a565b6102c583838360016103db565b505050565b6001600160a01b038381165f908152600160209081526040808320938616835292905220545f198114610344578181101561033657604051637dc7a0d960e11b81526001600160a01b038416600482015260248101829052604481018390526064015b60405180910390fd5b61034484848484035f6103db565b50505050565b6001600160a01b03831661037357604051634b637e8f60e11b81525f600482015260240161032d565b6001600160a01b03821661039c5760405163ec442f0560e01b81525f600482015260240161032d565b6102c58383836104ad565b6001600160a01b0382166103d05760405163ec442f0560e01b81525f600482015260240161032d565b6102985f83836104ad565b6001600160a01b0384166104045760405163e602df0560e01b81525f600482015260240161032d565b6001600160a01b03831661042d57604051634a1406b160e11b81525f600482015260240161032d565b6001600160a01b038085165f908152600160209081526040808320938716835292905220829055801561034457826001600160a01b0316846001600160a01b03167f8c5be1e5ebec7d5bd14f71427d1e84f3dd0314c0f7b2291e5b200ac8c7c3b9258460405161049f91815260200190565b60405180910390a350505050565b6001600160a01b0383166104d7578060025f8282546104cc919061070e565b909155506105479050565b6001600160a01b0383165f90815260208190526040902054818110156105295760405163391434e360e21b81526001600160a01b0385166004820152602481018290526044810183905260640161032d565b6001600160a01b0384165f9081526020819052604090209082900390555b6001600160a01b03821661056357600280548290039055610581565b6001600160a01b0382165f9081526020819052604090208054820190555b816001600160a01b0316836001600160a01b03167fddf252ad1be2c89b69c2b068fc378daa952ba7f163c4a11628f55a4df523b3ef836040516105c691815260200190565b60405180910390a3505050565b602081525f82518060208401528060208501604085015e5f604082850101526040601f19601f83011684010191505092915050565b80356001600160a01b038116811461061e575f80fd5b919050565b5f8060408385031215610634575f80fd5b61063d83610608565b946020939093013593505050565b5f805f6060848603121561065d575f80fd5b61066684610608565b925061067460208501610608565b929592945050506040919091013590565b5f60208284031215610695575f80fd5b61069e82610608565b9392505050565b5f80604083850312156106b6575f80fd5b6106bf83610608565b91506106cd60208401610608565b90509250929050565b600181811c908216806106ea57607f821691505b60208210810361070857634e487b7160e01b5f52602260045260245ffd5b50919050565b8082018082111561026557634e487b7160e01b5f52601160045260245ffdfea264697066735822122088c3783f6f28345c1b08222b50857fae978cd0f151270a42a87dbb114a75a67664736f6c634300081a003300000000000000000000000000000000000000000000000000000000000000400000000000000000000000000000000000000000000000000000000000000080000000000000000000000000000000000000000000000000000000000000000c5374656c6c617220446546690000000000000000000000000000000000000000000000000000000000000000000000000000000000000000000000000000000453544c5200000000000000000000000000000000000000000000000000000000",
        "nonce": "0x1b6",
        "chainId": "0x515"
      },
      "additionalContracts": [],
      "isFixedGasLimit": false
    },
    {
      "hash": "0x7476e4aeee4478c980fa78a02c09dd44c455bbcaaf088cd731b5e3f99ea7250b",
      "transactionType": "CREATE",
      "contractName": "TestToken",
      "contractAddress": "0x2866769a0d61ab4411b9b50cd86dc3179e02b6de",
      "function": null,
      "arguments": [
        "Orbit Finance",
        "ORBIT"
      ],
      "transaction": {
        "from": "0xc5b7b574ee84a9b59b475fe32eaf908c246d3859",
        "gas": "0xb5b2b",
        "value": "0x0",
        "input": "0x608060405234801561000f575f80fd5b50604051610ba5380380610ba583398101604081905261002e9161026d565b8181600361003c8382610356565b5060046100498282610356565b5050506100663369d3c21bcecceda100000061006d60201b60201c565b5050610435565b6001600160a01b03821661009b5760405163ec442f0560e01b81525f60048201526024015b60405180910390fd5b6100a65f83836100aa565b5050565b6001600160a01b0383166100d4578060025f8282546100c99190610410565b909155506101449050565b6001600160a01b0383165f90815260208190526040902054818110156101265760405163391434e360e21b81526001600160a01b03851660048201526024810182905260448101839052606401610092565b6001600160a01b0384165f9081526020819052604090209082900390555b6001600160a01b0382166101605760028054829003905561017e565b6001600160a01b0382165f9081526020819052604090208054820190555b816001600160a01b0316836001600160a01b03167fddf252ad1be2c89b69c2b068fc378daa952ba7f163c4a11628f55a4df523b3ef836040516101c391815260200190565b60405180910390a3505050565b634e487b7160e01b5f52604160045260245ffd5b5f82601f8301126101f3575f80fd5b81516001600160401b0381111561020c5761020c6101d0565b604051601f8201601f19908116603f011681016001600160401b038111828210171561023a5761023a6101d0565b604052818152838201602001851015610251575f80fd5b8160208501602083015e5f918101602001919091529392505050565b5f806040838503121561027e575f80fd5b82516001600160401b03811115610293575f80fd5b61029f858286016101e4565b602085015190935090506001600160401b038111156102bc575f80fd5b6102c8858286016101e4565b9150509250929050565b600181811c908216806102e657607f821691505b60208210810361030457634e487b7160e01b5f52602260045260245ffd5b50919050565b601f82111561035157805f5260205f20601f840160051c8101602085101561032f5750805b601f840160051c820191505b8181101561034e575f815560010161033b565b50505b505050565b81516001600160401b0381111561036f5761036f6101d0565b6103838161037d84546102d2565b8461030a565b6020601f8211600181146103b5575f831561039e5750848201515b5f19600385901b1c1916600184901b17845561034e565b5f84815260208120601f198516915b828110156103e457878501518255602094850194600190920191016103c4565b508482101561040157868401515f19600387901b60f8161c191681555b50505050600190811b01905550565b8082018082111561042f57634e487b7160e01b5f52601160045260245ffd5b92915050565b610763806104425f395ff3fe608060405234801561000f575f80fd5b50600436106100b9575f3560e01c806340c10f191161007257806395d89b411161005857806395d89b411461016f578063a9059cbb14610177578063dd62ed3e1461018a575f80fd5b806340c10f191461013257806370a0823114610147575f80fd5b806318160ddd116100a257806318160ddd146100fe57806323b872dd14610110578063313ce56714610123575f80fd5b806306fdde03146100bd578063095ea7b3146100db575b5f80fd5b6100c56101c2565b6040516100d291906105d3565b60405180910390f35b6100ee6100e9366004610623565b610252565b60405190151581526020016100d2565b6002545b6040519081526020016100d2565b6100ee61011e36600461064b565b61026b565b604051601281526020016100d2565b610145610140366004610623565b61028e565b005b610102610155366004610685565b6001600160a01b03165f9081526020819052604090205490565b6100c561029c565b6100ee610185366004610623565b6102ab565b6101026101983660046106a5565b6001600160a01b039182165f90815260016020908152604080832093909416825291909152205490565b6060600380546101d1906106d6565b80601f01602080910402602001604051908101604052809291908181526020018280546101fd906106d6565b80156102485780601f1061021f57610100808354040283529160200191610248565b820191905f5260205f20905b81548152906001019060200180831161022b57829003601f168201915b5050505050905090565b5f3361025f8185856102b8565b60019150505b92915050565b5f336102788582856102ca565b61028385858561034a565b506001949350505050565b61029882826103a7565b5050565b6060600480546101d1906106d6565b5f3361025f81858561034a565b6102c583838360016103db565b505050565b6001600160a01b038381165f908152600160209081526040808320938616835292905220545f198114610344578181101561033657604051637dc7a0d960e11b81526001600160a01b038416600482015260248101829052604481018390526064015b60405180910390fd5b61034484848484035f6103db565b50505050565b6001600160a01b03831661037357604051634b637e8f60e11b81525f600482015260240161032d565b6001600160a01b03821661039c5760405163ec442f0560e01b81525f600482015260240161032d565b6102c58383836104ad565b6001600160a01b0382166103d05760405163ec442f0560e01b81525f600482015260240161032d565b6102985f83836104ad565b6001600160a01b0384166104045760405163e602df0560e01b81525f600482015260240161032d565b6001600160a01b03831661042d57604051634a1406b160e11b81525f600482015260240161032d565b6001600160a01b038085165f908152600160209081526040808320938716835292905220829055801561034457826001600160a01b0316846001600160a01b03167f8c5be1e5ebec7d5bd14f71427d1e84f3dd0314c0f7b2291e5b200ac8c7c3b9258460405161049f91815260200190565b60405180910390a350505050565b6001600160a01b0383166104d7578060025f8282546104cc919061070e565b909155506105479050565b6001600160a01b0383165f90815260208190526040902054818110156105295760405163391434e360e21b81526001600160a01b0385166004820152602481018290526044810183905260640161032d565b6001600160a01b0384165f9081526020819052604090209082900390555b6001600160a01b03821661056357600280548290039055610581565b6001600160a01b0382165f9081526020819052604090208054820190555b816001600160a01b0316836001600160a01b03167fddf252ad1be2c89b69c2b068fc378daa952ba7f163c4a11628f55a4df523b3ef836040516105c691815260200190565b60405180910390a3505050565b602081525f82518060208401528060208501604085015e5f604082850101526040601f19601f83011684010191505092915050565b80356001600160a01b038116811461061e575f80fd5b919050565b5f8060408385031215610634575f80fd5b61063d83610608565b946020939093013593505050565b5f805f6060848603121561065d575f80fd5b61066684610608565b925061067460208501610608565b929592945050506040919091013590565b5f60208284031215610695575f80fd5b61069e82610608565b9392505050565b5f80604083850312156106b6575f80fd5b6106bf83610608565b91506106cd60208401610608565b90509250929050565b600181811c908216806106ea57607f821691505b60208210810361070857634e487b7160e01b5f52602260045260245ffd5b50919050565b8082018082111561026557634e487b7160e01b5f52601160045260245ffdfea264697066735822122088c3783f6f28345c1b08222b50857fae978cd0f151270a42a87dbb114a75a67664736f6c634300081a003300000000000000000000000000000000000000000000000000000000000000400000000000000000000000000000000000000000000000000000000000000080000000000000000000000000000000000000000000000000000000000000000d4f726269742046696e616e63650000000000000000000000000000000000000000000000000000000000000000000000000000000000000000000000000000054f52424954000000000000000000000000000000000000000000000000000000",
        "nonce": "0x1b7",
        "chainId": "0x515"
      },
      "additionalContracts": [],
      "isFixedGasLimit": false
    },
    {
      "hash": "0x5cb316a173c5d26993e3c89823cf1ab85f0f99a72ee335650588e172905ad31c",
      "transactionType": "CREATE",
      "contractName": "TestToken",
      "contractAddress": "0x381d5d63b78eaa6c30496e53fa11e25b66245f38",
      "function": null,
      "arguments": [
        "Zenith Labs",
        "ZEN"
      ],
      "transaction": {
        "from": "0xc5b7b574ee84a9b59b475fe32eaf908c246d3859",
        "gas": "0xb5aed",
        "value": "0x0",
        "input": "0x608060405234801561000f575f80fd5b50604051610ba5380380610ba583398101604081905261002e9161026d565b8181600361003c8382610356565b5060046100498282610356565b5050506100663369d3c21bcecceda100000061006d60201b60201c565b5050610435565b6001600160a01b03821661009b5760405163ec442f0560e01b81525f60048201526024015b60405180910390fd5b6100a65f83836100aa565b5050565b6001600160a01b0383166100d4578060025f8282546100c99190610410565b909155506101449050565b6001600160a01b0383165f90815260208190526040902054818110156101265760405163391434e360e21b81526001600160a01b03851660048201526024810182905260448101839052606401610092565b6001600160a01b0384165f9081526020819052604090209082900390555b6001600160a01b0382166101605760028054829003905561017e565b6001600160a01b0382165f9081526020819052604090208054820190555b816001600160a01b0316836001600160a01b03167fddf252ad1be2c89b69c2b068fc378daa952ba7f163c4a11628f55a4df523b3ef836040516101c391815260200190565b60405180910390a3505050565b634e487b7160e01b5f52604160045260245ffd5b5f82601f8301126101f3575f80fd5b81516001600160401b0381111561020c5761020c6101d0565b604051601f8201601f19908116603f011681016001600160401b038111828210171561023a5761023a6101d0565b604052818152838201602001851015610251575f80fd5b8160208501602083015e5f918101602001919091529392505050565b5f806040838503121561027e575f80fd5b82516001600160401b03811115610293575f80fd5b61029f858286016101e4565b602085015190935090506001600160401b038111156102bc575f80fd5b6102c8858286016101e4565b9150509250929050565b600181811c908216806102e657607f821691505b60208210810361030457634e487b7160e01b5f52602260045260245ffd5b50919050565b601f82111561035157805f5260205f20601f840160051c8101602085101561032f5750805b601f840160051c820191505b8181101561034e575f815560010161033b565b50505b505050565b81516001600160401b0381111561036f5761036f6101d0565b6103838161037d84546102d2565b8461030a565b6020601f8211600181146103b5575f831561039e5750848201515b5f19600385901b1c1916600184901b17845561034e565b5f84815260208120601f198516915b828110156103e457878501518255602094850194600190920191016103c4565b508482101561040157868401515f19600387901b60f8161c191681555b50505050600190811b01905550565b8082018082111561042f57634e487b7160e01b5f52601160045260245ffd5b92915050565b610763806104425f395ff3fe608060405234801561000f575f80fd5b50600436106100b9575f3560e01c806340c10f191161007257806395d89b411161005857806395d89b411461016f578063a9059cbb14610177578063dd62ed3e1461018a575f80fd5b806340c10f191461013257806370a0823114610147575f80fd5b806318160ddd116100a257806318160ddd146100fe57806323b872dd14610110578063313ce56714610123575f80fd5b806306fdde03146100bd578063095ea7b3146100db575b5f80fd5b6100c56101c2565b6040516100d291906105d3565b60405180910390f35b6100ee6100e9366004610623565b610252565b60405190151581526020016100d2565b6002545b6040519081526020016100d2565b6100ee61011e36600461064b565b61026b565b604051601281526020016100d2565b610145610140366004610623565b61028e565b005b610102610155366004610685565b6001600160a01b03165f9081526020819052604090205490565b6100c561029c565b6100ee610185366004610623565b6102ab565b6101026101983660046106a5565b6001600160a01b039182165f90815260016020908152604080832093909416825291909152205490565b6060600380546101d1906106d6565b80601f01602080910402602001604051908101604052809291908181526020018280546101fd906106d6565b80156102485780601f1061021f57610100808354040283529160200191610248565b820191905f5260205f20905b81548152906001019060200180831161022b57829003601f168201915b5050505050905090565b5f3361025f8185856102b8565b60019150505b92915050565b5f336102788582856102ca565b61028385858561034a565b506001949350505050565b61029882826103a7565b5050565b6060600480546101d1906106d6565b5f3361025f81858561034a565b6102c583838360016103db565b505050565b6001600160a01b038381165f908152600160209081526040808320938616835292905220545f198114610344578181101561033657604051637dc7a0d960e11b81526001600160a01b038416600482015260248101829052604481018390526064015b60405180910390fd5b61034484848484035f6103db565b50505050565b6001600160a01b03831661037357604051634b637e8f60e11b81525f600482015260240161032d565b6001600160a01b03821661039c5760405163ec442f0560e01b81525f600482015260240161032d565b6102c58383836104ad565b6001600160a01b0382166103d05760405163ec442f0560e01b81525f600482015260240161032d565b6102985f83836104ad565b6001600160a01b0384166104045760405163e602df0560e01b81525f600482015260240161032d565b6001600160a01b03831661042d57604051634a1406b160e11b81525f600482015260240161032d565b6001600160a01b038085165f908152600160209081526040808320938716835292905220829055801561034457826001600160a01b0316846001600160a01b03167f8c5be1e5ebec7d5bd14f71427d1e84f3dd0314c0f7b2291e5b200ac8c7c3b9258460405161049f91815260200190565b60405180910390a350505050565b6001600160a01b0383166104d7578060025f8282546104cc919061070e565b909155506105479050565b6001600160a01b0383165f90815260208190526040902054818110156105295760405163391434e360e21b81526001600160a01b0385166004820152602481018290526044810183905260640161032d565b6001600160a01b0384165f9081526020819052604090209082900390555b6001600160a01b03821661056357600280548290039055610581565b6001600160a01b0382165f9081526020819052604090208054820190555b816001600160a01b0316836001600160a01b03167fddf252ad1be2c89b69c2b068fc378daa952ba7f163c4a11628f55a4df523b3ef836040516105c691815260200190565b60405180910390a3505050565b602081525f82518060208401528060208501604085015e5f604082850101526040601f19601f83011684010191505092915050565b80356001600160a01b038116811461061e575f80fd5b919050565b5f8060408385031215610634575f80fd5b61063d83610608565b946020939093013593505050565b5f805f6060848603121561065d575f80fd5b61066684610608565b925061067460208501610608565b929592945050506040919091013590565b5f60208284031215610695575f80fd5b61069e82610608565b9392505050565b5f80604083850312156106b6575f80fd5b6106bf83610608565b91506106cd60208401610608565b90509250929050565b600181811c908216806106ea57607f821691505b60208210810361070857634e487b7160e01b5f52602260045260245ffd5b50919050565b8082018082111561026557634e487b7160e01b5f52601160045260245ffdfea264697066735822122088c3783f6f28345c1b08222b50857fae978cd0f151270a42a87dbb114a75a67664736f6c634300081a003300000000000000000000000000000000000000000000000000000000000000400000000000000000000000000000000000000000000000000000000000000080000000000000000000000000000000000000000000000000000000000000000b5a656e697468204c61627300000000000000000000000000000000000000000000000000000000000000000000000000000000000000000000000000000000035a454e0000000000000000000000000000000000000000000000000000000000",
        "nonce": "0x1b8",
        "chainId": "0x515"
      },
      "additionalContracts": [],
      "isFixedGasLimit": false
    },
    {
      "hash": "0x721fe234589e35119a86bdf7cc70f0e91d9e1e440fb5559a9be1b9b41869c19a",
      "transactionType": "CREATE",
      "contractName": "TestToken",
      "contractAddress": "0x74b65b21598ab2f67554a8d1d8d3b79e4d171b29",
      "function": null,
      "arguments": [
        "Shadow Token",
        "SHDW"
      ],
      "transaction": {
        "from": "0xc5b7b574ee84a9b59b475fe32eaf908c246d3859",
        "gas": "0xb5b0c",
        "value": "0x0",
        "input": "0x608060405234801561000f575f80fd5b50604051610ba5380380610ba583398101604081905261002e9161026d565b8181600361003c8382610356565b5060046100498282610356565b5050506100663369d3c21bcecceda100000061006d60201b60201c565b5050610435565b6001600160a01b03821661009b5760405163ec442f0560e01b81525f60048201526024015b60405180910390fd5b6100a65f83836100aa565b5050565b6001600160a01b0383166100d4578060025f8282546100c99190610410565b909155506101449050565b6001600160a01b0383165f90815260208190526040902054818110156101265760405163391434e360e21b81526001600160a01b03851660048201526024810182905260448101839052606401610092565b6001600160a01b0384165f9081526020819052604090209082900390555b6001600160a01b0382166101605760028054829003905561017e565b6001600160a01b0382165f9081526020819052604090208054820190555b816001600160a01b0316836001600160a01b03167fddf252ad1be2c89b69c2b068fc378daa952ba7f163c4a11628f55a4df523b3ef836040516101c391815260200190565b60405180910390a3505050565b634e487b7160e01b5f52604160045260245ffd5b5f82601f8301126101f3575f80fd5b81516001600160401b0381111561020c5761020c6101d0565b604051601f8201601f19908116603f011681016001600160401b038111828210171561023a5761023a6101d0565b604052818152838201602001851015610251575f80fd5b8160208501602083015e5f918101602001919091529392505050565b5f806040838503121561027e575f80fd5b82516001600160401b03811115610293575f80fd5b61029f858286016101e4565b602085015190935090506001600160401b038111156102bc575f80fd5b6102c8858286016101e4565b9150509250929050565b600181811c908216806102e657607f821691505b60208210810361030457634e487b7160e01b5f52602260045260245ffd5b50919050565b601f82111561035157805f5260205f20601f840160051c8101602085101561032f5750805b601f840160051c820191505b8181101561034e575f815560010161033b565b50505b505050565b81516001600160401b0381111561036f5761036f6101d0565b6103838161037d84546102d2565b8461030a565b6020601f8211600181146103b5575f831561039e5750848201515b5f19600385901b1c1916600184901b17845561034e565b5f84815260208120601f198516915b828110156103e457878501518255602094850194600190920191016103c4565b508482101561040157868401515f19600387901b60f8161c191681555b50505050600190811b01905550565b8082018082111561042f57634e487b7160e01b5f52601160045260245ffd5b92915050565b610763806104425f395ff3fe608060405234801561000f575f80fd5b50600436106100b9575f3560e01c806340c10f191161007257806395d89b411161005857806395d89b411461016f578063a9059cbb14610177578063dd62ed3e1461018a575f80fd5b806340c10f191461013257806370a0823114610147575f80fd5b806318160ddd116100a257806318160ddd146100fe57806323b872dd14610110578063313ce56714610123575f80fd5b806306fdde03146100bd578063095ea7b3146100db575b5f80fd5b6100c56101c2565b6040516100d291906105d3565b60405180910390f35b6100ee6100e9366004610623565b610252565b60405190151581526020016100d2565b6002545b6040519081526020016100d2565b6100ee61011e36600461064b565b61026b565b604051601281526020016100d2565b610145610140366004610623565b61028e565b005b610102610155366004610685565b6001600160a01b03165f9081526020819052604090205490565b6100c561029c565b6100ee610185366004610623565b6102ab565b6101026101983660046106a5565b6001600160a01b039182165f90815260016020908152604080832093909416825291909152205490565b6060600380546101d1906106d6565b80601f01602080910402602001604051908101604052809291908181526020018280546101fd906106d6565b80156102485780601f1061021f57610100808354040283529160200191610248565b820191905f5260205f20905b81548152906001019060200180831161022b57829003601f168201915b5050505050905090565b5f3361025f8185856102b8565b60019150505b92915050565b5f336102788582856102ca565b61028385858561034a565b506001949350505050565b61029882826103a7565b5050565b6060600480546101d1906106d6565b5f3361025f81858561034a565b6102c583838360016103db565b505050565b6001600160a01b038381165f908152600160209081526040808320938616835292905220545f198114610344578181101561033657604051637dc7a0d960e11b81526001600160a01b038416600482015260248101829052604481018390526064015b60405180910390fd5b61034484848484035f6103db565b50505050565b6001600160a01b03831661037357604051634b637e8f60e11b81525f600482015260240161032d565b6001600160a01b03821661039c5760405163ec442f0560e01b81525f600482015260240161032d565b6102c58383836104ad565b6001600160a01b0382166103d05760405163ec442f0560e01b81525f600482015260240161032d565b6102985f83836104ad565b6001600160a01b0384166104045760405163e602df0560e01b81525f600482015260240161032d565b6001600160a01b03831661042d57604051634a1406b160e11b81525f600482015260240161032d565b6001600160a01b038085165f908152600160209081526040808320938716835292905220829055801561034457826001600160a01b0316846001600160a01b03167f8c5be1e5ebec7d5bd14f71427d1e84f3dd0314c0f7b2291e5b200ac8c7c3b9258460405161049f91815260200190565b60405180910390a350505050565b6001600160a01b0383166104d7578060025f8282546104cc919061070e565b909155506105479050565b6001600160a01b0383165f90815260208190526040902054818110156105295760405163391434e360e21b81526001600160a01b0385166004820152602481018290526044810183905260640161032d565b6001600160a01b0384165f9081526020819052604090209082900390555b6001600160a01b03821661056357600280548290039055610581565b6001600160a01b0382165f9081526020819052604090208054820190555b816001600160a01b0316836001600160a01b03167fddf252ad1be2c89b69c2b068fc378daa952ba7f163c4a11628f55a4df523b3ef836040516105c691815260200190565b60405180910390a3505050565b602081525f82518060208401528060208501604085015e5f604082850101526040601f19601f83011684010191505092915050565b80356001600160a01b038116811461061e575f80fd5b919050565b5f8060408385031215610634575f80fd5b61063d83610608565b946020939093013593505050565b5f805f6060848603121561065d575f80fd5b61066684610608565b925061067460208501610608565b929592945050506040919091013590565b5f60208284031215610695575f80fd5b61069e82610608565b9392505050565b5f80604083850312156106b6575f80fd5b6106bf83610608565b91506106cd60208401610608565b90509250929050565b600181811c908216806106ea57607f821691505b60208210810361070857634e487b7160e01b5f52602260045260245ffd5b50919050565b8082018082111561026557634e487b7160e01b5f52601160045260245ffdfea264697066735822122088c3783f6f28345c1b08222b50857fae978cd0f151270a42a87dbb114a75a67664736f6c634300081a003300000000000000000000000000000000000000000000000000000000000000400000000000000000000000000000000000000000000000000000000000000080000000000000000000000000000000000000000000000000000000000000000c536861646f7720546f6b656e000000000000000000000000000000000000000000000000000000000000000000000000000000000000000000000000000000045348445700000000000000000000000000000000000000000000000000000000",
        "nonce": "0x1b9",
        "chainId": "0x515"
      },
      "additionalContracts": [],
      "isFixedGasLimit": false
    },
    {
      "hash": "0xcefc1467ff322aa07e674589d9fbe8aa43f146950a0d3b06e8ac375b92d3d1e7",
      "transactionType": "CALL",
      "contractName": null,
      "contractAddress": "0xdae6cf499756455de55eaad590d59609870e1a3c",
      "function": null,
      "arguments": null,
      "transaction": {
        "from": "0xc5b7b574ee84a9b59b475fe32eaf908c246d3859",
        "to": "0xdae6cf499756455de55eaad590d59609870e1a3c",
        "gas": "0x714d",
        "value": "0x71afd498d0000",
        "input": "0x",
        "nonce": "0x1ba",
        "chainId": "0x515"
      },
      "additionalContracts": [],
      "isFixedGasLimit": false
    },
    {
      "hash": "0x7d8f1fda4731d1b9f6344f8acb1a03d04655d705b45633cf93c5ff0c1ca0af3a",
      "transactionType": "CALL",
      "contractName": null,
      "contractAddress": "0xca093b5e50df91117440f9dfd1542b8f42075d67",
      "function": null,
      "arguments": null,
      "transaction": {
        "from": "0xc5b7b574ee84a9b59b475fe32eaf908c246d3859",
        "to": "0xca093b5e50df91117440f9dfd1542b8f42075d67",
        "gas": "0x714d",
        "value": "0x71afd498d0000",
        "input": "0x",
        "nonce": "0x1bb",
        "chainId": "0x515"
      },
      "additionalContracts": [],
      "isFixedGasLimit": false
    },
    {
      "hash": "0x4a0876d698024bbd120a7fa96a2342f70964e0458fcb4743a601695b24804a25",
      "transactionType": "CALL",
      "contractName": null,
      "contractAddress": "0x6da90fd521d6cff9d373204038459addca260f2a",
      "function": null,
      "arguments": null,
      "transaction": {
        "from": "0xc5b7b574ee84a9b59b475fe32eaf908c246d3859",
        "to": "0x6da90fd521d6cff9d373204038459addca260f2a",
        "gas": "0x714d",
        "value": "0x71afd498d0000",
        "input": "0x",
        "nonce": "0x1bc",
        "chainId": "0x515"
      },
      "additionalContracts": [],
      "isFixedGasLimit": false
    },
    {
      "hash": "0xc004e3845787396141dd042226153fad77264288480bf486f1e31a6470109b6b",
      "transactionType": "CALL",
      "contractName": null,
      "contractAddress": "0x699507c6aeb4268ff4dc05721c803dbe466cec6f",
      "function": null,
      "arguments": null,
      "transaction": {
        "from": "0xc5b7b574ee84a9b59b475fe32eaf908c246d3859",
        "to": "0x699507c6aeb4268ff4dc05721c803dbe466cec6f",
        "gas": "0x714d",
        "value": "0x71afd498d0000",
        "input": "0x",
        "nonce": "0x1bd",
        "chainId": "0x515"
      },
      "additionalContracts": [],
      "isFixedGasLimit": false
    },
    {
      "hash": "0xfb0e6f5d8e89a117f1174e4ead37147730a50ff18d18f7d4a5a546730ed02134",
      "transactionType": "CALL",
      "contractName": null,
      "contractAddress": "0x079bb29d652294b01f4bdf86bb318277e0892e14",
      "function": null,
      "arguments": null,
      "transaction": {
        "from": "0xc5b7b574ee84a9b59b475fe32eaf908c246d3859",
        "to": "0x079bb29d652294b01f4bdf86bb318277e0892e14",
        "gas": "0x714d",
        "value": "0x71afd498d0000",
        "input": "0x",
        "nonce": "0x1be",
        "chainId": "0x515"
      },
      "additionalContracts": [],
      "isFixedGasLimit": false
    },
    {
      "hash": "0xb3d2c0bebd12c5ba2a7c40bb82663cb90534455fbdd4d613b8eeb952ec7f6308",
      "transactionType": "CALL",
      "contractName": null,
      "contractAddress": "0x372ea9ce0ad9e33d566d95c4279de1669cbc4640",
      "function": "registerVestingPosition((uint8,uint256,uint8,bool)[3],address,bytes32)",
      "arguments": [
        "[(0, 1000000000000000000000000, 34, false), (1, 5000000000000000000000000, 33, false), (2, 10000, 33, false)]",
        "0xb40812456931Ed4035f3D07F547E7f293b467100",
        "0x13ec4a4c1a2573f02766aa5c931dcbce0846a107c837412ad7c52be7e1f8fa23"
      ],
      "transaction": {
        "from": "0xdae6cf499756455de55eaad590d59609870e1a3c",
        "to": "0x372ea9ce0ad9e33d566d95c4279de1669cbc4640",
        "gas": "0x6684b",
        "value": "0x0",
        "input": "0x32f7488c000000000000000000000000000000000000000000000000000000000000000000000000000000000000000000000000000000000000d3c21bcecceda10000000000000000000000000000000000000000000000000000000000000000000022000000000000000000000000000000000000000000000000000000000000000000000000000000000000000000000000000000000000000000000000000000010000000000000000000000000000000000000000000422ca8b0a00a425000000000000000000000000000000000000000000000000000000000000000000002100000000000000000000000000000000000000000000000000000000000000000000000000000000000000000000000000000000000000000000000000000002000000000000000000000000000000000000000000000000000000000000271000000000000000000000000000000000000000000000000000000000000000210000000000000000000000000000000000000000000000000000000000000000000000000000000000000000b40812456931ed4035f3d07f547e7f293b46710013ec4a4c1a2573f02766aa5c931dcbce0846a107c837412ad7c52be7e1f8fa23",
        "nonce": "0x1",
        "chainId": "0x515"
      },
      "additionalContracts": [],
      "isFixedGasLimit": false
    },
    {
      "hash": "0x704003dad82b4c5961db29c0dd673d9a875285920c9fcace87931d5e59b9e8e9",
      "transactionType": "CALL",
      "contractName": null,
      "contractAddress": "0x372ea9ce0ad9e33d566d95c4279de1669cbc4640",
      "function": "registerVestingPosition((uint8,uint256,uint8,bool)[3],address,bytes32)",
      "arguments": [
        "[(0, 500000000000000000000, 34, false), (1, 2000000000000000000000, 33, false), (2, 50, 33, false)]",
        "0x971dE78DE4B71d2110e1cC91A12983fCec4EFBB9",
        "0x4af4695bc8a8161e60eb6c5ee8bbe5868469bfd929e17917d265808bfd065475"
      ],
      "transaction": {
        "from": "0xca093b5e50df91117440f9dfd1542b8f42075d67",
        "to": "0x372ea9ce0ad9e33d566d95c4279de1669cbc4640",
        "gas": "0x6684b",
        "value": "0x0",
        "input": "0x32f7488c000000000000000000000000000000000000000000000000000000000000000000000000000000000000000000000000000000000000001b1ae4d6e2ef50000000000000000000000000000000000000000000000000000000000000000000220000000000000000000000000000000000000000000000000000000000000000000000000000000000000000000000000000000000000000000000000000000100000000000000000000000000000000000000000000006c6b935b8bbd400000000000000000000000000000000000000000000000000000000000000000002100000000000000000000000000000000000000000000000000000000000000000000000000000000000000000000000000000000000000000000000000000002000000000000000000000000000000000000000000000000000000000000003200000000000000000000000000000000000000000000000000000000000000210000000000000000000000000000000000000000000000000000000000000000000000000000000000000000971de78de4b71d2110e1cc91a12983fcec4efbb94af4695bc8a8161e60eb6c5ee8bbe5868469bfd929e17917d265808bfd065475",
        "nonce": "0x1",
        "chainId": "0x515"
      },
      "additionalContracts": [],
      "isFixedGasLimit": false
    },
    {
      "hash": "0x1b88c14402fe659221443b0f79f1efc89c4e1ec642784ee20eb60e6be74f3e39",
      "transactionType": "CALL",
      "contractName": null,
      "contractAddress": "0x372ea9ce0ad9e33d566d95c4279de1669cbc4640",
      "function": "registerVestingPosition((uint8,uint256,uint8,bool)[3],address,bytes32)",
      "arguments": [
        "[(0, 500000000000000000000, 34, false), (1, 2000000000000000000000, 33, false), (2, 50, 33, false)]",
        "0x2866769a0D61Ab4411b9b50cd86dc3179E02b6dE",
        "0x541a8dfd37e294255eed5d5fbdf14375e7a4a426b09c2db89549d4202a68d816"
      ],
      "transaction": {
        "from": "0x6da90fd521d6cff9d373204038459addca260f2a",
        "to": "0x372ea9ce0ad9e33d566d95c4279de1669cbc4640",
        "gas": "0x6684b",
        "value": "0x0",
        "input": "0x32f7488c000000000000000000000000000000000000000000000000000000000000000000000000000000000000000000000000000000000000001b1ae4d6e2ef50000000000000000000000000000000000000000000000000000000000000000000220000000000000000000000000000000000000000000000000000000000000000000000000000000000000000000000000000000000000000000000000000000100000000000000000000000000000000000000000000006c6b935b8bbd4000000000000000000000000000000000000000000000000000000000000000000021000000000000000000000000000000000000000000000000000000000000000000000000000000000000000000000000000000000000000000000000000000020000000000000000000000000000000000000000000000000000000000000032000000000000000000000000000000000000000000000000000000000000002100000000000000000000000000000000000000000000000000000000000000000000000000000000000000002866769a0d61ab4411b9b50cd86dc3179e02b6de541a8dfd37e294255eed5d5fbdf14375e7a4a426b09c2db89549d4202a68d816",
        "nonce": "0x1",
        "chainId": "0x515"
      },
      "additionalContracts": [],
      "isFixedGasLimit": false
    },
    {
      "hash": "0x26294f0594af58328a3afb5bba0831eee55c3c0361966eba0527e7f0d6e72e0b",
      "transactionType": "CALL",
      "contractName": null,
      "contractAddress": "0x372ea9ce0ad9e33d566d95c4279de1669cbc4640",
      "function": "registerVestingPosition((uint8,uint256,uint8,bool)[3],address,bytes32)",
      "arguments": [
        "[(0, 100000000000000000000, 34, false), (1, 100000000000000000000, 33, false), (2, 2, 33, false)]",
        "0x381D5D63b78eAa6c30496E53fA11E25B66245f38",
        "0xe44c136a62d150d645a57a735ce07a93ee72c30cbdc81d5d4b130e104030f926"
      ],
      "transaction": {
        "from": "0x699507c6aeb4268ff4dc05721c803dbe466cec6f",
        "to": "0x372ea9ce0ad9e33d566d95c4279de1669cbc4640",
        "gas": "0x6684b",
        "value": "0x0",
        "input": "0x32f7488c00000000000000000000000000000000000000000000000000000000000000000000000000000000000000000000000000000000000000056bc75e2d631000000000000000000000000000000000000000000000000000000000000000000022000000000000000000000000000000000000000000000000000000000000000000000000000000000000000000000000000000000000000000000000000000010000000000000000000000000000000000000000000000056bc75e2d63100000000000000000000000000000000000000000000000000000000000000000002100000000000000000000000000000000000000000000000000000000000000000000000000000000000000000000000000000000000000000000000000000002000000000000000000000000000000000000000000000000000000000000000200000000000000000000000000000000000000000000000000000000000000210000000000000000000000000000000000000000000000000000000000000000000000000000000000000000381d5d63b78eaa6c30496e53fa11e25b66245f38e44c136a62d150d645a57a735ce07a93ee72c30cbdc81d5d4b130e104030f926",
        "nonce": "0x1",
        "chainId": "0x515"
      },
      "additionalContracts": [],
      "isFixedGasLimit": false
    },
    {
      "hash": "0x071caeb8daa74c3834807b36b5d56f16fe757d01b16ee7dc3759255e17d22d5a",
      "transactionType": "CALL",
      "contractName": null,
      "contractAddress": "0x372ea9ce0ad9e33d566d95c4279de1669cbc4640",
      "function": "registerVestingPosition((uint8,uint256,uint8,bool)[3],address,bytes32)",
      "arguments": [
        "[(0, 500000000000000000000, 34, false), (1, 2000000000000000000000, 33, false), (2, 50, 33, false)]",
        "0x74b65B21598aB2F67554a8D1d8d3B79e4D171B29",
        "0xbe2421d1db9c87051e3510bee9a93a729ffa09539a3cf5934ba0d9251809451d"
      ],
      "transaction": {
        "from": "0x079bb29d652294b01f4bdf86bb318277e0892e14",
        "to": "0x372ea9ce0ad9e33d566d95c4279de1669cbc4640",
        "gas": "0x6684b",
        "value": "0x0",
        "input": "0x32f7488c000000000000000000000000000000000000000000000000000000000000000000000000000000000000000000000000000000000000001b1ae4d6e2ef50000000000000000000000000000000000000000000000000000000000000000000220000000000000000000000000000000000000000000000000000000000000000000000000000000000000000000000000000000000000000000000000000000100000000000000000000000000000000000000000000006c6b935b8bbd40000000000000000000000000000000000000000000000000000000000000000000210000000000000000000000000000000000000000000000000000000000000000000000000000000000000000000000000000000000000000000000000000000200000000000000000000000000000000000000000000000000000000000000320000000000000000000000000000000000000000000000000000000000000021000000000000000000000000000000000000000000000000000000000000000000000000000000000000000074b65b21598ab2f67554a8d1d8d3b79e4d171b29be2421d1db9c87051e3510bee9a93a729ffa09539a3cf5934ba0d9251809451d",
        "nonce": "0x1",
        "chainId": "0x515"
      },
      "additionalContracts": [],
      "isFixedGasLimit": false
    },
    {
      "hash": "0x593729573972eb0be4bc62c672f2a6233569dfcb4b62992a0e03c519c3bc8534",
      "transactionType": "CALL",
      "contractName": null,
      "contractAddress": "0x00b036b58a818b1bc34d502d3fe730db729e62ac",
      "function": "initialize((address,address,uint24,int24,address),uint160)",
      "arguments": [
        "(0xB2b76FAEC41B7D1edD66351F67bCA12bd95E8bF9, 0xb40812456931Ed4035f3D07F547E7f293b467100, 3000, 60, 0x372ea9Ce0ad9E33d566d95c4279de1669cBC4640)",
        "79228162514264337593543950336"
      ],
      "transaction": {
        "from": "0xc5b7b574ee84a9b59b475fe32eaf908c246d3859",
        "to": "0x00b036b58a818b1bc34d502d3fe730db729e62ac",
        "gas": "0x1277b",
        "value": "0x0",
        "input": "0x6276cbbe000000000000000000000000b2b76faec41b7d1edd66351f67bca12bd95e8bf9000000000000000000000000b40812456931ed4035f3d07f547e7f293b4671000000000000000000000000000000000000000000000000000000000000000bb8000000000000000000000000000000000000000000000000000000000000003c000000000000000000000000372ea9ce0ad9e33d566d95c4279de1669cbc46400000000000000000000000000000000000000001000000000000000000000000",
        "nonce": "0x1bf",
        "chainId": "0x515"
      },
      "additionalContracts": [],
      "isFixedGasLimit": false
    },
    {
      "hash": "0xfcad5ac01e6d8f689c40f75711273f4c641da2fcedc96bf42d7fd5f3f3e0b98f",
      "transactionType": "CALL",
      "contractName": "TestToken",
      "contractAddress": "0xb2b76faec41b7d1edd66351f67bca12bd95e8bf9",
      "function": "approve(address,uint256)",
      "arguments": [
        "0x5fa728C0A5cfd51BEe4B060773f50554c0C8A7AB",
        "10000000000000000000000"
      ],
      "transaction": {
        "from": "0xc5b7b574ee84a9b59b475fe32eaf908c246d3859",
        "to": "0xb2b76faec41b7d1edd66351f67bca12bd95e8bf9",
        "gas": "0xfa6c",
        "value": "0x0",
        "input": "0x095ea7b30000000000000000000000005fa728c0a5cfd51bee4b060773f50554c0c8a7ab00000000000000000000000000000000000000000000021e19e0c9bab2400000",
        "nonce": "0x1c0",
        "chainId": "0x515"
      },
      "additionalContracts": [],
      "isFixedGasLimit": false
    },
    {
      "hash": "0x768e1dd8bee4476a7acd1a74af17e97f62b6c6a8aed51df3d1699565107bc306",
      "transactionType": "CALL",
      "contractName": "TestToken",
      "contractAddress": "0xb40812456931ed4035f3d07f547e7f293b467100",
      "function": "approve(address,uint256)",
      "arguments": [
        "0x5fa728C0A5cfd51BEe4B060773f50554c0C8A7AB",
        "10000000000000000000000"
      ],
      "transaction": {
        "from": "0xc5b7b574ee84a9b59b475fe32eaf908c246d3859",
        "to": "0xb40812456931ed4035f3d07f547e7f293b467100",
        "gas": "0xfa6c",
        "value": "0x0",
        "input": "0x095ea7b30000000000000000000000005fa728c0a5cfd51bee4b060773f50554c0c8a7ab00000000000000000000000000000000000000000000021e19e0c9bab2400000",
        "nonce": "0x1c1",
        "chainId": "0x515"
      },
      "additionalContracts": [],
      "isFixedGasLimit": false
    },
    {
      "hash": "0xca67693bd1b4bc89808e07a9f7fd5a9797f6c159deacb2a24c0d0b2038a749be",
      "transactionType": "CALL",
      "contractName": null,
      "contractAddress": "0x5fa728c0a5cfd51bee4b060773f50554c0c8a7ab",
      "function": "modifyLiquidity((address,address,uint24,int24,address),(int24,int24,int256,bytes32),bytes)",
      "arguments": [
        "(0xB2b76FAEC41B7D1edD66351F67bCA12bd95E8bF9, 0xb40812456931Ed4035f3D07F547E7f293b467100, 3000, 60, 0x372ea9Ce0ad9E33d566d95c4279de1669cBC4640)",
        "(-887220, 887220, 10000000000000000000000, 0x0000000000000000000000000000000000000000000000000000000000000000)",
        "0x"
      ],
      "transaction": {
        "from": "0xc5b7b574ee84a9b59b475fe32eaf908c246d3859",
        "to": "0x5fa728c0a5cfd51bee4b060773f50554c0c8a7ab",
        "gas": "0x7bb02",
        "value": "0x0",
        "input": "0x5a6bcfda000000000000000000000000b2b76faec41b7d1edd66351f67bca12bd95e8bf9000000000000000000000000b40812456931ed4035f3d07f547e7f293b4671000000000000000000000000000000000000000000000000000000000000000bb8000000000000000000000000000000000000000000000000000000000000003c000000000000000000000000372ea9ce0ad9e33d566d95c4279de1669cbc4640fffffffffffffffffffffffffffffffffffffffffffffffffffffffffff2764c00000000000000000000000000000000000000000000000000000000000d89b400000000000000000000000000000000000000000000021e19e0c9bab2400000000000000000000000000000000000000000000000000000000000000000000000000000000000000000000000000000000000000000000000000000000001400000000000000000000000000000000000000000000000000000000000000000",
        "nonce": "0x1c2",
        "chainId": "0x515"
      },
      "additionalContracts": [],
      "isFixedGasLimit": false
    },
    {
      "hash": "0x17c78e0b382d494fd1906dad4519cef19544ccf38558bf6b69c53a125889b7c1",
      "transactionType": "CALL",
      "contractName": null,
      "contractAddress": "0x00b036b58a818b1bc34d502d3fe730db729e62ac",
      "function": "initialize((address,address,uint24,int24,address),uint160)",
      "arguments": [
        "(0x971dE78DE4B71d2110e1cC91A12983fCec4EFBB9, 0xB2b76FAEC41B7D1edD66351F67bCA12bd95E8bF9, 3000, 60, 0x372ea9Ce0ad9E33d566d95c4279de1669cBC4640)",
        "79228162514264337593543950336"
      ],
      "transaction": {
        "from": "0xc5b7b574ee84a9b59b475fe32eaf908c246d3859",
        "to": "0x00b036b58a818b1bc34d502d3fe730db729e62ac",
        "gas": "0x11721",
        "value": "0x0",
        "input": "0x6276cbbe000000000000000000000000971de78de4b71d2110e1cc91a12983fcec4efbb9000000000000000000000000b2b76faec41b7d1edd66351f67bca12bd95e8bf90000000000000000000000000000000000000000000000000000000000000bb8000000000000000000000000000000000000000000000000000000000000003c000000000000000000000000372ea9ce0ad9e33d566d95c4279de1669cbc46400000000000000000000000000000000000000001000000000000000000000000",
        "nonce": "0x1c3",
        "chainId": "0x515"
      },
      "additionalContracts": [],
      "isFixedGasLimit": false
    },
    {
      "hash": "0xae23b67fb7dc0ac81449e1a1849568c03f2a34f9916d050a8448b8c2a2167cf1",
      "transactionType": "CALL",
      "contractName": "TestToken",
      "contractAddress": "0x971de78de4b71d2110e1cc91a12983fcec4efbb9",
      "function": "approve(address,uint256)",
      "arguments": [
        "0x5fa728C0A5cfd51BEe4B060773f50554c0C8A7AB",
        "10000000000000000000000"
      ],
      "transaction": {
        "from": "0xc5b7b574ee84a9b59b475fe32eaf908c246d3859",
        "to": "0x971de78de4b71d2110e1cc91a12983fcec4efbb9",
        "gas": "0xfa6c",
        "value": "0x0",
        "input": "0x095ea7b30000000000000000000000005fa728c0a5cfd51bee4b060773f50554c0c8a7ab00000000000000000000000000000000000000000000021e19e0c9bab2400000",
        "nonce": "0x1c4",
        "chainId": "0x515"
      },
      "additionalContracts": [],
      "isFixedGasLimit": false
    },
    {
      "hash": "0x777e786047eb2b8ba1361b74136647f8f1adf6e56735698eb3e64d634d782b94",
      "transactionType": "CALL",
      "contractName": "TestToken",
      "contractAddress": "0xb2b76faec41b7d1edd66351f67bca12bd95e8bf9",
      "function": "approve(address,uint256)",
      "arguments": [
        "0x5fa728C0A5cfd51BEe4B060773f50554c0C8A7AB",
        "10000000000000000000000"
      ],
      "transaction": {
        "from": "0xc5b7b574ee84a9b59b475fe32eaf908c246d3859",
        "to": "0xb2b76faec41b7d1edd66351f67bca12bd95e8bf9",
        "gas": "0xa777",
        "value": "0x0",
        "input": "0x095ea7b30000000000000000000000005fa728c0a5cfd51bee4b060773f50554c0c8a7ab00000000000000000000000000000000000000000000021e19e0c9bab2400000",
        "nonce": "0x1c5",
        "chainId": "0x515"
      },
      "additionalContracts": [],
      "isFixedGasLimit": false
    },
    {
      "hash": "0x3df4ddc8e831f0dcd45753fa0cde9de95476a6d2061da6f3896e4b6c79c28915",
      "transactionType": "CALL",
      "contractName": null,
      "contractAddress": "0x5fa728c0a5cfd51bee4b060773f50554c0c8a7ab",
      "function": "modifyLiquidity((address,address,uint24,int24,address),(int24,int24,int256,bytes32),bytes)",
      "arguments": [
        "(0x971dE78DE4B71d2110e1cC91A12983fCec4EFBB9, 0xB2b76FAEC41B7D1edD66351F67bCA12bd95E8bF9, 3000, 60, 0x372ea9Ce0ad9E33d566d95c4279de1669cBC4640)",
        "(-887220, 887220, 10000000000000000000000, 0x0000000000000000000000000000000000000000000000000000000000000000)",
        "0x"
      ],
      "transaction": {
        "from": "0xc5b7b574ee84a9b59b475fe32eaf908c246d3859",
        "to": "0x5fa728c0a5cfd51bee4b060773f50554c0c8a7ab",
        "gas": "0x75ed0",
        "value": "0x0",
        "input": "0x5a6bcfda000000000000000000000000971de78de4b71d2110e1cc91a12983fcec4efbb9000000000000000000000000b2b76faec41b7d1edd66351f67bca12bd95e8bf90000000000000000000000000000000000000000000000000000000000000bb8000000000000000000000000000000000000000000000000000000000000003c000000000000000000000000372ea9ce0ad9e33d566d95c4279de1669cbc4640fffffffffffffffffffffffffffffffffffffffffffffffffffffffffff2764c00000000000000000000000000000000000000000000000000000000000d89b400000000000000000000000000000000000000000000021e19e0c9bab2400000000000000000000000000000000000000000000000000000000000000000000000000000000000000000000000000000000000000000000000000000000001400000000000000000000000000000000000000000000000000000000000000000",
        "nonce": "0x1c6",
        "chainId": "0x515"
      },
      "additionalContracts": [],
      "isFixedGasLimit": false
    },
    {
      "hash": "0x95a33deabff977999cea3e673e37c83baa4a7f8e0814092b11ddf91494a5206b",
      "transactionType": "CALL",
      "contractName": null,
      "contractAddress": "0x00b036b58a818b1bc34d502d3fe730db729e62ac",
      "function": "initialize((address,address,uint24,int24,address),uint160)",
      "arguments": [
        "(0x2866769a0D61Ab4411b9b50cd86dc3179E02b6dE, 0xB2b76FAEC41B7D1edD66351F67bCA12bd95E8bF9, 3000, 60, 0x372ea9Ce0ad9E33d566d95c4279de1669cBC4640)",
        "79228162514264337593543950336"
      ],
      "transaction": {
        "from": "0xc5b7b574ee84a9b59b475fe32eaf908c246d3859",
        "to": "0x00b036b58a818b1bc34d502d3fe730db729e62ac",
        "gas": "0x11721",
        "value": "0x0",
        "input": "0x6276cbbe0000000000000000000000002866769a0d61ab4411b9b50cd86dc3179e02b6de000000000000000000000000b2b76faec41b7d1edd66351f67bca12bd95e8bf90000000000000000000000000000000000000000000000000000000000000bb8000000000000000000000000000000000000000000000000000000000000003c000000000000000000000000372ea9ce0ad9e33d566d95c4279de1669cbc46400000000000000000000000000000000000000001000000000000000000000000",
        "nonce": "0x1c7",
        "chainId": "0x515"
      },
      "additionalContracts": [],
      "isFixedGasLimit": false
    },
    {
      "hash": "0x91dc5913320044886d6aff65588357476c8ac9a483de049e067fd0816602aea0",
      "transactionType": "CALL",
      "contractName": "TestToken",
      "contractAddress": "0x2866769a0d61ab4411b9b50cd86dc3179e02b6de",
      "function": "approve(address,uint256)",
      "arguments": [
        "0x5fa728C0A5cfd51BEe4B060773f50554c0C8A7AB",
        "10000000000000000000000"
      ],
      "transaction": {
        "from": "0xc5b7b574ee84a9b59b475fe32eaf908c246d3859",
        "to": "0x2866769a0d61ab4411b9b50cd86dc3179e02b6de",
        "gas": "0xfa6c",
        "value": "0x0",
        "input": "0x095ea7b30000000000000000000000005fa728c0a5cfd51bee4b060773f50554c0c8a7ab00000000000000000000000000000000000000000000021e19e0c9bab2400000",
        "nonce": "0x1c8",
        "chainId": "0x515"
      },
      "additionalContracts": [],
      "isFixedGasLimit": false
    },
    {
      "hash": "0xd1910c78107633de5123ec5d3fc1ce7a4e60c4af39d371f5844995639641259d",
      "transactionType": "CALL",
      "contractName": "TestToken",
      "contractAddress": "0xb2b76faec41b7d1edd66351f67bca12bd95e8bf9",
      "function": "approve(address,uint256)",
      "arguments": [
        "0x5fa728C0A5cfd51BEe4B060773f50554c0C8A7AB",
        "10000000000000000000000"
      ],
      "transaction": {
        "from": "0xc5b7b574ee84a9b59b475fe32eaf908c246d3859",
        "to": "0xb2b76faec41b7d1edd66351f67bca12bd95e8bf9",
        "gas": "0xa777",
        "value": "0x0",
        "input": "0x095ea7b30000000000000000000000005fa728c0a5cfd51bee4b060773f50554c0c8a7ab00000000000000000000000000000000000000000000021e19e0c9bab2400000",
        "nonce": "0x1c9",
        "chainId": "0x515"
      },
      "additionalContracts": [],
      "isFixedGasLimit": false
    },
    {
      "hash": "0xc01ba81c8f6415eaa50e2a547697d0878e63b82abdf37988d768dd8ba8aba724",
      "transactionType": "CALL",
      "contractName": null,
      "contractAddress": "0x5fa728c0a5cfd51bee4b060773f50554c0c8a7ab",
      "function": "modifyLiquidity((address,address,uint24,int24,address),(int24,int24,int256,bytes32),bytes)",
      "arguments": [
        "(0x2866769a0D61Ab4411b9b50cd86dc3179E02b6dE, 0xB2b76FAEC41B7D1edD66351F67bCA12bd95E8bF9, 3000, 60, 0x372ea9Ce0ad9E33d566d95c4279de1669cBC4640)",
        "(-887220, 887220, 10000000000000000000000, 0x0000000000000000000000000000000000000000000000000000000000000000)",
        "0x"
      ],
      "transaction": {
        "from": "0xc5b7b574ee84a9b59b475fe32eaf908c246d3859",
        "to": "0x5fa728c0a5cfd51bee4b060773f50554c0c8a7ab",
        "gas": "0x75ed0",
        "value": "0x0",
        "input": "0x5a6bcfda0000000000000000000000002866769a0d61ab4411b9b50cd86dc3179e02b6de000000000000000000000000b2b76faec41b7d1edd66351f67bca12bd95e8bf90000000000000000000000000000000000000000000000000000000000000bb8000000000000000000000000000000000000000000000000000000000000003c000000000000000000000000372ea9ce0ad9e33d566d95c4279de1669cbc4640fffffffffffffffffffffffffffffffffffffffffffffffffffffffffff2764c00000000000000000000000000000000000000000000000000000000000d89b400000000000000000000000000000000000000000000021e19e0c9bab2400000000000000000000000000000000000000000000000000000000000000000000000000000000000000000000000000000000000000000000000000000000001400000000000000000000000000000000000000000000000000000000000000000",
        "nonce": "0x1ca",
        "chainId": "0x515"
      },
      "additionalContracts": [],
      "isFixedGasLimit": false
    },
    {
      "hash": "0x47ef9b46bee9c4fddc8bd7769708edae8241cf29d621e2733b2b97e6f24eb7f3",
      "transactionType": "CALL",
      "contractName": null,
      "contractAddress": "0x00b036b58a818b1bc34d502d3fe730db729e62ac",
      "function": "initialize((address,address,uint24,int24,address),uint160)",
      "arguments": [
        "(0x381D5D63b78eAa6c30496E53fA11E25B66245f38, 0xB2b76FAEC41B7D1edD66351F67bCA12bd95E8bF9, 3000, 60, 0x372ea9Ce0ad9E33d566d95c4279de1669cBC4640)",
        "79228162514264337593543950336"
      ],
      "transaction": {
        "from": "0xc5b7b574ee84a9b59b475fe32eaf908c246d3859",
        "to": "0x00b036b58a818b1bc34d502d3fe730db729e62ac",
        "gas": "0x11721",
        "value": "0x0",
        "input": "0x6276cbbe000000000000000000000000381d5d63b78eaa6c30496e53fa11e25b66245f38000000000000000000000000b2b76faec41b7d1edd66351f67bca12bd95e8bf90000000000000000000000000000000000000000000000000000000000000bb8000000000000000000000000000000000000000000000000000000000000003c000000000000000000000000372ea9ce0ad9e33d566d95c4279de1669cbc46400000000000000000000000000000000000000001000000000000000000000000",
        "nonce": "0x1cb",
        "chainId": "0x515"
      },
      "additionalContracts": [],
      "isFixedGasLimit": false
    },
    {
      "hash": "0x4e5b58bc555581df8e7f5ae4354ca6fd44af7f508634a5dd52c7304c05fe2f98",
      "transactionType": "CALL",
      "contractName": "TestToken",
      "contractAddress": "0x381d5d63b78eaa6c30496e53fa11e25b66245f38",
      "function": "approve(address,uint256)",
      "arguments": [
        "0x5fa728C0A5cfd51BEe4B060773f50554c0C8A7AB",
        "10000000000000000000000"
      ],
      "transaction": {
        "from": "0xc5b7b574ee84a9b59b475fe32eaf908c246d3859",
        "to": "0x381d5d63b78eaa6c30496e53fa11e25b66245f38",
        "gas": "0xfa6c",
        "value": "0x0",
        "input": "0x095ea7b30000000000000000000000005fa728c0a5cfd51bee4b060773f50554c0c8a7ab00000000000000000000000000000000000000000000021e19e0c9bab2400000",
        "nonce": "0x1cc",
        "chainId": "0x515"
      },
      "additionalContracts": [],
      "isFixedGasLimit": false
    },
    {
      "hash": "0x6af76c7416277d557c58bbf7889caa181f87eb4d393b5409949003eddfe6a751",
      "transactionType": "CALL",
      "contractName": "TestToken",
      "contractAddress": "0xb2b76faec41b7d1edd66351f67bca12bd95e8bf9",
      "function": "approve(address,uint256)",
      "arguments": [
        "0x5fa728C0A5cfd51BEe4B060773f50554c0C8A7AB",
        "10000000000000000000000"
      ],
      "transaction": {
        "from": "0xc5b7b574ee84a9b59b475fe32eaf908c246d3859",
        "to": "0xb2b76faec41b7d1edd66351f67bca12bd95e8bf9",
        "gas": "0xa777",
        "value": "0x0",
        "input": "0x095ea7b30000000000000000000000005fa728c0a5cfd51bee4b060773f50554c0c8a7ab00000000000000000000000000000000000000000000021e19e0c9bab2400000",
        "nonce": "0x1cd",
        "chainId": "0x515"
      },
      "additionalContracts": [],
      "isFixedGasLimit": false
    },
    {
      "hash": "0x9481ecb0c937fc217f94f0bab859ef695f789f47ef9c13f02266649929f63daf",
      "transactionType": "CALL",
      "contractName": null,
      "contractAddress": "0x5fa728c0a5cfd51bee4b060773f50554c0c8a7ab",
      "function": "modifyLiquidity((address,address,uint24,int24,address),(int24,int24,int256,bytes32),bytes)",
      "arguments": [
        "(0x381D5D63b78eAa6c30496E53fA11E25B66245f38, 0xB2b76FAEC41B7D1edD66351F67bCA12bd95E8bF9, 3000, 60, 0x372ea9Ce0ad9E33d566d95c4279de1669cBC4640)",
        "(-887220, 887220, 10000000000000000000000, 0x0000000000000000000000000000000000000000000000000000000000000000)",
        "0x"
      ],
      "transaction": {
        "from": "0xc5b7b574ee84a9b59b475fe32eaf908c246d3859",
        "to": "0x5fa728c0a5cfd51bee4b060773f50554c0c8a7ab",
        "gas": "0x75ed0",
        "value": "0x0",
        "input": "0x5a6bcfda000000000000000000000000381d5d63b78eaa6c30496e53fa11e25b66245f38000000000000000000000000b2b76faec41b7d1edd66351f67bca12bd95e8bf90000000000000000000000000000000000000000000000000000000000000bb8000000000000000000000000000000000000000000000000000000000000003c000000000000000000000000372ea9ce0ad9e33d566d95c4279de1669cbc4640fffffffffffffffffffffffffffffffffffffffffffffffffffffffffff2764c00000000000000000000000000000000000000000000000000000000000d89b400000000000000000000000000000000000000000000021e19e0c9bab2400000000000000000000000000000000000000000000000000000000000000000000000000000000000000000000000000000000000000000000000000000000001400000000000000000000000000000000000000000000000000000000000000000",
        "nonce": "0x1ce",
        "chainId": "0x515"
      },
      "additionalContracts": [],
      "isFixedGasLimit": false
    },
    {
      "hash": "0xd1bf2b72480d6fa3c807a4d272ac5744fe9de0b740ac6709b1183a85a344a8ef",
      "transactionType": "CALL",
      "contractName": null,
      "contractAddress": "0x00b036b58a818b1bc34d502d3fe730db729e62ac",
      "function": "initialize((address,address,uint24,int24,address),uint160)",
      "arguments": [
        "(0x74b65B21598aB2F67554a8D1d8d3B79e4D171B29, 0xB2b76FAEC41B7D1edD66351F67bCA12bd95E8bF9, 3000, 60, 0x372ea9Ce0ad9E33d566d95c4279de1669cBC4640)",
        "79228162514264337593543950336"
      ],
      "transaction": {
        "from": "0xc5b7b574ee84a9b59b475fe32eaf908c246d3859",
        "to": "0x00b036b58a818b1bc34d502d3fe730db729e62ac",
        "gas": "0x11721",
        "value": "0x0",
        "input": "0x6276cbbe00000000000000000000000074b65b21598ab2f67554a8d1d8d3b79e4d171b29000000000000000000000000b2b76faec41b7d1edd66351f67bca12bd95e8bf90000000000000000000000000000000000000000000000000000000000000bb8000000000000000000000000000000000000000000000000000000000000003c000000000000000000000000372ea9ce0ad9e33d566d95c4279de1669cbc46400000000000000000000000000000000000000001000000000000000000000000",
        "nonce": "0x1cf",
        "chainId": "0x515"
      },
      "additionalContracts": [],
      "isFixedGasLimit": false
    },
    {
      "hash": "0x28bf6ebf473742f99539a283ff173088bd1ab83522c7212f0af286dccd551c59",
      "transactionType": "CALL",
      "contractName": "TestToken",
      "contractAddress": "0x74b65b21598ab2f67554a8d1d8d3b79e4d171b29",
      "function": "approve(address,uint256)",
      "arguments": [
        "0x5fa728C0A5cfd51BEe4B060773f50554c0C8A7AB",
        "10000000000000000000000"
      ],
      "transaction": {
        "from": "0xc5b7b574ee84a9b59b475fe32eaf908c246d3859",
        "to": "0x74b65b21598ab2f67554a8d1d8d3b79e4d171b29",
        "gas": "0xfa6c",
        "value": "0x0",
        "input": "0x095ea7b30000000000000000000000005fa728c0a5cfd51bee4b060773f50554c0c8a7ab00000000000000000000000000000000000000000000021e19e0c9bab2400000",
        "nonce": "0x1d0",
        "chainId": "0x515"
      },
      "additionalContracts": [],
      "isFixedGasLimit": false
    },
    {
      "hash": "0xa29251e06be322edc099f535630c9c8d67ce2f21f0d82fc241e14ef36ccc204a",
      "transactionType": "CALL",
      "contractName": "TestToken",
      "contractAddress": "0xb2b76faec41b7d1edd66351f67bca12bd95e8bf9",
      "function": "approve(address,uint256)",
      "arguments": [
        "0x5fa728C0A5cfd51BEe4B060773f50554c0C8A7AB",
        "10000000000000000000000"
      ],
      "transaction": {
        "from": "0xc5b7b574ee84a9b59b475fe32eaf908c246d3859",
        "to": "0xb2b76faec41b7d1edd66351f67bca12bd95e8bf9",
        "gas": "0xa777",
        "value": "0x0",
        "input": "0x095ea7b30000000000000000000000005fa728c0a5cfd51bee4b060773f50554c0c8a7ab00000000000000000000000000000000000000000000021e19e0c9bab2400000",
        "nonce": "0x1d1",
        "chainId": "0x515"
      },
      "additionalContracts": [],
      "isFixedGasLimit": false
    },
    {
      "hash": "0xf15bcd761c167a2ee3596380701c4a10c78b628483cfda25b8f867bf258638fc",
      "transactionType": "CALL",
      "contractName": null,
      "contractAddress": "0x5fa728c0a5cfd51bee4b060773f50554c0c8a7ab",
      "function": "modifyLiquidity((address,address,uint24,int24,address),(int24,int24,int256,bytes32),bytes)",
      "arguments": [
        "(0x74b65B21598aB2F67554a8D1d8d3B79e4D171B29, 0xB2b76FAEC41B7D1edD66351F67bCA12bd95E8bF9, 3000, 60, 0x372ea9Ce0ad9E33d566d95c4279de1669cBC4640)",
        "(-887220, 887220, 10000000000000000000000, 0x0000000000000000000000000000000000000000000000000000000000000000)",
        "0x"
      ],
      "transaction": {
        "from": "0xc5b7b574ee84a9b59b475fe32eaf908c246d3859",
        "to": "0x5fa728c0a5cfd51bee4b060773f50554c0c8a7ab",
        "gas": "0x75ed0",
        "value": "0x0",
        "input": "0x5a6bcfda00000000000000000000000074b65b21598ab2f67554a8d1d8d3b79e4d171b29000000000000000000000000b2b76faec41b7d1edd66351f67bca12bd95e8bf90000000000000000000000000000000000000000000000000000000000000bb8000000000000000000000000000000000000000000000000000000000000003c000000000000000000000000372ea9ce0ad9e33d566d95c4279de1669cbc4640fffffffffffffffffffffffffffffffffffffffffffffffffffffffffff2764c00000000000000000000000000000000000000000000000000000000000d89b400000000000000000000000000000000000000000000021e19e0c9bab2400000000000000000000000000000000000000000000000000000000000000000000000000000000000000000000000000000000000000000000000000000000001400000000000000000000000000000000000000000000000000000000000000000",
        "nonce": "0x1d2",
        "chainId": "0x515"
      },
      "additionalContracts": [],
      "isFixedGasLimit": false
    }
  ],
  "receipts": [
    {
      "status": "0x1",
      "cumulativeGasUsed": "0xb56d5",
      "logs": [
        {
          "address": "0xb2b76faec41b7d1edd66351f67bca12bd95e8bf9",
          "topics": [
            "0xddf252ad1be2c89b69c2b068fc378daa952ba7f163c4a11628f55a4df523b3ef",
            "0x0000000000000000000000000000000000000000000000000000000000000000",
            "0x000000000000000000000000c5b7b574ee84a9b59b475fe32eaf908c246d3859"
          ],
          "data": "0x00000000000000000000000000000000000000000000d3c21bcecceda1000000",
          "blockHash": "0x0000000000000000000000000000000000000000000000000000000000000000",
          "blockNumber": "0x2ca44fd",
          "blockTimestamp": "0x69b7f249",
          "transactionHash": "0xcb60094856a055f0658d7b26a757cce937ea165871eac4e03c9b2cfcf55e58b7",
          "transactionIndex": "0x3",
          "logIndex": "0x1",
          "removed": false
        }
      ],
      "logsBloom": "0x00000000000000000000000000000000000000000000000000000000000000000000000000000000000000000000000000000000000000000000000000000000000000000000000000000008100000000000000000000000002000000000000000000000020000000000000040000800000000000000000000000010000000000000000000000000000000000000000000000000000000000080000000000000000000000000000000000000000000004000000000000000000000000000000000080002000000000000000000000000000000000000000000000000000020000000000000000000000000000000000000000000000000000000000000000000",
      "type": "0x2",
      "transactionHash": "0xcb60094856a055f0658d7b26a757cce937ea165871eac4e03c9b2cfcf55e58b7",
      "transactionIndex": "0x3",
      "blockHash": "0x0000000000000000000000000000000000000000000000000000000000000000",
      "blockNumber": "0x2ca44fd",
      "gasUsed": "0x8bc19",
      "effectiveGasPrice": "0x7a121",
      "blobGasUsed": "0xabe00",
      "from": "0xc5b7b574ee84a9b59b475fe32eaf908c246d3859",
      "to": null,
      "contractAddress": "0xb2b76faec41b7d1edd66351f67bca12bd95e8bf9",
      "daFootprintGasScalar": "0x190",
      "l1BaseFeeScalar": "0x7d0",
      "l1BlobBaseFee": "0xa4",
      "l1BlobBaseFeeScalar": "0xdbba0",
      "l1Fee": "0x5047",
      "l1GasPrice": "0xa",
      "l1GasUsed": "0x6e01"
    },
    {
      "status": "0x1",
      "cumulativeGasUsed": "0xe87d8",
      "logs": [
        {
          "address": "0xb40812456931ed4035f3d07f547e7f293b467100",
          "topics": [
            "0xddf252ad1be2c89b69c2b068fc378daa952ba7f163c4a11628f55a4df523b3ef",
            "0x0000000000000000000000000000000000000000000000000000000000000000",
            "0x000000000000000000000000c5b7b574ee84a9b59b475fe32eaf908c246d3859"
          ],
          "data": "0x00000000000000000000000000000000000000000000d3c21bcecceda1000000",
          "blockHash": "0x0000000000000000000000000000000000000000000000000000000000000000",
          "blockNumber": "0x2ca4501",
          "blockTimestamp": "0x69b7f24d",
          "transactionHash": "0x44272bb4b1b096442eb95c68fcf431426e745e88033a7930fc7126abb2895fd9",
          "transactionIndex": "0x5",
          "logIndex": "0x9",
          "removed": false
        }
      ],
      "logsBloom": "0x00000000000000000000000000000000000000000000000000000000000000000000000000000000000000000000000000000000000000000000000000000000000000000000000000000008000000000000000000000000000000000000000000000000020000000000000000000800000000000000000000000010000000000000000000000000000000000000000000000000000000000080000000000000000000000000000000000000000000004000000000000000000000000000000000080002000000000000000000040000000000000000000000000000000020000000000000000000000000000000000000000000100000000002000000000000",
      "type": "0x2",
      "transactionHash": "0x44272bb4b1b096442eb95c68fcf431426e745e88033a7930fc7126abb2895fd9",
      "transactionIndex": "0x5",
      "blockHash": "0x0000000000000000000000000000000000000000000000000000000000000000",
      "blockNumber": "0x2ca4501",
      "gasUsed": "0x8bc3d",
      "effectiveGasPrice": "0x7a121",
      "blobGasUsed": "0xac8f0",
      "from": "0xc5b7b574ee84a9b59b475fe32eaf908c246d3859",
      "to": null,
      "contractAddress": "0xb40812456931ed4035f3d07f547e7f293b467100",
      "daFootprintGasScalar": "0x190",
      "l1BaseFeeScalar": "0x7d0",
      "l1BlobBaseFee": "0xa4",
      "l1BlobBaseFeeScalar": "0xdbba0",
      "l1Fee": "0x5047",
      "l1GasPrice": "0xa",
      "l1GasUsed": "0x6e79"
    },
    {
      "status": "0x1",
      "cumulativeGasUsed": "0xca65b",
      "logs": [
        {
          "address": "0x971de78de4b71d2110e1cc91a12983fcec4efbb9",
          "topics": [
            "0xddf252ad1be2c89b69c2b068fc378daa952ba7f163c4a11628f55a4df523b3ef",
            "0x0000000000000000000000000000000000000000000000000000000000000000",
            "0x000000000000000000000000c5b7b574ee84a9b59b475fe32eaf908c246d3859"
          ],
          "data": "0x00000000000000000000000000000000000000000000d3c21bcecceda1000000",
          "blockHash": "0x0000000000000000000000000000000000000000000000000000000000000000",
          "blockNumber": "0x2ca4505",
          "blockTimestamp": "0x69b7f251",
          "transactionHash": "0x822016e88d1ebdd28698b037f5959006adc4b9be9d6734d479f5ba38989cc7a6",
          "transactionIndex": "0x4",
          "logIndex": "0x2",
          "removed": false
        }
      ],
      "logsBloom": "0x00000000000000000000010000000000000000000000000000000000000000010000000000000000000000000000000000000000000000000000000000000000000000000000000000000008000000000000000000000000000000000000000000000000020000000000000000000800000000000000000000000010000000000000000000000000000000000000000000000000000000000080000000000000000000000000000000000000000000004000000000000000000000000000000000080002000000000000000000000000000000000000000000000000000020000000000000000000000000000000000000000080000000000000000000000000",
      "type": "0x2",
      "transactionHash": "0x822016e88d1ebdd28698b037f5959006adc4b9be9d6734d479f5ba38989cc7a6",
      "transactionIndex": "0x4",
      "blockHash": "0x0000000000000000000000000000000000000000000000000000000000000000",
      "blockNumber": "0x2ca4505",
      "gasUsed": "0x8bc31",
      "effectiveGasPrice": "0x7a121",
      "blobGasUsed": "0xac760",
      "from": "0xc5b7b574ee84a9b59b475fe32eaf908c246d3859",
      "to": null,
      "contractAddress": "0x971de78de4b71d2110e1cc91a12983fcec4efbb9",
      "daFootprintGasScalar": "0x190",
      "l1BaseFeeScalar": "0x7d0",
      "l1BlobBaseFee": "0xa4",
      "l1BlobBaseFeeScalar": "0xdbba0",
      "l1Fee": "0x5047",
      "l1GasPrice": "0xa",
      "l1GasUsed": "0x6e6c"
    },
    {
      "status": "0x1",
      "cumulativeGasUsed": "0xcc737",
      "logs": [
        {
          "address": "0x2866769a0d61ab4411b9b50cd86dc3179e02b6de",
          "topics": [
            "0xddf252ad1be2c89b69c2b068fc378daa952ba7f163c4a11628f55a4df523b3ef",
            "0x0000000000000000000000000000000000000000000000000000000000000000",
            "0x000000000000000000000000c5b7b574ee84a9b59b475fe32eaf908c246d3859"
          ],
          "data": "0x00000000000000000000000000000000000000000000d3c21bcecceda1000000",
          "blockHash": "0x046dd81772eb0bbad95c00c2b27ab93b2faebd326805ebe47ccdb103f4106832",
          "blockNumber": "0x2ca4509",
          "blockTimestamp": "0x69b7f255",
          "transactionHash": "0x7476e4aeee4478c980fa78a02c09dd44c455bbcaaf088cd731b5e3f99ea7250b",
          "transactionIndex": "0x4",
          "logIndex": "0x2",
          "removed": false
        }
      ],
      "logsBloom": "0x00000000000000000000000000400000000000000000000000000000000000000000000000000000000000000000000000000000000000000000000000000000000000000000008000000008000000000000000000000000000000000000000000000000020000000000000000000800000000000000000000000010000000000000000000000000000000000000000000000000000000000080000000000000000000000000000000000000000000004000000000000000000000000000000000080002000000002000000000000000000000000000000000000000000020000000000000000000000000000000000000000000000000000000000000000000",
      "type": "0x2",
      "transactionHash": "0x7476e4aeee4478c980fa78a02c09dd44c455bbcaaf088cd731b5e3f99ea7250b",
      "transactionIndex": "0x4",
      "blockHash": "0x046dd81772eb0bbad95c00c2b27ab93b2faebd326805ebe47ccdb103f4106832",
      "blockNumber": "0x2ca4509",
      "gasUsed": "0x8bc49",
      "effectiveGasPrice": "0x7a121",
      "blobGasUsed": "0xaca80",
      "from": "0xc5b7b574ee84a9b59b475fe32eaf908c246d3859",
      "to": null,
      "contractAddress": "0x2866769a0d61ab4411b9b50cd86dc3179e02b6de",
      "daFootprintGasScalar": "0x190",
      "l1BaseFeeScalar": "0x7d0",
      "l1BlobBaseFee": "0x9d",
      "l1BlobBaseFeeScalar": "0xdbba0",
      "l1Fee": "0x3d24e",
      "l1GasPrice": "0xa",
      "l1GasUsed": "0x6e86"
    },
    {
      "status": "0x1",
      "cumulativeGasUsed": "0xe165d",
      "logs": [
        {
          "address": "0x381d5d63b78eaa6c30496e53fa11e25b66245f38",
          "topics": [
            "0xddf252ad1be2c89b69c2b068fc378daa952ba7f163c4a11628f55a4df523b3ef",
            "0x0000000000000000000000000000000000000000000000000000000000000000",
            "0x000000000000000000000000c5b7b574ee84a9b59b475fe32eaf908c246d3859"
          ],
          "data": "0x00000000000000000000000000000000000000000000d3c21bcecceda1000000",
          "blockHash": "0x4b392436842cf394568f8d5a52a1c50ec91c4aeb75844b9f5dd7089df11cffc4",
          "blockNumber": "0x2ca450d",
          "blockTimestamp": "0x69b7f259",
          "transactionHash": "0x5cb316a173c5d26993e3c89823cf1ab85f0f99a72ee335650588e172905ad31c",
          "transactionIndex": "0x5",
          "logIndex": "0x3",
          "removed": false
        }
      ],
      "logsBloom": "0x00000000000000000000000000000000000000000000000000000000000000000000000000000000000000080000000000000000000000000000000000000000000000000000000000000008000000000000000000000000000000000800000000000000020000000000000000000800000000000000000000000010000000000000000000000000000000000000000000000000000000000080000000000000000000000800000000000000000000004000000000000000000000000000000000080002000000000000000000000000000000000000000000000000000020000000000000000000000000000000000000000000000000000000000000000000",
      "type": "0x2",
      "transactionHash": "0x5cb316a173c5d26993e3c89823cf1ab85f0f99a72ee335650588e172905ad31c",
      "transactionIndex": "0x5",
      "blockHash": "0x4b392436842cf394568f8d5a52a1c50ec91c4aeb75844b9f5dd7089df11cffc4",
      "blockNumber": "0x2ca450d",
      "gasUsed": "0x8bc19",
      "effectiveGasPrice": "0x7a121",
      "blobGasUsed": "0xac5d0",
      "from": "0xc5b7b574ee84a9b59b475fe32eaf908c246d3859",
      "to": null,
      "contractAddress": "0x381d5d63b78eaa6c30496e53fa11e25b66245f38",
      "daFootprintGasScalar": "0x190",
      "l1BaseFeeScalar": "0x7d0",
      "l1BlobBaseFee": "0x9d",
      "l1BlobBaseFeeScalar": "0xdbba0",
      "l1Fee": "0x3d074",
      "l1GasPrice": "0xa",
      "l1GasUsed": "0x6e51"
    },
    {
      "status": "0x1",
      "cumulativeGasUsed": "0x15e3a7",
      "logs": [
        {
          "address": "0x74b65b21598ab2f67554a8d1d8d3b79e4d171b29",
          "topics": [
            "0xddf252ad1be2c89b69c2b068fc378daa952ba7f163c4a11628f55a4df523b3ef",
            "0x0000000000000000000000000000000000000000000000000000000000000000",
            "0x000000000000000000000000c5b7b574ee84a9b59b475fe32eaf908c246d3859"
          ],
          "data": "0x00000000000000000000000000000000000000000000d3c21bcecceda1000000",
          "blockHash": "0x505699259cff924e0230c1bd4285813119343e18a66adbe2f35d9cd81ef20879",
          "blockNumber": "0x2ca4511",
          "blockTimestamp": "0x69b7f25d",
          "transactionHash": "0x721fe234589e35119a86bdf7cc70f0e91d9e1e440fb5559a9be1b9b41869c19a",
          "transactionIndex": "0x6",
          "logIndex": "0xc",
          "removed": false
        }
      ],
      "logsBloom": "0x00000000000000000000000000000000000000000000000000000000000000000000000000000000000000000000000000000000000000000000000000000000000000000000000000000008000000000000000000000000000000000040000000000000020000000000000000000800000000000000000000000010000000000000000000000000000000000000000000000000000000000080000000000000000000000000000000000000000000004000000000000000000000000000000800080002000000000000000000000000000000000000000000000000000020000000000000000000000000000000000000000002000000000000000000000000",
      "type": "0x2",
      "transactionHash": "0x721fe234589e35119a86bdf7cc70f0e91d9e1e440fb5559a9be1b9b41869c19a",
      "transactionIndex": "0x6",
      "blockHash": "0x505699259cff924e0230c1bd4285813119343e18a66adbe2f35d9cd81ef20879",
      "blockNumber": "0x2ca4511",
      "gasUsed": "0x8bc31",
      "effectiveGasPrice": "0x7a121",
      "blobGasUsed": "0xac760",
      "from": "0xc5b7b574ee84a9b59b475fe32eaf908c246d3859",
      "to": null,
      "contractAddress": "0x74b65b21598ab2f67554a8d1d8d3b79e4d171b29",
      "daFootprintGasScalar": "0x190",
      "l1BaseFeeScalar": "0x7d0",
      "l1BlobBaseFee": "0x9d",
      "l1BlobBaseFeeScalar": "0xdbba0",
      "l1Fee": "0x3d161",
      "l1GasPrice": "0xa",
      "l1GasUsed": "0x6e6c"
    },
    {
      "status": "0x1",
      "cumulativeGasUsed": "0x73d36",
      "logs": [],
      "logsBloom": "0x00000000000000000000000000000000000000000000000000000000000000000000000000000000000000000000000000000000000000000000000000000000000000000000000000000000000000000000000000000000000000000000000000000000000000000000000000000000000000000000000000000000000000000000000000000000000000000000000000000000000000000000000000000000000000000000000000000000000000000000000000000000000000000000000000000000000000000000000000000000000000000000000000000000000000000000000000000000000000000000000000000000000000000000000000000000",
      "type": "0x2",
      "transactionHash": "0xcefc1467ff322aa07e674589d9fbe8aa43f146950a0d3b06e8ac375b92d3d1e7",
      "transactionIndex": "0x6",
      "blockHash": "0x47b2082216f0cc38e20001a638534863e2f20d241be6fbee210112d749c36e77",
      "blockNumber": "0x2ca4515",
      "gasUsed": "0x5208",
      "effectiveGasPrice": "0x7a121",
      "blobGasUsed": "0x9c40",
      "from": "0xc5b7b574ee84a9b59b475fe32eaf908c246d3859",
      "to": "0xdae6cf499756455de55eaad590d59609870e1a3c",
      "contractAddress": null,
      "daFootprintGasScalar": "0x190",
      "l1BaseFeeScalar": "0x7d0",
      "l1BlobBaseFee": "0x8b",
      "l1BlobBaseFeeScalar": "0xdbba0",
      "l1Fee": "0x30fe",
      "l1GasPrice": "0xa",
      "l1GasUsed": "0x640"
    },
    {
      "status": "0x1",
      "cumulativeGasUsed": "0xf79f3",
      "logs": [],
      "logsBloom": "0x00000000000000000000000000000000000000000000000000000000000000000000000000000000000000000000000000000000000000000000000000000000000000000000000000000000000000000000000000000000000000000000000000000000000000000000000000000000000000000000000000000000000000000000000000000000000000000000000000000000000000000000000000000000000000000000000000000000000000000000000000000000000000000000000000000000000000000000000000000000000000000000000000000000000000000000000000000000000000000000000000000000000000000000000000000000",
      "type": "0x2",
      "transactionHash": "0x7d8f1fda4731d1b9f6344f8acb1a03d04655d705b45633cf93c5ff0c1ca0af3a",
      "transactionIndex": "0x7",
      "blockHash": "0xc93f20c9ba021e6425f1a4e82ef878dae2936cede816226baa8ca2b834b51aff",
      "blockNumber": "0x2ca4519",
      "gasUsed": "0x5208",
      "effectiveGasPrice": "0x7a121",
      "blobGasUsed": "0x9c40",
      "from": "0xc5b7b574ee84a9b59b475fe32eaf908c246d3859",
      "to": "0xca093b5e50df91117440f9dfd1542b8f42075d67",
      "contractAddress": null,
      "daFootprintGasScalar": "0x190",
      "l1BaseFeeScalar": "0x7d0",
      "l1BlobBaseFee": "0x8b",
      "l1BlobBaseFeeScalar": "0xdbba0",
      "l1Fee": "0x30fe",
      "l1GasPrice": "0xa",
      "l1GasUsed": "0x640"
    },
    {
      "status": "0x1",
      "cumulativeGasUsed": "0x71c96",
      "logs": [],
      "logsBloom": "0x00000000000000000000000000000000000000000000000000000000000000000000000000000000000000000000000000000000000000000000000000000000000000000000000000000000000000000000000000000000000000000000000000000000000000000000000000000000000000000000000000000000000000000000000000000000000000000000000000000000000000000000000000000000000000000000000000000000000000000000000000000000000000000000000000000000000000000000000000000000000000000000000000000000000000000000000000000000000000000000000000000000000000000000000000000000",
      "type": "0x2",
      "transactionHash": "0x4a0876d698024bbd120a7fa96a2342f70964e0458fcb4743a601695b24804a25",
      "transactionIndex": "0x6",
      "blockHash": "0xd29d8ea24460119dddf070bfde109fb82894bab517ba290cb2948f55df20667a",
      "blockNumber": "0x2ca451d",
      "gasUsed": "0x5208",
      "effectiveGasPrice": "0x7a121",
      "blobGasUsed": "0x9c40",
      "from": "0xc5b7b574ee84a9b59b475fe32eaf908c246d3859",
      "to": "0x6da90fd521d6cff9d373204038459addca260f2a",
      "contractAddress": null,
      "daFootprintGasScalar": "0x190",
      "l1BaseFeeScalar": "0x7d0",
      "l1BlobBaseFee": "0x8b",
      "l1BlobBaseFeeScalar": "0xdbba0",
      "l1Fee": "0x30fe",
      "l1GasPrice": "0xa",
      "l1GasUsed": "0x640"
    },
    {
      "status": "0x1",
      "cumulativeGasUsed": "0x10e8ef",
      "logs": [],
      "logsBloom": "0x00000000000000000000000000000000000000000000000000000000000000000000000000000000000000000000000000000000000000000000000000000000000000000000000000000000000000000000000000000000000000000000000000000000000000000000000000000000000000000000000000000000000000000000000000000000000000000000000000000000000000000000000000000000000000000000000000000000000000000000000000000000000000000000000000000000000000000000000000000000000000000000000000000000000000000000000000000000000000000000000000000000000000000000000000000000",
      "type": "0x2",
      "transactionHash": "0xc004e3845787396141dd042226153fad77264288480bf486f1e31a6470109b6b",
      "transactionIndex": "0x8",
      "blockHash": "0x5926a1155ddd706c995112ba540e59f445a4534ef3596936dbb74b0ed3fbc47b",
      "blockNumber": "0x2ca4521",
      "gasUsed": "0x5208",
      "effectiveGasPrice": "0x7a121",
      "blobGasUsed": "0x9c40",
      "from": "0xc5b7b574ee84a9b59b475fe32eaf908c246d3859",
      "to": "0x699507c6aeb4268ff4dc05721c803dbe466cec6f",
      "contractAddress": null,
      "daFootprintGasScalar": "0x190",
      "l1BaseFeeScalar": "0x7d0",
      "l1BlobBaseFee": "0x8b",
      "l1BlobBaseFeeScalar": "0xdbba0",
      "l1Fee": "0x30fe",
      "l1GasPrice": "0xa",
      "l1GasUsed": "0x640"
    },
    {
      "status": "0x1",
      "cumulativeGasUsed": "0x2cbf4",
      "logs": [],
      "logsBloom": "0x00000000000000000000000000000000000000000000000000000000000000000000000000000000000000000000000000000000000000000000000000000000000000000000000000000000000000000000000000000000000000000000000000000000000000000000000000000000000000000000000000000000000000000000000000000000000000000000000000000000000000000000000000000000000000000000000000000000000000000000000000000000000000000000000000000000000000000000000000000000000000000000000000000000000000000000000000000000000000000000000000000000000000000000000000000000",
      "type": "0x2",
      "transactionHash": "0xfb0e6f5d8e89a117f1174e4ead37147730a50ff18d18f7d4a5a546730ed02134",
      "transactionIndex": "0x3",
      "blockHash": "0x0000000000000000000000000000000000000000000000000000000000000000",
      "blockNumber": "0x2ca4526",
      "gasUsed": "0x5208",
      "effectiveGasPrice": "0x7a121",
      "blobGasUsed": "0x9c40",
      "from": "0xc5b7b574ee84a9b59b475fe32eaf908c246d3859",
      "to": "0x079bb29d652294b01f4bdf86bb318277e0892e14",
      "contractAddress": null,
      "daFootprintGasScalar": "0x190",
      "l1BaseFeeScalar": "0x7d0",
      "l1BlobBaseFee": "0x80",
      "l1BlobBaseFeeScalar": "0xdbba0",
      "l1Fee": "0x3eb1",
      "l1GasPrice": "0xa",
      "l1GasUsed": "0x640"
    },
    {
      "status": "0x1",
      "cumulativeGasUsed": "0x88db6",
      "logs": [
        {
          "address": "0x372ea9ce0ad9e33d566d95c4279de1669cbc4640",
          "topics": [
            "0xa9607daa15b38519ee13f233d15e0ce03053729aa1f43ef57d862b7ea6a6967a",
            "0x000000000000000000000000dae6cf499756455de55eaad590d59609870e1a3c",
            "0x000000000000000000000000b40812456931ed4035f3d07f547e7f293b467100",
            "0x13ec4a4c1a2573f02766aa5c931dcbce0846a107c837412ad7c52be7e1f8fa23"
          ],
          "data": "0x",
          "blockHash": "0xd3cd286ee74b12e842691b325e4ea85b1bded3590f7429f4316f1421583d46f6",
          "blockNumber": "0x2ca4527",
          "blockTimestamp": "0x69b7f273",
          "transactionHash": "0xb3d2c0bebd12c5ba2a7c40bb82663cb90534455fbdd4d613b8eeb952ec7f6308",
          "transactionIndex": "0x4",
          "logIndex": "0x2",
          "removed": false
        }
      ],
      "logsBloom": "0x00000000000000000000000000000000000000000000040000000000000000000000000000000002000000000000000000000000000000002000004004000000000010000000000040000000080000000000000000000000000000000000000000010000000080000000000000000000000000000000000000000000000000000000000000000000000040000000000000000000000000000000000000000000000000000000000000000000000000000000000000000000800000000000000000000000000000000000000400000000000000000000200000000000000000000000000000000000000000000000000000000000000000000000000000400000",
      "type": "0x2",
      "transactionHash": "0xb3d2c0bebd12c5ba2a7c40bb82663cb90534455fbdd4d613b8eeb952ec7f6308",
      "transactionIndex": "0x4",
      "blockHash": "0xd3cd286ee74b12e842691b325e4ea85b1bded3590f7429f4316f1421583d46f6",
      "blockNumber": "0x2ca4527",
      "gasUsed": "0x4a38c",
      "effectiveGasPrice": "0x7a121",
      "blobGasUsed": "0xf230",
      "from": "0xdae6cf499756455de55eaad590d59609870e1a3c",
      "to": "0x372ea9ce0ad9e33d566d95c4279de1669cbc4640",
      "contractAddress": null,
      "daFootprintGasScalar": "0x190",
      "l1BaseFeeScalar": "0x7d0",
      "l1BlobBaseFee": "0x80",
      "l1BlobBaseFeeScalar": "0xdbba0",
      "l1Fee": "0x463e",
      "l1GasPrice": "0xa",
      "l1GasUsed": "0x9ba"
    },
    {
      "status": "0x1",
      "cumulativeGasUsed": "0xb6e1a",
      "logs": [
        {
          "address": "0x372ea9ce0ad9e33d566d95c4279de1669cbc4640",
          "topics": [
            "0xa9607daa15b38519ee13f233d15e0ce03053729aa1f43ef57d862b7ea6a6967a",
            "0x000000000000000000000000ca093b5e50df91117440f9dfd1542b8f42075d67",
            "0x000000000000000000000000971de78de4b71d2110e1cc91a12983fcec4efbb9",
            "0x4af4695bc8a8161e60eb6c5ee8bbe5868469bfd929e17917d265808bfd065475"
          ],
          "data": "0x",
          "blockHash": "0xfa077c0df75796edd7d5bb23000dc0a711eedc60c1beb9d9efbf1852a1278fb9",
          "blockNumber": "0x2ca4528",
          "blockTimestamp": "0x69b7f274",
          "transactionHash": "0x704003dad82b4c5961db29c0dd673d9a875285920c9fcace87931d5e59b9e8e9",
          "transactionIndex": "0x6",
          "logIndex": "0x4",
          "removed": false
        }
      ],
      "logsBloom": "0x00000000000000000000010000000000000000000000000000000000000000000000000000000000000000000000000000000040000000002000004000000000000000000000000040000000080000000000000000000000000000001000000000010000000080000000000000000000000000000000000000000100000001000000000000000000000000000000000000008000000000000000000000000008000000000000000000000000000000000000200000000000000000000000000000000000000000000000000000000000000000000000000000000000000000000000000000000000000000000000000000000004000000000000000000000000",
      "type": "0x2",
      "transactionHash": "0x704003dad82b4c5961db29c0dd673d9a875285920c9fcace87931d5e59b9e8e9",
      "transactionIndex": "0x6",
      "blockHash": "0xfa077c0df75796edd7d5bb23000dc0a711eedc60c1beb9d9efbf1852a1278fb9",
      "blockNumber": "0x2ca4528",
      "gasUsed": "0x4a38c",
      "effectiveGasPrice": "0x7a121",
      "blobGasUsed": "0xef10",
      "from": "0xca093b5e50df91117440f9dfd1542b8f42075d67",
      "to": "0x372ea9ce0ad9e33d566d95c4279de1669cbc4640",
      "contractAddress": null,
      "daFootprintGasScalar": "0x190",
      "l1BaseFeeScalar": "0x7d0",
      "l1BlobBaseFee": "0x80",
      "l1BlobBaseFeeScalar": "0xdbba0",
      "l1Fee": "0x457d",
      "l1GasPrice": "0xa",
      "l1GasUsed": "0x99f"
    },
    {
      "status": "0x1",
      "cumulativeGasUsed": "0x71d78",
      "logs": [
        {
          "address": "0x372ea9ce0ad9e33d566d95c4279de1669cbc4640",
          "topics": [
            "0xa9607daa15b38519ee13f233d15e0ce03053729aa1f43ef57d862b7ea6a6967a",
            "0x0000000000000000000000006da90fd521d6cff9d373204038459addca260f2a",
            "0x0000000000000000000000002866769a0d61ab4411b9b50cd86dc3179e02b6de",
            "0x541a8dfd37e294255eed5d5fbdf14375e7a4a426b09c2db89549d4202a68d816"
          ],
          "data": "0x",
          "blockHash": "0x0000000000000000000000000000000000000000000000000000000000000000",
          "blockNumber": "0x2ca452a",
          "blockTimestamp": "0x69b7f276",
          "transactionHash": "0x1b88c14402fe659221443b0f79f1efc89c4e1ec642784ee20eb60e6be74f3e39",
          "transactionIndex": "0x3",
          "logIndex": "0x1",
          "removed": false
        }
      ],
      "logsBloom": "0x00000000000000000000000000000000000000000000000000000000000000000000000000000000000000040000000000000000000000002000204000000000000000000000000040000000080000000000004000000000000000000000000000010000000080040000000000000000000000000000000000000000008000000000000000000000000000000000000800000000000008000000000000000000000000000000000000000000000000000000000000000000000000000000000000000000000000000000000000000000000000000010000000000040000000000000000000000000000000000000000000000000000000000000000000000000",
      "type": "0x2",
      "transactionHash": "0x1b88c14402fe659221443b0f79f1efc89c4e1ec642784ee20eb60e6be74f3e39",
      "transactionIndex": "0x3",
      "blockHash": "0x0000000000000000000000000000000000000000000000000000000000000000",
      "blockNumber": "0x2ca452a",
      "gasUsed": "0x4a38c",
      "effectiveGasPrice": "0x7a121",
      "blobGasUsed": "0xef10",
      "from": "0x6da90fd521d6cff9d373204038459addca260f2a",
      "to": "0x372ea9ce0ad9e33d566d95c4279de1669cbc4640",
      "contractAddress": null,
      "daFootprintGasScalar": "0x190",
      "l1BaseFeeScalar": "0x7d0",
      "l1BlobBaseFee": "0x80",
      "l1BlobBaseFeeScalar": "0xdbba0",
      "l1Fee": "0x3eb1",
      "l1GasPrice": "0xa",
      "l1GasUsed": "0x99f"
    },
    {
      "status": "0x1",
      "cumulativeGasUsed": "0xd532b",
      "logs": [
        {
          "address": "0x372ea9ce0ad9e33d566d95c4279de1669cbc4640",
          "topics": [
            "0xa9607daa15b38519ee13f233d15e0ce03053729aa1f43ef57d862b7ea6a6967a",
            "0x000000000000000000000000699507c6aeb4268ff4dc05721c803dbe466cec6f",
            "0x000000000000000000000000381d5d63b78eaa6c30496e53fa11e25b66245f38",
            "0xe44c136a62d150d645a57a735ce07a93ee72c30cbdc81d5d4b130e104030f926"
          ],
          "data": "0x",
          "blockHash": "0x2679d76e540c0a276c7b2a19f76bad8e677e14bbef02456d3ee734133d435cd9",
          "blockNumber": "0x2ca452b",
          "blockTimestamp": "0x69b7f277",
          "transactionHash": "0x26294f0594af58328a3afb5bba0831eee55c3c0361966eba0527e7f0d6e72e0b",
          "transactionIndex": "0x7",
          "logIndex": "0xd",
          "removed": false
        }
      ],
      "logsBloom": "0x00010000000000000000000000000000000000000000000000000000000000000000000000000000000000000000100000000000000000002400004000400000000000000000000040000000080000000000000000000000000000000000000000010000000080000000000000020000000000000000000000000000000000000000000000000000002000000000000000000000000000000000000000000000000000000000000000000000000000000000000000000000000000000000000000000000000000000000020000000000000000000000000000004000010000000000000000000000000000000000000000000000000000000000000000000000",
      "type": "0x2",
      "transactionHash": "0x26294f0594af58328a3afb5bba0831eee55c3c0361966eba0527e7f0d6e72e0b",
      "transactionIndex": "0x7",
      "blockHash": "0x2679d76e540c0a276c7b2a19f76bad8e677e14bbef02456d3ee734133d435cd9",
      "blockNumber": "0x2ca452b",
      "gasUsed": "0x4a38c",
      "effectiveGasPrice": "0x7a121",
      "blobGasUsed": "0xdf70",
      "from": "0x699507c6aeb4268ff4dc05721c803dbe466cec6f",
      "to": "0x372ea9ce0ad9e33d566d95c4279de1669cbc4640",
      "contractAddress": null,
      "daFootprintGasScalar": "0x190",
      "l1BaseFeeScalar": "0x7d0",
      "l1BlobBaseFee": "0x80",
      "l1BlobBaseFeeScalar": "0xdbba0",
      "l1Fee": "0x4094",
      "l1GasPrice": "0xa",
      "l1GasUsed": "0x8f1"
    },
    {
      "status": "0x1",
      "cumulativeGasUsed": "0x15aa0f",
      "logs": [
        {
          "address": "0x372ea9ce0ad9e33d566d95c4279de1669cbc4640",
          "topics": [
            "0xa9607daa15b38519ee13f233d15e0ce03053729aa1f43ef57d862b7ea6a6967a",
            "0x000000000000000000000000079bb29d652294b01f4bdf86bb318277e0892e14",
            "0x00000000000000000000000074b65b21598ab2f67554a8d1d8d3b79e4d171b29",
            "0xbe2421d1db9c87051e3510bee9a93a729ffa09539a3cf5934ba0d9251809451d"
          ],
          "data": "0x",
          "blockHash": "0x5e5a9d3662a2f03e056d75e06b0d9572dcf1c837556a85b83579378cc68b5124",
          "blockNumber": "0x2ca452c",
          "blockTimestamp": "0x69b7f278",
          "transactionHash": "0x071caeb8daa74c3834807b36b5d56f16fe757d01b16ee7dc3759255e17d22d5a",
          "transactionIndex": "0x8",
          "logIndex": "0xc",
          "removed": false
        }
      ],
      "logsBloom": "0x00000000000000000000000000000000000000000000000000000000000000000000000000000000000000000000000000000000000000002000004000000000000000000000000040000000080000000000000000000000000000001800000000010000000080000000000000000000000000010000000000000000000000000000000000000000000000000000000000000000000000000000000000000000000000000000008000000000000000000000000000000000000100000000000000000000000000000000000000000000000000000000000000100000000000000000000000000400000000000020000000000008000000000000000000000000",
      "type": "0x2",
      "transactionHash": "0x071caeb8daa74c3834807b36b5d56f16fe757d01b16ee7dc3759255e17d22d5a",
      "transactionIndex": "0x8",
      "blockHash": "0x5e5a9d3662a2f03e056d75e06b0d9572dcf1c837556a85b83579378cc68b5124",
      "blockNumber": "0x2ca452c",
      "gasUsed": "0x4a38c",
      "effectiveGasPrice": "0x7a121",
      "blobGasUsed": "0xef10",
      "from": "0x079bb29d652294b01f4bdf86bb318277e0892e14",
      "to": "0x372ea9ce0ad9e33d566d95c4279de1669cbc4640",
      "contractAddress": null,
      "daFootprintGasScalar": "0x190",
      "l1BaseFeeScalar": "0x7d0",
      "l1BlobBaseFee": "0x80",
      "l1BlobBaseFeeScalar": "0xdbba0",
      "l1Fee": "0x457d",
      "l1GasPrice": "0xa",
      "l1GasUsed": "0x99f"
    },
    {
      "status": "0x1",
      "cumulativeGasUsed": "0x4d4f8",
      "logs": [
        {
          "address": "0x00b036b58a818b1bc34d502d3fe730db729e62ac",
          "topics": [
            "0xdd466e674ea557f56295e2d0218a125ea4b4f0f6f3307b95f85e6110838d6438",
            "0x13ec4a4c1a2573f02766aa5c931dcbce0846a107c837412ad7c52be7e1f8fa23",
            "0x000000000000000000000000b2b76faec41b7d1edd66351f67bca12bd95e8bf9",
            "0x000000000000000000000000b40812456931ed4035f3d07f547e7f293b467100"
          ],
          "data": "0x0000000000000000000000000000000000000000000000000000000000000bb8000000000000000000000000000000000000000000000000000000000000003c000000000000000000000000372ea9ce0ad9e33d566d95c4279de1669cbc464000000000000000000000000000000000000000010000000000000000000000000000000000000000000000000000000000000000000000000000000000000000",
          "blockHash": "0x0000000000000000000000000000000000000000000000000000000000000000",
          "blockNumber": "0x2ca452e",
          "blockTimestamp": "0x69b7f27a",
          "transactionHash": "0x593729573972eb0be4bc62c672f2a6233569dfcb4b62992a0e03c519c3bc8534",
          "transactionIndex": "0x4",
          "logIndex": "0x2",
          "removed": false
        }
      ],
      "logsBloom": "0x00000000000000000000000000000000000000000000040000000000000000000000000000004002000000000000000000000000000000000000000004000000000010000000000000000000000000000000000000000000000000000000000000000000000000000000000000000000000000000000000000000000000000000000000000000008000000000008000000000001000000000000000000200000000000000000000000000000000000000000000000000000000000000000000000000000000000000000000400000000000000000000000000000000000000000000000000000000000000100004000000000000000002000000000000400010",
      "type": "0x2",
      "transactionHash": "0x593729573972eb0be4bc62c672f2a6233569dfcb4b62992a0e03c519c3bc8534",
      "transactionIndex": "0x4",
      "blockHash": "0x0000000000000000000000000000000000000000000000000000000000000000",
      "blockNumber": "0x2ca452e",
      "gasUsed": "0xca0a",
      "effectiveGasPrice": "0x7a121",
      "blobGasUsed": "0xdf70",
      "from": "0xc5b7b574ee84a9b59b475fe32eaf908c246d3859",
      "to": "0x00b036b58a818b1bc34d502d3fe730db729e62ac",
      "contractAddress": null,
      "daFootprintGasScalar": "0x190",
      "l1BaseFeeScalar": "0x7d0",
      "l1BlobBaseFee": "0x70",
      "l1BlobBaseFeeScalar": "0xdbba0",
      "l1Fee": "0x36e1",
      "l1GasPrice": "0xa",
      "l1GasUsed": "0x8ff"
    },
    {
      "status": "0x1",
      "cumulativeGasUsed": "0x49f6c",
      "logs": [
        {
          "address": "0xb2b76faec41b7d1edd66351f67bca12bd95e8bf9",
          "topics": [
            "0x8c5be1e5ebec7d5bd14f71427d1e84f3dd0314c0f7b2291e5b200ac8c7c3b925",
            "0x000000000000000000000000c5b7b574ee84a9b59b475fe32eaf908c246d3859",
            "0x0000000000000000000000005fa728c0a5cfd51bee4b060773f50554c0c8a7ab"
          ],
          "data": "0x00000000000000000000000000000000000000000000021e19e0c9bab2400000",
          "blockHash": "0x0000000000000000000000000000000000000000000000000000000000000000",
          "blockNumber": "0x2ca4532",
          "blockTimestamp": "0x69b7f27e",
          "transactionHash": "0xfcad5ac01e6d8f689c40f75711273f4c641da2fcedc96bf42d7fd5f3f3e0b98f",
          "transactionIndex": "0x4",
          "logIndex": "0x2",
          "removed": false
        }
      ],
      "logsBloom": "0x00000000000000000000000000000000000000000000000000000000000000000000000000000000000000000000000000000000000000000000000000200000000000000000000000000000100000000000000000000000002000000000000000000000000000000000000040000000000000000000000000000000000000000000000400000000000000000000000000000000000000000080000000000000020000000000000000000000000000004000000000000000000000000000000000080000000000000000000000000000000000000000000000000000000000000010000000000000000000001000000000080000000000000000000000000000",
      "type": "0x2",
      "transactionHash": "0xfcad5ac01e6d8f689c40f75711273f4c641da2fcedc96bf42d7fd5f3f3e0b98f",
      "transactionIndex": "0x4",
      "blockHash": "0x0000000000000000000000000000000000000000000000000000000000000000",
      "blockNumber": "0x2ca4532",
      "gasUsed": "0xb54e",
      "effectiveGasPrice": "0x7a121",
      "blobGasUsed": "0x9c40",
      "from": "0xc5b7b574ee84a9b59b475fe32eaf908c246d3859",
      "to": "0xb2b76faec41b7d1edd66351f67bca12bd95e8bf9",
      "contractAddress": null,
      "daFootprintGasScalar": "0x190",
      "l1BaseFeeScalar": "0x7d0",
      "l1BlobBaseFee": "0x70",
      "l1BlobBaseFeeScalar": "0xdbba0",
      "l1Fee": "0x36e1",
      "l1GasPrice": "0xa",
      "l1GasUsed": "0x640"
    },
    {
      "status": "0x1",
      "cumulativeGasUsed": "0x49f6c",
      "logs": [
        {
          "address": "0xb40812456931ed4035f3d07f547e7f293b467100",
          "topics": [
            "0x8c5be1e5ebec7d5bd14f71427d1e84f3dd0314c0f7b2291e5b200ac8c7c3b925",
            "0x000000000000000000000000c5b7b574ee84a9b59b475fe32eaf908c246d3859",
            "0x0000000000000000000000005fa728c0a5cfd51bee4b060773f50554c0c8a7ab"
          ],
          "data": "0x00000000000000000000000000000000000000000000021e19e0c9bab2400000",
          "blockHash": "0xb06fb3f7e25a493c63a49b35754f8837975524a7b373b64beb3b4ce0bfa02444",
          "blockNumber": "0x2ca4536",
          "blockTimestamp": "0x69b7f282",
          "transactionHash": "0x768e1dd8bee4476a7acd1a74af17e97f62b6c6a8aed51df3d1699565107bc306",
          "transactionIndex": "0x4",
          "logIndex": "0x2",
          "removed": false
        }
      ],
      "logsBloom": "0x00000000000000000000000000000000000000000000000000000000000000000000000000000000000000000000000000000000000000000000000000200000000000000000000000000000000000000000000000000000000000000000000000000000000000000000000000000000000000000000000000000000000000000000000400000000000000000000000000000000000000000080000000000000020000000000000000000000000000004000000000000000000000000000000000080000000000000000000000040000000000000000000000000000000000000010000000000000000000001000000000080000100000000002000000000000",
      "type": "0x2",
      "transactionHash": "0x768e1dd8bee4476a7acd1a74af17e97f62b6c6a8aed51df3d1699565107bc306",
      "transactionIndex": "0x4",
      "blockHash": "0xb06fb3f7e25a493c63a49b35754f8837975524a7b373b64beb3b4ce0bfa02444",
      "blockNumber": "0x2ca4536",
      "gasUsed": "0xb54e",
      "effectiveGasPrice": "0x7a121",
      "blobGasUsed": "0x9c40",
      "from": "0xc5b7b574ee84a9b59b475fe32eaf908c246d3859",
      "to": "0xb40812456931ed4035f3d07f547e7f293b467100",
      "contractAddress": null,
      "daFootprintGasScalar": "0x190",
      "l1BaseFeeScalar": "0x7d0",
      "l1BlobBaseFee": "0x70",
      "l1BlobBaseFeeScalar": "0xdbba0",
      "l1Fee": "0x2780",
      "l1GasPrice": "0xa",
      "l1GasUsed": "0x640"
    },
    {
      "status": "0x1",
      "cumulativeGasUsed": "0xaf321",
      "logs": [
        {
          "address": "0x00b036b58a818b1bc34d502d3fe730db729e62ac",
          "topics": [
            "0xf208f4912782fd25c7f114ca3723a2d5dd6f3bcc3ac8db5af63baa85f711d5ec",
            "0x13ec4a4c1a2573f02766aa5c931dcbce0846a107c837412ad7c52be7e1f8fa23",
            "0x0000000000000000000000005fa728c0a5cfd51bee4b060773f50554c0c8a7ab"
          ],
          "data": "0xfffffffffffffffffffffffffffffffffffffffffffffffffffffffffff2764c00000000000000000000000000000000000000000000000000000000000d89b400000000000000000000000000000000000000000000021e19e0c9bab24000000000000000000000000000000000000000000000000000000000000000000000",
          "blockHash": "0xc74ca7305854aca4bd4c65cf57675974a30c83121e52dd8dddd405fcf92bfcfa",
          "blockNumber": "0x2ca4539",
          "blockTimestamp": "0x69b7f285",
          "transactionHash": "0xca67693bd1b4bc89808e07a9f7fd5a9797f6c159deacb2a24c0d0b2038a749be",
          "transactionIndex": "0x5",
          "logIndex": "0x3",
          "removed": false
        },
        {
          "address": "0x862bc89322fc1ea2e6d3d9b81b5c592e9f44ef8e",
          "topics": [
            "0xa56e19c5f806ae66a3b7d8c0b92d13ddf628502c9b47f577580f5f6a4e1deb2a",
            "0x000000000000000000000000dae6cf499756455de55eaad590d59609870e1a3c",
            "0x13ec4a4c1a2573f02766aa5c931dcbce0846a107c837412ad7c52be7e1f8fa23"
          ],
          "data": "0x00000000000000000000000000000000000000000000021e19e0c9bab2400000",
          "blockHash": "0xc74ca7305854aca4bd4c65cf57675974a30c83121e52dd8dddd405fcf92bfcfa",
          "blockNumber": "0x2ca4539",
          "blockTimestamp": "0x69b7f285",
          "transactionHash": "0xca67693bd1b4bc89808e07a9f7fd5a9797f6c159deacb2a24c0d0b2038a749be",
          "transactionIndex": "0x5",
          "logIndex": "0x4",
          "removed": false
        },
        {
          "address": "0x372ea9ce0ad9e33d566d95c4279de1669cbc4640",
          "topics": [
            "0x9fcca7d4a4fe21922427fa68ae954a11518460e4298a953677db412ad22d6f39",
            "0x000000000000000000000000dae6cf499756455de55eaad590d59609870e1a3c",
            "0x13ec4a4c1a2573f02766aa5c931dcbce0846a107c837412ad7c52be7e1f8fa23"
          ],
          "data": "0x00000000000000000000000000000000000000000000021e19e0c9bab2400000",
          "blockHash": "0xc74ca7305854aca4bd4c65cf57675974a30c83121e52dd8dddd405fcf92bfcfa",
          "blockNumber": "0x2ca4539",
          "blockTimestamp": "0x69b7f285",
          "transactionHash": "0xca67693bd1b4bc89808e07a9f7fd5a9797f6c159deacb2a24c0d0b2038a749be",
          "transactionIndex": "0x5",
          "logIndex": "0x5",
          "removed": false
        },
        {
          "address": "0xb2b76faec41b7d1edd66351f67bca12bd95e8bf9",
          "topics": [
            "0xddf252ad1be2c89b69c2b068fc378daa952ba7f163c4a11628f55a4df523b3ef",
            "0x000000000000000000000000c5b7b574ee84a9b59b475fe32eaf908c246d3859",
            "0x00000000000000000000000000b036b58a818b1bc34d502d3fe730db729e62ac"
          ],
          "data": "0x00000000000000000000000000000000000000000000021e19e0c9bab23ffde1",
          "blockHash": "0xc74ca7305854aca4bd4c65cf57675974a30c83121e52dd8dddd405fcf92bfcfa",
          "blockNumber": "0x2ca4539",
          "blockTimestamp": "0x69b7f285",
          "transactionHash": "0xca67693bd1b4bc89808e07a9f7fd5a9797f6c159deacb2a24c0d0b2038a749be",
          "transactionIndex": "0x5",
          "logIndex": "0x6",
          "removed": false
        },
        {
          "address": "0xb40812456931ed4035f3d07f547e7f293b467100",
          "topics": [
            "0xddf252ad1be2c89b69c2b068fc378daa952ba7f163c4a11628f55a4df523b3ef",
            "0x000000000000000000000000c5b7b574ee84a9b59b475fe32eaf908c246d3859",
            "0x00000000000000000000000000b036b58a818b1bc34d502d3fe730db729e62ac"
          ],
          "data": "0x00000000000000000000000000000000000000000000021e19e0c9bab23ffde1",
          "blockHash": "0xc74ca7305854aca4bd4c65cf57675974a30c83121e52dd8dddd405fcf92bfcfa",
          "blockNumber": "0x2ca4539",
          "blockTimestamp": "0x69b7f285",
          "transactionHash": "0xca67693bd1b4bc89808e07a9f7fd5a9797f6c159deacb2a24c0d0b2038a749be",
          "transactionIndex": "0x5",
          "logIndex": "0x7",
          "removed": false
        }
      ],
      "logsBloom": "0x00000000000000000000000000000000000000000000040000000000000000000000000002000000000000000000000000000000001000002000004000000000000010000001000000000008180000000000000000010000002000000000000000000000000000000000000040004000000000000000000000000010000000000000000401000000000040000108000000000000000000000080000000000000000004000000000000000000000000004000000000000020800000000000400000080002000000000000000000040000002000000000202000000000000000000000000010000010000000001000000004080000100002000002000000400010",
      "type": "0x2",
      "transactionHash": "0xca67693bd1b4bc89808e07a9f7fd5a9797f6c159deacb2a24c0d0b2038a749be",
      "transactionIndex": "0x5",
      "blockHash": "0xc74ca7305854aca4bd4c65cf57675974a30c83121e52dd8dddd405fcf92bfcfa",
      "blockNumber": "0x2ca4539",
      "gasUsed": "0x598c5",
      "effectiveGasPrice": "0x7a121",
      "blobGasUsed": "0x10810",
      "from": "0xc5b7b574ee84a9b59b475fe32eaf908c246d3859",
      "to": "0x5fa728c0a5cfd51bee4b060773f50554c0c8a7ab",
      "contractAddress": null,
      "daFootprintGasScalar": "0x190",
      "l1BaseFeeScalar": "0x7d0",
      "l1BlobBaseFee": "0x70",
      "l1BlobBaseFeeScalar": "0xdbba0",
      "l1Fee": "0x42c6",
      "l1GasPrice": "0xa",
      "l1GasUsed": "0xa90"
    },
    {
      "status": "0x1",
      "cumulativeGasUsed": "0x6244e",
      "logs": [
        {
          "address": "0x00b036b58a818b1bc34d502d3fe730db729e62ac",
          "topics": [
            "0xdd466e674ea557f56295e2d0218a125ea4b4f0f6f3307b95f85e6110838d6438",
            "0x4af4695bc8a8161e60eb6c5ee8bbe5868469bfd929e17917d265808bfd065475",
            "0x000000000000000000000000971de78de4b71d2110e1cc91a12983fcec4efbb9",
            "0x000000000000000000000000b2b76faec41b7d1edd66351f67bca12bd95e8bf9"
          ],
          "data": "0x0000000000000000000000000000000000000000000000000000000000000bb8000000000000000000000000000000000000000000000000000000000000003c000000000000000000000000372ea9ce0ad9e33d566d95c4279de1669cbc464000000000000000000000000000000000000000010000000000000000000000000000000000000000000000000000000000000000000000000000000000000000",
          "blockHash": "0xfa4fc455d308dcf814d2ae739bb2a19078eed9b6a6c7d551ecf90df1c4cd9833",
          "blockNumber": "0x2ca453d",
          "blockTimestamp": "0x69b7f289",
          "transactionHash": "0x17c78e0b382d494fd1906dad4519cef19544ccf38558bf6b69c53a125889b7c1",
          "transactionIndex": "0x5",
          "logIndex": "0x3",
          "removed": false
        }
      ],
      "logsBloom": "0x00000000000000000000000000000000000000000000000000000000000000000000000000004000000000000000000000000040000000000000000000000000000000000000000000000000000000000000000000000000000000001000000000000000000000000000000000000000000000000000000000000100000001000000000000000008000000000008000000000001000000000000000000200008000000000000000000000000000000000000200000000000000000000000000000000000000000000000000000000000000000000000000000000000000000000000000000000000000000100004000000000000000002000000000000000010",
      "type": "0x2",
      "transactionHash": "0x17c78e0b382d494fd1906dad4519cef19544ccf38558bf6b69c53a125889b7c1",
      "transactionIndex": "0x5",
      "blockHash": "0xfa4fc455d308dcf814d2ae739bb2a19078eed9b6a6c7d551ecf90df1c4cd9833",
      "blockNumber": "0x2ca453d",
      "gasUsed": "0xca16",
      "effectiveGasPrice": "0x7a121",
      "blobGasUsed": "0xdde0",
      "from": "0xc5b7b574ee84a9b59b475fe32eaf908c246d3859",
      "to": "0x00b036b58a818b1bc34d502d3fe730db729e62ac",
      "contractAddress": null,
      "daFootprintGasScalar": "0x190",
      "l1BaseFeeScalar": "0x7d0",
      "l1BlobBaseFee": "0x64",
      "l1BlobBaseFeeScalar": "0xdbba0",
      "l1Fee": "0x3232",
      "l1GasPrice": "0xa",
      "l1GasUsed": "0x8e4"
    },
    {
      "status": "0x1",
      "cumulativeGasUsed": "0x77fac",
      "logs": [
        {
          "address": "0x971de78de4b71d2110e1cc91a12983fcec4efbb9",
          "topics": [
            "0x8c5be1e5ebec7d5bd14f71427d1e84f3dd0314c0f7b2291e5b200ac8c7c3b925",
            "0x000000000000000000000000c5b7b574ee84a9b59b475fe32eaf908c246d3859",
            "0x0000000000000000000000005fa728c0a5cfd51bee4b060773f50554c0c8a7ab"
          ],
          "data": "0x00000000000000000000000000000000000000000000021e19e0c9bab2400000",
          "blockHash": "0x8de8faeb9123e47ee3d51488604735870a2fed2e9a2ef60bfb2d4c426a1e5fbb",
          "blockNumber": "0x2ca4541",
          "blockTimestamp": "0x69b7f28d",
          "transactionHash": "0xae23b67fb7dc0ac81449e1a1849568c03f2a34f9916d050a8448b8c2a2167cf1",
          "transactionIndex": "0x6",
          "logIndex": "0x4",
          "removed": false
        }
      ],
      "logsBloom": "0x00000000000000000000010000000000000000000000000000000000000000010000000000000000000000000000000000000000000000000000000000200000000000000000000000000000000000000000000000000000000000000000000000000000000000000000000000000000000000000000000000000000000000000000000400000000000000000000000000000000000000000080000000000000020000000000000000000000000000004000000000000000000000000000000000080000000000000000000000000000000000000000000000000000000000000010000000000000000000001000000000080080000000000000000000000000",
      "type": "0x2",
      "transactionHash": "0xae23b67fb7dc0ac81449e1a1849568c03f2a34f9916d050a8448b8c2a2167cf1",
      "transactionIndex": "0x6",
      "blockHash": "0x8de8faeb9123e47ee3d51488604735870a2fed2e9a2ef60bfb2d4c426a1e5fbb",
      "blockNumber": "0x2ca4541",
      "gasUsed": "0xb54e",
      "effectiveGasPrice": "0x7a121",
      "blobGasUsed": "0x9c40",
      "from": "0xc5b7b574ee84a9b59b475fe32eaf908c246d3859",
      "to": "0x971de78de4b71d2110e1cc91a12983fcec4efbb9",
      "contractAddress": null,
      "daFootprintGasScalar": "0x190",
      "l1BaseFeeScalar": "0x7d0",
      "l1BlobBaseFee": "0x64",
      "l1BlobBaseFeeScalar": "0xdbba0",
      "l1Fee": "0x2348",
      "l1GasPrice": "0xa",
      "l1GasUsed": "0x640"
    },
    {
      "status": "0x1",
      "cumulativeGasUsed": "0x73cec",
      "logs": [
        {
          "address": "0xb2b76faec41b7d1edd66351f67bca12bd95e8bf9",
          "topics": [
            "0x8c5be1e5ebec7d5bd14f71427d1e84f3dd0314c0f7b2291e5b200ac8c7c3b925",
            "0x000000000000000000000000c5b7b574ee84a9b59b475fe32eaf908c246d3859",
            "0x0000000000000000000000005fa728c0a5cfd51bee4b060773f50554c0c8a7ab"
          ],
          "data": "0x00000000000000000000000000000000000000000000021e19e0c9bab2400000",
          "blockHash": "0xad02151a19880d06d4299eca27c3439e282b74fc5520cd00b048e917db0abf8c",
          "blockNumber": "0x2ca4545",
          "blockTimestamp": "0x69b7f291",
          "transactionHash": "0x777e786047eb2b8ba1361b74136647f8f1adf6e56735698eb3e64d634d782b94",
          "transactionIndex": "0x6",
          "logIndex": "0x4",
          "removed": false
        }
      ],
      "logsBloom": "0x00000000000000000000000000000000000000000000000000000000000000000000000000000000000000000000000000000000000000000000000000200000000000000000000000000000100000000000000000000000002000000000000000000000000000000000000040000000000000000000000000000000000000000000000400000000000000000000000000000000000000000080000000000000020000000000000000000000000000004000000000000000000000000000000000080000000000000000000000000000000000000000000000000000000000000010000000000000000000001000000000080000000000000000000000000000",
      "type": "0x2",
      "transactionHash": "0x777e786047eb2b8ba1361b74136647f8f1adf6e56735698eb3e64d634d782b94",
      "transactionIndex": "0x6",
      "blockHash": "0xad02151a19880d06d4299eca27c3439e282b74fc5520cd00b048e917db0abf8c",
      "blockNumber": "0x2ca4545",
      "gasUsed": "0x7282",
      "effectiveGasPrice": "0x7a121",
      "blobGasUsed": "0x9c40",
      "from": "0xc5b7b574ee84a9b59b475fe32eaf908c246d3859",
      "to": "0xb2b76faec41b7d1edd66351f67bca12bd95e8bf9",
      "contractAddress": null,
      "daFootprintGasScalar": "0x190",
      "l1BaseFeeScalar": "0x7d0",
      "l1BlobBaseFee": "0x64",
      "l1BlobBaseFeeScalar": "0xdbba0",
      "l1Fee": "0x2348",
      "l1GasPrice": "0xa",
      "l1GasUsed": "0x640"
    },
    {
      "status": "0x1",
      "cumulativeGasUsed": "0xc2093",
      "logs": [
        {
          "address": "0x00b036b58a818b1bc34d502d3fe730db729e62ac",
          "topics": [
            "0xf208f4912782fd25c7f114ca3723a2d5dd6f3bcc3ac8db5af63baa85f711d5ec",
            "0x4af4695bc8a8161e60eb6c5ee8bbe5868469bfd929e17917d265808bfd065475",
            "0x0000000000000000000000005fa728c0a5cfd51bee4b060773f50554c0c8a7ab"
          ],
          "data": "0xfffffffffffffffffffffffffffffffffffffffffffffffffffffffffff2764c00000000000000000000000000000000000000000000000000000000000d89b400000000000000000000000000000000000000000000021e19e0c9bab24000000000000000000000000000000000000000000000000000000000000000000000",
          "blockHash": "0x28cdf890392d24b39f3a5b31f0ffda7359132ea13da41623a73d344eaac19da3",
          "blockNumber": "0x2ca4549",
          "blockTimestamp": "0x69b7f295",
          "transactionHash": "0x3df4ddc8e831f0dcd45753fa0cde9de95476a6d2061da6f3896e4b6c79c28915",
          "transactionIndex": "0x6",
          "logIndex": "0x4",
          "removed": false
        },
        {
          "address": "0x862bc89322fc1ea2e6d3d9b81b5c592e9f44ef8e",
          "topics": [
            "0xa56e19c5f806ae66a3b7d8c0b92d13ddf628502c9b47f577580f5f6a4e1deb2a",
            "0x000000000000000000000000ca093b5e50df91117440f9dfd1542b8f42075d67",
            "0x4af4695bc8a8161e60eb6c5ee8bbe5868469bfd929e17917d265808bfd065475"
          ],
          "data": "0x00000000000000000000000000000000000000000000021e19e0c9bab2400000",
          "blockHash": "0x28cdf890392d24b39f3a5b31f0ffda7359132ea13da41623a73d344eaac19da3",
          "blockNumber": "0x2ca4549",
          "blockTimestamp": "0x69b7f295",
          "transactionHash": "0x3df4ddc8e831f0dcd45753fa0cde9de95476a6d2061da6f3896e4b6c79c28915",
          "transactionIndex": "0x6",
          "logIndex": "0x5",
          "removed": false
        },
        {
          "address": "0x372ea9ce0ad9e33d566d95c4279de1669cbc4640",
          "topics": [
            "0x9fcca7d4a4fe21922427fa68ae954a11518460e4298a953677db412ad22d6f39",
            "0x000000000000000000000000ca093b5e50df91117440f9dfd1542b8f42075d67",
            "0x4af4695bc8a8161e60eb6c5ee8bbe5868469bfd929e17917d265808bfd065475"
          ],
          "data": "0x00000000000000000000000000000000000000000000021e19e0c9bab2400000",
          "blockHash": "0x28cdf890392d24b39f3a5b31f0ffda7359132ea13da41623a73d344eaac19da3",
          "blockNumber": "0x2ca4549",
          "blockTimestamp": "0x69b7f295",
          "transactionHash": "0x3df4ddc8e831f0dcd45753fa0cde9de95476a6d2061da6f3896e4b6c79c28915",
          "transactionIndex": "0x6",
          "logIndex": "0x6",
          "removed": false
        },
        {
          "address": "0x971de78de4b71d2110e1cc91a12983fcec4efbb9",
          "topics": [
            "0xddf252ad1be2c89b69c2b068fc378daa952ba7f163c4a11628f55a4df523b3ef",
            "0x000000000000000000000000c5b7b574ee84a9b59b475fe32eaf908c246d3859",
            "0x00000000000000000000000000b036b58a818b1bc34d502d3fe730db729e62ac"
          ],
          "data": "0x00000000000000000000000000000000000000000000021e19e0c9bab23ffde1",
          "blockHash": "0x28cdf890392d24b39f3a5b31f0ffda7359132ea13da41623a73d344eaac19da3",
          "blockNumber": "0x2ca4549",
          "blockTimestamp": "0x69b7f295",
          "transactionHash": "0x3df4ddc8e831f0dcd45753fa0cde9de95476a6d2061da6f3896e4b6c79c28915",
          "transactionIndex": "0x6",
          "logIndex": "0x7",
          "removed": false
        },
        {
          "address": "0xb2b76faec41b7d1edd66351f67bca12bd95e8bf9",
          "topics": [
            "0xddf252ad1be2c89b69c2b068fc378daa952ba7f163c4a11628f55a4df523b3ef",
            "0x000000000000000000000000c5b7b574ee84a9b59b475fe32eaf908c246d3859",
            "0x00000000000000000000000000b036b58a818b1bc34d502d3fe730db729e62ac"
          ],
          "data": "0x00000000000000000000000000000000000000000000021e19e0c9bab23ffde1",
          "blockHash": "0x28cdf890392d24b39f3a5b31f0ffda7359132ea13da41623a73d344eaac19da3",
          "blockNumber": "0x2ca4549",
          "blockTimestamp": "0x69b7f295",
          "transactionHash": "0x3df4ddc8e831f0dcd45753fa0cde9de95476a6d2061da6f3896e4b6c79c28915",
          "transactionIndex": "0x6",
          "logIndex": "0x8",
          "removed": false
        }
      ],
      "logsBloom": "0x00000000000000000000010000000000000000000000000000000000000000010000000002000000000000000000000000000040001000002000004000000000000000000001000000000008180000000000000000010000002000001000000000000000000000000000000040004000000000000000000000000010000000000000000401000000000000000108000000008000000000000080000000000008000004000000000000000000000000004000000000000020000000000000400000080002000000000000000000000000002000000000002000000000000000000000000010000010000000001000000004080084000002000000000000000010",
      "type": "0x2",
      "transactionHash": "0x3df4ddc8e831f0dcd45753fa0cde9de95476a6d2061da6f3896e4b6c79c28915",
      "transactionIndex": "0x6",
      "blockHash": "0x28cdf890392d24b39f3a5b31f0ffda7359132ea13da41623a73d344eaac19da3",
      "blockNumber": "0x2ca4549",
      "gasUsed": "0x55605",
      "effectiveGasPrice": "0x7a121",
      "blobGasUsed": "0x104f0",
      "from": "0xc5b7b574ee84a9b59b475fe32eaf908c246d3859",
      "to": "0x5fa728c0a5cfd51bee4b060773f50554c0c8a7ab",
      "contractAddress": null,
      "daFootprintGasScalar": "0x190",
      "l1BaseFeeScalar": "0x7d0",
      "l1BlobBaseFee": "0x58",
      "l1BlobBaseFeeScalar": "0xdbba0",
      "l1Fee": "0x33fd",
      "l1GasPrice": "0xa",
      "l1GasUsed": "0xa76"
    },
    {
      "status": "0x1",
      "cumulativeGasUsed": "0x98105",
      "logs": [
        {
          "address": "0x00b036b58a818b1bc34d502d3fe730db729e62ac",
          "topics": [
            "0xdd466e674ea557f56295e2d0218a125ea4b4f0f6f3307b95f85e6110838d6438",
            "0x541a8dfd37e294255eed5d5fbdf14375e7a4a426b09c2db89549d4202a68d816",
            "0x0000000000000000000000002866769a0d61ab4411b9b50cd86dc3179e02b6de",
            "0x000000000000000000000000b2b76faec41b7d1edd66351f67bca12bd95e8bf9"
          ],
          "data": "0x0000000000000000000000000000000000000000000000000000000000000bb8000000000000000000000000000000000000000000000000000000000000003c000000000000000000000000372ea9ce0ad9e33d566d95c4279de1669cbc464000000000000000000000000000000000000000010000000000000000000000000000000000000000000000000000000000000000000000000000000000000000",
          "blockHash": "0xb462e69495c55d7a7788b1da2858bbf746aaf2a0299c55fcf01f095d8aa0cc61",
          "blockNumber": "0x2ca454d",
          "blockTimestamp": "0x69b7f299",
          "transactionHash": "0x95a33deabff977999cea3e673e37c83baa4a7f8e0814092b11ddf91494a5206b",
          "transactionIndex": "0x7",
          "logIndex": "0xb",
          "removed": false
        }
      ],
      "logsBloom": "0x00000000000000000000000000000000000000000000000000000000000000000000000000004000000000040000000000000000000000000000200000000000000000000000000000000000000000000000000000000000000000000000000000000000000000040000000000000000000000000000000000000000000000000000000000000008000000000008000000000001000008000000000000200000000000000000000000000000000000000000000000000000000000000000000000000000000000000000000000000000000000000010000000000040000000000000000000000000000000100004000000000000000002000000000000000010",
      "type": "0x2",
      "transactionHash": "0x95a33deabff977999cea3e673e37c83baa4a7f8e0814092b11ddf91494a5206b",
      "transactionIndex": "0x7",
      "blockHash": "0xb462e69495c55d7a7788b1da2858bbf746aaf2a0299c55fcf01f095d8aa0cc61",
      "blockNumber": "0x2ca454d",
      "gasUsed": "0xca16",
      "effectiveGasPrice": "0x7a121",
      "blobGasUsed": "0xdde0",
      "from": "0xc5b7b574ee84a9b59b475fe32eaf908c246d3859",
      "to": "0x00b036b58a818b1bc34d502d3fe730db729e62ac",
      "contractAddress": null,
      "daFootprintGasScalar": "0x190",
      "l1BaseFeeScalar": "0x7d0",
      "l1BlobBaseFee": "0x58",
      "l1BlobBaseFeeScalar": "0xdbba0",
      "l1Fee": "0x2c32",
      "l1GasPrice": "0xa",
      "l1GasUsed": "0x8e4"
    },
    {
      "status": "0x1",
      "cumulativeGasUsed": "0x8f002",
      "logs": [
        {
          "address": "0x2866769a0d61ab4411b9b50cd86dc3179e02b6de",
          "topics": [
            "0x8c5be1e5ebec7d5bd14f71427d1e84f3dd0314c0f7b2291e5b200ac8c7c3b925",
            "0x000000000000000000000000c5b7b574ee84a9b59b475fe32eaf908c246d3859",
            "0x0000000000000000000000005fa728c0a5cfd51bee4b060773f50554c0c8a7ab"
          ],
          "data": "0x00000000000000000000000000000000000000000000021e19e0c9bab2400000",
          "blockHash": "0xe04fd7e371c1c0b61b8de66b87ae9472a13b1b7ad1eb4482af5b4b2fb3e9d25b",
          "blockNumber": "0x2ca4551",
          "blockTimestamp": "0x69b7f29d",
          "transactionHash": "0x91dc5913320044886d6aff65588357476c8ac9a483de049e067fd0816602aea0",
          "transactionIndex": "0x7",
          "logIndex": "0x5",
          "removed": false
        }
      ],
      "logsBloom": "0x00000000000000000000000000400000000000000000000000000000000000000000000000000000000000000000000000000000000000000000000000200000000000000000008000000000000000000000000000000000000000000000000000000000000000000000000000000000000000000000000000000000000000000000000400000000000000000000000000000000000000000080000000000000020000000000000000000000000000004000000000000000000000000000000000080000000000002000000000000000000000000000000000000000000000000010000000000000000000001000000000080000000000000000000000000000",
      "type": "0x2",
      "transactionHash": "0x91dc5913320044886d6aff65588357476c8ac9a483de049e067fd0816602aea0",
      "transactionIndex": "0x7",
      "blockHash": "0xe04fd7e371c1c0b61b8de66b87ae9472a13b1b7ad1eb4482af5b4b2fb3e9d25b",
      "blockNumber": "0x2ca4551",
      "gasUsed": "0xb54e",
      "effectiveGasPrice": "0x7a121",
      "blobGasUsed": "0x9c40",
      "from": "0xc5b7b574ee84a9b59b475fe32eaf908c246d3859",
      "to": "0x2866769a0d61ab4411b9b50cd86dc3179e02b6de",
      "contractAddress": null,
      "daFootprintGasScalar": "0x190",
      "l1BaseFeeScalar": "0x7d0",
      "l1BlobBaseFee": "0x58",
      "l1BlobBaseFeeScalar": "0xdbba0",
      "l1Fee": "0x1f10",
      "l1GasPrice": "0xa",
      "l1GasUsed": "0x640"
    },
    {
      "status": "0x1",
      "cumulativeGasUsed": "0x11d6d0",
      "logs": [
        {
          "address": "0xb2b76faec41b7d1edd66351f67bca12bd95e8bf9",
          "topics": [
            "0x8c5be1e5ebec7d5bd14f71427d1e84f3dd0314c0f7b2291e5b200ac8c7c3b925",
            "0x000000000000000000000000c5b7b574ee84a9b59b475fe32eaf908c246d3859",
            "0x0000000000000000000000005fa728c0a5cfd51bee4b060773f50554c0c8a7ab"
          ],
          "data": "0x00000000000000000000000000000000000000000000021e19e0c9bab2400000",
          "blockHash": "0x63eda51ec43a07cdaee977b830d2a94e6e09927806fa35bcef72e94ac299cc33",
          "blockNumber": "0x2ca4555",
          "blockTimestamp": "0x69b7f2a1",
          "transactionHash": "0xd1910c78107633de5123ec5d3fc1ce7a4e60c4af39d371f5844995639641259d",
          "transactionIndex": "0x9",
          "logIndex": "0x13",
          "removed": false
        }
      ],
      "logsBloom": "0x00000000000000000000000000000000000000000000000000000000000000000000000000000000000000000000000000000000000000000000000000200000000000000000000000000000100000000000000000000000002000000000000000000000000000000000000040000000000000000000000000000000000000000000000400000000000000000000000000000000000000000080000000000000020000000000000000000000000000004000000000000000000000000000000000080000000000000000000000000000000000000000000000000000000000000010000000000000000000001000000000080000000000000000000000000000",
      "type": "0x2",
      "transactionHash": "0xd1910c78107633de5123ec5d3fc1ce7a4e60c4af39d371f5844995639641259d",
      "transactionIndex": "0x9",
      "blockHash": "0x63eda51ec43a07cdaee977b830d2a94e6e09927806fa35bcef72e94ac299cc33",
      "blockNumber": "0x2ca4555",
      "gasUsed": "0x7282",
      "effectiveGasPrice": "0x7a121",
      "blobGasUsed": "0x9c40",
      "from": "0xc5b7b574ee84a9b59b475fe32eaf908c246d3859",
      "to": "0xb2b76faec41b7d1edd66351f67bca12bd95e8bf9",
      "contractAddress": null,
      "daFootprintGasScalar": "0x190",
      "l1BaseFeeScalar": "0x7d0",
      "l1BlobBaseFee": "0x50",
      "l1BlobBaseFeeScalar": "0xdbba0",
      "l1Fee": "0x1c40",
      "l1GasPrice": "0xa",
      "l1GasUsed": "0x640"
    },
    {
      "status": "0x1",
      "cumulativeGasUsed": "0x7cffd",
      "logs": [
        {
          "address": "0x00b036b58a818b1bc34d502d3fe730db729e62ac",
          "topics": [
            "0xf208f4912782fd25c7f114ca3723a2d5dd6f3bcc3ac8db5af63baa85f711d5ec",
            "0x541a8dfd37e294255eed5d5fbdf14375e7a4a426b09c2db89549d4202a68d816",
            "0x0000000000000000000000005fa728c0a5cfd51bee4b060773f50554c0c8a7ab"
          ],
          "data": "0xfffffffffffffffffffffffffffffffffffffffffffffffffffffffffff2764c00000000000000000000000000000000000000000000000000000000000d89b400000000000000000000000000000000000000000000021e19e0c9bab24000000000000000000000000000000000000000000000000000000000000000000000",
          "blockHash": "0x0000000000000000000000000000000000000000000000000000000000000000",
          "blockNumber": "0x2ca455a",
          "blockTimestamp": "0x69b7f2a6",
          "transactionHash": "0xc01ba81c8f6415eaa50e2a547697d0878e63b82abdf37988d768dd8ba8aba724",
          "transactionIndex": "0x3",
          "logIndex": "0x1",
          "removed": false
        },
        {
          "address": "0x862bc89322fc1ea2e6d3d9b81b5c592e9f44ef8e",
          "topics": [
            "0xa56e19c5f806ae66a3b7d8c0b92d13ddf628502c9b47f577580f5f6a4e1deb2a",
            "0x0000000000000000000000006da90fd521d6cff9d373204038459addca260f2a",
            "0x541a8dfd37e294255eed5d5fbdf14375e7a4a426b09c2db89549d4202a68d816"
          ],
          "data": "0x00000000000000000000000000000000000000000000021e19e0c9bab2400000",
          "blockHash": "0x0000000000000000000000000000000000000000000000000000000000000000",
          "blockNumber": "0x2ca455a",
          "blockTimestamp": "0x69b7f2a6",
          "transactionHash": "0xc01ba81c8f6415eaa50e2a547697d0878e63b82abdf37988d768dd8ba8aba724",
          "transactionIndex": "0x3",
          "logIndex": "0x2",
          "removed": false
        },
        {
          "address": "0x372ea9ce0ad9e33d566d95c4279de1669cbc4640",
          "topics": [
            "0x9fcca7d4a4fe21922427fa68ae954a11518460e4298a953677db412ad22d6f39",
            "0x0000000000000000000000006da90fd521d6cff9d373204038459addca260f2a",
            "0x541a8dfd37e294255eed5d5fbdf14375e7a4a426b09c2db89549d4202a68d816"
          ],
          "data": "0x00000000000000000000000000000000000000000000021e19e0c9bab2400000",
          "blockHash": "0x0000000000000000000000000000000000000000000000000000000000000000",
          "blockNumber": "0x2ca455a",
          "blockTimestamp": "0x69b7f2a6",
          "transactionHash": "0xc01ba81c8f6415eaa50e2a547697d0878e63b82abdf37988d768dd8ba8aba724",
          "transactionIndex": "0x3",
          "logIndex": "0x3",
          "removed": false
        },
        {
          "address": "0x2866769a0d61ab4411b9b50cd86dc3179e02b6de",
          "topics": [
            "0xddf252ad1be2c89b69c2b068fc378daa952ba7f163c4a11628f55a4df523b3ef",
            "0x000000000000000000000000c5b7b574ee84a9b59b475fe32eaf908c246d3859",
            "0x00000000000000000000000000b036b58a818b1bc34d502d3fe730db729e62ac"
          ],
          "data": "0x00000000000000000000000000000000000000000000021e19e0c9bab23ffde1",
          "blockHash": "0x0000000000000000000000000000000000000000000000000000000000000000",
          "blockNumber": "0x2ca455a",
          "blockTimestamp": "0x69b7f2a6",
          "transactionHash": "0xc01ba81c8f6415eaa50e2a547697d0878e63b82abdf37988d768dd8ba8aba724",
          "transactionIndex": "0x3",
          "logIndex": "0x4",
          "removed": false
        },
        {
          "address": "0xb2b76faec41b7d1edd66351f67bca12bd95e8bf9",
          "topics": [
            "0xddf252ad1be2c89b69c2b068fc378daa952ba7f163c4a11628f55a4df523b3ef",
            "0x000000000000000000000000c5b7b574ee84a9b59b475fe32eaf908c246d3859",
            "0x00000000000000000000000000b036b58a818b1bc34d502d3fe730db729e62ac"
          ],
          "data": "0x00000000000000000000000000000000000000000000021e19e0c9bab23ffde1",
          "blockHash": "0x0000000000000000000000000000000000000000000000000000000000000000",
          "blockNumber": "0x2ca455a",
          "blockTimestamp": "0x69b7f2a6",
          "transactionHash": "0xc01ba81c8f6415eaa50e2a547697d0878e63b82abdf37988d768dd8ba8aba724",
          "transactionIndex": "0x3",
          "logIndex": "0x5",
          "removed": false
        }
      ],
      "logsBloom": "0x00000000000000000000000000400000000000000000000000000000000000000000000002000000000000000000000000000000001000002000204000000000000000000001008000000008180000000000004000010000002000000000000000000000000000040000000040004000000000000000000000000010008000000000000401000000000000000108000800000000000000000080000000000000000004000000000000000000000000004000000000000020000000000000400000080002000000002000000000000000002000000000002000000040000000000000000010000010000000001000000004080000000002000000000000000010",
      "type": "0x2",
      "transactionHash": "0xc01ba81c8f6415eaa50e2a547697d0878e63b82abdf37988d768dd8ba8aba724",
      "transactionIndex": "0x3",
      "blockHash": "0x0000000000000000000000000000000000000000000000000000000000000000",
      "blockNumber": "0x2ca455a",
      "gasUsed": "0x55605",
      "effectiveGasPrice": "0x7a121",
      "blobGasUsed": "0x104f0",
      "from": "0xc5b7b574ee84a9b59b475fe32eaf908c246d3859",
      "to": "0x5fa728c0a5cfd51bee4b060773f50554c0c8a7ab",
      "contractAddress": null,
      "daFootprintGasScalar": "0x190",
      "l1BaseFeeScalar": "0x7d0",
      "l1BlobBaseFee": "0x50",
      "l1BlobBaseFeeScalar": "0xdbba0",
      "l1Fee": "0x273f",
      "l1GasPrice": "0xa",
      "l1GasUsed": "0xa76"
    },
    {
      "status": "0x1",
      "cumulativeGasUsed": "0x364d2",
      "logs": [
        {
          "address": "0x00b036b58a818b1bc34d502d3fe730db729e62ac",
          "topics": [
            "0xdd466e674ea557f56295e2d0218a125ea4b4f0f6f3307b95f85e6110838d6438",
            "0xe44c136a62d150d645a57a735ce07a93ee72c30cbdc81d5d4b130e104030f926",
            "0x000000000000000000000000381d5d63b78eaa6c30496e53fa11e25b66245f38",
            "0x000000000000000000000000b2b76faec41b7d1edd66351f67bca12bd95e8bf9"
          ],
          "data": "0x0000000000000000000000000000000000000000000000000000000000000bb8000000000000000000000000000000000000000000000000000000000000003c000000000000000000000000372ea9ce0ad9e33d566d95c4279de1669cbc464000000000000000000000000000000000000000010000000000000000000000000000000000000000000000000000000000000000000000000000000000000000",
          "blockHash": "0x0000000000000000000000000000000000000000000000000000000000000000",
          "blockNumber": "0x2ca455e",
          "blockTimestamp": "0x69b7f2aa",
          "transactionHash": "0x47ef9b46bee9c4fddc8bd7769708edae8241cf29d621e2733b2b97e6f24eb7f3",
          "transactionIndex": "0x3",
          "logIndex": "0x1",
          "removed": false
        }
      ],
      "logsBloom": "0x00000000000000000000000000000000000000000000000000000000000000000000000000004000000000000000100000000000000000000400000000400000000000000000000000000000000000000000000000000000000000000000000000000000000000000000000000000000000000000000000000000000000000000000000000000008002000000008000000000001000000000000000000200000000000000000000000000000000000000000000000000000000000000000000000000000000000000000020000000000000000000000000000004000000000000000000000000000000000100004000000000000000002000000000000000010",
      "type": "0x2",
      "transactionHash": "0x47ef9b46bee9c4fddc8bd7769708edae8241cf29d621e2733b2b97e6f24eb7f3",
      "transactionIndex": "0x3",
      "blockHash": "0x0000000000000000000000000000000000000000000000000000000000000000",
      "blockNumber": "0x2ca455e",
      "gasUsed": "0xca16",
      "effectiveGasPrice": "0x7a121",
      "blobGasUsed": "0xdde0",
      "from": "0xc5b7b574ee84a9b59b475fe32eaf908c246d3859",
      "to": "0x00b036b58a818b1bc34d502d3fe730db729e62ac",
      "contractAddress": null,
      "daFootprintGasScalar": "0x190",
      "l1BaseFeeScalar": "0x7d0",
      "l1BlobBaseFee": "0x46",
      "l1BlobBaseFeeScalar": "0xdbba0",
      "l1Fee": "0x225d",
      "l1GasPrice": "0xa",
      "l1GasUsed": "0x8e4"
    },
    {
      "status": "0x1",
      "cumulativeGasUsed": "0x32f46",
      "logs": [
        {
          "address": "0x381d5d63b78eaa6c30496e53fa11e25b66245f38",
          "topics": [
            "0x8c5be1e5ebec7d5bd14f71427d1e84f3dd0314c0f7b2291e5b200ac8c7c3b925",
            "0x000000000000000000000000c5b7b574ee84a9b59b475fe32eaf908c246d3859",
            "0x0000000000000000000000005fa728c0a5cfd51bee4b060773f50554c0c8a7ab"
          ],
          "data": "0x00000000000000000000000000000000000000000000021e19e0c9bab2400000",
          "blockHash": "0x0000000000000000000000000000000000000000000000000000000000000000",
          "blockNumber": "0x2ca4562",
          "blockTimestamp": "0x69b7f2ae",
          "transactionHash": "0x4e5b58bc555581df8e7f5ae4354ca6fd44af7f508634a5dd52c7304c05fe2f98",
          "transactionIndex": "0x3",
          "logIndex": "0x1",
          "removed": false
        }
      ],
      "logsBloom": "0x00000000000000000000000000000000000000000000000000000000000000000000000000000000000000080000000000000000000000000000000000200000000000000000000000000000000000000000000000000000000000000800000000000000000000000000000000000000000000000000000000000000000000000000000400000000000000000000000000000000000000000080000000000000020000000800000000000000000000004000000000000000000000000000000000080000000000000000000000000000000000000000000000000000000000000010000000000000000000001000000000080000000000000000000000000000",
      "type": "0x2",
      "transactionHash": "0x4e5b58bc555581df8e7f5ae4354ca6fd44af7f508634a5dd52c7304c05fe2f98",
      "transactionIndex": "0x3",
      "blockHash": "0x0000000000000000000000000000000000000000000000000000000000000000",
      "blockNumber": "0x2ca4562",
      "gasUsed": "0xb54e",
      "effectiveGasPrice": "0x7a121",
      "blobGasUsed": "0x9c40",
      "from": "0xc5b7b574ee84a9b59b475fe32eaf908c246d3859",
      "to": "0x381d5d63b78eaa6c30496e53fa11e25b66245f38",
      "contractAddress": null,
      "daFootprintGasScalar": "0x190",
      "l1BaseFeeScalar": "0x7d0",
      "l1BlobBaseFee": "0x46",
      "l1BlobBaseFeeScalar": "0xdbba0",
      "l1Fee": "0x225d",
      "l1GasPrice": "0xa",
      "l1GasUsed": "0x640"
    },
    {
      "status": "0x1",
      "cumulativeGasUsed": "0x2ec7a",
      "logs": [
        {
          "address": "0xb2b76faec41b7d1edd66351f67bca12bd95e8bf9",
          "topics": [
            "0x8c5be1e5ebec7d5bd14f71427d1e84f3dd0314c0f7b2291e5b200ac8c7c3b925",
            "0x000000000000000000000000c5b7b574ee84a9b59b475fe32eaf908c246d3859",
            "0x0000000000000000000000005fa728c0a5cfd51bee4b060773f50554c0c8a7ab"
          ],
          "data": "0x00000000000000000000000000000000000000000000021e19e0c9bab2400000",
          "blockHash": "0x0000000000000000000000000000000000000000000000000000000000000000",
          "blockNumber": "0x2ca4566",
          "blockTimestamp": "0x69b7f2b2",
          "transactionHash": "0x6af76c7416277d557c58bbf7889caa181f87eb4d393b5409949003eddfe6a751",
          "transactionIndex": "0x3",
          "logIndex": "0x1",
          "removed": false
        }
      ],
      "logsBloom": "0x00000000000000000000000000000000000000000000000000000000000000000000000000000000000000000000000000000000000000000000000000200000000000000000000000000000100000000000000000000000002000000000000000000000000000000000000040000000000000000000000000000000000000000000000400000000000000000000000000000000000000000080000000000000020000000000000000000000000000004000000000000000000000000000000000080000000000000000000000000000000000000000000000000000000000000010000000000000000000001000000000080000000000000000000000000000",
      "type": "0x2",
      "transactionHash": "0x6af76c7416277d557c58bbf7889caa181f87eb4d393b5409949003eddfe6a751",
      "transactionIndex": "0x3",
      "blockHash": "0x0000000000000000000000000000000000000000000000000000000000000000",
      "blockNumber": "0x2ca4566",
      "gasUsed": "0x7282",
      "effectiveGasPrice": "0x7a121",
      "blobGasUsed": "0x9c40",
      "from": "0xc5b7b574ee84a9b59b475fe32eaf908c246d3859",
      "to": "0xb2b76faec41b7d1edd66351f67bca12bd95e8bf9",
      "contractAddress": null,
      "daFootprintGasScalar": "0x190",
      "l1BaseFeeScalar": "0x7d0",
      "l1BlobBaseFee": "0x46",
      "l1BlobBaseFeeScalar": "0xdbba0",
      "l1Fee": "0x225d",
      "l1GasPrice": "0xa",
      "l1GasUsed": "0x640"
    },
    {
      "status": "0x1",
      "cumulativeGasUsed": "0x7f0c1",
      "logs": [
        {
          "address": "0x00b036b58a818b1bc34d502d3fe730db729e62ac",
          "topics": [
            "0xf208f4912782fd25c7f114ca3723a2d5dd6f3bcc3ac8db5af63baa85f711d5ec",
            "0xe44c136a62d150d645a57a735ce07a93ee72c30cbdc81d5d4b130e104030f926",
            "0x0000000000000000000000005fa728c0a5cfd51bee4b060773f50554c0c8a7ab"
          ],
          "data": "0xfffffffffffffffffffffffffffffffffffffffffffffffffffffffffff2764c00000000000000000000000000000000000000000000000000000000000d89b400000000000000000000000000000000000000000000021e19e0c9bab24000000000000000000000000000000000000000000000000000000000000000000000",
          "blockHash": "0x0000000000000000000000000000000000000000000000000000000000000000",
          "blockNumber": "0x2ca456a",
          "blockTimestamp": "0x69b7f2b6",
          "transactionHash": "0x9481ecb0c937fc217f94f0bab859ef695f789f47ef9c13f02266649929f63daf",
          "transactionIndex": "0x3",
          "logIndex": "0x1",
          "removed": false
        },
        {
          "address": "0x862bc89322fc1ea2e6d3d9b81b5c592e9f44ef8e",
          "topics": [
            "0xa56e19c5f806ae66a3b7d8c0b92d13ddf628502c9b47f577580f5f6a4e1deb2a",
            "0x000000000000000000000000699507c6aeb4268ff4dc05721c803dbe466cec6f",
            "0xe44c136a62d150d645a57a735ce07a93ee72c30cbdc81d5d4b130e104030f926"
          ],
          "data": "0x00000000000000000000000000000000000000000000021e19e0c9bab2400000",
          "blockHash": "0x0000000000000000000000000000000000000000000000000000000000000000",
          "blockNumber": "0x2ca456a",
          "blockTimestamp": "0x69b7f2b6",
          "transactionHash": "0x9481ecb0c937fc217f94f0bab859ef695f789f47ef9c13f02266649929f63daf",
          "transactionIndex": "0x3",
          "logIndex": "0x2",
          "removed": false
        },
        {
          "address": "0x372ea9ce0ad9e33d566d95c4279de1669cbc4640",
          "topics": [
            "0x9fcca7d4a4fe21922427fa68ae954a11518460e4298a953677db412ad22d6f39",
            "0x000000000000000000000000699507c6aeb4268ff4dc05721c803dbe466cec6f",
            "0xe44c136a62d150d645a57a735ce07a93ee72c30cbdc81d5d4b130e104030f926"
          ],
          "data": "0x00000000000000000000000000000000000000000000021e19e0c9bab2400000",
          "blockHash": "0x0000000000000000000000000000000000000000000000000000000000000000",
          "blockNumber": "0x2ca456a",
          "blockTimestamp": "0x69b7f2b6",
          "transactionHash": "0x9481ecb0c937fc217f94f0bab859ef695f789f47ef9c13f02266649929f63daf",
          "transactionIndex": "0x3",
          "logIndex": "0x3",
          "removed": false
        },
        {
          "address": "0x381d5d63b78eaa6c30496e53fa11e25b66245f38",
          "topics": [
            "0xddf252ad1be2c89b69c2b068fc378daa952ba7f163c4a11628f55a4df523b3ef",
            "0x000000000000000000000000c5b7b574ee84a9b59b475fe32eaf908c246d3859",
            "0x00000000000000000000000000b036b58a818b1bc34d502d3fe730db729e62ac"
          ],
          "data": "0x00000000000000000000000000000000000000000000021e19e0c9bab23ffde1",
          "blockHash": "0x0000000000000000000000000000000000000000000000000000000000000000",
          "blockNumber": "0x2ca456a",
          "blockTimestamp": "0x69b7f2b6",
          "transactionHash": "0x9481ecb0c937fc217f94f0bab859ef695f789f47ef9c13f02266649929f63daf",
          "transactionIndex": "0x3",
          "logIndex": "0x4",
          "removed": false
        },
        {
          "address": "0xb2b76faec41b7d1edd66351f67bca12bd95e8bf9",
          "topics": [
            "0xddf252ad1be2c89b69c2b068fc378daa952ba7f163c4a11628f55a4df523b3ef",
            "0x000000000000000000000000c5b7b574ee84a9b59b475fe32eaf908c246d3859",
            "0x00000000000000000000000000b036b58a818b1bc34d502d3fe730db729e62ac"
          ],
          "data": "0x00000000000000000000000000000000000000000000021e19e0c9bab23ffde1",
          "blockHash": "0x0000000000000000000000000000000000000000000000000000000000000000",
          "blockNumber": "0x2ca456a",
          "blockTimestamp": "0x69b7f2b6",
          "transactionHash": "0x9481ecb0c937fc217f94f0bab859ef695f789f47ef9c13f02266649929f63daf",
          "transactionIndex": "0x3",
          "logIndex": "0x5",
          "removed": false
        }
      ],
      "logsBloom": "0x00010000000000000000000000000000000000000000000000000000000000000000000002000000000000080000100000000000001000002400004000000000000000000001000000000008180000000000000000010000002000000800000000000000000000000000000040024000000000000000000000000010000000000000000401000000000000000108000000000000000000000080000000000000000004000800000000000000000000004000000000000020000000000000400000080002000000000000000000000000002000000000002000004000010000000000000010000010000000001000000004080000000002000000000000000010",
      "type": "0x2",
      "transactionHash": "0x9481ecb0c937fc217f94f0bab859ef695f789f47ef9c13f02266649929f63daf",
      "transactionIndex": "0x3",
      "blockHash": "0x0000000000000000000000000000000000000000000000000000000000000000",
      "blockNumber": "0x2ca456a",
      "gasUsed": "0x55605",
      "effectiveGasPrice": "0x7a121",
      "blobGasUsed": "0x104f0",
      "from": "0xc5b7b574ee84a9b59b475fe32eaf908c246d3859",
      "to": "0x5fa728c0a5cfd51bee4b060773f50554c0c8a7ab",
      "contractAddress": null,
      "daFootprintGasScalar": "0x190",
      "l1BaseFeeScalar": "0x7d0",
      "l1BlobBaseFee": "0x3e",
      "l1BlobBaseFeeScalar": "0xdbba0",
      "l1Fee": "0x1e75",
      "l1GasPrice": "0xa",
      "l1GasUsed": "0xa76"
    },
    {
      "status": "0x1",
      "cumulativeGasUsed": "0x5d177",
      "logs": [
        {
          "address": "0x00b036b58a818b1bc34d502d3fe730db729e62ac",
          "topics": [
            "0xdd466e674ea557f56295e2d0218a125ea4b4f0f6f3307b95f85e6110838d6438",
            "0xbe2421d1db9c87051e3510bee9a93a729ffa09539a3cf5934ba0d9251809451d",
            "0x00000000000000000000000074b65b21598ab2f67554a8d1d8d3b79e4d171b29",
            "0x000000000000000000000000b2b76faec41b7d1edd66351f67bca12bd95e8bf9"
          ],
          "data": "0x0000000000000000000000000000000000000000000000000000000000000bb8000000000000000000000000000000000000000000000000000000000000003c000000000000000000000000372ea9ce0ad9e33d566d95c4279de1669cbc464000000000000000000000000000000000000000010000000000000000000000000000000000000000000000000000000000000000000000000000000000000000",
          "blockHash": "0x0000000000000000000000000000000000000000000000000000000000000000",
          "blockNumber": "0x2ca456e",
          "blockTimestamp": "0x69b7f2ba",
          "transactionHash": "0xd1bf2b72480d6fa3c807a4d272ac5744fe9de0b740ac6709b1183a85a344a8ef",
          "transactionIndex": "0x4",
          "logIndex": "0x7",
          "removed": false
        }
      ],
      "logsBloom": "0x00000000000000000000000000000000000000000000000000000000000000000000000000004000000000000000000000000000000000000000000000000000000000000000000000000000000000000000000000000000000000001000000000000000000000000000000000000000000000010000000000000000000000000000000000000008000000000008000000000001000000000000000000200000000000000000000000000000000000000000000000000000000100000000000000000000000000000000000000000000000000000000000000000000000000000000000000000400000000100024000000000008000002000000000000000010",
      "type": "0x2",
      "transactionHash": "0xd1bf2b72480d6fa3c807a4d272ac5744fe9de0b740ac6709b1183a85a344a8ef",
      "transactionIndex": "0x4",
      "blockHash": "0x0000000000000000000000000000000000000000000000000000000000000000",
      "blockNumber": "0x2ca456e",
      "gasUsed": "0xca16",
      "effectiveGasPrice": "0x7a121",
      "blobGasUsed": "0xdde0",
      "from": "0xc5b7b574ee84a9b59b475fe32eaf908c246d3859",
      "to": "0x00b036b58a818b1bc34d502d3fe730db729e62ac",
      "contractAddress": null,
      "daFootprintGasScalar": "0x190",
      "l1BaseFeeScalar": "0x7d0",
      "l1BlobBaseFee": "0x3e",
      "l1BlobBaseFeeScalar": "0xdbba0",
      "l1Fee": "0x1e75",
      "l1GasPrice": "0xa",
      "l1GasUsed": "0x8e4"
    },
    {
      "status": "0x1",
      "cumulativeGasUsed": "0x32f3a",
      "logs": [
        {
          "address": "0x74b65b21598ab2f67554a8d1d8d3b79e4d171b29",
          "topics": [
            "0x8c5be1e5ebec7d5bd14f71427d1e84f3dd0314c0f7b2291e5b200ac8c7c3b925",
            "0x000000000000000000000000c5b7b574ee84a9b59b475fe32eaf908c246d3859",
            "0x0000000000000000000000005fa728c0a5cfd51bee4b060773f50554c0c8a7ab"
          ],
          "data": "0x00000000000000000000000000000000000000000000021e19e0c9bab2400000",
          "blockHash": "0x0000000000000000000000000000000000000000000000000000000000000000",
          "blockNumber": "0x2ca4572",
          "blockTimestamp": "0x69b7f2be",
          "transactionHash": "0x28bf6ebf473742f99539a283ff173088bd1ab83522c7212f0af286dccd551c59",
          "transactionIndex": "0x3",
          "logIndex": "0x1",
          "removed": false
        }
      ],
      "logsBloom": "0x00000000000000000000000000000000000000000000000000000000000000000000000000000000000000000000000000000000000000000000000000200000000000000000000000000000000000000000000000000000000000000040000000000000000000000000000000000000000000000000000000000000000000000000000400000000000000000000000000000000000000000080000000000000020000000000000000000000000000004000000000000000000000000000000800080000000000000000000000000000000000000000000000000000000000000010000000000000000000001000000000080002000000000000000000000000",
      "type": "0x2",
      "transactionHash": "0x28bf6ebf473742f99539a283ff173088bd1ab83522c7212f0af286dccd551c59",
      "transactionIndex": "0x3",
      "blockHash": "0x0000000000000000000000000000000000000000000000000000000000000000",
      "blockNumber": "0x2ca4572",
      "gasUsed": "0xb54e",
      "effectiveGasPrice": "0x7a121",
      "blobGasUsed": "0x9c40",
      "from": "0xc5b7b574ee84a9b59b475fe32eaf908c246d3859",
      "to": "0x74b65b21598ab2f67554a8d1d8d3b79e4d171b29",
      "contractAddress": null,
      "daFootprintGasScalar": "0x190",
      "l1BaseFeeScalar": "0x7d0",
      "l1BlobBaseFee": "0x3e",
      "l1BlobBaseFeeScalar": "0xdbba0",
      "l1Fee": "0x1e75",
      "l1GasPrice": "0xa",
      "l1GasUsed": "0x640"
    },
    {
      "status": "0x1",
      "cumulativeGasUsed": "0xd4853",
      "logs": [
        {
          "address": "0xb2b76faec41b7d1edd66351f67bca12bd95e8bf9",
          "topics": [
            "0x8c5be1e5ebec7d5bd14f71427d1e84f3dd0314c0f7b2291e5b200ac8c7c3b925",
            "0x000000000000000000000000c5b7b574ee84a9b59b475fe32eaf908c246d3859",
            "0x0000000000000000000000005fa728c0a5cfd51bee4b060773f50554c0c8a7ab"
          ],
          "data": "0x00000000000000000000000000000000000000000000021e19e0c9bab2400000",
          "blockHash": "0x0000000000000000000000000000000000000000000000000000000000000000",
          "blockNumber": "0x2ca4576",
          "blockTimestamp": "0x69b7f2c2",
          "transactionHash": "0xa29251e06be322edc099f535630c9c8d67ce2f21f0d82fc241e14ef36ccc204a",
          "transactionIndex": "0x5",
          "logIndex": "0xb",
          "removed": false
        }
      ],
      "logsBloom": "0x00000000000000000000000000000000000000000000000000000000000000000000000000000000000000000000000000000000000000000000000000200000000000000000000000000000100000000000000000000000002000000000000000000000000000000000000040000000000000000000000000000000000000000000000400000000000000000000000000000000000000000080000000000000020000000000000000000000000000004000000000000000000000000000000000080000000000000000000000000000000000000000000000000000000000000010000000000000000000001000000000080000000000000000000000000000",
      "type": "0x2",
      "transactionHash": "0xa29251e06be322edc099f535630c9c8d67ce2f21f0d82fc241e14ef36ccc204a",
      "transactionIndex": "0x5",
      "blockHash": "0x0000000000000000000000000000000000000000000000000000000000000000",
      "blockNumber": "0x2ca4576",
      "gasUsed": "0x7282",
      "effectiveGasPrice": "0x7a121",
      "blobGasUsed": "0x9c40",
      "from": "0xc5b7b574ee84a9b59b475fe32eaf908c246d3859",
      "to": "0xb2b76faec41b7d1edd66351f67bca12bd95e8bf9",
      "contractAddress": null,
      "daFootprintGasScalar": "0x190",
      "l1BaseFeeScalar": "0x7d0",
      "l1BlobBaseFee": "0x38",
      "l1BlobBaseFeeScalar": "0xdbba0",
      "l1Fee": "0x1b86",
      "l1GasPrice": "0xa",
      "l1GasUsed": "0x640"
    },
    {
      "status": "0x1",
      "cumulativeGasUsed": "0x94023",
      "logs": [
        {
          "address": "0x00b036b58a818b1bc34d502d3fe730db729e62ac",
          "topics": [
            "0xf208f4912782fd25c7f114ca3723a2d5dd6f3bcc3ac8db5af63baa85f711d5ec",
            "0xbe2421d1db9c87051e3510bee9a93a729ffa09539a3cf5934ba0d9251809451d",
            "0x0000000000000000000000005fa728c0a5cfd51bee4b060773f50554c0c8a7ab"
          ],
          "data": "0xfffffffffffffffffffffffffffffffffffffffffffffffffffffffffff2764c00000000000000000000000000000000000000000000000000000000000d89b400000000000000000000000000000000000000000000021e19e0c9bab24000000000000000000000000000000000000000000000000000000000000000000000",
          "blockHash": "0x0000000000000000000000000000000000000000000000000000000000000000",
          "blockNumber": "0x2ca457a",
          "blockTimestamp": "0x69b7f2c6",
          "transactionHash": "0xf15bcd761c167a2ee3596380701c4a10c78b628483cfda25b8f867bf258638fc",
          "transactionIndex": "0x4",
          "logIndex": "0x2",
          "removed": false
        },
        {
          "address": "0x862bc89322fc1ea2e6d3d9b81b5c592e9f44ef8e",
          "topics": [
            "0xa56e19c5f806ae66a3b7d8c0b92d13ddf628502c9b47f577580f5f6a4e1deb2a",
            "0x000000000000000000000000079bb29d652294b01f4bdf86bb318277e0892e14",
            "0xbe2421d1db9c87051e3510bee9a93a729ffa09539a3cf5934ba0d9251809451d"
          ],
          "data": "0x00000000000000000000000000000000000000000000021e19e0c9bab2400000",
          "blockHash": "0x0000000000000000000000000000000000000000000000000000000000000000",
          "blockNumber": "0x2ca457a",
          "blockTimestamp": "0x69b7f2c6",
          "transactionHash": "0xf15bcd761c167a2ee3596380701c4a10c78b628483cfda25b8f867bf258638fc",
          "transactionIndex": "0x4",
          "logIndex": "0x3",
          "removed": false
        },
        {
          "address": "0x372ea9ce0ad9e33d566d95c4279de1669cbc4640",
          "topics": [
            "0x9fcca7d4a4fe21922427fa68ae954a11518460e4298a953677db412ad22d6f39",
            "0x000000000000000000000000079bb29d652294b01f4bdf86bb318277e0892e14",
            "0xbe2421d1db9c87051e3510bee9a93a729ffa09539a3cf5934ba0d9251809451d"
          ],
          "data": "0x00000000000000000000000000000000000000000000021e19e0c9bab2400000",
          "blockHash": "0x0000000000000000000000000000000000000000000000000000000000000000",
          "blockNumber": "0x2ca457a",
          "blockTimestamp": "0x69b7f2c6",
          "transactionHash": "0xf15bcd761c167a2ee3596380701c4a10c78b628483cfda25b8f867bf258638fc",
          "transactionIndex": "0x4",
          "logIndex": "0x4",
          "removed": false
        },
        {
          "address": "0x74b65b21598ab2f67554a8d1d8d3b79e4d171b29",
          "topics": [
            "0xddf252ad1be2c89b69c2b068fc378daa952ba7f163c4a11628f55a4df523b3ef",
            "0x000000000000000000000000c5b7b574ee84a9b59b475fe32eaf908c246d3859",
            "0x00000000000000000000000000b036b58a818b1bc34d502d3fe730db729e62ac"
          ],
          "data": "0x00000000000000000000000000000000000000000000021e19e0c9bab23ffde1",
          "blockHash": "0x0000000000000000000000000000000000000000000000000000000000000000",
          "blockNumber": "0x2ca457a",
          "blockTimestamp": "0x69b7f2c6",
          "transactionHash": "0xf15bcd761c167a2ee3596380701c4a10c78b628483cfda25b8f867bf258638fc",
          "transactionIndex": "0x4",
          "logIndex": "0x5",
          "removed": false
        },
        {
          "address": "0xb2b76faec41b7d1edd66351f67bca12bd95e8bf9",
          "topics": [
            "0xddf252ad1be2c89b69c2b068fc378daa952ba7f163c4a11628f55a4df523b3ef",
            "0x000000000000000000000000c5b7b574ee84a9b59b475fe32eaf908c246d3859",
            "0x00000000000000000000000000b036b58a818b1bc34d502d3fe730db729e62ac"
          ],
          "data": "0x00000000000000000000000000000000000000000000021e19e0c9bab23ffde1",
          "blockHash": "0x0000000000000000000000000000000000000000000000000000000000000000",
          "blockNumber": "0x2ca457a",
          "blockTimestamp": "0x69b7f2c6",
          "transactionHash": "0xf15bcd761c167a2ee3596380701c4a10c78b628483cfda25b8f867bf258638fc",
          "transactionIndex": "0x4",
          "logIndex": "0x6",
          "removed": false
        }
      ],
      "logsBloom": "0x0000000000000000000000000000000000000000000000000000000000000000000000000200000000000000000000000000000000100000200000400000000000000000000100000000000818000000000000000001000000200000184000000000000000000000000000004000400000000000000000000000001000000000000000040100000000000000010800000000000000000000008000000000000000000400000000800000000000000000400000000000002000010000000040080008000200000000000000000000000000200000000000200010000000000000000000001000001000000000100000000408000a000002000000000000000010",
      "type": "0x2",
      "transactionHash": "0xf15bcd761c167a2ee3596380701c4a10c78b628483cfda25b8f867bf258638fc",
      "transactionIndex": "0x4",
      "blockHash": "0x0000000000000000000000000000000000000000000000000000000000000000",
      "blockNumber": "0x2ca457a",
      "gasUsed": "0x55605",
      "effectiveGasPrice": "0x7a121",
      "blobGasUsed": "0x104f0",
      "from": "0xc5b7b574ee84a9b59b475fe32eaf908c246d3859",
      "to": "0x5fa728c0a5cfd51bee4b060773f50554c0c8a7ab",
      "contractAddress": null,
      "daFootprintGasScalar": "0x190",
      "l1BaseFeeScalar": "0x7d0",
      "l1BlobBaseFee": "0x38",
      "l1BlobBaseFeeScalar": "0xdbba0",
      "l1Fee": "0x1b86",
      "l1GasPrice": "0xa",
      "l1GasUsed": "0xa76"
    }
  ],
  "libraries": [],
  "pending": [],
  "returns": {},
  "timestamp": 1773662918017,
  "chain": 1301,
  "commit": "d3ae328"
}