{
  "transactions": [
    {
      "hash": "0xb8f9e91d05ac66637a525ea8b6eb6bffe6865a64e58f0b357750d082d855f410",
      "transactionType": "CREATE",
      "contractName": "TestToken",
      "contractAddress": "0xccbd848ebdcabc0d314ad1612c2f3edc8661403a",
      "function": null,
      "arguments": [
        "Demo USDC",
        "dUSDC"
      ],
      "transaction": {
        "from": "0xc5b7b574ee84a9b59b475fe32eaf908c246d3859",
        "gas": "0xb5aed",
        "value": "0x0",
        "input": "0x608060405234801561000f575f80fd5b50604051610ba5380380610ba583398101604081905261002e9161026d565b8181600361003c8382610356565b5060046100498282610356565b5050506100663369d3c21bcecceda100000061006d60201b60201c565b5050610435565b6001600160a01b03821661009b5760405163ec442f0560e01b81525f60048201526024015b60405180910390fd5b6100a65f83836100aa565b5050565b6001600160a01b0383166100d4578060025f8282546100c99190610410565b909155506101449050565b6001600160a01b0383165f90815260208190526040902054818110156101265760405163391434e360e21b81526001600160a01b03851660048201526024810182905260448101839052606401610092565b6001600160a01b0384165f9081526020819052604090209082900390555b6001600160a01b0382166101605760028054829003905561017e565b6001600160a01b0382165f9081526020819052604090208054820190555b816001600160a01b0316836001600160a01b03167fddf252ad1be2c89b69c2b068fc378daa952ba7f163c4a11628f55a4df523b3ef836040516101c391815260200190565b60405180910390a3505050565b634e487b7160e01b5f52604160045260245ffd5b5f82601f8301126101f3575f80fd5b81516001600160401b0381111561020c5761020c6101d0565b604051601f8201601f19908116603f011681016001600160401b038111828210171561023a5761023a6101d0565b604052818152838201602001851015610251575f80fd5b8160208501602083015e5f918101602001919091529392505050565b5f806040838503121561027e575f80fd5b82516001600160401b03811115610293575f80fd5b61029f858286016101e4565b602085015190935090506001600160401b038111156102bc575f80fd5b6102c8858286016101e4565b9150509250929050565b600181811c908216806102e657607f821691505b60208210810361030457634e487b7160e01b5f52602260045260245ffd5b50919050565b601f82111561035157805f5260205f20601f840160051c8101602085101561032f5750805b601f840160051c820191505b8181101561034e575f815560010161033b565b50505b505050565b81516001600160401b0381111561036f5761036f6101d0565b6103838161037d84546102d2565b8461030a565b6020601f8211600181146103b5575f831561039e5750848201515b5f19600385901b1c1916600184901b17845561034e565b5f84815260208120601f198516915b828110156103e457878501518255602094850194600190920191016103c4565b508482101561040157868401515f19600387901b60f8161c191681555b50505050600190811b01905550565b8082018082111561042f57634e487b7160e01b5f52601160045260245ffd5b92915050565b610763806104425f395ff3fe608060405234801561000f575f80fd5b50600436106100b9575f3560e01c806340c10f191161007257806395d89b411161005857806395d89b411461016f578063a9059cbb14610177578063dd62ed3e1461018a575f80fd5b806340c10f191461013257806370a0823114610147575f80fd5b806318160ddd116100a257806318160ddd146100fe57806323b872dd14610110578063313ce56714610123575f80fd5b806306fdde03146100bd578063095ea7b3146100db575b5f80fd5b6100c56101c2565b6040516100d291906105d3565b60405180910390f35b6100ee6100e9366004610623565b610252565b60405190151581526020016100d2565b6002545b6040519081526020016100d2565b6100ee61011e36600461064b565b61026b565b604051601281526020016100d2565b610145610140366004610623565b61028e565b005b610102610155366004610685565b6001600160a01b03165f9081526020819052604090205490565b6100c561029c565b6100ee610185366004610623565b6102ab565b6101026101983660046106a5565b6001600160a01b039182165f90815260016020908152604080832093909416825291909152205490565b6060600380546101d1906106d6565b80601f01602080910402602001604051908101604052809291908181526020018280546101fd906106d6565b80156102485780601f1061021f57610100808354040283529160200191610248565b820191905f5260205f20905b81548152906001019060200180831161022b57829003601f168201915b5050505050905090565b5f3361025f8185856102b8565b60019150505b92915050565b5f336102788582856102ca565b61028385858561034a565b506001949350505050565b61029882826103a7565b5050565b6060600480546101d1906106d6565b5f3361025f81858561034a565b6102c583838360016103db565b505050565b6001600160a01b038381165f908152600160209081526040808320938616835292905220545f198114610344578181101561033657604051637dc7a0d960e11b81526001600160a01b038416600482015260248101829052604481018390526064015b60405180910390fd5b61034484848484035f6103db565b50505050565b6001600160a01b03831661037357604051634b637e8f60e11b81525f600482015260240161032d565b6001600160a01b03821661039c5760405163ec442f0560e01b81525f600482015260240161032d565b6102c58383836104ad565b6001600160a01b0382166103d05760405163ec442f0560e01b81525f600482015260240161032d565b6102985f83836104ad565b6001600160a01b0384166104045760405163e602df0560e01b81525f600482015260240161032d565b6001600160a01b03831661042d57604051634a1406b160e11b81525f600482015260240161032d565b6001600160a01b038085165f908152600160209081526040808320938716835292905220829055801561034457826001600160a01b0316846001600160a01b03167f8c5be1e5ebec7d5bd14f71427d1e84f3dd0314c0f7b2291e5b200ac8c7c3b9258460405161049f91815260200190565b60405180910390a350505050565b6001600160a01b0383166104d7578060025f8282546104cc919061070e565b909155506105479050565b6001600160a01b0383165f90815260208190526040902054818110156105295760405163391434e360e21b81526001600160a01b0385166004820152602481018290526044810183905260640161032d565b6001600160a01b0384165f9081526020819052604090209082900390555b6001600160a01b03821661056357600280548290039055610581565b6001600160a01b0382165f9081526020819052604090208054820190555b816001600160a01b0316836001600160a01b03167fddf252ad1be2c89b69c2b068fc378daa952ba7f163c4a11628f55a4df523b3ef836040516105c691815260200190565b60405180910390a3505050565b602081525f82518060208401528060208501604085015e5f604082850101526040601f19601f83011684010191505092915050565b80356001600160a01b038116811461061e575f80fd5b919050565b5f8060408385031215610634575f80fd5b61063d83610608565b946020939093013593505050565b5f805f6060848603121561065d575f80fd5b61066684610608565b925061067460208501610608565b929592945050506040919091013590565b5f60208284031215610695575f80fd5b61069e82610608565b9392505050565b5f80604083850312156106b6575f80fd5b6106bf83610608565b91506106cd60208401610608565b90509250929050565b600181811c908216806106ea57607f821691505b60208210810361070857634e487b7160e01b5f52602260045260245ffd5b50919050565b8082018082111561026557634e487b7160e01b5f52601160045260245ffdfea264697066735822122088c3783f6f28345c1b08222b50857fae978cd0f151270a42a87dbb114a75a67664736f6c634300081a003300000000000000000000000000000000000000000000000000000000000000400000000000000000000000000000000000000000000000000000000000000080000000000000000000000000000000000000000000000000000000000000000944656d6f2055534443000000000000000000000000000000000000000000000000000000000000000000000000000000000000000000000000000000000000056455534443000000000000000000000000000000000000000000000000000000",
        "nonce": "0x20b",
        "chainId": "0x515"
      },
      "additionalContracts": [],
      "isFixedGasLimit": false
    },
    {
      "hash": "0x6c0fb2750b1f9b38843594941e0a5f599b68e29f6d6f9625fb9fa8ef8a195277",
      "transactionType": "CREATE",
      "contractName": "TestToken",
      "contractAddress": "0xc3ed1487ef25930a19e4371dd1ef831703582f21",
      "function": null,
      "arguments": [
        "Nova Protocol",
        "NOVA"
      ],
      "transaction": {
        "from": "0xc5b7b574ee84a9b59b475fe32eaf908c246d3859",
        "gas": "0xb5b1c",
        "value": "0x0",
        "input": "0x608060405234801561000f575f80fd5b50604051610ba5380380610ba583398101604081905261002e9161026d565b8181600361003c8382610356565b5060046100498282610356565b5050506100663369d3c21bcecceda100000061006d60201b60201c565b5050610435565b6001600160a01b03821661009b5760405163ec442f0560e01b81525f60048201526024015b60405180910390fd5b6100a65f83836100aa565b5050565b6001600160a01b0383166100d4578060025f8282546100c99190610410565b909155506101449050565b6001600160a01b0383165f90815260208190526040902054818110156101265760405163391434e360e21b81526001600160a01b03851660048201526024810182905260448101839052606401610092565b6001600160a01b0384165f9081526020819052604090209082900390555b6001600160a01b0382166101605760028054829003905561017e565b6001600160a01b0382165f9081526020819052604090208054820190555b816001600160a01b0316836001600160a01b03167fddf252ad1be2c89b69c2b068fc378daa952ba7f163c4a11628f55a4df523b3ef836040516101c391815260200190565b60405180910390a3505050565b634e487b7160e01b5f52604160045260245ffd5b5f82601f8301126101f3575f80fd5b81516001600160401b0381111561020c5761020c6101d0565b604051601f8201601f19908116603f011681016001600160401b038111828210171561023a5761023a6101d0565b604052818152838201602001851015610251575f80fd5b8160208501602083015e5f918101602001919091529392505050565b5f806040838503121561027e575f80fd5b82516001600160401b03811115610293575f80fd5b61029f858286016101e4565b602085015190935090506001600160401b038111156102bc575f80fd5b6102c8858286016101e4565b9150509250929050565b600181811c908216806102e657607f821691505b60208210810361030457634e487b7160e01b5f52602260045260245ffd5b50919050565b601f82111561035157805f5260205f20601f840160051c8101602085101561032f5750805b601f840160051c820191505b8181101561034e575f815560010161033b565b50505b505050565b81516001600160401b0381111561036f5761036f6101d0565b6103838161037d84546102d2565b8461030a565b6020601f8211600181146103b5575f831561039e5750848201515b5f19600385901b1c1916600184901b17845561034e565b5f84815260208120601f198516915b828110156103e457878501518255602094850194600190920191016103c4565b508482101561040157868401515f19600387901b60f8161c191681555b50505050600190811b01905550565b8082018082111561042f57634e487b7160e01b5f52601160045260245ffd5b92915050565b610763806104425f395ff3fe608060405234801561000f575f80fd5b50600436106100b9575f3560e01c806340c10f191161007257806395d89b411161005857806395d89b411461016f578063a9059cbb14610177578063dd62ed3e1461018a575f80fd5b806340c10f191461013257806370a0823114610147575f80fd5b806318160ddd116100a257806318160ddd146100fe57806323b872dd14610110578063313ce56714610123575f80fd5b806306fdde03146100bd578063095ea7b3146100db575b5f80fd5b6100c56101c2565b6040516100d291906105d3565b60405180910390f35b6100ee6100e9366004610623565b610252565b60405190151581526020016100d2565b6002545b6040519081526020016100d2565b6100ee61011e36600461064b565b61026b565b604051601281526020016100d2565b610145610140366004610623565b61028e565b005b610102610155366004610685565b6001600160a01b03165f9081526020819052604090205490565b6100c561029c565b6100ee610185366004610623565b6102ab565b6101026101983660046106a5565b6001600160a01b039182165f90815260016020908152604080832093909416825291909152205490565b6060600380546101d1906106d6565b80601f01602080910402602001604051908101604052809291908181526020018280546101fd906106d6565b80156102485780601f1061021f57610100808354040283529160200191610248565b820191905f5260205f20905b81548152906001019060200180831161022b57829003601f168201915b5050505050905090565b5f3361025f8185856102b8565b60019150505b92915050565b5f336102788582856102ca565b61028385858561034a565b506001949350505050565b61029882826103a7565b5050565b6060600480546101d1906106d6565b5f3361025f81858561034a565b6102c583838360016103db565b505050565b6001600160a01b038381165f908152600160209081526040808320938616835292905220545f198114610344578181101561033657604051637dc7a0d960e11b81526001600160a01b038416600482015260248101829052604481018390526064015b60405180910390fd5b61034484848484035f6103db565b50505050565b6001600160a01b03831661037357604051634b637e8f60e11b81525f600482015260240161032d565b6001600160a01b03821661039c5760405163ec442f0560e01b81525f600482015260240161032d565b6102c58383836104ad565b6001600160a01b0382166103d05760405163ec442f0560e01b81525f600482015260240161032d565b6102985f83836104ad565b6001600160a01b0384166104045760405163e602df0560e01b81525f600482015260240161032d565b6001600160a01b03831661042d57604051634a1406b160e11b81525f600482015260240161032d565b6001600160a01b038085165f908152600160209081526040808320938716835292905220829055801561034457826001600160a01b0316846001600160a01b03167f8c5be1e5ebec7d5bd14f71427d1e84f3dd0314c0f7b2291e5b200ac8c7c3b9258460405161049f91815260200190565b60405180910390a350505050565b6001600160a01b0383166104d7578060025f8282546104cc919061070e565b909155506105479050565b6001600160a01b0383165f90815260208190526040902054818110156105295760405163391434e360e21b81526001600160a01b0385166004820152602481018290526044810183905260640161032d565b6001600160a01b0384165f9081526020819052604090209082900390555b6001600160a01b03821661056357600280548290039055610581565b6001600160a01b0382165f9081526020819052604090208054820190555b816001600160a01b0316836001600160a01b03167fddf252ad1be2c89b69c2b068fc378daa952ba7f163c4a11628f55a4df523b3ef836040516105c691815260200190565b60405180910390a3505050565b602081525f82518060208401528060208501604085015e5f604082850101526040601f19601f83011684010191505092915050565b80356001600160a01b038116811461061e575f80fd5b919050565b5f8060408385031215610634575f80fd5b61063d83610608565b946020939093013593505050565b5f805f6060848603121561065d575f80fd5b61066684610608565b925061067460208501610608565b929592945050506040919091013590565b5f60208284031215610695575f80fd5b61069e82610608565b9392505050565b5f80604083850312156106b6575f80fd5b6106bf83610608565b91506106cd60208401610608565b90509250929050565b600181811c908216806106ea57607f821691505b60208210810361070857634e487b7160e01b5f52602260045260245ffd5b50919050565b8082018082111561026557634e487b7160e01b5f52601160045260245ffdfea264697066735822122088c3783f6f28345c1b08222b50857fae978cd0f151270a42a87dbb114a75a67664736f6c634300081a003300000000000000000000000000000000000000000000000000000000000000400000000000000000000000000000000000000000000000000000000000000080000000000000000000000000000000000000000000000000000000000000000d4e6f76612050726f746f636f6c0000000000000000000000000000000000000000000000000000000000000000000000000000000000000000000000000000044e4f564100000000000000000000000000000000000000000000000000000000",
        "nonce": "0x20c",
        "chainId": "0x515"
      },
      "additionalContracts": [],
      "isFixedGasLimit": false
    },
    {
      "hash": "0xd1ced6f3cfe59544777ddb5783686c025c032e4df15a28fe260643d900237295",
      "transactionType": "CREATE",
      "contractName": "TestToken",
      "contractAddress": "0x2709a27b939f8c81143574353f6396d9e53491c8",
      "function": null,
      "arguments": [
        "Stellar DeFi",
        "STLR"
      ],
      "transaction": {
        "from": "0xc5b7b574ee84a9b59b475fe32eaf908c246d3859",
        "gas": "0xb5b0c",
        "value": "0x0",
        "input": "0x608060405234801561000f575f80fd5b50604051610ba5380380610ba583398101604081905261002e9161026d565b8181600361003c8382610356565b5060046100498282610356565b5050506100663369d3c21bcecceda100000061006d60201b60201c565b5050610435565b6001600160a01b03821661009b5760405163ec442f0560e01b81525f60048201526024015b60405180910390fd5b6100a65f83836100aa565b5050565b6001600160a01b0383166100d4578060025f8282546100c99190610410565b909155506101449050565b6001600160a01b0383165f90815260208190526040902054818110156101265760405163391434e360e21b81526001600160a01b03851660048201526024810182905260448101839052606401610092565b6001600160a01b0384165f9081526020819052604090209082900390555b6001600160a01b0382166101605760028054829003905561017e565b6001600160a01b0382165f9081526020819052604090208054820190555b816001600160a01b0316836001600160a01b03167fddf252ad1be2c89b69c2b068fc378daa952ba7f163c4a11628f55a4df523b3ef836040516101c391815260200190565b60405180910390a3505050565b634e487b7160e01b5f52604160045260245ffd5b5f82601f8301126101f3575f80fd5b81516001600160401b0381111561020c5761020c6101d0565b604051601f8201601f19908116603f011681016001600160401b038111828210171561023a5761023a6101d0565b604052818152838201602001851015610251575f80fd5b8160208501602083015e5f918101602001919091529392505050565b5f806040838503121561027e575f80fd5b82516001600160401b03811115610293575f80fd5b61029f858286016101e4565b602085015190935090506001600160401b038111156102bc575f80fd5b6102c8858286016101e4565b9150509250929050565b600181811c908216806102e657607f821691505b60208210810361030457634e487b7160e01b5f52602260045260245ffd5b50919050565b601f82111561035157805f5260205f20601f840160051c8101602085101561032f5750805b601f840160051c820191505b8181101561034e575f815560010161033b565b50505b505050565b81516001600160401b0381111561036f5761036f6101d0565b6103838161037d84546102d2565b8461030a565b6020601f8211600181146103b5575f831561039e5750848201515b5f19600385901b1c1916600184901b17845561034e565b5f84815260208120601f198516915b828110156103e457878501518255602094850194600190920191016103c4565b508482101561040157868401515f19600387901b60f8161c191681555b50505050600190811b01905550565b8082018082111561042f57634e487b7160e01b5f52601160045260245ffd5b92915050565b610763806104425f395ff3fe608060405234801561000f575f80fd5b50600436106100b9575f3560e01c806340c10f191161007257806395d89b411161005857806395d89b411461016f578063a9059cbb14610177578063dd62ed3e1461018a575f80fd5b806340c10f191461013257806370a0823114610147575f80fd5b806318160ddd116100a257806318160ddd146100fe57806323b872dd14610110578063313ce56714610123575f80fd5b806306fdde03146100bd578063095ea7b3146100db575b5f80fd5b6100c56101c2565b6040516100d291906105d3565b60405180910390f35b6100ee6100e9366004610623565b610252565b60405190151581526020016100d2565b6002545b6040519081526020016100d2565b6100ee61011e36600461064b565b61026b565b604051601281526020016100d2565b610145610140366004610623565b61028e565b005b610102610155366004610685565b6001600160a01b03165f9081526020819052604090205490565b6100c561029c565b6100ee610185366004610623565b6102ab565b6101026101983660046106a5565b6001600160a01b039182165f90815260016020908152604080832093909416825291909152205490565b6060600380546101d1906106d6565b80601f01602080910402602001604051908101604052809291908181526020018280546101fd906106d6565b80156102485780601f1061021f57610100808354040283529160200191610248565b820191905f5260205f20905b81548152906001019060200180831161022b57829003601f168201915b5050505050905090565b5f3361025f8185856102b8565b60019150505b92915050565b5f336102788582856102ca565b61028385858561034a565b506001949350505050565b61029882826103a7565b5050565b6060600480546101d1906106d6565b5f3361025f81858561034a565b6102c583838360016103db565b505050565b6001600160a01b038381165f908152600160209081526040808320938616835292905220545f198114610344578181101561033657604051637dc7a0d960e11b81526001600160a01b038416600482015260248101829052604481018390526064015b60405180910390fd5b61034484848484035f6103db565b50505050565b6001600160a01b03831661037357604051634b637e8f60e11b81525f600482015260240161032d565b6001600160a01b03821661039c5760405163ec442f0560e01b81525f600482015260240161032d565b6102c58383836104ad565b6001600160a01b0382166103d05760405163ec442f0560e01b81525f600482015260240161032d565b6102985f83836104ad565b6001600160a01b0384166104045760405163e602df0560e01b81525f600482015260240161032d565b6001600160a01b03831661042d57604051634a1406b160e11b81525f600482015260240161032d565b6001600160a01b038085165f908152600160209081526040808320938716835292905220829055801561034457826001600160a01b0316846001600160a01b03167f8c5be1e5ebec7d5bd14f71427d1e84f3dd0314c0f7b2291e5b200ac8c7c3b9258460405161049f91815260200190565b60405180910390a350505050565b6001600160a01b0383166104d7578060025f8282546104cc919061070e565b909155506105479050565b6001600160a01b0383165f90815260208190526040902054818110156105295760405163391434e360e21b81526001600160a01b0385166004820152602481018290526044810183905260640161032d565b6001600160a01b0384165f9081526020819052604090209082900390555b6001600160a01b03821661056357600280548290039055610581565b6001600160a01b0382165f9081526020819052604090208054820190555b816001600160a01b0316836001600160a01b03167fddf252ad1be2c89b69c2b068fc378daa952ba7f163c4a11628f55a4df523b3ef836040516105c691815260200190565b60405180910390a3505050565b602081525f82518060208401528060208501604085015e5f604082850101526040601f19601f83011684010191505092915050565b80356001600160a01b038116811461061e575f80fd5b919050565b5f8060408385031215610634575f80fd5b61063d83610608565b946020939093013593505050565b5f805f6060848603121561065d575f80fd5b61066684610608565b925061067460208501610608565b929592945050506040919091013590565b5f60208284031215610695575f80fd5b61069e82610608565b9392505050565b5f80604083850312156106b6575f80fd5b6106bf83610608565b91506106cd60208401610608565b90509250929050565b600181811c908216806106ea57607f821691505b60208210810361070857634e487b7160e01b5f52602260045260245ffd5b50919050565b8082018082111561026557634e487b7160e01b5f52601160045260245ffdfea264697066735822122088c3783f6f28345c1b08222b50857fae978cd0f151270a42a87dbb114a75a67664736f6c634300081a003300000000000000000000000000000000000000000000000000000000000000400000000000000000000000000000000000000000000000000000000000000080000000000000000000000000000000000000000000000000000000000000000c5374656c6c617220446546690000000000000000000000000000000000000000000000000000000000000000000000000000000000000000000000000000000453544c5200000000000000000000000000000000000000000000000000000000",
        "nonce": "0x20d",
        "chainId": "0x515"
      },
      "additionalContracts": [],
      "isFixedGasLimit": false
    },
    {
      "hash": "0xe14d12bdb86cc21cffaa2cfff29af8faf6711384ed23521ee85dd224b0e714e4",
      "transactionType": "CREATE",
      "contractName": "TestToken",
      "contractAddress": "0xddee9d13f6a4c824c94f349b5dd2fb651bb7edf6",
      "function": null,
      "arguments": [
        "Orbit Finance",
        "ORBIT"
      ],
      "transaction": {
        "from": "0xc5b7b574ee84a9b59b475fe32eaf908c246d3859",
        "gas": "0xb5b2b",
        "value": "0x0",
        "input": "0x608060405234801561000f575f80fd5b50604051610ba5380380610ba583398101604081905261002e9161026d565b8181600361003c8382610356565b5060046100498282610356565b5050506100663369d3c21bcecceda100000061006d60201b60201c565b5050610435565b6001600160a01b03821661009b5760405163ec442f0560e01b81525f60048201526024015b60405180910390fd5b6100a65f83836100aa565b5050565b6001600160a01b0383166100d4578060025f8282546100c99190610410565b909155506101449050565b6001600160a01b0383165f90815260208190526040902054818110156101265760405163391434e360e21b81526001600160a01b03851660048201526024810182905260448101839052606401610092565b6001600160a01b0384165f9081526020819052604090209082900390555b6001600160a01b0382166101605760028054829003905561017e565b6001600160a01b0382165f9081526020819052604090208054820190555b816001600160a01b0316836001600160a01b03167fddf252ad1be2c89b69c2b068fc378daa952ba7f163c4a11628f55a4df523b3ef836040516101c391815260200190565b60405180910390a3505050565b634e487b7160e01b5f52604160045260245ffd5b5f82601f8301126101f3575f80fd5b81516001600160401b0381111561020c5761020c6101d0565b604051601f8201601f19908116603f011681016001600160401b038111828210171561023a5761023a6101d0565b604052818152838201602001851015610251575f80fd5b8160208501602083015e5f918101602001919091529392505050565b5f806040838503121561027e575f80fd5b82516001600160401b03811115610293575f80fd5b61029f858286016101e4565b602085015190935090506001600160401b038111156102bc575f80fd5b6102c8858286016101e4565b9150509250929050565b600181811c908216806102e657607f821691505b60208210810361030457634e487b7160e01b5f52602260045260245ffd5b50919050565b601f82111561035157805f5260205f20601f840160051c8101602085101561032f5750805b601f840160051c820191505b8181101561034e575f815560010161033b565b50505b505050565b81516001600160401b0381111561036f5761036f6101d0565b6103838161037d84546102d2565b8461030a565b6020601f8211600181146103b5575f831561039e5750848201515b5f19600385901b1c1916600184901b17845561034e565b5f84815260208120601f198516915b828110156103e457878501518255602094850194600190920191016103c4565b508482101561040157868401515f19600387901b60f8161c191681555b50505050600190811b01905550565b8082018082111561042f57634e487b7160e01b5f52601160045260245ffd5b92915050565b610763806104425f395ff3fe608060405234801561000f575f80fd5b50600436106100b9575f3560e01c806340c10f191161007257806395d89b411161005857806395d89b411461016f578063a9059cbb14610177578063dd62ed3e1461018a575f80fd5b806340c10f191461013257806370a0823114610147575f80fd5b806318160ddd116100a257806318160ddd146100fe57806323b872dd14610110578063313ce56714610123575f80fd5b806306fdde03146100bd578063095ea7b3146100db575b5f80fd5b6100c56101c2565b6040516100d291906105d3565b60405180910390f35b6100ee6100e9366004610623565b610252565b60405190151581526020016100d2565b6002545b6040519081526020016100d2565b6100ee61011e36600461064b565b61026b565b604051601281526020016100d2565b610145610140366004610623565b61028e565b005b610102610155366004610685565b6001600160a01b03165f9081526020819052604090205490565b6100c561029c565b6100ee610185366004610623565b6102ab565b6101026101983660046106a5565b6001600160a01b039182165f90815260016020908152604080832093909416825291909152205490565b6060600380546101d1906106d6565b80601f01602080910402602001604051908101604052809291908181526020018280546101fd906106d6565b80156102485780601f1061021f57610100808354040283529160200191610248565b820191905f5260205f20905b81548152906001019060200180831161022b57829003601f168201915b5050505050905090565b5f3361025f8185856102b8565b60019150505b92915050565b5f336102788582856102ca565b61028385858561034a565b506001949350505050565b61029882826103a7565b5050565b6060600480546101d1906106d6565b5f3361025f81858561034a565b6102c583838360016103db565b505050565b6001600160a01b038381165f908152600160209081526040808320938616835292905220545f198114610344578181101561033657604051637dc7a0d960e11b81526001600160a01b038416600482015260248101829052604481018390526064015b60405180910390fd5b61034484848484035f6103db565b50505050565b6001600160a01b03831661037357604051634b637e8f60e11b81525f600482015260240161032d565b6001600160a01b03821661039c5760405163ec442f0560e01b81525f600482015260240161032d565b6102c58383836104ad565b6001600160a01b0382166103d05760405163ec442f0560e01b81525f600482015260240161032d565b6102985f83836104ad565b6001600160a01b0384166104045760405163e602df0560e01b81525f600482015260240161032d565b6001600160a01b03831661042d57604051634a1406b160e11b81525f600482015260240161032d565b6001600160a01b038085165f908152600160209081526040808320938716835292905220829055801561034457826001600160a01b0316846001600160a01b03167f8c5be1e5ebec7d5bd14f71427d1e84f3dd0314c0f7b2291e5b200ac8c7c3b9258460405161049f91815260200190565b60405180910390a350505050565b6001600160a01b0383166104d7578060025f8282546104cc919061070e565b909155506105479050565b6001600160a01b0383165f90815260208190526040902054818110156105295760405163391434e360e21b81526001600160a01b0385166004820152602481018290526044810183905260640161032d565b6001600160a01b0384165f9081526020819052604090209082900390555b6001600160a01b03821661056357600280548290039055610581565b6001600160a01b0382165f9081526020819052604090208054820190555b816001600160a01b0316836001600160a01b03167fddf252ad1be2c89b69c2b068fc378daa952ba7f163c4a11628f55a4df523b3ef836040516105c691815260200190565b60405180910390a3505050565b602081525f82518060208401528060208501604085015e5f604082850101526040601f19601f83011684010191505092915050565b80356001600160a01b038116811461061e575f80fd5b919050565b5f8060408385031215610634575f80fd5b61063d83610608565b946020939093013593505050565b5f805f6060848603121561065d575f80fd5b61066684610608565b925061067460208501610608565b929592945050506040919091013590565b5f60208284031215610695575f80fd5b61069e82610608565b9392505050565b5f80604083850312156106b6575f80fd5b6106bf83610608565b91506106cd60208401610608565b90509250929050565b600181811c908216806106ea57607f821691505b60208210810361070857634e487b7160e01b5f52602260045260245ffd5b50919050565b8082018082111561026557634e487b7160e01b5f52601160045260245ffdfea264697066735822122088c3783f6f28345c1b08222b50857fae978cd0f151270a42a87dbb114a75a67664736f6c634300081a003300000000000000000000000000000000000000000000000000000000000000400000000000000000000000000000000000000000000000000000000000000080000000000000000000000000000000000000000000000000000000000000000d4f726269742046696e616e63650000000000000000000000000000000000000000000000000000000000000000000000000000000000000000000000000000054f52424954000000000000000000000000000000000000000000000000000000",
        "nonce": "0x20e",
        "chainId": "0x515"
      },
      "additionalContracts": [],
      "isFixedGasLimit": false
    },
    {
      "hash": "0xbaca3339a04e0f86705b27552b13af621ecd6fa3a1d3be558e0012ac22f7faf4",
      "transactionType": "CREATE",
      "contractName": "TestToken",
      "contractAddress": "0x12f835580bd0937d83ed07ab7fc00330bebe3db9",
      "function": null,
      "arguments": [
        "Zenith Labs",
        "ZEN"
      ],
      "transaction": {
        "from": "0xc5b7b574ee84a9b59b475fe32eaf908c246d3859",
        "gas": "0xb5aed",
        "value": "0x0",
        "input": "0x608060405234801561000f575f80fd5b50604051610ba5380380610ba583398101604081905261002e9161026d565b8181600361003c8382610356565b5060046100498282610356565b5050506100663369d3c21bcecceda100000061006d60201b60201c565b5050610435565b6001600160a01b03821661009b5760405163ec442f0560e01b81525f60048201526024015b60405180910390fd5b6100a65f83836100aa565b5050565b6001600160a01b0383166100d4578060025f8282546100c99190610410565b909155506101449050565b6001600160a01b0383165f90815260208190526040902054818110156101265760405163391434e360e21b81526001600160a01b03851660048201526024810182905260448101839052606401610092565b6001600160a01b0384165f9081526020819052604090209082900390555b6001600160a01b0382166101605760028054829003905561017e565b6001600160a01b0382165f9081526020819052604090208054820190555b816001600160a01b0316836001600160a01b03167fddf252ad1be2c89b69c2b068fc378daa952ba7f163c4a11628f55a4df523b3ef836040516101c391815260200190565b60405180910390a3505050565b634e487b7160e01b5f52604160045260245ffd5b5f82601f8301126101f3575f80fd5b81516001600160401b0381111561020c5761020c6101d0565b604051601f8201601f19908116603f011681016001600160401b038111828210171561023a5761023a6101d0565b604052818152838201602001851015610251575f80fd5b8160208501602083015e5f918101602001919091529392505050565b5f806040838503121561027e575f80fd5b82516001600160401b03811115610293575f80fd5b61029f858286016101e4565b602085015190935090506001600160401b038111156102bc575f80fd5b6102c8858286016101e4565b9150509250929050565b600181811c908216806102e657607f821691505b60208210810361030457634e487b7160e01b5f52602260045260245ffd5b50919050565b601f82111561035157805f5260205f20601f840160051c8101602085101561032f5750805b601f840160051c820191505b8181101561034e575f815560010161033b565b50505b505050565b81516001600160401b0381111561036f5761036f6101d0565b6103838161037d84546102d2565b8461030a565b6020601f8211600181146103b5575f831561039e5750848201515b5f19600385901b1c1916600184901b17845561034e565b5f84815260208120601f198516915b828110156103e457878501518255602094850194600190920191016103c4565b508482101561040157868401515f19600387901b60f8161c191681555b50505050600190811b01905550565b8082018082111561042f57634e487b7160e01b5f52601160045260245ffd5b92915050565b610763806104425f395ff3fe608060405234801561000f575f80fd5b50600436106100b9575f3560e01c806340c10f191161007257806395d89b411161005857806395d89b411461016f578063a9059cbb14610177578063dd62ed3e1461018a575f80fd5b806340c10f191461013257806370a0823114610147575f80fd5b806318160ddd116100a257806318160ddd146100fe57806323b872dd14610110578063313ce56714610123575f80fd5b806306fdde03146100bd578063095ea7b3146100db575b5f80fd5b6100c56101c2565b6040516100d291906105d3565b60405180910390f35b6100ee6100e9366004610623565b610252565b60405190151581526020016100d2565b6002545b6040519081526020016100d2565b6100ee61011e36600461064b565b61026b565b604051601281526020016100d2565b610145610140366004610623565b61028e565b005b610102610155366004610685565b6001600160a01b03165f9081526020819052604090205490565b6100c561029c565b6100ee610185366004610623565b6102ab565b6101026101983660046106a5565b6001600160a01b039182165f90815260016020908152604080832093909416825291909152205490565b6060600380546101d1906106d6565b80601f01602080910402602001604051908101604052809291908181526020018280546101fd906106d6565b80156102485780601f1061021f57610100808354040283529160200191610248565b820191905f5260205f20905b81548152906001019060200180831161022b57829003601f168201915b5050505050905090565b5f3361025f8185856102b8565b60019150505b92915050565b5f336102788582856102ca565b61028385858561034a565b506001949350505050565b61029882826103a7565b5050565b6060600480546101d1906106d6565b5f3361025f81858561034a565b6102c583838360016103db565b505050565b6001600160a01b038381165f908152600160209081526040808320938616835292905220545f198114610344578181101561033657604051637dc7a0d960e11b81526001600160a01b038416600482015260248101829052604481018390526064015b60405180910390fd5b61034484848484035f6103db565b50505050565b6001600160a01b03831661037357604051634b637e8f60e11b81525f600482015260240161032d565b6001600160a01b03821661039c5760405163ec442f0560e01b81525f600482015260240161032d565b6102c58383836104ad565b6001600160a01b0382166103d05760405163ec442f0560e01b81525f600482015260240161032d565b6102985f83836104ad565b6001600160a01b0384166104045760405163e602df0560e01b81525f600482015260240161032d565b6001600160a01b03831661042d57604051634a1406b160e11b81525f600482015260240161032d565b6001600160a01b038085165f908152600160209081526040808320938716835292905220829055801561034457826001600160a01b0316846001600160a01b03167f8c5be1e5ebec7d5bd14f71427d1e84f3dd0314c0f7b2291e5b200ac8c7c3b9258460405161049f91815260200190565b60405180910390a350505050565b6001600160a01b0383166104d7578060025f8282546104cc919061070e565b909155506105479050565b6001600160a01b0383165f90815260208190526040902054818110156105295760405163391434e360e21b81526001600160a01b0385166004820152602481018290526044810183905260640161032d565b6001600160a01b0384165f9081526020819052604090209082900390555b6001600160a01b03821661056357600280548290039055610581565b6001600160a01b0382165f9081526020819052604090208054820190555b816001600160a01b0316836001600160a01b03167fddf252ad1be2c89b69c2b068fc378daa952ba7f163c4a11628f55a4df523b3ef836040516105c691815260200190565b60405180910390a3505050565b602081525f82518060208401528060208501604085015e5f604082850101526040601f19601f83011684010191505092915050565b80356001600160a01b038116811461061e575f80fd5b919050565b5f8060408385031215610634575f80fd5b61063d83610608565b946020939093013593505050565b5f805f6060848603121561065d575f80fd5b61066684610608565b925061067460208501610608565b929592945050506040919091013590565b5f60208284031215610695575f80fd5b61069e82610608565b9392505050565b5f80604083850312156106b6575f80fd5b6106bf83610608565b91506106cd60208401610608565b90509250929050565b600181811c908216806106ea57607f821691505b60208210810361070857634e487b7160e01b5f52602260045260245ffd5b50919050565b8082018082111561026557634e487b7160e01b5f52601160045260245ffdfea264697066735822122088c3783f6f28345c1b08222b50857fae978cd0f151270a42a87dbb114a75a67664736f6c634300081a003300000000000000000000000000000000000000000000000000000000000000400000000000000000000000000000000000000000000000000000000000000080000000000000000000000000000000000000000000000000000000000000000b5a656e697468204c61627300000000000000000000000000000000000000000000000000000000000000000000000000000000000000000000000000000000035a454e0000000000000000000000000000000000000000000000000000000000",
        "nonce": "0x20f",
        "chainId": "0x515"
      },
      "additionalContracts": [],
      "isFixedGasLimit": false
    },
    {
      "hash": "0x0f650f090c480a5cc115e05c6d99cbb19729f70546c03e52845c4a34c097761f",
      "transactionType": "CREATE",
      "contractName": "TestToken",
      "contractAddress": "0xa655a03eb74ab225e376d3d373691cc50955fd37",
      "function": null,
      "arguments": [
        "Shadow Token",
        "SHDW"
      ],
      "transaction": {
        "from": "0xc5b7b574ee84a9b59b475fe32eaf908c246d3859",
        "gas": "0xb5b0c",
        "value": "0x0",
        "input": "0x608060405234801561000f575f80fd5b50604051610ba5380380610ba583398101604081905261002e9161026d565b8181600361003c8382610356565b5060046100498282610356565b5050506100663369d3c21bcecceda100000061006d60201b60201c565b5050610435565b6001600160a01b03821661009b5760405163ec442f0560e01b81525f60048201526024015b60405180910390fd5b6100a65f83836100aa565b5050565b6001600160a01b0383166100d4578060025f8282546100c99190610410565b909155506101449050565b6001600160a01b0383165f90815260208190526040902054818110156101265760405163391434e360e21b81526001600160a01b03851660048201526024810182905260448101839052606401610092565b6001600160a01b0384165f9081526020819052604090209082900390555b6001600160a01b0382166101605760028054829003905561017e565b6001600160a01b0382165f9081526020819052604090208054820190555b816001600160a01b0316836001600160a01b03167fddf252ad1be2c89b69c2b068fc378daa952ba7f163c4a11628f55a4df523b3ef836040516101c391815260200190565b60405180910390a3505050565b634e487b7160e01b5f52604160045260245ffd5b5f82601f8301126101f3575f80fd5b81516001600160401b0381111561020c5761020c6101d0565b604051601f8201601f19908116603f011681016001600160401b038111828210171561023a5761023a6101d0565b604052818152838201602001851015610251575f80fd5b8160208501602083015e5f918101602001919091529392505050565b5f806040838503121561027e575f80fd5b82516001600160401b03811115610293575f80fd5b61029f858286016101e4565b602085015190935090506001600160401b038111156102bc575f80fd5b6102c8858286016101e4565b9150509250929050565b600181811c908216806102e657607f821691505b60208210810361030457634e487b7160e01b5f52602260045260245ffd5b50919050565b601f82111561035157805f5260205f20601f840160051c8101602085101561032f5750805b601f840160051c820191505b8181101561034e575f815560010161033b565b50505b505050565b81516001600160401b0381111561036f5761036f6101d0565b6103838161037d84546102d2565b8461030a565b6020601f8211600181146103b5575f831561039e5750848201515b5f19600385901b1c1916600184901b17845561034e565b5f84815260208120601f198516915b828110156103e457878501518255602094850194600190920191016103c4565b508482101561040157868401515f19600387901b60f8161c191681555b50505050600190811b01905550565b8082018082111561042f57634e487b7160e01b5f52601160045260245ffd5b92915050565b610763806104425f395ff3fe608060405234801561000f575f80fd5b50600436106100b9575f3560e01c806340c10f191161007257806395d89b411161005857806395d89b411461016f578063a9059cbb14610177578063dd62ed3e1461018a575f80fd5b806340c10f191461013257806370a0823114610147575f80fd5b806318160ddd116100a257806318160ddd146100fe57806323b872dd14610110578063313ce56714610123575f80fd5b806306fdde03146100bd578063095ea7b3146100db575b5f80fd5b6100c56101c2565b6040516100d291906105d3565b60405180910390f35b6100ee6100e9366004610623565b610252565b60405190151581526020016100d2565b6002545b6040519081526020016100d2565b6100ee61011e36600461064b565b61026b565b604051601281526020016100d2565b610145610140366004610623565b61028e565b005b610102610155366004610685565b6001600160a01b03165f9081526020819052604090205490565b6100c561029c565b6100ee610185366004610623565b6102ab565b6101026101983660046106a5565b6001600160a01b039182165f90815260016020908152604080832093909416825291909152205490565b6060600380546101d1906106d6565b80601f01602080910402602001604051908101604052809291908181526020018280546101fd906106d6565b80156102485780601f1061021f57610100808354040283529160200191610248565b820191905f5260205f20905b81548152906001019060200180831161022b57829003601f168201915b5050505050905090565b5f3361025f8185856102b8565b60019150505b92915050565b5f336102788582856102ca565b61028385858561034a565b506001949350505050565b61029882826103a7565b5050565b6060600480546101d1906106d6565b5f3361025f81858561034a565b6102c583838360016103db565b505050565b6001600160a01b038381165f908152600160209081526040808320938616835292905220545f198114610344578181101561033657604051637dc7a0d960e11b81526001600160a01b038416600482015260248101829052604481018390526064015b60405180910390fd5b61034484848484035f6103db565b50505050565b6001600160a01b03831661037357604051634b637e8f60e11b81525f600482015260240161032d565b6001600160a01b03821661039c5760405163ec442f0560e01b81525f600482015260240161032d565b6102c58383836104ad565b6001600160a01b0382166103d05760405163ec442f0560e01b81525f600482015260240161032d565b6102985f83836104ad565b6001600160a01b0384166104045760405163e602df0560e01b81525f600482015260240161032d565b6001600160a01b03831661042d57604051634a1406b160e11b81525f600482015260240161032d565b6001600160a01b038085165f908152600160209081526040808320938716835292905220829055801561034457826001600160a01b0316846001600160a01b03167f8c5be1e5ebec7d5bd14f71427d1e84f3dd0314c0f7b2291e5b200ac8c7c3b9258460405161049f91815260200190565b60405180910390a350505050565b6001600160a01b0383166104d7578060025f8282546104cc919061070e565b909155506105479050565b6001600160a01b0383165f90815260208190526040902054818110156105295760405163391434e360e21b81526001600160a01b0385166004820152602481018290526044810183905260640161032d565b6001600160a01b0384165f9081526020819052604090209082900390555b6001600160a01b03821661056357600280548290039055610581565b6001600160a01b0382165f9081526020819052604090208054820190555b816001600160a01b0316836001600160a01b03167fddf252ad1be2c89b69c2b068fc378daa952ba7f163c4a11628f55a4df523b3ef836040516105c691815260200190565b60405180910390a3505050565b602081525f82518060208401528060208501604085015e5f604082850101526040601f19601f83011684010191505092915050565b80356001600160a01b038116811461061e575f80fd5b919050565b5f8060408385031215610634575f80fd5b61063d83610608565b946020939093013593505050565b5f805f6060848603121561065d575f80fd5b61066684610608565b925061067460208501610608565b929592945050506040919091013590565b5f60208284031215610695575f80fd5b61069e82610608565b9392505050565b5f80604083850312156106b6575f80fd5b6106bf83610608565b91506106cd60208401610608565b90509250929050565b600181811c908216806106ea57607f821691505b60208210810361070857634e487b7160e01b5f52602260045260245ffd5b50919050565b8082018082111561026557634e487b7160e01b5f52601160045260245ffdfea264697066735822122088c3783f6f28345c1b08222b50857fae978cd0f151270a42a87dbb114a75a67664736f6c634300081a003300000000000000000000000000000000000000000000000000000000000000400000000000000000000000000000000000000000000000000000000000000080000000000000000000000000000000000000000000000000000000000000000c536861646f7720546f6b656e000000000000000000000000000000000000000000000000000000000000000000000000000000000000000000000000000000045348445700000000000000000000000000000000000000000000000000000000",
        "nonce": "0x210",
        "chainId": "0x515"
      },
      "additionalContracts": [],
      "isFixedGasLimit": false
    },
    {
      "hash": "0xa9ebe397f59480ef98fde80ae34233c6a39045046ce5eb2dfdcb1ae13f3044ea",
      "transactionType": "CALL",
      "contractName": null,
      "contractAddress": "0x7aee07658d3f3e714627f35dae1a5a817849c713",
      "function": null,
      "arguments": null,
      "transaction": {
        "from": "0xc5b7b574ee84a9b59b475fe32eaf908c246d3859",
        "to": "0x7aee07658d3f3e714627f35dae1a5a817849c713",
        "gas": "0x714d",
        "value": "0x71afd498d0000",
        "input": "0x",
        "nonce": "0x211",
        "chainId": "0x515"
      },
      "additionalContracts": [],
      "isFixedGasLimit": false
    },
    {
      "hash": "0x0ec1b73f74eec26bf5ef5abd2fb8616de5abc2f3ab1a0dc527f7145494c21872",
      "transactionType": "CALL",
      "contractName": null,
      "contractAddress": "0xaf6b00cb33138464cda3b017f8963c6cafaf4871",
      "function": null,
      "arguments": null,
      "transaction": {
        "from": "0xc5b7b574ee84a9b59b475fe32eaf908c246d3859",
        "to": "0xaf6b00cb33138464cda3b017f8963c6cafaf4871",
        "gas": "0x714d",
        "value": "0x71afd498d0000",
        "input": "0x",
        "nonce": "0x212",
        "chainId": "0x515"
      },
      "additionalContracts": [],
      "isFixedGasLimit": false
    },
    {
      "hash": "0x25d7b098177c73563cf137d38cb65716ee43b4ee664e6f0d8febb83769d333ae",
      "transactionType": "CALL",
      "contractName": null,
      "contractAddress": "0x9fc3d9a5f5c436336586bf7be37d1e89c05c4bd9",
      "function": null,
      "arguments": null,
      "transaction": {
        "from": "0xc5b7b574ee84a9b59b475fe32eaf908c246d3859",
        "to": "0x9fc3d9a5f5c436336586bf7be37d1e89c05c4bd9",
        "gas": "0x714d",
        "value": "0x71afd498d0000",
        "input": "0x",
        "nonce": "0x213",
        "chainId": "0x515"
      },
      "additionalContracts": [],
      "isFixedGasLimit": false
    },
    {
      "hash": "0xb5373bbbad15fc4b7f365d5e90037af788858f8086f70a3d7661d380f1a97bec",
      "transactionType": "CALL",
      "contractName": null,
      "contractAddress": "0x7819c1c15bd54a50e360a9b0cac9f796eedd770e",
      "function": null,
      "arguments": null,
      "transaction": {
        "from": "0xc5b7b574ee84a9b59b475fe32eaf908c246d3859",
        "to": "0x7819c1c15bd54a50e360a9b0cac9f796eedd770e",
        "gas": "0x714d",
        "value": "0x71afd498d0000",
        "input": "0x",
        "nonce": "0x214",
        "chainId": "0x515"
      },
      "additionalContracts": [],
      "isFixedGasLimit": false
    },
    {
      "hash": "0x85d5187cf373af6831f1c53a8963bdd50a45cfe0379eed4db847b4cefd2609a8",
      "transactionType": "CALL",
      "contractName": null,
      "contractAddress": "0x0a225822d948f4788568ebcf658ff1b85791af82",
      "function": null,
      "arguments": null,
      "transaction": {
        "from": "0xc5b7b574ee84a9b59b475fe32eaf908c246d3859",
        "to": "0x0a225822d948f4788568ebcf658ff1b85791af82",
        "gas": "0x714d",
        "value": "0x71afd498d0000",
        "input": "0x",
        "nonce": "0x215",
        "chainId": "0x515"
      },
      "additionalContracts": [],
      "isFixedGasLimit": false
    },
    {
      "hash": "0x2b3ad5ece8b91a982e7cd1dbcd9369d4b8e24ca6b219ab455af5aea83191754d",
      "transactionType": "CALL",
      "contractName": null,
      "contractAddress": "0x6127fe036b9cd6435404e56365f904167298c640",
      "function": "registerVestingPosition((uint8,uint256,uint8,bool)[3],address,bytes32)",
      "arguments": [
        "[(0, 1000000000000000000000000, 34, false), (1, 5000000000000000000000000, 33, false), (2, 10000, 33, false)]",
        "0xc3ed1487ef25930a19E4371DD1eF831703582f21",
        "0x94d41341aaa7675233d521b8c9702a9a80b38c94d19ddebd9c0fdd6c2a3b6878"
      ],
      "transaction": {
        "from": "0x7aee07658d3f3e714627f35dae1a5a817849c713",
        "to": "0x6127fe036b9cd6435404e56365f904167298c640",
        "gas": "0x6685c",
        "value": "0x0",
        "input": "0x32f7488c000000000000000000000000000000000000000000000000000000000000000000000000000000000000000000000000000000000000d3c21bcecceda10000000000000000000000000000000000000000000000000000000000000000000022000000000000000000000000000000000000000000000000000000000000000000000000000000000000000000000000000000000000000000000000000000010000000000000000000000000000000000000000000422ca8b0a00a425000000000000000000000000000000000000000000000000000000000000000000002100000000000000000000000000000000000000000000000000000000000000000000000000000000000000000000000000000000000000000000000000000002000000000000000000000000000000000000000000000000000000000000271000000000000000000000000000000000000000000000000000000000000000210000000000000000000000000000000000000000000000000000000000000000000000000000000000000000c3ed1487ef25930a19e4371dd1ef831703582f2194d41341aaa7675233d521b8c9702a9a80b38c94d19ddebd9c0fdd6c2a3b6878",
        "nonce": "0x0",
        "chainId": "0x515"
      },
      "additionalContracts": [],
      "isFixedGasLimit": false
    },
    {
      "hash": "0xa049e3a2e17912438f26eb585a69fbb45390a37e210e04b0be229c1efb9d631a",
      "transactionType": "CALL",
      "contractName": null,
      "contractAddress": "0x6127fe036b9cd6435404e56365f904167298c640",
      "function": "registerVestingPosition((uint8,uint256,uint8,bool)[3],address,bytes32)",
      "arguments": [
        "[(0, 500000000000000000000, 34, false), (1, 2000000000000000000000, 33, false), (2, 50, 33, false)]",
        "0x2709a27B939F8C81143574353F6396d9E53491c8",
        "0x495cefb7efc345575abd893fb7574a6d1118739bcbb8c5c16f9b098ee0a3d2c7"
      ],
      "transaction": {
        "from": "0xaf6b00cb33138464cda3b017f8963c6cafaf4871",
        "to": "0x6127fe036b9cd6435404e56365f904167298c640",
        "gas": "0x6684b",
        "value": "0x0",
        "input": "0x32f7488c000000000000000000000000000000000000000000000000000000000000000000000000000000000000000000000000000000000000001b1ae4d6e2ef50000000000000000000000000000000000000000000000000000000000000000000220000000000000000000000000000000000000000000000000000000000000000000000000000000000000000000000000000000000000000000000000000000100000000000000000000000000000000000000000000006c6b935b8bbd4000000000000000000000000000000000000000000000000000000000000000000021000000000000000000000000000000000000000000000000000000000000000000000000000000000000000000000000000000000000000000000000000000020000000000000000000000000000000000000000000000000000000000000032000000000000000000000000000000000000000000000000000000000000002100000000000000000000000000000000000000000000000000000000000000000000000000000000000000002709a27b939f8c81143574353f6396d9e53491c8495cefb7efc345575abd893fb7574a6d1118739bcbb8c5c16f9b098ee0a3d2c7",
        "nonce": "0x0",
        "chainId": "0x515"
      },
      "additionalContracts": [],
      "isFixedGasLimit": false
    },
    {
      "hash": "0x5e9ed4b2807afd92202534e44fe60bf4a623453fa876bc2a4564d280855d617d",
      "transactionType": "CALL",
      "contractName": null,
      "contractAddress": "0x6127fe036b9cd6435404e56365f904167298c640",
      "function": "registerVestingPosition((uint8,uint256,uint8,bool)[3],address,bytes32)",
      "arguments": [
        "[(0, 500000000000000000000, 34, false), (1, 2000000000000000000000, 33, false), (2, 50, 33, false)]",
        "0xddee9D13f6a4c824c94F349b5dd2fb651Bb7EDf6",
        "0xd26c3dd7535e687930ee40b21070bb09ddf0157f8dc485ce512d8a4c92379f1b"
      ],
      "transaction": {
        "from": "0x9fc3d9a5f5c436336586bf7be37d1e89c05c4bd9",
        "to": "0x6127fe036b9cd6435404e56365f904167298c640",
        "gas": "0x6684b",
        "value": "0x0",
        "input": "0x32f7488c000000000000000000000000000000000000000000000000000000000000000000000000000000000000000000000000000000000000001b1ae4d6e2ef50000000000000000000000000000000000000000000000000000000000000000000220000000000000000000000000000000000000000000000000000000000000000000000000000000000000000000000000000000000000000000000000000000100000000000000000000000000000000000000000000006c6b935b8bbd400000000000000000000000000000000000000000000000000000000000000000002100000000000000000000000000000000000000000000000000000000000000000000000000000000000000000000000000000000000000000000000000000002000000000000000000000000000000000000000000000000000000000000003200000000000000000000000000000000000000000000000000000000000000210000000000000000000000000000000000000000000000000000000000000000000000000000000000000000ddee9d13f6a4c824c94f349b5dd2fb651bb7edf6d26c3dd7535e687930ee40b21070bb09ddf0157f8dc485ce512d8a4c92379f1b",
        "nonce": "0x0",
        "chainId": "0x515"
      },
      "additionalContracts": [],
      "isFixedGasLimit": false
    },
    {
      "hash": "0xd650be98476205c2ece5da36d94d44302d8ca756f7534898d28e5c62d14146f1",
      "transactionType": "CALL",
      "contractName": null,
      "contractAddress": "0x6127fe036b9cd6435404e56365f904167298c640",
      "function": "registerVestingPosition((uint8,uint256,uint8,bool)[3],address,bytes32)",
      "arguments": [
        "[(0, 100000000000000000000, 34, false), (1, 100000000000000000000, 33, false), (2, 2, 33, false)]",
        "0x12f835580bd0937D83eD07aB7FC00330BeBE3dB9",
        "0x71ada5ab3372c869764973261cb8119bc4f7024998abe85ef6f2436fcaaea3b5"
      ],
      "transaction": {
        "from": "0x7819c1c15bd54a50e360a9b0cac9f796eedd770e",
        "to": "0x6127fe036b9cd6435404e56365f904167298c640",
        "gas": "0x6684b",
        "value": "0x0",
        "input": "0x32f7488c00000000000000000000000000000000000000000000000000000000000000000000000000000000000000000000000000000000000000056bc75e2d631000000000000000000000000000000000000000000000000000000000000000000022000000000000000000000000000000000000000000000000000000000000000000000000000000000000000000000000000000000000000000000000000000010000000000000000000000000000000000000000000000056bc75e2d6310000000000000000000000000000000000000000000000000000000000000000000210000000000000000000000000000000000000000000000000000000000000000000000000000000000000000000000000000000000000000000000000000000200000000000000000000000000000000000000000000000000000000000000020000000000000000000000000000000000000000000000000000000000000021000000000000000000000000000000000000000000000000000000000000000000000000000000000000000012f835580bd0937d83ed07ab7fc00330bebe3db971ada5ab3372c869764973261cb8119bc4f7024998abe85ef6f2436fcaaea3b5",
        "nonce": "0x0",
        "chainId": "0x515"
      },
      "additionalContracts": [],
      "isFixedGasLimit": false
    },
    {
      "hash": "0xdc33d3a2b29ae679e460613ba607a76d8ac66531e1ab0f804cd6e27bdb1d19f6",
      "transactionType": "CALL",
      "contractName": null,
      "contractAddress": "0x6127fe036b9cd6435404e56365f904167298c640",
      "function": "registerVestingPosition((uint8,uint256,uint8,bool)[3],address,bytes32)",
      "arguments": [
        "[(0, 500000000000000000000, 34, false), (1, 2000000000000000000000, 33, false), (2, 50, 33, false)]",
        "0xa655A03EB74AB225e376d3d373691Cc50955fd37",
        "0x65bd407cdfa56292f3b062032458180b71ce5f003082050d45c8f74f565f956d"
      ],
      "transaction": {
        "from": "0x0a225822d948f4788568ebcf658ff1b85791af82",
        "to": "0x6127fe036b9cd6435404e56365f904167298c640",
        "gas": "0x6683c",
        "value": "0x0",
        "input": "0x32f7488c000000000000000000000000000000000000000000000000000000000000000000000000000000000000000000000000000000000000001b1ae4d6e2ef50000000000000000000000000000000000000000000000000000000000000000000220000000000000000000000000000000000000000000000000000000000000000000000000000000000000000000000000000000000000000000000000000000100000000000000000000000000000000000000000000006c6b935b8bbd400000000000000000000000000000000000000000000000000000000000000000002100000000000000000000000000000000000000000000000000000000000000000000000000000000000000000000000000000000000000000000000000000002000000000000000000000000000000000000000000000000000000000000003200000000000000000000000000000000000000000000000000000000000000210000000000000000000000000000000000000000000000000000000000000000000000000000000000000000a655a03eb74ab225e376d3d373691cc50955fd3765bd407cdfa56292f3b062032458180b71ce5f003082050d45c8f74f565f956d",
        "nonce": "0x0",
        "chainId": "0x515"
      },
      "additionalContracts": [],
      "isFixedGasLimit": false
    },
    {
      "hash": "0xe3f551c676278df97872b07dff086d71025c32523eb20c20116b2478132dc90c",
      "transactionType": "CALL",
      "contractName": null,
      "contractAddress": "0x00b036b58a818b1bc34d502d3fe730db729e62ac",
      "function": "initialize((address,address,uint24,int24,address),uint160)",
      "arguments": [
        "(0xc3ed1487ef25930a19E4371DD1eF831703582f21, 0xcCBD848EbdCabC0d314Ad1612c2f3EdC8661403A, 3000, 60, 0x6127Fe036B9cd6435404E56365f904167298C640)",
        "79228162514264337593543950336"
      ],
      "transaction": {
        "from": "0xc5b7b574ee84a9b59b475fe32eaf908c246d3859",
        "to": "0x00b036b58a818b1bc34d502d3fe730db729e62ac",
        "gas": "0x11721",
        "value": "0x0",
        "input": "0x6276cbbe000000000000000000000000c3ed1487ef25930a19e4371dd1ef831703582f21000000000000000000000000ccbd848ebdcabc0d314ad1612c2f3edc8661403a0000000000000000000000000000000000000000000000000000000000000bb8000000000000000000000000000000000000000000000000000000000000003c0000000000000000000000006127fe036b9cd6435404e56365f904167298c6400000000000000000000000000000000000000001000000000000000000000000",
        "nonce": "0x216",
        "chainId": "0x515"
      },
      "additionalContracts": [],
      "isFixedGasLimit": false
    },
    {
      "hash": "0xf19e9b4212c26871181932ec5c0f2828df2b7ac57502c19346734ae2bdd9137b",
      "transactionType": "CALL",
      "contractName": "TestToken",
      "contractAddress": "0xc3ed1487ef25930a19e4371dd1ef831703582f21",
      "function": "approve(address,uint256)",
      "arguments": [
        "0x5fa728C0A5cfd51BEe4B060773f50554c0C8A7AB",
        "10000000000000000000000"
      ],
      "transaction": {
        "from": "0xc5b7b574ee84a9b59b475fe32eaf908c246d3859",
        "to": "0xc3ed1487ef25930a19e4371dd1ef831703582f21",
        "gas": "0xfa6c",
        "value": "0x0",
        "input": "0x095ea7b30000000000000000000000005fa728c0a5cfd51bee4b060773f50554c0c8a7ab00000000000000000000000000000000000000000000021e19e0c9bab2400000",
        "nonce": "0x217",
        "chainId": "0x515"
      },
      "additionalContracts": [],
      "isFixedGasLimit": false
    },
    {
      "hash": "0x98f5dbe593da42b6303f5be8fc8fb5c717edd9f320f8f3a17f4bff8f5b22739a",
      "transactionType": "CALL",
      "contractName": "TestToken",
      "contractAddress": "0xccbd848ebdcabc0d314ad1612c2f3edc8661403a",
      "function": "approve(address,uint256)",
      "arguments": [
        "0x5fa728C0A5cfd51BEe4B060773f50554c0C8A7AB",
        "10000000000000000000000"
      ],
      "transaction": {
        "from": "0xc5b7b574ee84a9b59b475fe32eaf908c246d3859",
        "to": "0xccbd848ebdcabc0d314ad1612c2f3edc8661403a",
        "gas": "0xfa6c",
        "value": "0x0",
        "input": "0x095ea7b30000000000000000000000005fa728c0a5cfd51bee4b060773f50554c0c8a7ab00000000000000000000000000000000000000000000021e19e0c9bab2400000",
        "nonce": "0x218",
        "chainId": "0x515"
      },
      "additionalContracts": [],
      "isFixedGasLimit": false
    },
    {
      "hash": "0xc6a2a5bdd1f22c1baa090e0e352d490da4b13dbcd67ae4a286384fdab40fa770",
      "transactionType": "CALL",
      "contractName": null,
      "contractAddress": "0x5fa728c0a5cfd51bee4b060773f50554c0c8a7ab",
      "function": "modifyLiquidity((address,address,uint24,int24,address),(int24,int24,int256,bytes32),bytes)",
      "arguments": [
        "(0xc3ed1487ef25930a19E4371DD1eF831703582f21, 0xcCBD848EbdCabC0d314Ad1612c2f3EdC8661403A, 3000, 60, 0x6127Fe036B9cd6435404E56365f904167298C640)",
        "(-887220, 887220, 10000000000000000000000, 0x0000000000000000000000000000000000000000000000000000000000000000)",
        "0x"
      ],
      "transaction": {
        "from": "0xc5b7b574ee84a9b59b475fe32eaf908c246d3859",
        "to": "0x5fa728c0a5cfd51bee4b060773f50554c0c8a7ab",
        "gas": "0x82f7e",
        "value": "0x0",
        "input": "0x5a6bcfda000000000000000000000000c3ed1487ef25930a19e4371dd1ef831703582f21000000000000000000000000ccbd848ebdcabc0d314ad1612c2f3edc8661403a0000000000000000000000000000000000000000000000000000000000000bb8000000000000000000000000000000000000000000000000000000000000003c0000000000000000000000006127fe036b9cd6435404e56365f904167298c640fffffffffffffffffffffffffffffffffffffffffffffffffffffffffff2764c00000000000000000000000000000000000000000000000000000000000d89b400000000000000000000000000000000000000000000021e19e0c9bab2400000000000000000000000000000000000000000000000000000000000000000000000000000000000000000000000000000000000000000000000000000000001400000000000000000000000000000000000000000000000000000000000000000",
        "nonce": "0x219",
        "chainId": "0x515"
      },
      "additionalContracts": [],
      "isFixedGasLimit": false
    },
    {
      "hash": "0xcb151dda0fe2c7d662dd6e06a569740f752b11b753e57fd2d96e89d866e0e2ca",
      "transactionType": "CALL",
      "contractName": null,
      "contractAddress": "0x00b036b58a818b1bc34d502d3fe730db729e62ac",
      "function": "initialize((address,address,uint24,int24,address),uint160)",
      "arguments": [
        "(0x2709a27B939F8C81143574353F6396d9E53491c8, 0xcCBD848EbdCabC0d314Ad1612c2f3EdC8661403A, 3000, 60, 0x6127Fe036B9cd6435404E56365f904167298C640)",
        "79228162514264337593543950336"
      ],
      "transaction": {
        "from": "0xc5b7b574ee84a9b59b475fe32eaf908c246d3859",
        "to": "0x00b036b58a818b1bc34d502d3fe730db729e62ac",
        "gas": "0x11721",
        "value": "0x0",
        "input": "0x6276cbbe0000000000000000000000002709a27b939f8c81143574353f6396d9e53491c8000000000000000000000000ccbd848ebdcabc0d314ad1612c2f3edc8661403a0000000000000000000000000000000000000000000000000000000000000bb8000000000000000000000000000000000000000000000000000000000000003c0000000000000000000000006127fe036b9cd6435404e56365f904167298c6400000000000000000000000000000000000000001000000000000000000000000",
        "nonce": "0x21a",
        "chainId": "0x515"
      },
      "additionalContracts": [],
      "isFixedGasLimit": false
    },
    {
      "hash": "0x950bad5a15028f64d9df9f956f6be5af9b74e93bf6bad7c33c936f9505740a6e",
      "transactionType": "CALL",
      "contractName": "TestToken",
      "contractAddress": "0x2709a27b939f8c81143574353f6396d9e53491c8",
      "function": "approve(address,uint256)",
      "arguments": [
        "0x5fa728C0A5cfd51BEe4B060773f50554c0C8A7AB",
        "10000000000000000000000"
      ],
      "transaction": {
        "from": "0xc5b7b574ee84a9b59b475fe32eaf908c246d3859",
        "to": "0x2709a27b939f8c81143574353f6396d9e53491c8",
        "gas": "0xfa6c",
        "value": "0x0",
        "input": "0x095ea7b30000000000000000000000005fa728c0a5cfd51bee4b060773f50554c0c8a7ab00000000000000000000000000000000000000000000021e19e0c9bab2400000",
        "nonce": "0x21b",
        "chainId": "0x515"
      },
      "additionalContracts": [],
      "isFixedGasLimit": false
    },
    {
      "hash": "0xebaf75517b048f0eda7f50729693ff15f8273cc1d722c83c5efad0f9160a5349",
      "transactionType": "CALL",
      "contractName": "TestToken",
      "contractAddress": "0xccbd848ebdcabc0d314ad1612c2f3edc8661403a",
      "function": "approve(address,uint256)",
      "arguments": [
        "0x5fa728C0A5cfd51BEe4B060773f50554c0C8A7AB",
        "10000000000000000000000"
      ],
      "transaction": {
        "from": "0xc5b7b574ee84a9b59b475fe32eaf908c246d3859",
        "to": "0xccbd848ebdcabc0d314ad1612c2f3edc8661403a",
        "gas": "0xa777",
        "value": "0x0",
        "input": "0x095ea7b30000000000000000000000005fa728c0a5cfd51bee4b060773f50554c0c8a7ab00000000000000000000000000000000000000000000021e19e0c9bab2400000",
        "nonce": "0x21c",
        "chainId": "0x515"
      },
      "additionalContracts": [],
      "isFixedGasLimit": false
    },
    {
      "hash": "0x42ab9bbd0761c4680f6a3c23a001744477ad6e125c573f3ae193ea6e89599c06",
      "transactionType": "CALL",
      "contractName": null,
      "contractAddress": "0x5fa728c0a5cfd51bee4b060773f50554c0c8a7ab",
      "function": "modifyLiquidity((address,address,uint24,int24,address),(int24,int24,int256,bytes32),bytes)",
      "arguments": [
        "(0x2709a27B939F8C81143574353F6396d9E53491c8, 0xcCBD848EbdCabC0d314Ad1612c2f3EdC8661403A, 3000, 60, 0x6127Fe036B9cd6435404E56365f904167298C640)",
        "(-887220, 887220, 10000000000000000000000, 0x0000000000000000000000000000000000000000000000000000000000000000)",
        "0x"
      ],
      "transaction": {
        "from": "0xc5b7b574ee84a9b59b475fe32eaf908c246d3859",
        "to": "0x5fa728c0a5cfd51bee4b060773f50554c0c8a7ab",
        "gas": "0x75ed0",
        "value": "0x0",
        "input": "0x5a6bcfda0000000000000000000000002709a27b939f8c81143574353f6396d9e53491c8000000000000000000000000ccbd848ebdcabc0d314ad1612c2f3edc8661403a0000000000000000000000000000000000000000000000000000000000000bb8000000000000000000000000000000000000000000000000000000000000003c0000000000000000000000006127fe036b9cd6435404e56365f904167298c640fffffffffffffffffffffffffffffffffffffffffffffffffffffffffff2764c00000000000000000000000000000000000000000000000000000000000d89b400000000000000000000000000000000000000000000021e19e0c9bab2400000000000000000000000000000000000000000000000000000000000000000000000000000000000000000000000000000000000000000000000000000000001400000000000000000000000000000000000000000000000000000000000000000",
        "nonce": "0x21d",
        "chainId": "0x515"
      },
      "additionalContracts": [],
      "isFixedGasLimit": false
    },
    {
      "hash": "0x8bafa88d4b053d49e7293b666597811de3ce4e034d35f7f92c37306be0c3d9f6",
      "transactionType": "CALL",
      "contractName": null,
      "contractAddress": "0x00b036b58a818b1bc34d502d3fe730db729e62ac",
      "function": "initialize((address,address,uint24,int24,address),uint160)",
      "arguments": [
        "(0xcCBD848EbdCabC0d314Ad1612c2f3EdC8661403A, 0xddee9D13f6a4c824c94F349b5dd2fb651Bb7EDf6, 3000, 60, 0x6127Fe036B9cd6435404E56365f904167298C640)",
        "79228162514264337593543950336"
      ],
      "transaction": {
        "from": "0xc5b7b574ee84a9b59b475fe32eaf908c246d3859",
        "to": "0x00b036b58a818b1bc34d502d3fe730db729e62ac",
        "gas": "0x11721",
        "value": "0x0",
        "input": "0x6276cbbe000000000000000000000000ccbd848ebdcabc0d314ad1612c2f3edc8661403a000000000000000000000000ddee9d13f6a4c824c94f349b5dd2fb651bb7edf60000000000000000000000000000000000000000000000000000000000000bb8000000000000000000000000000000000000000000000000000000000000003c0000000000000000000000006127fe036b9cd6435404e56365f904167298c6400000000000000000000000000000000000000001000000000000000000000000",
        "nonce": "0x21e",
        "chainId": "0x515"
      },
      "additionalContracts": [],
      "isFixedGasLimit": false
    },
    {
      "hash": "0xe613ad66c8c13eed0d91b2b11ad2ff8c71d0aa34242645c796be97417c0aae7d",
      "transactionType": "CALL",
      "contractName": "TestToken",
      "contractAddress": "0xccbd848ebdcabc0d314ad1612c2f3edc8661403a",
      "function": "approve(address,uint256)",
      "arguments": [
        "0x5fa728C0A5cfd51BEe4B060773f50554c0C8A7AB",
        "10000000000000000000000"
      ],
      "transaction": {
        "from": "0xc5b7b574ee84a9b59b475fe32eaf908c246d3859",
        "to": "0xccbd848ebdcabc0d314ad1612c2f3edc8661403a",
        "gas": "0xa777",
        "value": "0x0",
        "input": "0x095ea7b30000000000000000000000005fa728c0a5cfd51bee4b060773f50554c0c8a7ab00000000000000000000000000000000000000000000021e19e0c9bab2400000",
        "nonce": "0x21f",
        "chainId": "0x515"
      },
      "additionalContracts": [],
      "isFixedGasLimit": false
    },
    {
      "hash": "0x88f115703e8d01ea12e355a95907f0d2e971cb852053e4f71ad9ad3328a646b4",
      "transactionType": "CALL",
      "contractName": "TestToken",
      "contractAddress": "0xddee9d13f6a4c824c94f349b5dd2fb651bb7edf6",
      "function": "approve(address,uint256)",
      "arguments": [
        "0x5fa728C0A5cfd51BEe4B060773f50554c0C8A7AB",
        "10000000000000000000000"
      ],
      "transaction": {
        "from": "0xc5b7b574ee84a9b59b475fe32eaf908c246d3859",
        "to": "0xddee9d13f6a4c824c94f349b5dd2fb651bb7edf6",
        "gas": "0xfa6c",
        "value": "0x0",
        "input": "0x095ea7b30000000000000000000000005fa728c0a5cfd51bee4b060773f50554c0c8a7ab00000000000000000000000000000000000000000000021e19e0c9bab2400000",
        "nonce": "0x220",
        "chainId": "0x515"
      },
      "additionalContracts": [],
      "isFixedGasLimit": false
    },
    {
      "hash": "0xf62cdf7551201905d6f2479cda98859dcb5763ebfaf3bc8b1d04927c313e2b47",
      "transactionType": "CALL",
      "contractName": null,
      "contractAddress": "0x5fa728c0a5cfd51bee4b060773f50554c0c8a7ab",
      "function": "modifyLiquidity((address,address,uint24,int24,address),(int24,int24,int256,bytes32),bytes)",
      "arguments": [
        "(0xcCBD848EbdCabC0d314Ad1612c2f3EdC8661403A, 0xddee9D13f6a4c824c94F349b5dd2fb651Bb7EDf6, 3000, 60, 0x6127Fe036B9cd6435404E56365f904167298C640)",
        "(-887220, 887220, 10000000000000000000000, 0x0000000000000000000000000000000000000000000000000000000000000000)",
        "0x"
      ],
      "transaction": {
        "from": "0xc5b7b574ee84a9b59b475fe32eaf908c246d3859",
        "to": "0x5fa728c0a5cfd51bee4b060773f50554c0c8a7ab",
        "gas": "0x75ed0",
        "value": "0x0",
        "input": "0x5a6bcfda000000000000000000000000ccbd848ebdcabc0d314ad1612c2f3edc8661403a000000000000000000000000ddee9d13f6a4c824c94f349b5dd2fb651bb7edf60000000000000000000000000000000000000000000000000000000000000bb8000000000000000000000000000000000000000000000000000000000000003c0000000000000000000000006127fe036b9cd6435404e56365f904167298c640fffffffffffffffffffffffffffffffffffffffffffffffffffffffffff2764c00000000000000000000000000000000000000000000000000000000000d89b400000000000000000000000000000000000000000000021e19e0c9bab2400000000000000000000000000000000000000000000000000000000000000000000000000000000000000000000000000000000000000000000000000000000001400000000000000000000000000000000000000000000000000000000000000000",
        "nonce": "0x221",
        "chainId": "0x515"
      },
      "additionalContracts": [],
      "isFixedGasLimit": false
    },
    {
      "hash": "0xa3b821695a1db33ce72985beee7ceaaa8345a32df310c70bc026766aacbf1479",
      "transactionType": "CALL",
      "contractName": null,
      "contractAddress": "0x00b036b58a818b1bc34d502d3fe730db729e62ac",
      "function": "initialize((address,address,uint24,int24,address),uint160)",
      "arguments": [
        "(0x12f835580bd0937D83eD07aB7FC00330BeBE3dB9, 0xcCBD848EbdCabC0d314Ad1612c2f3EdC8661403A, 3000, 60, 0x6127Fe036B9cd6435404E56365f904167298C640)",
        "79228162514264337593543950336"
      ],
      "transaction": {
        "from": "0xc5b7b574ee84a9b59b475fe32eaf908c246d3859",
        "to": "0x00b036b58a818b1bc34d502d3fe730db729e62ac",
        "gas": "0x11721",
        "value": "0x0",
        "input": "0x6276cbbe00000000000000000000000012f835580bd0937d83ed07ab7fc00330bebe3db9000000000000000000000000ccbd848ebdcabc0d314ad1612c2f3edc8661403a0000000000000000000000000000000000000000000000000000000000000bb8000000000000000000000000000000000000000000000000000000000000003c0000000000000000000000006127fe036b9cd6435404e56365f904167298c6400000000000000000000000000000000000000001000000000000000000000000",
        "nonce": "0x222",
        "chainId": "0x515"
      },
      "additionalContracts": [],
      "isFixedGasLimit": false
    },
    {
      "hash": "0x57c8d2ce19be34f5fb672ac00e4b337735af9a8ff73faa6b058413e279a3b3d5",
      "transactionType": "CALL",
      "contractName": "TestToken",
      "contractAddress": "0x12f835580bd0937d83ed07ab7fc00330bebe3db9",
      "function": "approve(address,uint256)",
      "arguments": [
        "0x5fa728C0A5cfd51BEe4B060773f50554c0C8A7AB",
        "10000000000000000000000"
      ],
      "transaction": {
        "from": "0xc5b7b574ee84a9b59b475fe32eaf908c246d3859",
        "to": "0x12f835580bd0937d83ed07ab7fc00330bebe3db9",
        "gas": "0xfa6c",
        "value": "0x0",
        "input": "0x095ea7b30000000000000000000000005fa728c0a5cfd51bee4b060773f50554c0c8a7ab00000000000000000000000000000000000000000000021e19e0c9bab2400000",
        "nonce": "0x223",
        "chainId": "0x515"
      },
      "additionalContracts": [],
      "isFixedGasLimit": false
    },
    {
      "hash": "0xc7142312acd1a7d4b209e52ae32c7ba90b48c014852c14303e2c1b934594fd69",
      "transactionType": "CALL",
      "contractName": "TestToken",
      "contractAddress": "0xccbd848ebdcabc0d314ad1612c2f3edc8661403a",
      "function": "approve(address,uint256)",
      "arguments": [
        "0x5fa728C0A5cfd51BEe4B060773f50554c0C8A7AB",
        "10000000000000000000000"
      ],
      "transaction": {
        "from": "0xc5b7b574ee84a9b59b475fe32eaf908c246d3859",
        "to": "0xccbd848ebdcabc0d314ad1612c2f3edc8661403a",
        "gas": "0xa777",
        "value": "0x0",
        "input": "0x095ea7b30000000000000000000000005fa728c0a5cfd51bee4b060773f50554c0c8a7ab00000000000000000000000000000000000000000000021e19e0c9bab2400000",
        "nonce": "0x224",
        "chainId": "0x515"
      },
      "additionalContracts": [],
      "isFixedGasLimit": false
    },
    {
      "hash": "0x9c302355cdd2f10359dae456c5a145bb1433171fc999eaf86a647b5686d01f95",
      "transactionType": "CALL",
      "contractName": null,
      "contractAddress": "0x5fa728c0a5cfd51bee4b060773f50554c0c8a7ab",
      "function": "modifyLiquidity((address,address,uint24,int24,address),(int24,int24,int256,bytes32),bytes)",
      "arguments": [
        "(0x12f835580bd0937D83eD07aB7FC00330BeBE3dB9, 0xcCBD848EbdCabC0d314Ad1612c2f3EdC8661403A, 3000, 60, 0x6127Fe036B9cd6435404E56365f904167298C640)",
        "(-887220, 887220, 10000000000000000000000, 0x0000000000000000000000000000000000000000000000000000000000000000)",
        "0x"
      ],
      "transaction": {
        "from": "0xc5b7b574ee84a9b59b475fe32eaf908c246d3859",
        "to": "0x5fa728c0a5cfd51bee4b060773f50554c0c8a7ab",
        "gas": "0x75ed0",
        "value": "0x0",
        "input": "0x5a6bcfda00000000000000000000000012f835580bd0937d83ed07ab7fc00330bebe3db9000000000000000000000000ccbd848ebdcabc0d314ad1612c2f3edc8661403a0000000000000000000000000000000000000000000000000000000000000bb8000000000000000000000000000000000000000000000000000000000000003c0000000000000000000000006127fe036b9cd6435404e56365f904167298c640fffffffffffffffffffffffffffffffffffffffffffffffffffffffffff2764c00000000000000000000000000000000000000000000000000000000000d89b400000000000000000000000000000000000000000000021e19e0c9bab2400000000000000000000000000000000000000000000000000000000000000000000000000000000000000000000000000000000000000000000000000000000001400000000000000000000000000000000000000000000000000000000000000000",
        "nonce": "0x225",
        "chainId": "0x515"
      },
      "additionalContracts": [],
      "isFixedGasLimit": false
    },
    {
      "hash": "0xd13ed4709610dbf081f7eb97ddf5d8fa0adaf710306121e2d5e3cffbfbc51668",
      "transactionType": "CALL",
      "contractName": null,
      "contractAddress": "0x00b036b58a818b1bc34d502d3fe730db729e62ac",
      "function": "initialize((address,address,uint24,int24,address),uint160)",
      "arguments": [
        "(0xa655A03EB74AB225e376d3d373691Cc50955fd37, 0xcCBD848EbdCabC0d314Ad1612c2f3EdC8661403A, 3000, 60, 0x6127Fe036B9cd6435404E56365f904167298C640)",
        "79228162514264337593543950336"
      ],
      "transaction": {
        "from": "0xc5b7b574ee84a9b59b475fe32eaf908c246d3859",
        "to": "0x00b036b58a818b1bc34d502d3fe730db729e62ac",
        "gas": "0x11721",
        "value": "0x0",
        "input": "0x6276cbbe000000000000000000000000a655a03eb74ab225e376d3d373691cc50955fd37000000000000000000000000ccbd848ebdcabc0d314ad1612c2f3edc8661403a0000000000000000000000000000000000000000000000000000000000000bb8000000000000000000000000000000000000000000000000000000000000003c0000000000000000000000006127fe036b9cd6435404e56365f904167298c6400000000000000000000000000000000000000001000000000000000000000000",
        "nonce": "0x226",
        "chainId": "0x515"
      },
      "additionalContracts": [],
      "isFixedGasLimit": false
    },
    {
      "hash": "0x482dde1ab072cd3b55a91c03800670987f7719cc0f6b3a1a313fac1056fbdfbd",
      "transactionType": "CALL",
      "contractName": "TestToken",
      "contractAddress": "0xa655a03eb74ab225e376d3d373691cc50955fd37",
      "function": "approve(address,uint256)",
      "arguments": [
        "0x5fa728C0A5cfd51BEe4B060773f50554c0C8A7AB",
        "10000000000000000000000"
      ],
      "transaction": {
        "from": "0xc5b7b574ee84a9b59b475fe32eaf908c246d3859",
        "to": "0xa655a03eb74ab225e376d3d373691cc50955fd37",
        "gas": "0xfa6c",
        "value": "0x0",
        "input": "0x095ea7b30000000000000000000000005fa728c0a5cfd51bee4b060773f50554c0c8a7ab00000000000000000000000000000000000000000000021e19e0c9bab2400000",
        "nonce": "0x227",
        "chainId": "0x515"
      },
      "additionalContracts": [],
      "isFixedGasLimit": false
    },
    {
      "hash": "0x711f7e85dd29f1b8cae4975fb03a68ac93db8dfec66a5d0fdc3dd33c57a56ef5",
      "transactionType": "CALL",
      "contractName": "TestToken",
      "contractAddress": "0xccbd848ebdcabc0d314ad1612c2f3edc8661403a",
      "function": "approve(address,uint256)",
      "arguments": [
        "0x5fa728C0A5cfd51BEe4B060773f50554c0C8A7AB",
        "10000000000000000000000"
      ],
      "transaction": {
        "from": "0xc5b7b574ee84a9b59b475fe32eaf908c246d3859",
        "to": "0xccbd848ebdcabc0d314ad1612c2f3edc8661403a",
        "gas": "0xa777",
        "value": "0x0",
        "input": "0x095ea7b30000000000000000000000005fa728c0a5cfd51bee4b060773f50554c0c8a7ab00000000000000000000000000000000000000000000021e19e0c9bab2400000",
        "nonce": "0x228",
        "chainId": "0x515"
      },
      "additionalContracts": [],
      "isFixedGasLimit": false
    },
    {
      "hash": "0x6a035efe72694ccc855b8d7b37cb8d4b13be68952cb27bef1603e624301fe289",
      "transactionType": "CALL",
      "contractName": null,
      "contractAddress": "0x5fa728c0a5cfd51bee4b060773f50554c0c8a7ab",
      "function": "modifyLiquidity((address,address,uint24,int24,address),(int24,int24,int256,bytes32),bytes)",
      "arguments": [
        "(0xa655A03EB74AB225e376d3d373691Cc50955fd37, 0xcCBD848EbdCabC0d314Ad1612c2f3EdC8661403A, 3000, 60, 0x6127Fe036B9cd6435404E56365f904167298C640)",
        "(-887220, 887220, 10000000000000000000000, 0x0000000000000000000000000000000000000000000000000000000000000000)",
        "0x"
      ],
      "transaction": {
        "from": "0xc5b7b574ee84a9b59b475fe32eaf908c246d3859",
        "to": "0x5fa728c0a5cfd51bee4b060773f50554c0c8a7ab",
        "gas": "0x75ed0",
        "value": "0x0",
        "input": "0x5a6bcfda000000000000000000000000a655a03eb74ab225e376d3d373691cc50955fd37000000000000000000000000ccbd848ebdcabc0d314ad1612c2f3edc8661403a0000000000000000000000000000000000000000000000000000000000000bb8000000000000000000000000000000000000000000000000000000000000003c0000000000000000000000006127fe036b9cd6435404e56365f904167298c640fffffffffffffffffffffffffffffffffffffffffffffffffffffffffff2764c00000000000000000000000000000000000000000000000000000000000d89b400000000000000000000000000000000000000000000021e19e0c9bab2400000000000000000000000000000000000000000000000000000000000000000000000000000000000000000000000000000000000000000000000000000000001400000000000000000000000000000000000000000000000000000000000000000",
        "nonce": "0x229",
        "chainId": "0x515"
      },
      "additionalContracts": [],
      "isFixedGasLimit": false
    }
  ],
  "receipts": [
    {
      "status": "0x1",
      "cumulativeGasUsed": "0x1343db",
      "logs": [
        {
          "address": "0xccbd848ebdcabc0d314ad1612c2f3edc8661403a",
          "topics": [
            "0xddf252ad1be2c89b69c2b068fc378daa952ba7f163c4a11628f55a4df523b3ef",
            "0x0000000000000000000000000000000000000000000000000000000000000000",
            "0x000000000000000000000000c5b7b574ee84a9b59b475fe32eaf908c246d3859"
          ],
          "data": "0x00000000000000000000000000000000000000000000d3c21bcecceda1000000",
          "blockHash": "0x72050aed5506e2f34cb892eaac93ea607c99d4e625201ce0b1c530e957dca1a8",
          "blockNumber": "0x2d88908",
          "blockTimestamp": "0x69c63654",
          "transactionHash": "0xb8f9e91d05ac66637a525ea8b6eb6bffe6865a64e58f0b357750d082d855f410",
          "transactionIndex": "0x8",
          "logIndex": "0x9",
          "removed": false
        }
      ],
      "logsBloom": "0x00000000000020000000000000000000000000000000000000000000000000000000000000000000000000000000000000000000000000004000000000000000000000000000000000000008000000000000000000000000000000000000000000000000020000000000000000000800000000000000000000000010000000000000000000000000000000000000000000000000000000000080000000000000000000000000000000000000000000004000000000000000000000000000000040080002000000000000000000000000000000000000000000000000000020000000000000000000000000000000000000000000000000000000000000000000",
      "type": "0x2",
      "transactionHash": "0xb8f9e91d05ac66637a525ea8b6eb6bffe6865a64e58f0b357750d082d855f410",
      "transactionIndex": "0x8",
      "blockHash": "0x72050aed5506e2f34cb892eaac93ea607c99d4e625201ce0b1c530e957dca1a8",
      "blockNumber": "0x2d88908",
      "gasUsed": "0x8bc19",
      "effectiveGasPrice": "0x7a121",
      "blobGasUsed": "0xabe00",
      "from": "0xc5b7b574ee84a9b59b475fe32eaf908c246d3859",
      "to": null,
      "contractAddress": "0xccbd848ebdcabc0d314ad1612c2f3edc8661403a",
      "daFootprintGasScalar": "0x190",
      "l1BaseFeeScalar": "0x7d0",
      "l1BlobBaseFee": "0x1",
      "l1BlobBaseFeeScalar": "0xdbba0",
      "l1Fee": "0xb3f",
      "l1GasPrice": "0x17",
      "l1GasUsed": "0x6e01"
    },
    {
      "status": "0x1",
      "cumulativeGasUsed": "0xfeda4",
      "logs": [
        {
          "address": "0xc3ed1487ef25930a19e4371dd1ef831703582f21",
          "topics": [
            "0xddf252ad1be2c89b69c2b068fc378daa952ba7f163c4a11628f55a4df523b3ef",
            "0x0000000000000000000000000000000000000000000000000000000000000000",
            "0x000000000000000000000000c5b7b574ee84a9b59b475fe32eaf908c246d3859"
          ],
          "data": "0x00000000000000000000000000000000000000000000d3c21bcecceda1000000",
          "blockHash": "0xbb818572023fc36e510c653952d45f7ab308f11ce8e98bad926cff36e76761be",
          "blockNumber": "0x2d8890b",
          "blockTimestamp": "0x69c63657",
          "transactionHash": "0x6c0fb2750b1f9b38843594941e0a5f599b68e29f6d6f9625fb9fa8ef8a195277",
          "transactionIndex": "0x6",
          "logIndex": "0x5",
          "removed": false
        }
      ],
      "logsBloom": "0x00000000000000000000000000000000000000000000000000000000000000000000000000000000000000000000000000000000000000000000000000000000000000000000000000000008000000000000000000000000000000000000000000000000020000000000000000000800000000000000000000000010000004000000000000000000000000000000000000000000000000000080000000000000000000000000000000000000000000004000000000000000000000000000000000080002000000000000000000000000000000000000000000000000000020000100000000000008000000000000000000000000000000000000000000000000",
      "type": "0x2",
      "transactionHash": "0x6c0fb2750b1f9b38843594941e0a5f599b68e29f6d6f9625fb9fa8ef8a195277",
      "transactionIndex": "0x6",
      "blockHash": "0xbb818572023fc36e510c653952d45f7ab308f11ce8e98bad926cff36e76761be",
      "blockNumber": "0x2d8890b",
      "gasUsed": "0x8bc3d",
      "effectiveGasPrice": "0x7a121",
      "blobGasUsed": "0xac8f0",
      "from": "0xc5b7b574ee84a9b59b475fe32eaf908c246d3859",
      "to": null,
      "contractAddress": "0xc3ed1487ef25930a19e4371dd1ef831703582f21",
      "daFootprintGasScalar": "0x190",
      "l1BaseFeeScalar": "0x7d0",
      "l1BlobBaseFee": "0x1",
      "l1BlobBaseFeeScalar": "0xdbba0",
      "l1Fee": "0xb4b",
      "l1GasPrice": "0x17",
      "l1GasUsed": "0x6e79"
    },
    {
      "status": "0x1",
      "cumulativeGasUsed": "0xca643",
      "logs": [
        {
          "address": "0x2709a27b939f8c81143574353f6396d9e53491c8",
          "topics": [
            "0xddf252ad1be2c89b69c2b068fc378daa952ba7f163c4a11628f55a4df523b3ef",
            "0x0000000000000000000000000000000000000000000000000000000000000000",
            "0x000000000000000000000000c5b7b574ee84a9b59b475fe32eaf908c246d3859"
          ],
          "data": "0x00000000000000000000000000000000000000000000d3c21bcecceda1000000",
          "blockHash": "0x0000000000000000000000000000000000000000000000000000000000000000",
          "blockNumber": "0x2d8890f",
          "blockTimestamp": "0x69c6365b",
          "transactionHash": "0xd1ced6f3cfe59544777ddb5783686c025c032e4df15a28fe260643d900237295",
          "transactionIndex": "0x4",
          "logIndex": "0x2",
          "removed": false
        }
      ],
      "logsBloom": "0x00000000000000000000000000000000000000000000000000000000000000000000000020000000000000000000000000000000000000000000000000000000000000000000000000000008000000000000000000000000000000000000000000000000020000000000000000000800000000000000000000000010000000000000000000000000000000000000000000000000000000000080000000000000000000000000000100000000000000004000000000000000000000000000000000080002000000000000000000000000000000000000000000000000000020000000000000000000000000000000040000000000000000000000000000000000",
      "type": "0x2",
      "transactionHash": "0xd1ced6f3cfe59544777ddb5783686c025c032e4df15a28fe260643d900237295",
      "transactionIndex": "0x4",
      "blockHash": "0x0000000000000000000000000000000000000000000000000000000000000000",
      "blockNumber": "0x2d8890f",
      "gasUsed": "0x8bc31",
      "effectiveGasPrice": "0x7a121",
      "blobGasUsed": "0xac760",
      "from": "0xc5b7b574ee84a9b59b475fe32eaf908c246d3859",
      "to": null,
      "contractAddress": "0x2709a27b939f8c81143574353f6396d9e53491c8",
      "daFootprintGasScalar": "0x190",
      "l1BaseFeeScalar": "0x7d0",
      "l1BlobBaseFee": "0x1",
      "l1BlobBaseFeeScalar": "0xdbba0",
      "l1Fee": "0xe3",
      "l1GasPrice": "0x17",
      "l1GasUsed": "0x6e6c"
    },
    {
      "status": "0x1",
      "cumulativeGasUsed": "0xe168d",
      "logs": [
        {
          "address": "0xddee9d13f6a4c824c94f349b5dd2fb651bb7edf6",
          "topics": [
            "0xddf252ad1be2c89b69c2b068fc378daa952ba7f163c4a11628f55a4df523b3ef",
            "0x0000000000000000000000000000000000000000000000000000000000000000",
            "0x000000000000000000000000c5b7b574ee84a9b59b475fe32eaf908c246d3859"
          ],
          "data": "0x00000000000000000000000000000000000000000000d3c21bcecceda1000000",
          "blockHash": "0xc3bc3c561997512b93341f922f50e5a6d0aa9640b56f597232b1127e0d782e9c",
          "blockNumber": "0x2d88913",
          "blockTimestamp": "0x69c6365f",
          "transactionHash": "0xe14d12bdb86cc21cffaa2cfff29af8faf6711384ed23521ee85dd224b0e714e4",
          "transactionIndex": "0x5",
          "logIndex": "0x3",
          "removed": false
        }
      ],
      "logsBloom": "0x00000000000000000000000000000000000000000000000000000000000000000000000000000000000000000000000000000000000000000000000000000000000000000000000000000008000000000000000000000000000000000000000000000000020040000000000000000800000000000000000000000010000000000000000000000000000000000000000000000000000000000080000000000000000000000000000000000000000000004000000000000000000010000000000000080002000000800000000000000000000000000000000000000000000020000000000000000000000000000000000000000000000000000000000000000000",
      "type": "0x2",
      "transactionHash": "0xe14d12bdb86cc21cffaa2cfff29af8faf6711384ed23521ee85dd224b0e714e4",
      "transactionIndex": "0x5",
      "blockHash": "0xc3bc3c561997512b93341f922f50e5a6d0aa9640b56f597232b1127e0d782e9c",
      "blockNumber": "0x2d88913",
      "gasUsed": "0x8bc49",
      "effectiveGasPrice": "0x7a121",
      "blobGasUsed": "0xaca80",
      "from": "0xc5b7b574ee84a9b59b475fe32eaf908c246d3859",
      "to": null,
      "contractAddress": "0xddee9d13f6a4c824c94f349b5dd2fb651bb7edf6",
      "daFootprintGasScalar": "0x190",
      "l1BaseFeeScalar": "0x7d0",
      "l1BlobBaseFee": "0x2",
      "l1BlobBaseFeeScalar": "0xdbba0",
      "l1Fee": "0x1184",
      "l1GasPrice": "0x17",
      "l1GasUsed": "0x6e86"
    },
    {
      "status": "0x1",
      "cumulativeGasUsed": "0x1813aa",
      "logs": [
        {
          "address": "0x12f835580bd0937d83ed07ab7fc00330bebe3db9",
          "topics": [
            "0xddf252ad1be2c89b69c2b068fc378daa952ba7f163c4a11628f55a4df523b3ef",
            "0x0000000000000000000000000000000000000000000000000000000000000000",
            "0x000000000000000000000000c5b7b574ee84a9b59b475fe32eaf908c246d3859"
          ],
          "data": "0x00000000000000000000000000000000000000000000d3c21bcecceda1000000",
          "blockHash": "0xf60b956dd968a65fd4a180fbede96e07402afd879b5046d3265a5ae3c4bc265e",
          "blockNumber": "0x2d88918",
          "blockTimestamp": "0x69c63664",
          "transactionHash": "0xbaca3339a04e0f86705b27552b13af621ecd6fa3a1d3be558e0012ac22f7faf4",
          "transactionIndex": "0x7",
          "logIndex": "0xd",
          "removed": false
        }
      ],
      "logsBloom": "0x00000000000000000000000000000000000000000000000000000000040000000000000000000000000000000000000000000000000000000000000000000000000000000000000000000008000000000000000000000000000000000000000000000000020000000000000000000800000000000000000000000010000000000000000000000000000000000000000000000000000000000080000000000000000000000000000000000000000000004000000000000000000000000000000000080002000000000800000000000000000000000000000000040000000020000000000000000000000000000000000000000000000000000000000000000000",
      "type": "0x2",
      "transactionHash": "0xbaca3339a04e0f86705b27552b13af621ecd6fa3a1d3be558e0012ac22f7faf4",
      "transactionIndex": "0x7",
      "blockHash": "0xf60b956dd968a65fd4a180fbede96e07402afd879b5046d3265a5ae3c4bc265e",
      "blockNumber": "0x2d88918",
      "gasUsed": "0x8bc19",
      "effectiveGasPrice": "0x7a121",
      "blobGasUsed": "0xac5d0",
      "from": "0xc5b7b574ee84a9b59b475fe32eaf908c246d3859",
      "to": null,
      "contractAddress": "0x12f835580bd0937d83ed07ab7fc00330bebe3db9",
      "daFootprintGasScalar": "0x190",
      "l1BaseFeeScalar": "0x7d0",
      "l1BlobBaseFee": "0x2",
      "l1BlobBaseFeeScalar": "0xdbba0",
      "l1Fee": "0x117c",
      "l1GasPrice": "0x17",
      "l1GasUsed": "0x6e51"
    },
    {
      "status": "0x1",
      "cumulativeGasUsed": "0xca643",
      "logs": [
        {
          "address": "0xa655a03eb74ab225e376d3d373691cc50955fd37",
          "topics": [
            "0xddf252ad1be2c89b69c2b068fc378daa952ba7f163c4a11628f55a4df523b3ef",
            "0x0000000000000000000000000000000000000000000000000000000000000000",
            "0x000000000000000000000000c5b7b574ee84a9b59b475fe32eaf908c246d3859"
          ],
          "data": "0x00000000000000000000000000000000000000000000d3c21bcecceda1000000",
          "blockHash": "0x0000000000000000000000000000000000000000000000000000000000000000",
          "blockNumber": "0x2d8891b",
          "blockTimestamp": "0x69c63667",
          "transactionHash": "0x0f650f090c480a5cc115e05c6d99cbb19729f70546c03e52845c4a34c097761f",
          "transactionIndex": "0x4",
          "logIndex": "0x2",
          "removed": false
        }
      ],
      "logsBloom": "0x00000000000000000000000000000000000000000000000000000000000002000000000000000000000000000000000000000000000000000000000000000000000000000000000000000008000000000000000000000000000000000000000000000000020000000000000000000800000000000000000000000010000000000000000000000000000000000000000000000000000000000080000008000000000000000000000000000000000000004000000000000000000000000000000000080002000000000000000000000000000000000000000000000000000022000000000000000000000000000000000000000000000000000000000000000000",
      "type": "0x2",
      "transactionHash": "0x0f650f090c480a5cc115e05c6d99cbb19729f70546c03e52845c4a34c097761f",
      "transactionIndex": "0x4",
      "blockHash": "0x0000000000000000000000000000000000000000000000000000000000000000",
      "blockNumber": "0x2d8891b",
      "gasUsed": "0x8bc31",
      "effectiveGasPrice": "0x7a121",
      "blobGasUsed": "0xac760",
      "from": "0xc5b7b574ee84a9b59b475fe32eaf908c246d3859",
      "to": null,
      "contractAddress": "0xa655a03eb74ab225e376d3d373691cc50955fd37",
      "daFootprintGasScalar": "0x190",
      "l1BaseFeeScalar": "0x7d0",
      "l1BlobBaseFee": "0x2",
      "l1BlobBaseFeeScalar": "0xdbba0",
      "l1Fee": "0x160",
      "l1GasPrice": "0x17",
      "l1GasUsed": "0x6e6c"
    },
    {
      "status": "0x1",
      "cumulativeGasUsed": "0x5ac4c",
      "logs": [],
      "logsBloom": "0x00000000000000000000000000000000000000000000000000000000000000000000000000000000000000000000000000000000000000000000000000000000000000000000000000000000000000000000000000000000000000000000000000000000000000000000000000000000000000000000000000000000000000000000000000000000000000000000000000000000000000000000000000000000000000000000000000000000000000000000000000000000000000000000000000000000000000000000000000000000000000000000000000000000000000000000000000000000000000000000000000000000000000000000000000000000",
      "type": "0x2",
      "transactionHash": "0xa9ebe397f59480ef98fde80ae34233c6a39045046ce5eb2dfdcb1ae13f3044ea",
      "transactionIndex": "0x5",
      "blockHash": "0x3f7616eb9ceaf6e081670def51b09e56f1d394885e38d7e75fc5a7410a6121fb",
      "blockNumber": "0x2d88920",
      "gasUsed": "0x5208",
      "effectiveGasPrice": "0x7a121",
      "blobGasUsed": "0x9c40",
      "from": "0xc5b7b574ee84a9b59b475fe32eaf908c246d3859",
      "to": "0x7aee07658d3f3e714627f35dae1a5a817849c713",
      "contractAddress": null,
      "daFootprintGasScalar": "0x190",
      "l1BaseFeeScalar": "0x7d0",
      "l1BlobBaseFee": "0x2",
      "l1BlobBaseFeeScalar": "0xdbba0",
      "l1Fee": "0xfd",
      "l1GasPrice": "0x17",
      "l1GasUsed": "0x640"
    },
    {
      "status": "0x1",
      "cumulativeGasUsed": "0x5ac64",
      "logs": [],
      "logsBloom": "0x00000000000000000000000000000000000000000000000000000000000000000000000000000000000000000000000000000000000000000000000000000000000000000000000000000000000000000000000000000000000000000000000000000000000000000000000000000000000000000000000000000000000000000000000000000000000000000000000000000000000000000000000000000000000000000000000000000000000000000000000000000000000000000000000000000000000000000000000000000000000000000000000000000000000000000000000000000000000000000000000000000000000000000000000000000000",
      "type": "0x2",
      "transactionHash": "0x0ec1b73f74eec26bf5ef5abd2fb8616de5abc2f3ab1a0dc527f7145494c21872",
      "transactionIndex": "0x5",
      "blockHash": "0x4472ccc97128b2da9f9d09b16d505cc8fce429076d6d9dc3d3718ccd4b576bdd",
      "blockNumber": "0x2d88924",
      "gasUsed": "0x5208",
      "effectiveGasPrice": "0x7a121",
      "blobGasUsed": "0x9c40",
      "from": "0xc5b7b574ee84a9b59b475fe32eaf908c246d3859",
      "to": "0xaf6b00cb33138464cda3b017f8963c6cafaf4871",
      "contractAddress": null,
      "daFootprintGasScalar": "0x190",
      "l1BaseFeeScalar": "0x7d0",
      "l1BlobBaseFee": "0x2",
      "l1BlobBaseFeeScalar": "0xdbba0",
      "l1Fee": "0xfd",
      "l1GasPrice": "0x17",
      "l1GasUsed": "0x640"
    },
    {
      "status": "0x1",
      "cumulativeGasUsed": "0x43c32",
      "logs": [],
      "logsBloom": "0x00000000000000000000000000000000000000000000000000000000000000000000000000000000000000000000000000000000000000000000000000000000000000000000000000000000000000000000000000000000000000000000000000000000000000000000000000000000000000000000000000000000000000000000000000000000000000000000000000000000000000000000000000000000000000000000000000000000000000000000000000000000000000000000000000000000000000000000000000000000000000000000000000000000000000000000000000000000000000000000000000000000000000000000000000000000",
      "type": "0x2",
      "transactionHash": "0x25d7b098177c73563cf137d38cb65716ee43b4ee664e6f0d8febb83769d333ae",
      "transactionIndex": "0x4",
      "blockHash": "0x0000000000000000000000000000000000000000000000000000000000000000",
      "blockNumber": "0x2d88928",
      "gasUsed": "0x5208",
      "effectiveGasPrice": "0x7a121",
      "blobGasUsed": "0x9c40",
      "from": "0xc5b7b574ee84a9b59b475fe32eaf908c246d3859",
      "to": "0x9fc3d9a5f5c436336586bf7be37d1e89c05c4bd9",
      "contractAddress": null,
      "daFootprintGasScalar": "0x190",
      "l1BaseFeeScalar": "0x7d0",
      "l1BlobBaseFee": "0x2",
      "l1BlobBaseFeeScalar": "0xdbba0",
      "l1Fee": "0x160",
      "l1GasPrice": "0x17",
      "l1GasUsed": "0x640"
    },
    {
      "status": "0x1",
      "cumulativeGasUsed": "0x2cc00",
      "logs": [],
      "logsBloom": "0x00000000000000000000000000000000000000000000000000000000000000000000000000000000000000000000000000000000000000000000000000000000000000000000000000000000000000000000000000000000000000000000000000000000000000000000000000000000000000000000000000000000000000000000000000000000000000000000000000000000000000000000000000000000000000000000000000000000000000000000000000000000000000000000000000000000000000000000000000000000000000000000000000000000000000000000000000000000000000000000000000000000000000000000000000000000",
      "type": "0x2",
      "transactionHash": "0xb5373bbbad15fc4b7f365d5e90037af788858f8086f70a3d7661d380f1a97bec",
      "transactionIndex": "0x3",
      "blockHash": "0x0000000000000000000000000000000000000000000000000000000000000000",
      "blockNumber": "0x2d8892b",
      "gasUsed": "0x5208",
      "effectiveGasPrice": "0x7a121",
      "blobGasUsed": "0x9c40",
      "from": "0xc5b7b574ee84a9b59b475fe32eaf908c246d3859",
      "to": "0x7819c1c15bd54a50e360a9b0cac9f796eedd770e",
      "contractAddress": null,
      "daFootprintGasScalar": "0x190",
      "l1BaseFeeScalar": "0x7d0",
      "l1BlobBaseFee": "0x1",
      "l1BlobBaseFeeScalar": "0xdbba0",
      "l1Fee": "0xde",
      "l1GasPrice": "0x16",
      "l1GasUsed": "0x640"
    },
    {
      "status": "0x1",
      "cumulativeGasUsed": "0xbc853",
      "logs": [],
      "logsBloom": "0x00000000000000000000000000000000000000000000000000000000000000000000000000000000000000000000000000000000000000000000000000000000000000000000000000000000000000000000000000000000000000000000000000000000000000000000000000000000000000000000000000000000000000000000000000000000000000000000000000000000000000000000000000000000000000000000000000000000000000000000000000000000000000000000000000000000000000000000000000000000000000000000000000000000000000000000000000000000000000000000000000000000000000000000000000000000",
      "type": "0x2",
      "transactionHash": "0x85d5187cf373af6831f1c53a8963bdd50a45cfe0379eed4db847b4cefd2609a8",
      "transactionIndex": "0x5",
      "blockHash": "0x0000000000000000000000000000000000000000000000000000000000000000",
      "blockNumber": "0x2d8892f",
      "gasUsed": "0x5208",
      "effectiveGasPrice": "0x7a121",
      "blobGasUsed": "0x9c40",
      "from": "0xc5b7b574ee84a9b59b475fe32eaf908c246d3859",
      "to": "0x0a225822d948f4788568ebcf658ff1b85791af82",
      "contractAddress": null,
      "daFootprintGasScalar": "0x190",
      "l1BaseFeeScalar": "0x7d0",
      "l1BlobBaseFee": "0x1",
      "l1BlobBaseFeeScalar": "0xdbba0",
      "l1Fee": "0xde",
      "l1GasPrice": "0x16",
      "l1GasUsed": "0x640"
    },
    {
      "status": "0x1",
      "cumulativeGasUsed": "0x9fddc",
      "logs": [
        {
          "address": "0x6127fe036b9cd6435404e56365f904167298c640",
          "topics": [
            "0xa9607daa15b38519ee13f233d15e0ce03053729aa1f43ef57d862b7ea6a6967a",
            "0x0000000000000000000000007aee07658d3f3e714627f35dae1a5a817849c713",
            "0x000000000000000000000000c3ed1487ef25930a19e4371dd1ef831703582f21",
            "0x94d41341aaa7675233d521b8c9702a9a80b38c94d19ddebd9c0fdd6c2a3b6878"
          ],
          "data": "0x",
          "blockHash": "0x1366ddc49cd5e1cd08aa9a631757b08f660f281daf635fc367e168b1071db926",
          "blockNumber": "0x2d88930",
          "blockTimestamp": "0x69c6367c",
          "transactionHash": "0x2b3ad5ece8b91a982e7cd1dbcd9369d4b8e24ca6b219ab455af5aea83191754d",
          "transactionIndex": "0x5",
          "logIndex": "0x3",
          "removed": false
        }
      ],
      "logsBloom": "0x00000000000000000000000000000000000000000000000000000000000000000000000000000000000000000000000000000000000000000000000000000000000000000000000040000000200000000000000000000000000000000000000000010000000080000000000000000000000000200000000000000000000000000004000000000000000000002000000000000000000000000000000000001000000000000000000000000000000000000000000000000000000000000000000000200000000000000000000000000000000000000000000002000000000000000000080008000000000000000000000000000000000200040000004000000000",
      "type": "0x2",
      "transactionHash": "0x2b3ad5ece8b91a982e7cd1dbcd9369d4b8e24ca6b219ab455af5aea83191754d",
      "transactionIndex": "0x5",
      "blockHash": "0x1366ddc49cd5e1cd08aa9a631757b08f660f281daf635fc367e168b1071db926",
      "blockNumber": "0x2d88930",
      "gasUsed": "0x4a398",
      "effectiveGasPrice": "0x7a121",
      "blobGasUsed": "0xf230",
      "from": "0x7aee07658d3f3e714627f35dae1a5a817849c713",
      "to": "0x6127fe036b9cd6435404e56365f904167298c640",
      "contractAddress": null,
      "daFootprintGasScalar": "0x190",
      "l1BaseFeeScalar": "0x7d0",
      "l1BlobBaseFee": "0x1",
      "l1BlobBaseFeeScalar": "0xdbba0",
      "l1Fee": "0xf9",
      "l1GasPrice": "0x16",
      "l1GasUsed": "0x9ba"
    },
    {
      "status": "0x1",
      "cumulativeGasUsed": "0xcde28",
      "logs": [
        {
          "address": "0x6127fe036b9cd6435404e56365f904167298c640",
          "topics": [
            "0xa9607daa15b38519ee13f233d15e0ce03053729aa1f43ef57d862b7ea6a6967a",
            "0x000000000000000000000000af6b00cb33138464cda3b017f8963c6cafaf4871",
            "0x0000000000000000000000002709a27b939f8c81143574353f6396d9e53491c8",
            "0x495cefb7efc345575abd893fb7574a6d1118739bcbb8c5c16f9b098ee0a3d2c7"
          ],
          "data": "0x",
          "blockHash": "0x04d4bb5820c21cf4fa0fbfecd6a37e75871c01da56f306daade0183548edeb3f",
          "blockNumber": "0x2d88931",
          "blockTimestamp": "0x69c6367d",
          "transactionHash": "0xa049e3a2e17912438f26eb585a69fbb45390a37e210e04b0be229c1efb9d631a",
          "transactionIndex": "0x7",
          "logIndex": "0x5",
          "removed": false
        }
      ],
      "logsBloom": "0x00000000000000000000000000000000000000040000100000000000000000000000000000000000000000000000020000000000000100000000000000000000000000000010000040000000000000000000000000000000000000000000000000010000000080000000000008000000000000000000000000000000000000000000000000000040000000000000000000000000000000000000000000001000000000000000000000000000000000000000000000000000000000000000000000000000000000000000000000000000000000000000000000000000000000200000080000000000000000000000002000000000000200000000000000000000",
      "type": "0x2",
      "transactionHash": "0xa049e3a2e17912438f26eb585a69fbb45390a37e210e04b0be229c1efb9d631a",
      "transactionIndex": "0x7",
      "blockHash": "0x04d4bb5820c21cf4fa0fbfecd6a37e75871c01da56f306daade0183548edeb3f",
      "blockNumber": "0x2d88931",
      "gasUsed": "0x4a38c",
      "effectiveGasPrice": "0x7a121",
      "blobGasUsed": "0xef10",
      "from": "0xaf6b00cb33138464cda3b017f8963c6cafaf4871",
      "to": "0x6127fe036b9cd6435404e56365f904167298c640",
      "contractAddress": null,
      "daFootprintGasScalar": "0x190",
      "l1BaseFeeScalar": "0x7d0",
      "l1BlobBaseFee": "0x1",
      "l1BlobBaseFeeScalar": "0xdbba0",
      "l1Fee": "0xf7",
      "l1GasPrice": "0x16",
      "l1GasUsed": "0x99f"
    },
    {
      "status": "0x1",
      "cumulativeGasUsed": "0x71d6c",
      "logs": [
        {
          "address": "0x6127fe036b9cd6435404e56365f904167298c640",
          "topics": [
            "0xa9607daa15b38519ee13f233d15e0ce03053729aa1f43ef57d862b7ea6a6967a",
            "0x0000000000000000000000009fc3d9a5f5c436336586bf7be37d1e89c05c4bd9",
            "0x000000000000000000000000ddee9d13f6a4c824c94f349b5dd2fb651bb7edf6",
            "0xd26c3dd7535e687930ee40b21070bb09ddf0157f8dc485ce512d8a4c92379f1b"
          ],
          "data": "0x",
          "blockHash": "0x6802f0e6958eb59bc3b307e764df0cebdec4651e132b4cef19202e320519b98b",
          "blockNumber": "0x2d88933",
          "blockTimestamp": "0x69c6367f",
          "transactionHash": "0x5e9ed4b2807afd92202534e44fe60bf4a623453fa876bc2a4564d280855d617d",
          "transactionIndex": "0x3",
          "logIndex": "0x1",
          "removed": false
        }
      ],
      "logsBloom": "0x00000000000000000000000000100000000000000000000000000000020000000000000000000000000000000008000000000000000000004000002000000000000020000000000040000000000000000000000000000000000020000000000000010000000080000000000000000000000000000000000000000000000000000000000000000000000000000000000000000000000000000000000000001000400000000000000000000008000000000000000000000000000000000000000000000000000000000000000000000000000000000000000000000000000000000000080000000000000000000000000000000000000200000000000000000000",
      "type": "0x2",
      "transactionHash": "0x5e9ed4b2807afd92202534e44fe60bf4a623453fa876bc2a4564d280855d617d",
      "transactionIndex": "0x3",
      "blockHash": "0x6802f0e6958eb59bc3b307e764df0cebdec4651e132b4cef19202e320519b98b",
      "blockNumber": "0x2d88933",
      "gasUsed": "0x4a38c",
      "effectiveGasPrice": "0x7a121",
      "blobGasUsed": "0xef10",
      "from": "0x9fc3d9a5f5c436336586bf7be37d1e89c05c4bd9",
      "to": "0x6127fe036b9cd6435404e56365f904167298c640",
      "contractAddress": null,
      "daFootprintGasScalar": "0x190",
      "l1BaseFeeScalar": "0x7d0",
      "l1BlobBaseFee": "0x1",
      "l1BlobBaseFeeScalar": "0xdbba0",
      "l1Fee": "0xf7",
      "l1GasPrice": "0x16",
      "l1GasUsed": "0x99f"
    },
    {
      "status": "0x1",
      "cumulativeGasUsed": "0xb6e02",
      "logs": [
        {
          "address": "0x6127fe036b9cd6435404e56365f904167298c640",
          "topics": [
            "0xa9607daa15b38519ee13f233d15e0ce03053729aa1f43ef57d862b7ea6a6967a",
            "0x0000000000000000000000007819c1c15bd54a50e360a9b0cac9f796eedd770e",
            "0x00000000000000000000000012f835580bd0937d83ed07ab7fc00330bebe3db9",
            "0x71ada5ab3372c869764973261cb8119bc4f7024998abe85ef6f2436fcaaea3b5"
          ],
          "data": "0x",
          "blockHash": "0x5e3ec8f8d3a43f0bf9961a4b4e646db6b29519129e99ccfd25501464ae9bce8d",
          "blockNumber": "0x2d88934",
          "blockTimestamp": "0x69c63680",
          "transactionHash": "0xd650be98476205c2ece5da36d94d44302d8ca756f7534898d28e5c62d14146f1",
          "transactionIndex": "0x6",
          "logIndex": "0x4",
          "removed": false
        }
      ],
      "logsBloom": "0x00000000000000100000000000000000000000000000000000000000000000000000000800000000000000000000000000000000000000400000000000000000000000000000000040000000000000000000000000000000000000000000000000010000000080000040000000000000000000000000000000000000001000000000000800000000000000000000000000000000000000000000000000001000000000400000000000000000000000000000000000000000000000000000000000000000000000000000000000000000000000000000000000000000000000000000080000000004000000000000000000000000000200000000000000002000",
      "type": "0x2",
      "transactionHash": "0xd650be98476205c2ece5da36d94d44302d8ca756f7534898d28e5c62d14146f1",
      "transactionIndex": "0x6",
      "blockHash": "0x5e3ec8f8d3a43f0bf9961a4b4e646db6b29519129e99ccfd25501464ae9bce8d",
      "blockNumber": "0x2d88934",
      "gasUsed": "0x4a38c",
      "effectiveGasPrice": "0x7a121",
      "blobGasUsed": "0xdf70",
      "from": "0x7819c1c15bd54a50e360a9b0cac9f796eedd770e",
      "to": "0x6127fe036b9cd6435404e56365f904167298c640",
      "contractAddress": null,
      "daFootprintGasScalar": "0x190",
      "l1BaseFeeScalar": "0x7d0",
      "l1BlobBaseFee": "0x1",
      "l1BlobBaseFeeScalar": "0xdbba0",
      "l1Fee": "0xe5",
      "l1GasPrice": "0x16",
      "l1GasUsed": "0x8f1"
    },
    {
      "status": "0x1",
      "cumulativeGasUsed": "0x7334c",
      "logs": [
        {
          "address": "0x6127fe036b9cd6435404e56365f904167298c640",
          "topics": [
            "0xa9607daa15b38519ee13f233d15e0ce03053729aa1f43ef57d862b7ea6a6967a",
            "0x0000000000000000000000000a225822d948f4788568ebcf658ff1b85791af82",
            "0x000000000000000000000000a655a03eb74ab225e376d3d373691cc50955fd37",
            "0x65bd407cdfa56292f3b062032458180b71ce5f003082050d45c8f74f565f956d"
          ],
          "data": "0x",
          "blockHash": "0x0000000000000000000000000000000000000000000000000000000000000000",
          "blockNumber": "0x2d88936",
          "blockTimestamp": "0x69c63682",
          "transactionHash": "0xdc33d3a2b29ae679e460613ba607a76d8ac66531e1ab0f804cd6e27bdb1d19f6",
          "transactionIndex": "0x3",
          "logIndex": "0x1",
          "removed": false
        }
      ],
      "logsBloom": "0x00000000000080000000000000000000000000000000000000000000000000000000000000000000000000000000000000000000000000000000000000000000000000000000000040020000000000000000000000000000000000010000000000010000000080000000000000000000000000000000000000000000000000000000000000000000000000000000000000000000000000000000004000001000000000000000000000000000000000000000000000000000000021000000010000008000000000000000000000000000000000000000000000000000000000000000080000010000000000000000000000000000000200000000000000000000",
      "type": "0x2",
      "transactionHash": "0xdc33d3a2b29ae679e460613ba607a76d8ac66531e1ab0f804cd6e27bdb1d19f6",
      "transactionIndex": "0x3",
      "blockHash": "0x0000000000000000000000000000000000000000000000000000000000000000",
      "blockNumber": "0x2d88936",
      "gasUsed": "0x4a380",
      "effectiveGasPrice": "0x7a121",
      "blobGasUsed": "0xef10",
      "from": "0x0a225822d948f4788568ebcf658ff1b85791af82",
      "to": "0x6127fe036b9cd6435404e56365f904167298c640",
      "contractAddress": null,
      "daFootprintGasScalar": "0x190",
      "l1BaseFeeScalar": "0x7d0",
      "l1BlobBaseFee": "0x1",
      "l1BlobBaseFeeScalar": "0xdbba0",
      "l1Fee": "0xde",
      "l1GasPrice": "0x16",
      "l1GasUsed": "0x99f"
    },
    {
      "status": "0x1",
      "cumulativeGasUsed": "0x4b434",
      "logs": [
        {
          "address": "0x00b036b58a818b1bc34d502d3fe730db729e62ac",
          "topics": [
            "0xdd466e674ea557f56295e2d0218a125ea4b4f0f6f3307b95f85e6110838d6438",
            "0x94d41341aaa7675233d521b8c9702a9a80b38c94d19ddebd9c0fdd6c2a3b6878",
            "0x000000000000000000000000c3ed1487ef25930a19e4371dd1ef831703582f21",
            "0x000000000000000000000000ccbd848ebdcabc0d314ad1612c2f3edc8661403a"
          ],
          "data": "0x0000000000000000000000000000000000000000000000000000000000000bb8000000000000000000000000000000000000000000000000000000000000003c0000000000000000000000006127fe036b9cd6435404e56365f904167298c64000000000000000000000000000000000000000010000000000000000000000000000000000000000000000000000000000000000000000000000000000000000",
          "blockHash": "0x0000000000000000000000000000000000000000000000000000000000000000",
          "blockNumber": "0x2d88937",
          "blockTimestamp": "0x69c63683",
          "transactionHash": "0xe3f551c676278df97872b07dff086d71025c32523eb20c20116b2478132dc90c",
          "transactionIndex": "0x4",
          "logIndex": "0x2",
          "removed": false
        }
      ],
      "logsBloom": "0x00000000000000000000000000000000000000000000000000000000000000000000000000000000000000000000000000000200000000000000000000000000000000000000000000000000200000000000000000000000000000000000000000000000000000000000000000000000000000200000000000000000000000000004000008000008000000000008000000000001000000000000000000200000000000000000000000000000000000000000000000000000000000000000000000200000000000000000000000000000000000080000000000000000000000000000000000000000000000000000000000000000000002040000004000000010",
      "type": "0x2",
      "transactionHash": "0xe3f551c676278df97872b07dff086d71025c32523eb20c20116b2478132dc90c",
      "transactionIndex": "0x4",
      "blockHash": "0x0000000000000000000000000000000000000000000000000000000000000000",
      "blockNumber": "0x2d88937",
      "gasUsed": "0xca16",
      "effectiveGasPrice": "0x7a121",
      "blobGasUsed": "0xdde0",
      "from": "0xc5b7b574ee84a9b59b475fe32eaf908c246d3859",
      "to": "0x00b036b58a818b1bc34d502d3fe730db729e62ac",
      "contractAddress": null,
      "daFootprintGasScalar": "0x190",
      "l1BaseFeeScalar": "0x7d0",
      "l1BlobBaseFee": "0x1",
      "l1BlobBaseFeeScalar": "0xdbba0",
      "l1Fee": "0xde",
      "l1GasPrice": "0x16",
      "l1GasUsed": "0x8e4"
    },
    {
      "status": "0x1",
      "cumulativeGasUsed": "0x32f46",
      "logs": [
        {
          "address": "0xc3ed1487ef25930a19e4371dd1ef831703582f21",
          "topics": [
            "0x8c5be1e5ebec7d5bd14f71427d1e84f3dd0314c0f7b2291e5b200ac8c7c3b925",
            "0x000000000000000000000000c5b7b574ee84a9b59b475fe32eaf908c246d3859",
            "0x0000000000000000000000005fa728c0a5cfd51bee4b060773f50554c0c8a7ab"
          ],
          "data": "0x00000000000000000000000000000000000000000000021e19e0c9bab2400000",
          "blockHash": "0xd18facc727015eea75c19e4cb5c41013f616d7e87674ec6edd1771dc5c694c96",
          "blockNumber": "0x2d8893b",
          "blockTimestamp": "0x69c63687",
          "transactionHash": "0xf19e9b4212c26871181932ec5c0f2828df2b7ac57502c19346734ae2bdd9137b",
          "transactionIndex": "0x3",
          "logIndex": "0x1",
          "removed": false
        }
      ],
      "logsBloom": "0x00000000000000000000000000000000000000000000000000000000000000000000000000000000000000000000000000000000000000000000000000200000000000000000000000000000000000000000000000000000000000000000000000000000000000000000000000000000000000000000000000000000000004000000000400000000000000000000000000000000000000000080000000000000020000000000000000000000000000004000000000000000000000000000000000080000000000000000000000000000000000000000000000000000000000000110000000000008000000001000000000080000000000000000000000000000",
      "type": "0x2",
      "transactionHash": "0xf19e9b4212c26871181932ec5c0f2828df2b7ac57502c19346734ae2bdd9137b",
      "transactionIndex": "0x3",
      "blockHash": "0xd18facc727015eea75c19e4cb5c41013f616d7e87674ec6edd1771dc5c694c96",
      "blockNumber": "0x2d8893b",
      "gasUsed": "0xb54e",
      "effectiveGasPrice": "0x7a121",
      "blobGasUsed": "0x9c40",
      "from": "0xc5b7b574ee84a9b59b475fe32eaf908c246d3859",
      "to": "0xc3ed1487ef25930a19e4371dd1ef831703582f21",
      "contractAddress": null,
      "daFootprintGasScalar": "0x190",
      "l1BaseFeeScalar": "0x7d0",
      "l1BlobBaseFee": "0x1",
      "l1BlobBaseFeeScalar": "0xdbba0",
      "l1Fee": "0xa0",
      "l1GasPrice": "0x16",
      "l1GasUsed": "0x640"
    },
    {
      "status": "0x1",
      "cumulativeGasUsed": "0xfee2c",
      "logs": [
        {
          "address": "0xccbd848ebdcabc0d314ad1612c2f3edc8661403a",
          "topics": [
            "0x8c5be1e5ebec7d5bd14f71427d1e84f3dd0314c0f7b2291e5b200ac8c7c3b925",
            "0x000000000000000000000000c5b7b574ee84a9b59b475fe32eaf908c246d3859",
            "0x0000000000000000000000005fa728c0a5cfd51bee4b060773f50554c0c8a7ab"
          ],
          "data": "0x00000000000000000000000000000000000000000000021e19e0c9bab2400000",
          "blockHash": "0xf558829c99b7be3d20e6d9007229be200b39eeea983b823052474cd457b30392",
          "blockNumber": "0x2d88940",
          "blockTimestamp": "0x69c6368c",
          "transactionHash": "0x98f5dbe593da42b6303f5be8fc8fb5c717edd9f320f8f3a17f4bff8f5b22739a",
          "transactionIndex": "0x7",
          "logIndex": "0xd",
          "removed": false
        }
      ],
      "logsBloom": "0x00000000000020000000000000000000000000000000000000000000000000000000000000000000000000000000000000000000000000004000000000200000000000000000000000000000000000000000000000000000000000000000000000000000000000000000000000000000000000000000000000000000000000000000000400000000000000000000000000000000000000000080000000000000020000000000000000000000000000004000000000000000000000000000000040080000000000000000000000000000000000000000000000000000000000000010000000000000000000001000000000080000000000000000000000000000",
      "type": "0x2",
      "transactionHash": "0x98f5dbe593da42b6303f5be8fc8fb5c717edd9f320f8f3a17f4bff8f5b22739a",
      "transactionIndex": "0x7",
      "blockHash": "0xf558829c99b7be3d20e6d9007229be200b39eeea983b823052474cd457b30392",
      "blockNumber": "0x2d88940",
      "gasUsed": "0xb54e",
      "effectiveGasPrice": "0x7a121",
      "blobGasUsed": "0x9c40",
      "from": "0xc5b7b574ee84a9b59b475fe32eaf908c246d3859",
      "to": "0xccbd848ebdcabc0d314ad1612c2f3edc8661403a",
      "contractAddress": null,
      "daFootprintGasScalar": "0x190",
      "l1BaseFeeScalar": "0x7d0",
      "l1BlobBaseFee": "0x1",
      "l1BlobBaseFeeScalar": "0xdbba0",
      "l1Fee": "0xa0",
      "l1GasPrice": "0x16",
      "l1GasUsed": "0x640"
    },
    {
      "status": "0x1",
      "cumulativeGasUsed": "0xdd391",
      "logs": [
        {
          "address": "0x00b036b58a818b1bc34d502d3fe730db729e62ac",
          "topics": [
            "0xf208f4912782fd25c7f114ca3723a2d5dd6f3bcc3ac8db5af63baa85f711d5ec",
            "0x94d41341aaa7675233d521b8c9702a9a80b38c94d19ddebd9c0fdd6c2a3b6878",
            "0x0000000000000000000000005fa728c0a5cfd51bee4b060773f50554c0c8a7ab"
          ],
          "data": "0xfffffffffffffffffffffffffffffffffffffffffffffffffffffffffff2764c00000000000000000000000000000000000000000000000000000000000d89b400000000000000000000000000000000000000000000021e19e0c9bab24000000000000000000000000000000000000000000000000000000000000000000000",
          "blockHash": "0x78e78d55711031644e7329b99c886c997394f2fd7b36c380a1519fdd44604964",
          "blockNumber": "0x2d88944",
          "blockTimestamp": "0x69c63690",
          "transactionHash": "0xc6a2a5bdd1f22c1baa090e0e352d490da4b13dbcd67ae4a286384fdab40fa770",
          "transactionIndex": "0x7",
          "logIndex": "0x5",
          "removed": false
        },
        {
          "address": "0x8b1800805b478fb66bb58331662899157cec4dd4",
          "topics": [
            "0xa56e19c5f806ae66a3b7d8c0b92d13ddf628502c9b47f577580f5f6a4e1deb2a",
            "0x0000000000000000000000007aee07658d3f3e714627f35dae1a5a817849c713",
            "0x94d41341aaa7675233d521b8c9702a9a80b38c94d19ddebd9c0fdd6c2a3b6878"
          ],
          "data": "0x00000000000000000000000000000000000000000000021e19e0c9bab2400000",
          "blockHash": "0x78e78d55711031644e7329b99c886c997394f2fd7b36c380a1519fdd44604964",
          "blockNumber": "0x2d88944",
          "blockTimestamp": "0x69c63690",
          "transactionHash": "0xc6a2a5bdd1f22c1baa090e0e352d490da4b13dbcd67ae4a286384fdab40fa770",
          "transactionIndex": "0x7",
          "logIndex": "0x6",
          "removed": false
        },
        {
          "address": "0x6127fe036b9cd6435404e56365f904167298c640",
          "topics": [
            "0x9fcca7d4a4fe21922427fa68ae954a11518460e4298a953677db412ad22d6f39",
            "0x0000000000000000000000007aee07658d3f3e714627f35dae1a5a817849c713",
            "0x94d41341aaa7675233d521b8c9702a9a80b38c94d19ddebd9c0fdd6c2a3b6878"
          ],
          "data": "0x00000000000000000000000000000000000000000000021e19e0c9bab2400000",
          "blockHash": "0x78e78d55711031644e7329b99c886c997394f2fd7b36c380a1519fdd44604964",
          "blockNumber": "0x2d88944",
          "blockTimestamp": "0x69c63690",
          "transactionHash": "0xc6a2a5bdd1f22c1baa090e0e352d490da4b13dbcd67ae4a286384fdab40fa770",
          "transactionIndex": "0x7",
          "logIndex": "0x7",
          "removed": false
        },
        {
          "address": "0xc3ed1487ef25930a19e4371dd1ef831703582f21",
          "topics": [
            "0xddf252ad1be2c89b69c2b068fc378daa952ba7f163c4a11628f55a4df523b3ef",
            "0x000000000000000000000000c5b7b574ee84a9b59b475fe32eaf908c246d3859",
            "0x00000000000000000000000000b036b58a818b1bc34d502d3fe730db729e62ac"
          ],
          "data": "0x00000000000000000000000000000000000000000000021e19e0c9bab23ffde1",
          "blockHash": "0x78e78d55711031644e7329b99c886c997394f2fd7b36c380a1519fdd44604964",
          "blockNumber": "0x2d88944",
          "blockTimestamp": "0x69c63690",
          "transactionHash": "0xc6a2a5bdd1f22c1baa090e0e352d490da4b13dbcd67ae4a286384fdab40fa770",
          "transactionIndex": "0x7",
          "logIndex": "0x8",
          "removed": false
        },
        {
          "address": "0xccbd848ebdcabc0d314ad1612c2f3edc8661403a",
          "topics": [
            "0xddf252ad1be2c89b69c2b068fc378daa952ba7f163c4a11628f55a4df523b3ef",
            "0x000000000000000000000000c5b7b574ee84a9b59b475fe32eaf908c246d3859",
            "0x00000000000000000000000000b036b58a818b1bc34d502d3fe730db729e62ac"
          ],
          "data": "0x00000000000000000000000000000000000000000000021e19e0c9bab23ffde1",
          "blockHash": "0x78e78d55711031644e7329b99c886c997394f2fd7b36c380a1519fdd44604964",
          "blockNumber": "0x2d88944",
          "blockTimestamp": "0x69c63690",
          "transactionHash": "0xc6a2a5bdd1f22c1baa090e0e352d490da4b13dbcd67ae4a286384fdab40fa770",
          "transactionIndex": "0x7",
          "logIndex": "0x9",
          "removed": false
        }
      ],
      "logsBloom": "0x00000000000024000000000000000000000000000000000000000000000000000000000000000000000000000000000000000000001000004000000000000000000000000001000000000008000000000000000000010000000000000000000000000000000000000000000000004000000000000000000000000010000004000000000401000000000000002008040000000000000000000080000200001000000004000000000000000000000000004000000000000020000000000000400040280002000000000000000000000000002000000000002002000000000000000100080018000008000000001000000004080000000202040000004000000010",
      "type": "0x2",
      "transactionHash": "0xc6a2a5bdd1f22c1baa090e0e352d490da4b13dbcd67ae4a286384fdab40fa770",
      "transactionIndex": "0x7",
      "blockHash": "0x78e78d55711031644e7329b99c886c997394f2fd7b36c380a1519fdd44604964",
      "blockNumber": "0x2d88944",
      "gasUsed": "0x598d1",
      "effectiveGasPrice": "0x7a121",
      "blobGasUsed": "0x104f0",
      "from": "0xc5b7b574ee84a9b59b475fe32eaf908c246d3859",
      "to": "0x5fa728c0a5cfd51bee4b060773f50554c0c8a7ab",
      "contractAddress": null,
      "daFootprintGasScalar": "0x190",
      "l1BaseFeeScalar": "0x7d0",
      "l1BlobBaseFee": "0x1",
      "l1BlobBaseFeeScalar": "0xdbba0",
      "l1Fee": "0x107",
      "l1GasPrice": "0x15",
      "l1GasUsed": "0xa76"
    },
    {
      "status": "0x1",
      "cumulativeGasUsed": "0xff629",
      "logs": [
        {
          "address": "0x00b036b58a818b1bc34d502d3fe730db729e62ac",
          "topics": [
            "0xdd466e674ea557f56295e2d0218a125ea4b4f0f6f3307b95f85e6110838d6438",
            "0x495cefb7efc345575abd893fb7574a6d1118739bcbb8c5c16f9b098ee0a3d2c7",
            "0x0000000000000000000000002709a27b939f8c81143574353f6396d9e53491c8",
            "0x000000000000000000000000ccbd848ebdcabc0d314ad1612c2f3edc8661403a"
          ],
          "data": "0x0000000000000000000000000000000000000000000000000000000000000bb8000000000000000000000000000000000000000000000000000000000000003c0000000000000000000000006127fe036b9cd6435404e56365f904167298c64000000000000000000000000000000000000000010000000000000000000000000000000000000000000000000000000000000000000000000000000000000000",
          "blockHash": "0xf935fe63c19a6b087f9d44fef9f0893f731d3eac8b5a108c023e81c3beddd194",
          "blockNumber": "0x2d88948",
          "blockTimestamp": "0x69c63694",
          "transactionHash": "0xcb151dda0fe2c7d662dd6e06a569740f752b11b753e57fd2d96e89d866e0e2ca",
          "transactionIndex": "0x7",
          "logIndex": "0xd",
          "removed": false
        }
      ],
      "logsBloom": "0x00000000000000000000000000000000000000000000100000000000000000000000000000000000000000000000020000000200000100000000000000000000000000000000000000000000000000000000000000000000000000000000000000000000000000000000000008000000000000000000000000000000000000000000000008000048000000000008000000000001000000000000000000200000000000000000000000000000000000000000000000000000000000000000000000000000000000000000000000000000000000080000000000000000000000200000000000000000000000000000000000000000000002000000000000000010",
      "type": "0x2",
      "transactionHash": "0xcb151dda0fe2c7d662dd6e06a569740f752b11b753e57fd2d96e89d866e0e2ca",
      "transactionIndex": "0x7",
      "blockHash": "0xf935fe63c19a6b087f9d44fef9f0893f731d3eac8b5a108c023e81c3beddd194",
      "blockNumber": "0x2d88948",
      "gasUsed": "0xca16",
      "effectiveGasPrice": "0x7a121",
      "blobGasUsed": "0xdde0",
      "from": "0xc5b7b574ee84a9b59b475fe32eaf908c246d3859",
      "to": "0x00b036b58a818b1bc34d502d3fe730db729e62ac",
      "contractAddress": null,
      "daFootprintGasScalar": "0x190",
      "l1BaseFeeScalar": "0x7d0",
      "l1BlobBaseFee": "0x1",
      "l1BlobBaseFeeScalar": "0xdbba0",
      "l1Fee": "0xdf",
      "l1GasPrice": "0x15",
      "l1GasUsed": "0x8e4"
    },
    {
      "status": "0x1",
      "cumulativeGasUsed": "0x49f6c",
      "logs": [
        {
          "address": "0x2709a27b939f8c81143574353f6396d9e53491c8",
          "topics": [
            "0x8c5be1e5ebec7d5bd14f71427d1e84f3dd0314c0f7b2291e5b200ac8c7c3b925",
            "0x000000000000000000000000c5b7b574ee84a9b59b475fe32eaf908c246d3859",
            "0x0000000000000000000000005fa728c0a5cfd51bee4b060773f50554c0c8a7ab"
          ],
          "data": "0x00000000000000000000000000000000000000000000021e19e0c9bab2400000",
          "blockHash": "0x0000000000000000000000000000000000000000000000000000000000000000",
          "blockNumber": "0x2d8894d",
          "blockTimestamp": "0x69c63699",
          "transactionHash": "0x950bad5a15028f64d9df9f956f6be5af9b74e93bf6bad7c33c936f9505740a6e",
          "transactionIndex": "0x4",
          "logIndex": "0x2",
          "removed": false
        }
      ],
      "logsBloom": "0x00000000000000000000000000000000000000000000000000000000000000000000000020000000000000000000000000000000000000000000000000200000000000000000000000000000000000000000000000000000000000000000000000000000000000000000000000000000000000000000000000000000000000000000000400000000000000000000000000000000000000000080000000000000020000000000000100000000000000004000000000000000000000000000000000080000000000000000000000000000000000000000000000000000000000000010000000000000000000001000040000080000000000000000000000000000",
      "type": "0x2",
      "transactionHash": "0x950bad5a15028f64d9df9f956f6be5af9b74e93bf6bad7c33c936f9505740a6e",
      "transactionIndex": "0x4",
      "blockHash": "0x0000000000000000000000000000000000000000000000000000000000000000",
      "blockNumber": "0x2d8894d",
      "gasUsed": "0xb54e",
      "effectiveGasPrice": "0x7a121",
      "blobGasUsed": "0x9c40",
      "from": "0xc5b7b574ee84a9b59b475fe32eaf908c246d3859",
      "to": "0x2709a27b939f8c81143574353f6396d9e53491c8",
      "contractAddress": null,
      "daFootprintGasScalar": "0x190",
      "l1BaseFeeScalar": "0x7d0",
      "l1BlobBaseFee": "0x1",
      "l1BlobBaseFeeScalar": "0xdbba0",
      "l1Fee": "0xda",
      "l1GasPrice": "0x15",
      "l1GasUsed": "0x640"
    },
    {
      "status": "0x1",
      "cumulativeGasUsed": "0x5ccde",
      "logs": [
        {
          "address": "0xccbd848ebdcabc0d314ad1612c2f3edc8661403a",
          "topics": [
            "0x8c5be1e5ebec7d5bd14f71427d1e84f3dd0314c0f7b2291e5b200ac8c7c3b925",
            "0x000000000000000000000000c5b7b574ee84a9b59b475fe32eaf908c246d3859",
            "0x0000000000000000000000005fa728c0a5cfd51bee4b060773f50554c0c8a7ab"
          ],
          "data": "0x00000000000000000000000000000000000000000000021e19e0c9bab2400000",
          "blockHash": "0xc260c1063a37d9073e233a46ffb5dc63b5fe437729918fa2abdf37203de05384",
          "blockNumber": "0x2d88952",
          "blockTimestamp": "0x69c6369e",
          "transactionHash": "0xebaf75517b048f0eda7f50729693ff15f8273cc1d722c83c5efad0f9160a5349",
          "transactionIndex": "0x5",
          "logIndex": "0x3",
          "removed": false
        }
      ],
      "logsBloom": "0x00000000000020000000000000000000000000000000000000000000000000000000000000000000000000000000000000000000000000004000000000200000000000000000000000000000000000000000000000000000000000000000000000000000000000000000000000000000000000000000000000000000000000000000000400000000000000000000000000000000000000000080000000000000020000000000000000000000000000004000000000000000000000000000000040080000000000000000000000000000000000000000000000000000000000000010000000000000000000001000000000080000000000000000000000000000",
      "type": "0x2",
      "transactionHash": "0xebaf75517b048f0eda7f50729693ff15f8273cc1d722c83c5efad0f9160a5349",
      "transactionIndex": "0x5",
      "blockHash": "0xc260c1063a37d9073e233a46ffb5dc63b5fe437729918fa2abdf37203de05384",
      "blockNumber": "0x2d88952",
      "gasUsed": "0x7282",
      "effectiveGasPrice": "0x7a121",
      "blobGasUsed": "0x9c40",
      "from": "0xc5b7b574ee84a9b59b475fe32eaf908c246d3859",
      "to": "0xccbd848ebdcabc0d314ad1612c2f3edc8661403a",
      "contractAddress": null,
      "daFootprintGasScalar": "0x190",
      "l1BaseFeeScalar": "0x7d0",
      "l1BlobBaseFee": "0x2",
      "l1BlobBaseFeeScalar": "0xdbba0",
      "l1Fee": "0xf4",
      "l1GasPrice": "0x14",
      "l1GasUsed": "0x640"
    },
    {
      "status": "0x1",
      "cumulativeGasUsed": "0x7cff1",
      "logs": [
        {
          "address": "0x00b036b58a818b1bc34d502d3fe730db729e62ac",
          "topics": [
            "0xf208f4912782fd25c7f114ca3723a2d5dd6f3bcc3ac8db5af63baa85f711d5ec",
            "0x495cefb7efc345575abd893fb7574a6d1118739bcbb8c5c16f9b098ee0a3d2c7",
            "0x0000000000000000000000005fa728c0a5cfd51bee4b060773f50554c0c8a7ab"
          ],
          "data": "0xfffffffffffffffffffffffffffffffffffffffffffffffffffffffffff2764c00000000000000000000000000000000000000000000000000000000000d89b400000000000000000000000000000000000000000000021e19e0c9bab24000000000000000000000000000000000000000000000000000000000000000000000",
          "blockHash": "0x5c2e549db75561148282a546c40e18981e136c6b193692c3af0abdca37afeb2b",
          "blockNumber": "0x2d88955",
          "blockTimestamp": "0x69c636a1",
          "transactionHash": "0x42ab9bbd0761c4680f6a3c23a001744477ad6e125c573f3ae193ea6e89599c06",
          "transactionIndex": "0x3",
          "logIndex": "0x1",
          "removed": false
        },
        {
          "address": "0x8b1800805b478fb66bb58331662899157cec4dd4",
          "topics": [
            "0xa56e19c5f806ae66a3b7d8c0b92d13ddf628502c9b47f577580f5f6a4e1deb2a",
            "0x000000000000000000000000af6b00cb33138464cda3b017f8963c6cafaf4871",
            "0x495cefb7efc345575abd893fb7574a6d1118739bcbb8c5c16f9b098ee0a3d2c7"
          ],
          "data": "0x00000000000000000000000000000000000000000000021e19e0c9bab2400000",
          "blockHash": "0x5c2e549db75561148282a546c40e18981e136c6b193692c3af0abdca37afeb2b",
          "blockNumber": "0x2d88955",
          "blockTimestamp": "0x69c636a1",
          "transactionHash": "0x42ab9bbd0761c4680f6a3c23a001744477ad6e125c573f3ae193ea6e89599c06",
          "transactionIndex": "0x3",
          "logIndex": "0x2",
          "removed": false
        },
        {
          "address": "0x6127fe036b9cd6435404e56365f904167298c640",
          "topics": [
            "0x9fcca7d4a4fe21922427fa68ae954a11518460e4298a953677db412ad22d6f39",
            "0x000000000000000000000000af6b00cb33138464cda3b017f8963c6cafaf4871",
            "0x495cefb7efc345575abd893fb7574a6d1118739bcbb8c5c16f9b098ee0a3d2c7"
          ],
          "data": "0x00000000000000000000000000000000000000000000021e19e0c9bab2400000",
          "blockHash": "0x5c2e549db75561148282a546c40e18981e136c6b193692c3af0abdca37afeb2b",
          "blockNumber": "0x2d88955",
          "blockTimestamp": "0x69c636a1",
          "transactionHash": "0x42ab9bbd0761c4680f6a3c23a001744477ad6e125c573f3ae193ea6e89599c06",
          "transactionIndex": "0x3",
          "logIndex": "0x3",
          "removed": false
        },
        {
          "address": "0x2709a27b939f8c81143574353f6396d9e53491c8",
          "topics": [
            "0xddf252ad1be2c89b69c2b068fc378daa952ba7f163c4a11628f55a4df523b3ef",
            "0x000000000000000000000000c5b7b574ee84a9b59b475fe32eaf908c246d3859",
            "0x00000000000000000000000000b036b58a818b1bc34d502d3fe730db729e62ac"
          ],
          "data": "0x00000000000000000000000000000000000000000000021e19e0c9bab23ffde1",
          "blockHash": "0x5c2e549db75561148282a546c40e18981e136c6b193692c3af0abdca37afeb2b",
          "blockNumber": "0x2d88955",
          "blockTimestamp": "0x69c636a1",
          "transactionHash": "0x42ab9bbd0761c4680f6a3c23a001744477ad6e125c573f3ae193ea6e89599c06",
          "transactionIndex": "0x3",
          "logIndex": "0x4",
          "removed": false
        },
        {
          "address": "0xccbd848ebdcabc0d314ad1612c2f3edc8661403a",
          "topics": [
            "0xddf252ad1be2c89b69c2b068fc378daa952ba7f163c4a11628f55a4df523b3ef",
            "0x000000000000000000000000c5b7b574ee84a9b59b475fe32eaf908c246d3859",
            "0x00000000000000000000000000b036b58a818b1bc34d502d3fe730db729e62ac"
          ],
          "data": "0x00000000000000000000000000000000000000000000021e19e0c9bab23ffde1",
          "blockHash": "0x5c2e549db75561148282a546c40e18981e136c6b193692c3af0abdca37afeb2b",
          "blockNumber": "0x2d88955",
          "blockTimestamp": "0x69c636a1",
          "transactionHash": "0x42ab9bbd0761c4680f6a3c23a001744477ad6e125c573f3ae193ea6e89599c06",
          "transactionIndex": "0x3",
          "logIndex": "0x5",
          "removed": false
        }
      ],
      "logsBloom": "0x00000000000024000000000000000000000000040000100000000000000000000000000020000000000000000000000000000000001000004000000000000000000000000011000000000008000000000000000000010000000000000000000000000000000000000000000008004000000000000000000000000010000000000000000401000000000000000008040000000000000000000080000200001000000004000000000100000000000000004000000000000020000000000000400040080002000000000000000000000000002000000000002000000000000000200000080010000000000000001000042004080000000202000000000000000010",
      "type": "0x2",
      "transactionHash": "0x42ab9bbd0761c4680f6a3c23a001744477ad6e125c573f3ae193ea6e89599c06",
      "transactionIndex": "0x3",
      "blockHash": "0x5c2e549db75561148282a546c40e18981e136c6b193692c3af0abdca37afeb2b",
      "blockNumber": "0x2d88955",
      "gasUsed": "0x55605",
      "effectiveGasPrice": "0x7a121",
      "blobGasUsed": "0x104f0",
      "from": "0xc5b7b574ee84a9b59b475fe32eaf908c246d3859",
      "to": "0x5fa728c0a5cfd51bee4b060773f50554c0c8a7ab",
      "contractAddress": null,
      "daFootprintGasScalar": "0x190",
      "l1BaseFeeScalar": "0x7d0",
      "l1BlobBaseFee": "0x2",
      "l1BlobBaseFeeScalar": "0xdbba0",
      "l1Fee": "0x198",
      "l1GasPrice": "0x14",
      "l1GasUsed": "0xa76"
    },
    {
      "status": "0x1",
      "cumulativeGasUsed": "0x62466",
      "logs": [
        {
          "address": "0x00b036b58a818b1bc34d502d3fe730db729e62ac",
          "topics": [
            "0xdd466e674ea557f56295e2d0218a125ea4b4f0f6f3307b95f85e6110838d6438",
            "0xd26c3dd7535e687930ee40b21070bb09ddf0157f8dc485ce512d8a4c92379f1b",
            "0x000000000000000000000000ccbd848ebdcabc0d314ad1612c2f3edc8661403a",
            "0x000000000000000000000000ddee9d13f6a4c824c94f349b5dd2fb651bb7edf6"
          ],
          "data": "0x0000000000000000000000000000000000000000000000000000000000000bb8000000000000000000000000000000000000000000000000000000000000003c0000000000000000000000006127fe036b9cd6435404e56365f904167298c64000000000000000000000000000000000000000010000000000000000000000000000000000000000000000000000000000000000000000000000000000000000",
          "blockHash": "0xee52df97da50fbcbb0d8d09f1f0722765b7dd9c33391f0be880935ee28e87fc1",
          "blockNumber": "0x2d88959",
          "blockTimestamp": "0x69c636a5",
          "transactionHash": "0x8bafa88d4b053d49e7293b666597811de3ce4e034d35f7f92c37306be0c3d9f6",
          "transactionIndex": "0x5",
          "logIndex": "0x3",
          "removed": false
        }
      ],
      "logsBloom": "0x00000000000000000000000000100000000000000000000000000000000000000000000000000000000000000008000000000200000000004000000000000000000020000000000000000000000000000000000000000000000020000000000000000000000000000000000000000000000000000000000000000000000000000000000008000008000000000008000000000001000000000000000000200000400000000000000000000000000000000000000000000000000000000000000000000000000000000000000000000000000000080000000000000000000000000000000000000000000000000000000000000000000002000000000000000010",
      "type": "0x2",
      "transactionHash": "0x8bafa88d4b053d49e7293b666597811de3ce4e034d35f7f92c37306be0c3d9f6",
      "transactionIndex": "0x5",
      "blockHash": "0xee52df97da50fbcbb0d8d09f1f0722765b7dd9c33391f0be880935ee28e87fc1",
      "blockNumber": "0x2d88959",
      "gasUsed": "0xca16",
      "effectiveGasPrice": "0x7a121",
      "blobGasUsed": "0xdde0",
      "from": "0xc5b7b574ee84a9b59b475fe32eaf908c246d3859",
      "to": "0x00b036b58a818b1bc34d502d3fe730db729e62ac",
      "contractAddress": null,
      "daFootprintGasScalar": "0x190",
      "l1BaseFeeScalar": "0x7d0",
      "l1BlobBaseFee": "0x2",
      "l1BlobBaseFeeScalar": "0xdbba0",
      "l1Fee": "0x15b",
      "l1GasPrice": "0x14",
      "l1GasUsed": "0x8e4"
    },
    {
      "status": "0x1",
      "cumulativeGasUsed": "0x5ccd2",
      "logs": [
        {
          "address": "0xccbd848ebdcabc0d314ad1612c2f3edc8661403a",
          "topics": [
            "0x8c5be1e5ebec7d5bd14f71427d1e84f3dd0314c0f7b2291e5b200ac8c7c3b925",
            "0x000000000000000000000000c5b7b574ee84a9b59b475fe32eaf908c246d3859",
            "0x0000000000000000000000005fa728c0a5cfd51bee4b060773f50554c0c8a7ab"
          ],
          "data": "0x00000000000000000000000000000000000000000000021e19e0c9bab2400000",
          "blockHash": "0xb1a2419145e48e451d2091d20de12fce9b67f3ceefe0db4853c527238077789b",
          "blockNumber": "0x2d8895d",
          "blockTimestamp": "0x69c636a9",
          "transactionHash": "0xe613ad66c8c13eed0d91b2b11ad2ff8c71d0aa34242645c796be97417c0aae7d",
          "transactionIndex": "0x5",
          "logIndex": "0x3",
          "removed": false
        }
      ],
      "logsBloom": "0x00000000000020000000000000000000000000000000000000000000000000000000000000000000000000000000000000000000000000004000000000200000000000000000000000000000000000000000000000000000000000000000000000000000000000000000000000000000000000000000000000000000000000000000000400000000000000000000000000000000000000000080000000000000020000000000000000000000000000004000000000000000000000000000000040080000000000000000000000000000000000000000000000000000000000000010000000000000000000001000000000080000000000000000000000000000",
      "type": "0x2",
      "transactionHash": "0xe613ad66c8c13eed0d91b2b11ad2ff8c71d0aa34242645c796be97417c0aae7d",
      "transactionIndex": "0x5",
      "blockHash": "0xb1a2419145e48e451d2091d20de12fce9b67f3ceefe0db4853c527238077789b",
      "blockNumber": "0x2d8895d",
      "gasUsed": "0x7282",
      "effectiveGasPrice": "0x7a121",
      "blobGasUsed": "0x9c40",
      "from": "0xc5b7b574ee84a9b59b475fe32eaf908c246d3859",
      "to": "0xccbd848ebdcabc0d314ad1612c2f3edc8661403a",
      "contractAddress": null,
      "daFootprintGasScalar": "0x190",
      "l1BaseFeeScalar": "0x7d0",
      "l1BlobBaseFee": "0x1",
      "l1BlobBaseFeeScalar": "0xdbba0",
      "l1Fee": "0x9a",
      "l1GasPrice": "0x14",
      "l1GasUsed": "0x640"
    },
    {
      "status": "0x1",
      "cumulativeGasUsed": "0x32f3a",
      "logs": [
        {
          "address": "0xddee9d13f6a4c824c94f349b5dd2fb651bb7edf6",
          "topics": [
            "0x8c5be1e5ebec7d5bd14f71427d1e84f3dd0314c0f7b2291e5b200ac8c7c3b925",
            "0x000000000000000000000000c5b7b574ee84a9b59b475fe32eaf908c246d3859",
            "0x0000000000000000000000005fa728c0a5cfd51bee4b060773f50554c0c8a7ab"
          ],
          "data": "0x00000000000000000000000000000000000000000000021e19e0c9bab2400000",
          "blockHash": "0x0000000000000000000000000000000000000000000000000000000000000000",
          "blockNumber": "0x2d88963",
          "blockTimestamp": "0x69c636af",
          "transactionHash": "0x88f115703e8d01ea12e355a95907f0d2e971cb852053e4f71ad9ad3328a646b4",
          "transactionIndex": "0x3",
          "logIndex": "0x1",
          "removed": false
        }
      ],
      "logsBloom": "0x00000000000000000000000000000000000000000000000000000000000000000000000000000000000000000000000000000000000000000000000000200000000000000000000000000000000000000000000000000000000000000000000000000000000040000000000000000000000000000000000000000000000000000000000400000000000000000000000000000000000000000080000000000000020000000000000000000000000000004000000000000000000010000000000000080000000000800000000000000000000000000000000000000000000000000010000000000000000000001000000000080000000000000000000000000000",
      "type": "0x2",
      "transactionHash": "0x88f115703e8d01ea12e355a95907f0d2e971cb852053e4f71ad9ad3328a646b4",
      "transactionIndex": "0x3",
      "blockHash": "0x0000000000000000000000000000000000000000000000000000000000000000",
      "blockNumber": "0x2d88963",
      "gasUsed": "0xb54e",
      "effectiveGasPrice": "0x7a121",
      "blobGasUsed": "0x9c40",
      "from": "0xc5b7b574ee84a9b59b475fe32eaf908c246d3859",
      "to": "0xddee9d13f6a4c824c94f349b5dd2fb651bb7edf6",
      "contractAddress": null,
      "daFootprintGasScalar": "0x190",
      "l1BaseFeeScalar": "0x7d0",
      "l1BlobBaseFee": "0x1",
      "l1BlobBaseFeeScalar": "0xdbba0",
      "l1Fee": "0xd5",
      "l1GasPrice": "0x14",
      "l1GasUsed": "0x640"
    },
    {
      "status": "0x1",
      "cumulativeGasUsed": "0x94023",
      "logs": [
        {
          "address": "0x00b036b58a818b1bc34d502d3fe730db729e62ac",
          "topics": [
            "0xf208f4912782fd25c7f114ca3723a2d5dd6f3bcc3ac8db5af63baa85f711d5ec",
            "0xd26c3dd7535e687930ee40b21070bb09ddf0157f8dc485ce512d8a4c92379f1b",
            "0x0000000000000000000000005fa728c0a5cfd51bee4b060773f50554c0c8a7ab"
          ],
          "data": "0xfffffffffffffffffffffffffffffffffffffffffffffffffffffffffff2764c00000000000000000000000000000000000000000000000000000000000d89b400000000000000000000000000000000000000000000021e19e0c9bab24000000000000000000000000000000000000000000000000000000000000000000000",
          "blockHash": "0x0000000000000000000000000000000000000000000000000000000000000000",
          "blockNumber": "0x2d88967",
          "blockTimestamp": "0x69c636b3",
          "transactionHash": "0xf62cdf7551201905d6f2479cda98859dcb5763ebfaf3bc8b1d04927c313e2b47",
          "transactionIndex": "0x4",
          "logIndex": "0x2",
          "removed": false
        },
        {
          "address": "0x8b1800805b478fb66bb58331662899157cec4dd4",
          "topics": [
            "0xa56e19c5f806ae66a3b7d8c0b92d13ddf628502c9b47f577580f5f6a4e1deb2a",
            "0x0000000000000000000000009fc3d9a5f5c436336586bf7be37d1e89c05c4bd9",
            "0xd26c3dd7535e687930ee40b21070bb09ddf0157f8dc485ce512d8a4c92379f1b"
          ],
          "data": "0x00000000000000000000000000000000000000000000021e19e0c9bab2400000",
          "blockHash": "0x0000000000000000000000000000000000000000000000000000000000000000",
          "blockNumber": "0x2d88967",
          "blockTimestamp": "0x69c636b3",
          "transactionHash": "0xf62cdf7551201905d6f2479cda98859dcb5763ebfaf3bc8b1d04927c313e2b47",
          "transactionIndex": "0x4",
          "logIndex": "0x3",
          "removed": false
        },
        {
          "address": "0x6127fe036b9cd6435404e56365f904167298c640",
          "topics": [
            "0x9fcca7d4a4fe21922427fa68ae954a11518460e4298a953677db412ad22d6f39",
            "0x0000000000000000000000009fc3d9a5f5c436336586bf7be37d1e89c05c4bd9",
            "0xd26c3dd7535e687930ee40b21070bb09ddf0157f8dc485ce512d8a4c92379f1b"
          ],
          "data": "0x00000000000000000000000000000000000000000000021e19e0c9bab2400000",
          "blockHash": "0x0000000000000000000000000000000000000000000000000000000000000000",
          "blockNumber": "0x2d88967",
          "blockTimestamp": "0x69c636b3",
          "transactionHash": "0xf62cdf7551201905d6f2479cda98859dcb5763ebfaf3bc8b1d04927c313e2b47",
          "transactionIndex": "0x4",
          "logIndex": "0x4",
          "removed": false
        },
        {
          "address": "0xccbd848ebdcabc0d314ad1612c2f3edc8661403a",
          "topics": [
            "0xddf252ad1be2c89b69c2b068fc378daa952ba7f163c4a11628f55a4df523b3ef",
            "0x000000000000000000000000c5b7b574ee84a9b59b475fe32eaf908c246d3859",
            "0x00000000000000000000000000b036b58a818b1bc34d502d3fe730db729e62ac"
          ],
          "data": "0x00000000000000000000000000000000000000000000021e19e0c9bab23ffde1",
          "blockHash": "0x0000000000000000000000000000000000000000000000000000000000000000",
          "blockNumber": "0x2d88967",
          "blockTimestamp": "0x69c636b3",
          "transactionHash": "0xf62cdf7551201905d6f2479cda98859dcb5763ebfaf3bc8b1d04927c313e2b47",
          "transactionIndex": "0x4",
          "logIndex": "0x5",
          "removed": false
        },
        {
          "address": "0xddee9d13f6a4c824c94f349b5dd2fb651bb7edf6",
          "topics": [
            "0xddf252ad1be2c89b69c2b068fc378daa952ba7f163c4a11628f55a4df523b3ef",
            "0x000000000000000000000000c5b7b574ee84a9b59b475fe32eaf908c246d3859",
            "0x00000000000000000000000000b036b58a818b1bc34d502d3fe730db729e62ac"
          ],
          "data": "0x00000000000000000000000000000000000000000000021e19e0c9bab23ffde1",
          "blockHash": "0x0000000000000000000000000000000000000000000000000000000000000000",
          "blockNumber": "0x2d88967",
          "blockTimestamp": "0x69c636b3",
          "transactionHash": "0xf62cdf7551201905d6f2479cda98859dcb5763ebfaf3bc8b1d04927c313e2b47",
          "transactionIndex": "0x4",
          "logIndex": "0x6",
          "removed": false
        }
      ],
      "logsBloom": "0x00000000000024000000000000100000000000000000000000000000020000000000000000000000000000000000000000000000001000004000002000000000000020000001000000000008000000000000000000010000000020000000000000000000000040000000000000004000000000000000000000000010000000000000000401000000000000000008040000000000000000000080000200001000000004000000000000000008000000004000000000000020000010000000400040080002000000800000000000000000002000000000002000000000000000000000080010000000000000001000000004080000000202000000000000000010",
      "type": "0x2",
      "transactionHash": "0xf62cdf7551201905d6f2479cda98859dcb5763ebfaf3bc8b1d04927c313e2b47",
      "transactionIndex": "0x4",
      "blockHash": "0x0000000000000000000000000000000000000000000000000000000000000000",
      "blockNumber": "0x2d88967",
      "gasUsed": "0x55605",
      "effectiveGasPrice": "0x7a121",
      "blobGasUsed": "0x104f0",
      "from": "0xc5b7b574ee84a9b59b475fe32eaf908c246d3859",
      "to": "0x5fa728c0a5cfd51bee4b060773f50554c0c8a7ab",
      "contractAddress": null,
      "daFootprintGasScalar": "0x190",
      "l1BaseFeeScalar": "0x7d0",
      "l1BlobBaseFee": "0x1",
      "l1BlobBaseFeeScalar": "0xdbba0",
      "l1Fee": "0xd4",
      "l1GasPrice": "0x14",
      "l1GasUsed": "0xa76"
    },
    {
      "status": "0x1",
      "cumulativeGasUsed": "0xebeca",
      "logs": [
        {
          "address": "0x00b036b58a818b1bc34d502d3fe730db729e62ac",
          "topics": [
            "0xdd466e674ea557f56295e2d0218a125ea4b4f0f6f3307b95f85e6110838d6438",
            "0x71ada5ab3372c869764973261cb8119bc4f7024998abe85ef6f2436fcaaea3b5",
            "0x00000000000000000000000012f835580bd0937d83ed07ab7fc00330bebe3db9",
            "0x000000000000000000000000ccbd848ebdcabc0d314ad1612c2f3edc8661403a"
          ],
          "data": "0x0000000000000000000000000000000000000000000000000000000000000bb8000000000000000000000000000000000000000000000000000000000000003c0000000000000000000000006127fe036b9cd6435404e56365f904167298c64000000000000000000000000000000000000000010000000000000000000000000000000000000000000000000000000000000000000000000000000000000000",
          "blockHash": "0x5fa376b8e191e596fc4cd1af1d4ca821df18eb6a7879d2de9a154bfe4a315f21",
          "blockNumber": "0x2d8896c",
          "blockTimestamp": "0x69c636b8",
          "transactionHash": "0xa3b821695a1db33ce72985beee7ceaaa8345a32df310c70bc026766aacbf1479",
          "transactionIndex": "0x6",
          "logIndex": "0xc",
          "removed": false
        }
      ],
      "logsBloom": "0x00000000000000100000000000000000000000000000000000000000000000000000000800000000000000000000000000000200000000000000000000000000000000000000000000000000000000000000000000000000000000000000000000000000000000000040000000000000000000000000000000000000001000000000000008000008000000000008000000000001000000000000000000200000000000400000000000000000000000000000000000000000000000000000000000000000000000000000000000000000000000080000000000000000000000000000000000000000000000000000000000000000000002000000000000002010",
      "type": "0x2",
      "transactionHash": "0xa3b821695a1db33ce72985beee7ceaaa8345a32df310c70bc026766aacbf1479",
      "transactionIndex": "0x6",
      "blockHash": "0x5fa376b8e191e596fc4cd1af1d4ca821df18eb6a7879d2de9a154bfe4a315f21",
      "blockNumber": "0x2d8896c",
      "gasUsed": "0xca16",
      "effectiveGasPrice": "0x7a121",
      "blobGasUsed": "0xdde0",
      "from": "0xc5b7b574ee84a9b59b475fe32eaf908c246d3859",
      "to": "0x00b036b58a818b1bc34d502d3fe730db729e62ac",
      "contractAddress": null,
      "daFootprintGasScalar": "0x190",
      "l1BaseFeeScalar": "0x7d0",
      "l1BlobBaseFee": "0x1",
      "l1BlobBaseFeeScalar": "0xdbba0",
      "l1Fee": "0xdb",
      "l1GasPrice": "0x14",
      "l1GasUsed": "0x8e4"
    },
    {
      "status": "0x1",
      "cumulativeGasUsed": "0x32f46",
      "logs": [
        {
          "address": "0x12f835580bd0937d83ed07ab7fc00330bebe3db9",
          "topics": [
            "0x8c5be1e5ebec7d5bd14f71427d1e84f3dd0314c0f7b2291e5b200ac8c7c3b925",
            "0x000000000000000000000000c5b7b574ee84a9b59b475fe32eaf908c246d3859",
            "0x0000000000000000000000005fa728c0a5cfd51bee4b060773f50554c0c8a7ab"
          ],
          "data": "0x00000000000000000000000000000000000000000000021e19e0c9bab2400000",
          "blockHash": "0x0000000000000000000000000000000000000000000000000000000000000000",
          "blockNumber": "0x2d8896f",
          "blockTimestamp": "0x69c636bb",
          "transactionHash": "0x57c8d2ce19be34f5fb672ac00e4b337735af9a8ff73faa6b058413e279a3b3d5",
          "transactionIndex": "0x3",
          "logIndex": "0x1",
          "removed": false
        }
      ],
      "logsBloom": "0x00000000000000000000000000000000000000000000000000000000040000000000000000000000000000000000000000000000000000000000000000200000000000000000000000000000000000000000000000000000000000000000000000000000000000000000000000000000000000000000000000000000000000000000000400000000000000000000000000000000000000000080000000000000020000000000000000000000000000004000000000000000000000000000000000080000000000000800000000000000000000000000000000040000000000000010000000000000000000001000000000080000000000000000000000000000",
      "type": "0x2",
      "transactionHash": "0x57c8d2ce19be34f5fb672ac00e4b337735af9a8ff73faa6b058413e279a3b3d5",
      "transactionIndex": "0x3",
      "blockHash": "0x0000000000000000000000000000000000000000000000000000000000000000",
      "blockNumber": "0x2d8896f",
      "gasUsed": "0xb54e",
      "effectiveGasPrice": "0x7a121",
      "blobGasUsed": "0x9c40",
      "from": "0xc5b7b574ee84a9b59b475fe32eaf908c246d3859",
      "to": "0x12f835580bd0937d83ed07ab7fc00330bebe3db9",
      "contractAddress": null,
      "daFootprintGasScalar": "0x190",
      "l1BaseFeeScalar": "0x7d0",
      "l1BlobBaseFee": "0x1",
      "l1BlobBaseFeeScalar": "0xdbba0",
      "l1Fee": "0xd5",
      "l1GasPrice": "0x14",
      "l1GasUsed": "0x640"
    },
    {
      "status": "0x1",
      "cumulativeGasUsed": "0xe0dc9",
      "logs": [
        {
          "address": "0xccbd848ebdcabc0d314ad1612c2f3edc8661403a",
          "topics": [
            "0x8c5be1e5ebec7d5bd14f71427d1e84f3dd0314c0f7b2291e5b200ac8c7c3b925",
            "0x000000000000000000000000c5b7b574ee84a9b59b475fe32eaf908c246d3859",
            "0x0000000000000000000000005fa728c0a5cfd51bee4b060773f50554c0c8a7ab"
          ],
          "data": "0x00000000000000000000000000000000000000000000021e19e0c9bab2400000",
          "blockHash": "0xc542bd67797039bbbc8ada71a9301ec8e142087097d5b738e30371ceddf34120",
          "blockNumber": "0x2d88974",
          "blockTimestamp": "0x69c636c0",
          "transactionHash": "0xc7142312acd1a7d4b209e52ae32c7ba90b48c014852c14303e2c1b934594fd69",
          "transactionIndex": "0x6",
          "logIndex": "0xc",
          "removed": false
        }
      ],
      "logsBloom": "0x00000000000020000000000000000000000000000000000000000000000000000000000000000000000000000000000000000000000000004000000000200000000000000000000000000000000000000000000000000000000000000000000000000000000000000000000000000000000000000000000000000000000000000000000400000000000000000000000000000000000000000080000000000000020000000000000000000000000000004000000000000000000000000000000040080000000000000000000000000000000000000000000000000000000000000010000000000000000000001000000000080000000000000000000000000000",
      "type": "0x2",
      "transactionHash": "0xc7142312acd1a7d4b209e52ae32c7ba90b48c014852c14303e2c1b934594fd69",
      "transactionIndex": "0x6",
      "blockHash": "0xc542bd67797039bbbc8ada71a9301ec8e142087097d5b738e30371ceddf34120",
      "blockNumber": "0x2d88974",
      "gasUsed": "0x7282",
      "effectiveGasPrice": "0x7a121",
      "blobGasUsed": "0x9c40",
      "from": "0xc5b7b574ee84a9b59b475fe32eaf908c246d3859",
      "to": "0xccbd848ebdcabc0d314ad1612c2f3edc8661403a",
      "contractAddress": null,
      "daFootprintGasScalar": "0x190",
      "l1BaseFeeScalar": "0x7d0",
      "l1BlobBaseFee": "0x2",
      "l1BlobBaseFeeScalar": "0xdbba0",
      "l1Fee": "0xf4",
      "l1GasPrice": "0x14",
      "l1GasUsed": "0x640"
    },
    {
      "status": "0x1",
      "cumulativeGasUsed": "0xd3cbc",
      "logs": [
        {
          "address": "0x00b036b58a818b1bc34d502d3fe730db729e62ac",
          "topics": [
            "0xf208f4912782fd25c7f114ca3723a2d5dd6f3bcc3ac8db5af63baa85f711d5ec",
            "0x71ada5ab3372c869764973261cb8119bc4f7024998abe85ef6f2436fcaaea3b5",
            "0x0000000000000000000000005fa728c0a5cfd51bee4b060773f50554c0c8a7ab"
          ],
          "data": "0xfffffffffffffffffffffffffffffffffffffffffffffffffffffffffff2764c00000000000000000000000000000000000000000000000000000000000d89b400000000000000000000000000000000000000000000021e19e0c9bab24000000000000000000000000000000000000000000000000000000000000000000000",
          "blockHash": "0xfe95310d7b2f5c7132fc4b70fca595efdec50c33c461c1c26f766ad9e17a1b3f",
          "blockNumber": "0x2d88978",
          "blockTimestamp": "0x69c636c4",
          "transactionHash": "0x9c302355cdd2f10359dae456c5a145bb1433171fc999eaf86a647b5686d01f95",
          "transactionIndex": "0x6",
          "logIndex": "0x9",
          "removed": false
        },
        {
          "address": "0x8b1800805b478fb66bb58331662899157cec4dd4",
          "topics": [
            "0xa56e19c5f806ae66a3b7d8c0b92d13ddf628502c9b47f577580f5f6a4e1deb2a",
            "0x0000000000000000000000007819c1c15bd54a50e360a9b0cac9f796eedd770e",
            "0x71ada5ab3372c869764973261cb8119bc4f7024998abe85ef6f2436fcaaea3b5"
          ],
          "data": "0x00000000000000000000000000000000000000000000021e19e0c9bab2400000",
          "blockHash": "0xfe95310d7b2f5c7132fc4b70fca595efdec50c33c461c1c26f766ad9e17a1b3f",
          "blockNumber": "0x2d88978",
          "blockTimestamp": "0x69c636c4",
          "transactionHash": "0x9c302355cdd2f10359dae456c5a145bb1433171fc999eaf86a647b5686d01f95",
          "transactionIndex": "0x6",
          "logIndex": "0xa",
          "removed": false
        },
        {
          "address": "0x6127fe036b9cd6435404e56365f904167298c640",
          "topics": [
            "0x9fcca7d4a4fe21922427fa68ae954a11518460e4298a953677db412ad22d6f39",
            "0x0000000000000000000000007819c1c15bd54a50e360a9b0cac9f796eedd770e",
            "0x71ada5ab3372c869764973261cb8119bc4f7024998abe85ef6f2436fcaaea3b5"
          ],
          "data": "0x00000000000000000000000000000000000000000000021e19e0c9bab2400000",
          "blockHash": "0xfe95310d7b2f5c7132fc4b70fca595efdec50c33c461c1c26f766ad9e17a1b3f",
          "blockNumber": "0x2d88978",
          "blockTimestamp": "0x69c636c4",
          "transactionHash": "0x9c302355cdd2f10359dae456c5a145bb1433171fc999eaf86a647b5686d01f95",
          "transactionIndex": "0x6",
          "logIndex": "0xb",
          "removed": false
        },
        {
          "address": "0x12f835580bd0937d83ed07ab7fc00330bebe3db9",
          "topics": [
            "0xddf252ad1be2c89b69c2b068fc378daa952ba7f163c4a11628f55a4df523b3ef",
            "0x000000000000000000000000c5b7b574ee84a9b59b475fe32eaf908c246d3859",
            "0x00000000000000000000000000b036b58a818b1bc34d502d3fe730db729e62ac"
          ],
          "data": "0x00000000000000000000000000000000000000000000021e19e0c9bab23ffde1",
          "blockHash": "0xfe95310d7b2f5c7132fc4b70fca595efdec50c33c461c1c26f766ad9e17a1b3f",
          "blockNumber": "0x2d88978",
          "blockTimestamp": "0x69c636c4",
          "transactionHash": "0x9c302355cdd2f10359dae456c5a145bb1433171fc999eaf86a647b5686d01f95",
          "transactionIndex": "0x6",
          "logIndex": "0xc",
          "removed": false
        },
        {
          "address": "0xccbd848ebdcabc0d314ad1612c2f3edc8661403a",
          "topics": [
            "0xddf252ad1be2c89b69c2b068fc378daa952ba7f163c4a11628f55a4df523b3ef",
            "0x000000000000000000000000c5b7b574ee84a9b59b475fe32eaf908c246d3859",
            "0x00000000000000000000000000b036b58a818b1bc34d502d3fe730db729e62ac"
          ],
          "data": "0x00000000000000000000000000000000000000000000021e19e0c9bab23ffde1",
          "blockHash": "0xfe95310d7b2f5c7132fc4b70fca595efdec50c33c461c1c26f766ad9e17a1b3f",
          "blockNumber": "0x2d88978",
          "blockTimestamp": "0x69c636c4",
          "transactionHash": "0x9c302355cdd2f10359dae456c5a145bb1433171fc999eaf86a647b5686d01f95",
          "transactionIndex": "0x6",
          "logIndex": "0xd",
          "removed": false
        }
      ],
      "logsBloom": "0x00000000000024000000000000000000000000000000000000000000040000000000000000000000000000000000000000000000001000404000000000000000000000000001000000000008000000000000000000010000000000000000000000000000000000000040000000004000000000000000000000000010001000000000000c01000000000000000008040000000000000000000080000200001000000004000000000000000000000000004000000000000020000000000000400040080002000000000800000000000000002000000000002000040000000000000000080010000004000000001000000004080000000202000000000000002010",
      "type": "0x2",
      "transactionHash": "0x9c302355cdd2f10359dae456c5a145bb1433171fc999eaf86a647b5686d01f95",
      "transactionIndex": "0x6",
      "blockHash": "0xfe95310d7b2f5c7132fc4b70fca595efdec50c33c461c1c26f766ad9e17a1b3f",
      "blockNumber": "0x2d88978",
      "gasUsed": "0x55605",
      "effectiveGasPrice": "0x7a121",
      "blobGasUsed": "0x104f0",
      "from": "0xc5b7b574ee84a9b59b475fe32eaf908c246d3859",
      "to": "0x5fa728c0a5cfd51bee4b060773f50554c0c8a7ab",
      "contractAddress": null,
      "daFootprintGasScalar": "0x190",
      "l1BaseFeeScalar": "0x7d0",
      "l1BlobBaseFee": "0x2",
      "l1BlobBaseFeeScalar": "0xdbba0",
      "l1Fee": "0x198",
      "l1GasPrice": "0x14",
      "l1GasUsed": "0xa76"
    },
    {
      "status": "0x1",
      "cumulativeGasUsed": "0xebaaf",
      "logs": [
        {
          "address": "0x00b036b58a818b1bc34d502d3fe730db729e62ac",
          "topics": [
            "0xdd466e674ea557f56295e2d0218a125ea4b4f0f6f3307b95f85e6110838d6438",
            "0x65bd407cdfa56292f3b062032458180b71ce5f003082050d45c8f74f565f956d",
            "0x000000000000000000000000a655a03eb74ab225e376d3d373691cc50955fd37",
            "0x000000000000000000000000ccbd848ebdcabc0d314ad1612c2f3edc8661403a"
          ],
          "data": "0x0000000000000000000000000000000000000000000000000000000000000bb8000000000000000000000000000000000000000000000000000000000000003c0000000000000000000000006127fe036b9cd6435404e56365f904167298c64000000000000000000000000000000000000000010000000000000000000000000000000000000000000000000000000000000000000000000000000000000000",
          "blockHash": "0x6468e215eaf00293d0897249448f42877be082c82b4636ed8ea720b140d30de2",
          "blockNumber": "0x2d8897c",
          "blockTimestamp": "0x69c636c8",
          "transactionHash": "0xd13ed4709610dbf081f7eb97ddf5d8fa0adaf710306121e2d5e3cffbfbc51668",
          "transactionIndex": "0x6",
          "logIndex": "0x10",
          "removed": false
        }
      ],
      "logsBloom": "0x00000000000000000000000000000000000000000000000000000000000000000000000000000000000000000000000000000200000000000000000000000000000000000000000000020000000000000000000000000000000000000000000000000000000000000000000000000000000000000000000000000000000000000000000008000008000000000008000000000001000000000000000000200000000000000000000000000000000000000000000000000000000021000000010000008000000000000000000000000000000000080000000000000000000000000000000000010000000000000000000000000000000002000000000000000010",
      "type": "0x2",
      "transactionHash": "0xd13ed4709610dbf081f7eb97ddf5d8fa0adaf710306121e2d5e3cffbfbc51668",
      "transactionIndex": "0x6",
      "blockHash": "0x6468e215eaf00293d0897249448f42877be082c82b4636ed8ea720b140d30de2",
      "blockNumber": "0x2d8897c",
      "gasUsed": "0xca16",
      "effectiveGasPrice": "0x7a121",
      "blobGasUsed": "0xdc50",
      "from": "0xc5b7b574ee84a9b59b475fe32eaf908c246d3859",
      "to": "0x00b036b58a818b1bc34d502d3fe730db729e62ac",
      "contractAddress": null,
      "daFootprintGasScalar": "0x190",
      "l1BaseFeeScalar": "0x7d0",
      "l1BlobBaseFee": "0x2",
      "l1BlobBaseFeeScalar": "0xdbba0",
      "l1Fee": "0x159",
      "l1GasPrice": "0x14",
      "l1GasUsed": "0x8d7"
    },
    {
      "status": "0x1",
      "cumulativeGasUsed": "0x32f46",
      "logs": [
        {
          "address": "0xa655a03eb74ab225e376d3d373691cc50955fd37",
          "topics": [
            "0x8c5be1e5ebec7d5bd14f71427d1e84f3dd0314c0f7b2291e5b200ac8c7c3b925",
            "0x000000000000000000000000c5b7b574ee84a9b59b475fe32eaf908c246d3859",
            "0x0000000000000000000000005fa728c0a5cfd51bee4b060773f50554c0c8a7ab"
          ],
          "data": "0x00000000000000000000000000000000000000000000021e19e0c9bab2400000",
          "blockHash": "0x0000000000000000000000000000000000000000000000000000000000000000",
          "blockNumber": "0x2d8897f",
          "blockTimestamp": "0x69c636cb",
          "transactionHash": "0x482dde1ab072cd3b55a91c03800670987f7719cc0f6b3a1a313fac1056fbdfbd",
          "transactionIndex": "0x3",
          "logIndex": "0x1",
          "removed": false
        }
      ],
      "logsBloom": "0x00000000000000000000000000000000000000000000000000000000000002000000000000000000000000000000000000000000000000000000000000200000000000000000000000000000000000000000000000000000000000000000000000000000000000000000000000000000000000000000000000000000000000000000000400000000000000000000000000000000000000000080000008000000020000000000000000000000000000004000000000000000000000000000000000080000000000000000000000000000000000000000000000000000000002000010000000000000000000001000000000080000000000000000000000000000",
      "type": "0x2",
      "transactionHash": "0x482dde1ab072cd3b55a91c03800670987f7719cc0f6b3a1a313fac1056fbdfbd",
      "transactionIndex": "0x3",
      "blockHash": "0x0000000000000000000000000000000000000000000000000000000000000000",
      "blockNumber": "0x2d8897f",
      "gasUsed": "0xb54e",
      "effectiveGasPrice": "0x7a121",
      "blobGasUsed": "0x9c40",
      "from": "0xc5b7b574ee84a9b59b475fe32eaf908c246d3859",
      "to": "0xa655a03eb74ab225e376d3d373691cc50955fd37",
      "contractAddress": null,
      "daFootprintGasScalar": "0x190",
      "l1BaseFeeScalar": "0x7d0",
      "l1BlobBaseFee": "0x1",
      "l1BlobBaseFeeScalar": "0xdbba0",
      "l1Fee": "0xd1",
      "l1GasPrice": "0x13",
      "l1GasUsed": "0x640"
    },
    {
      "status": "0x1",
      "cumulativeGasUsed": "0x97e8f",
      "logs": [
        {
          "address": "0xccbd848ebdcabc0d314ad1612c2f3edc8661403a",
          "topics": [
            "0x8c5be1e5ebec7d5bd14f71427d1e84f3dd0314c0f7b2291e5b200ac8c7c3b925",
            "0x000000000000000000000000c5b7b574ee84a9b59b475fe32eaf908c246d3859",
            "0x0000000000000000000000005fa728c0a5cfd51bee4b060773f50554c0c8a7ab"
          ],
          "data": "0x00000000000000000000000000000000000000000000021e19e0c9bab2400000",
          "blockHash": "0xa673be67aa3e3ae22e683f5a5edeea70b2e8594bb70ae6775e8bfa70f817299b",
          "blockNumber": "0x2d88985",
          "blockTimestamp": "0x69c636d1",
          "transactionHash": "0x711f7e85dd29f1b8cae4975fb03a68ac93db8dfec66a5d0fdc3dd33c57a56ef5",
          "transactionIndex": "0x7",
          "logIndex": "0x8",
          "removed": false
        }
      ],
      "logsBloom": "0x00000000000020000000000000000000000000000000000000000000000000000000000000000000000000000000000000000000000000004000000000200000000000000000000000000000000000000000000000000000000000000000000000000000000000000000000000000000000000000000000000000000000000000000000400000000000000000000000000000000000000000080000000000000020000000000000000000000000000004000000000000000000000000000000040080000000000000000000000000000000000000000000000000000000000000010000000000000000000001000000000080000000000000000000000000000",
      "type": "0x2",
      "transactionHash": "0x711f7e85dd29f1b8cae4975fb03a68ac93db8dfec66a5d0fdc3dd33c57a56ef5",
      "transactionIndex": "0x7",
      "blockHash": "0xa673be67aa3e3ae22e683f5a5edeea70b2e8594bb70ae6775e8bfa70f817299b",
      "blockNumber": "0x2d88985",
      "gasUsed": "0x7282",
      "effectiveGasPrice": "0x7a121",
      "blobGasUsed": "0x9c40",
      "from": "0xc5b7b574ee84a9b59b475fe32eaf908c246d3859",
      "to": "0xccbd848ebdcabc0d314ad1612c2f3edc8661403a",
      "contractAddress": null,
      "daFootprintGasScalar": "0x190",
      "l1BaseFeeScalar": "0x7d0",
      "l1BlobBaseFee": "0x1",
      "l1BlobBaseFeeScalar": "0xdbba0",
      "l1Fee": "0x96",
      "l1GasPrice": "0x13",
      "l1GasUsed": "0x640"
    },
    {
      "status": "0x1",
      "cumulativeGasUsed": "0x7cff1",
      "logs": [
        {
          "address": "0x00b036b58a818b1bc34d502d3fe730db729e62ac",
          "topics": [
            "0xf208f4912782fd25c7f114ca3723a2d5dd6f3bcc3ac8db5af63baa85f711d5ec",
            "0x65bd407cdfa56292f3b062032458180b71ce5f003082050d45c8f74f565f956d",
            "0x0000000000000000000000005fa728c0a5cfd51bee4b060773f50554c0c8a7ab"
          ],
          "data": "0xfffffffffffffffffffffffffffffffffffffffffffffffffffffffffff2764c00000000000000000000000000000000000000000000000000000000000d89b400000000000000000000000000000000000000000000021e19e0c9bab24000000000000000000000000000000000000000000000000000000000000000000000",
          "blockHash": "0x0000000000000000000000000000000000000000000000000000000000000000",
          "blockNumber": "0x2d8898b",
          "blockTimestamp": "0x69c636d7",
          "transactionHash": "0x6a035efe72694ccc855b8d7b37cb8d4b13be68952cb27bef1603e624301fe289",
          "transactionIndex": "0x3",
          "logIndex": "0x1",
          "removed": false
        },
        {
          "address": "0x8b1800805b478fb66bb58331662899157cec4dd4",
          "topics": [
            "0xa56e19c5f806ae66a3b7d8c0b92d13ddf628502c9b47f577580f5f6a4e1deb2a",
            "0x0000000000000000000000000a225822d948f4788568ebcf658ff1b85791af82",
            "0x65bd407cdfa56292f3b062032458180b71ce5f003082050d45c8f74f565f956d"
          ],
          "data": "0x00000000000000000000000000000000000000000000021e19e0c9bab2400000",
          "blockHash": "0x0000000000000000000000000000000000000000000000000000000000000000",
          "blockNumber": "0x2d8898b",
          "blockTimestamp": "0x69c636d7",
          "transactionHash": "0x6a035efe72694ccc855b8d7b37cb8d4b13be68952cb27bef1603e624301fe289",
          "transactionIndex": "0x3",
          "logIndex": "0x2",
          "removed": false
        },
        {
          "address": "0x6127fe036b9cd6435404e56365f904167298c640",
          "topics": [
            "0x9fcca7d4a4fe21922427fa68ae954a11518460e4298a953677db412ad22d6f39",
            "0x0000000000000000000000000a225822d948f4788568ebcf658ff1b85791af82",
            "0x65bd407cdfa56292f3b062032458180b71ce5f003082050d45c8f74f565f956d"
          ],
          "data": "0x00000000000000000000000000000000000000000000021e19e0c9bab2400000",
          "blockHash": "0x0000000000000000000000000000000000000000000000000000000000000000",
          "blockNumber": "0x2d8898b",
          "blockTimestamp": "0x69c636d7",
          "transactionHash": "0x6a035efe72694ccc855b8d7b37cb8d4b13be68952cb27bef1603e624301fe289",
          "transactionIndex": "0x3",
          "logIndex": "0x3",
          "removed": false
        },
        {
          "address": "0xa655a03eb74ab225e376d3d373691cc50955fd37",
          "topics": [
            "0xddf252ad1be2c89b69c2b068fc378daa952ba7f163c4a11628f55a4df523b3ef",
            "0x000000000000000000000000c5b7b574ee84a9b59b475fe32eaf908c246d3859",
            "0x00000000000000000000000000b036b58a818b1bc34d502d3fe730db729e62ac"
          ],
          "data": "0x00000000000000000000000000000000000000000000021e19e0c9bab23ffde1",
          "blockHash": "0x0000000000000000000000000000000000000000000000000000000000000000",
          "blockNumber": "0x2d8898b",
          "blockTimestamp": "0x69c636d7",
          "transactionHash": "0x6a035efe72694ccc855b8d7b37cb8d4b13be68952cb27bef1603e624301fe289",
          "transactionIndex": "0x3",
          "logIndex": "0x4",
          "removed": false
        },
        {
          "address": "0xccbd848ebdcabc0d314ad1612c2f3edc8661403a",
          "topics": [
            "0xddf252ad1be2c89b69c2b068fc378daa952ba7f163c4a11628f55a4df523b3ef",
            "0x000000000000000000000000c5b7b574ee84a9b59b475fe32eaf908c246d3859",
            "0x00000000000000000000000000b036b58a818b1bc34d502d3fe730db729e62ac"
          ],
          "data": "0x00000000000000000000000000000000000000000000021e19e0c9bab23ffde1",
          "blockHash": "0x0000000000000000000000000000000000000000000000000000000000000000",
          "blockNumber": "0x2d8898b",
          "blockTimestamp": "0x69c636d7",
          "transactionHash": "0x6a035efe72694ccc855b8d7b37cb8d4b13be68952cb27bef1603e624301fe289",
          "transactionIndex": "0x3",
          "logIndex": "0x5",
          "removed": false
        }
      ],
      "logsBloom": "0x000000000000a4000000000000000000000000000000000000000000000002000000000000000000000000000000000000000000001000004000000000000000000000000001000000000008000000000000000000010000000000010000000000000000000000000000000000004000000000000000000000000010000000000000000401000000000000000008040000000000000000000080004208001000000004000000000000000000000000004000000000000020000001000000410040080002000000000000000000000000002000000000002000000000000002000000080010010000000000001000000004080000000202000000000000000010",
      "type": "0x2",
      "transactionHash": "0x6a035efe72694ccc855b8d7b37cb8d4b13be68952cb27bef1603e624301fe289",
      "transactionIndex": "0x3",
      "blockHash": "0x0000000000000000000000000000000000000000000000000000000000000000",
      "blockNumber": "0x2d8898b",
      "gasUsed": "0x55605",
      "effectiveGasPrice": "0x7a121",
      "blobGasUsed": "0x10360",
      "from": "0xc5b7b574ee84a9b59b475fe32eaf908c246d3859",
      "to": "0x5fa728c0a5cfd51bee4b060773f50554c0c8a7ab",
      "contractAddress": null,
      "daFootprintGasScalar": "0x190",
      "l1BaseFeeScalar": "0x7d0",
      "l1BlobBaseFee": "0x2",
      "l1BlobBaseFeeScalar": "0xdbba0",
      "l1Fee": "0x14e",
      "l1GasPrice": "0x13",
      "l1GasUsed": "0xa68"
    }
  ],
  "libraries": [],
  "pending": [],
  "returns": {},
  "timestamp": 1774597846881,
  "chain": 1301,
  "commit": "2ad8efc"
}